2015610011078128000999V1010000000001200000000000N0000000001200000400061000216813095GARIN CHAVEZ EDUARDO                                        201001151561125821A00020100111                                                                        00999
2003130011035238000999V1010000000001200000000000N0000000001200000400061002016803094VALENCIA PLASCENCIA                                         201001150313134507A00020100111                                                                        00999
2015610011007580000999V1010000000001200000000000N0000000001200000400061003716813094ALFREDO ZUÅOGA                                              201001151561144503A00020100111                                                                        00999
2015670011008752000999V1010000000001200000000000N0000000001200000400061014419713093JORGE ALEJANDRO HERE                                        201001151567144334A00020100111                                                                        00999
2015670011006065000999V1010000000001200000000000N0000000001200000400061014420073099JORGE ALEJANDRO HERE                                        201001151567144203A00020100111                                                                        00999
2015670011007258000999V1010000000001200000000000N0000000001200000400061014420223090JORGE ALEJANDRO HERE                                        201001151567144448A00020100111                                                                        00999
2015670011099056000999V1010000000001200000000000N0000000001200000400061014421173096JORGE ALEJANDRO HERE                                        201001151567144030A00020100111                                                                        00999
2015360011087316000999V1010000000001200000000000N0000000001200000400061026920263095GODINEZ CONTRERAS JO                                        201001151536130853A00020100111                                                                        00999
2001670011099603000999V1010000000001200000000000N0000000001200000400061032020973096SALDAÅA TORRES OSCAR                                        201001150167155831A00020100111                                                                        00999
2015620011045212000999V1010000000001200000000000N0000000001200000400063010316933097GARCIA RAMOS LISSETT                                        201001151562151251A00020100111                                                                        00999
2015620011043680000999V1010000000001200000000000N0000000001200000400063010320573095GARCIA RAMOS LISSETE                                        201001151562151345A00020100111                                                                        00999
2015620011037269000999V1010000000001200000000000N0000000001200000400063010325413099GARCIA RAMOS LISSETE                                        201001151562151137A00020100111                                                                        00999
2003130011028133000999V1010000000001200000000000N0000000001200000400063017024043093RODRIGUEZ MORENO E R                                        201001150313133635A00020100111                                                                        00999
2015300011017076000999V1010000000001200000000000N0000000001200000400071008017803098FLORES C ARANZAZUÙ                                          201001151530161811A00020100111                                                                        00999
2015300011019209000999V1010000000001200000000000N0000000001200000400071008023993099FLORES C ARANZAZU                                           201001151530161709A00020100111                                                                        00999
2015190011057474000999V1010000000001200000000000N0000000001200000400071017121203095JAIME FLORES CITLALL                                        201001151519152205A00020100111                                                                        00999
2001730011000689000999V1010000000001200000000000N0000000001200000400073004717073098JORGE E DIAZ VERDIN                                         201001150173131638A00020100111                                                                        00999
2001730011098448000999V1010000000001200000000000N0000000001200000400073004723993099JORGE E DIAZ VERDIN                                         201001150173131500A00020100111                                                                        00999
2015300011035865000999V1010000000001200000000000N0000000001200000400073006117013095GALICIA MORAN LESLY                                         201001151530150636A00020100111                                                                        00999
2022880011060472000999V1010000000001200000000000N0000000001200000400073009917823093GARCIA LARIOS EDGAR                                         201001152288165723A00020100111                                                                        00999
2022880011057669000999V1010000000001200000000000N0000000001200000400073009922303099EDGAR ISRAEL GARCIA                                         201001152288165945A00020100111                                                                        00999
2022880011058921000999V1010000000001200000000000N0000000001200000400073009924163095GARCIA LARIOS EDGAR                                         201001152288165855A00020100111                                                                        00999
2022880011050650000999V1010000000001200000000000N0000000001200000400073011120683090ORTIZ MENDOZA ABRAHA                                        201001152288165242A00020100111                                                                        00999
2003130011038263000999V1010000000001200000000000N0000000001200000400073033423833099MEJIA SALAZAR DAVID                                         201001150313151151A00020100111                                                                        00999
2004990011070566000999V1010000000001200000000000N0000000001200000400073039123513097LARIOS AGUIRRE ANTON                                        201001150499125145A00020100111                                                                        00999
2004990011071823000999V1010000000001200000000000N0000000001200000400073039125913097LARIOS AGUIRRE ANTON                                        201001150499125328A00020100111                                                                        00999
2014200011057526000999V1010000000001200000000000N0000000001200000400073045022653090LUPERCIO TRUJILLO CE                                        201001151420140545A00020100111                                                                        00999
2001690011036942000999V1010000000001200000000000N0000000001200000400081004223223096GARZA PEREZ DANIEL                                          201001150169151031A00020100111                                                                        00999
2015300011008052000999V1010000000001200000000000N0000000001200000400081007723403092TOVAR SALAS JOSE DE                                         201001151530132215A00020100111                                                                        00999
2015300011005953000999V1010000000001200000000000N0000000001200000400081007724893093TOVAR SALAS JOSE DE                                         201001151530132105A00020100111                                                                        00999
2015670011037979000999V1010000000001200000000000N0000000001200000400081007921703095ARTURO ROMAN GOMEZ                                          201001151567163828A00020100111                                                                        00999
2015670011035029000999V1010000000001200000000000N0000000001200000400081007922353098ARTURO ROMAN GOMEZ                                          201001151567163719A00020100111                                                                        00999
2015670011035386000999V1010000000001200000000000N0000000001200000400081007927153097ROMAN BGOMEZ ARTURO                                         201001151567163559A00020100111                                                                        00999
2022850011002384000999V1010000000001200000000000N0000000001200000400083001916723091ANYA DE LA VEGA R                                           201001152285143540A00020100111                                                                        00999
2022850011094325000999V1010000000001200000000000N0000000001200000400083001922103098NAYA DE LA VEGA R                                           201001152285143357A00020100111                                                                        00999
2015110011015518000999V1010000000001200000000000N0000000001200000400083006416723095CARRILLO ESPARZA MON                                        201001151511161341A00020100111                                                                        00999
2015110011014850000999V1010000000001200000000000N0000000001200000400083006422103092CARRILLO ESPARZA MON                                        201001151511161218A00020100111                                                                        00999
2022880011081811000999V1010000000001200000000000N0000000001200000400083009717023090COVARRUBIAS PACHECO                                         201001152288130048A00020100111                                                                        00999
2022880011065906000999V1010000000001200000000000N0000000001200000400083009717383098COVARRUBIAS PACHECO                                         201001152288125140A00020100111                                                                        00999
2022880011079983000999V1010000000001200000000000N0000000001200000400083009722103093COVARRUBIAS PACHECO                                         201001152288125920A00020100111                                                                        00999
2022880011077878000999V1010000000001200000000000N0000000001200000400083009723753094COVARRUBIAS PACHECO                                         201001152288125733A00020100111                                                                        00999
2022880011071125000999V1010000000001200000000000N0000000001200000400083009724763092COVARRUBIAS PACHECO                                         201001152288125550A00020100111                                                                        00999
2022880011072979000999V1010000000001200000000000N0000000001200000400083009724903094COVARRUBIAS PACHECO                                         201001152288125346A00020100111                                                                        00999
2022850011094022000999V1010000000001200000000000N0000000001200000400083021516963095HERNANDEZ MU OZ CRIS                                        201001152285143338A00020100111                                                                        00999
2022850011092352000999V1010000000001200000000000N0000000001200000400083021517023097HERNANDEZ MU OZ CRIS                                        201001152285143442A00020100111                                                                        00999
2022850011097390000999V1010000000001200000000000N0000000001200000400083021522103090HERNANDEZ MU OZ CRIS                                        201001152285143220A00020100111                                                                        00999
2014200011006754000999V1010000000001200000000000N0000000001200000400083022119593099HERNANDEZ VERGARA MO                                        201001151420131955A00020100111                                                                        00999
2004990011086499000999V1010000000001200000000000N0000000001200000400083026422123098LUNAR GARCIA FLOR DE                                        201001150499130822A00020100111                                                                        00999
2004990011092595000999V1010000000001200000000000N0000000001200000400083026422323094LUNAR GARCIA FLOR DE                                        201001150499130925A00020100111                                                                        00999
2015390011075837000999V1010000000001200000000000N0000000001200000400083037420003091RAMIREZ MARES DAVID                                         201001151539154500A00020100111                                                                        00999
2015390011083050000999V1010000000001200000000000N0000000001200000400083037421443098RAMIREZ MARES DAVID                                         201001151539154911A00020100111                                                                        00999
2015390011083549000999V1010000000001200000000000N0000000001200000400083037425823097DAVID RAMIREZ MARES                                         201001151539154704A00020100111                                                                        00999
2022940011074731000999V1010000000001200000000000N0000000001200000400083041022123091RODRIGUEZ MENDOZA                                           201001152294141349A00020100111                                                                        00999
2022940011075124000999V1010000000001200000000000N0000000001200000400083041022323097RODRIGUEZ MENDOZA                                           201001152294141637A00020100111                                                                        00999
2022940011076961000999V1010000000001200000000000N0000000001200000400083041024063097RODRIGUEZ MENDOZA                                           201001152294141535A00020100111                                                                        00999
2022940011074917000999V1010000000001200000000000N0000000001200000400083041024873099RODRIGUEZ MENDOZA                                           201001152294141442A00020100111                                                                        00999
2022940011079528000999V1010000000001200000000000N0000000001200000400083041025283090RODRIGUEZ MENDOZA                                           201001152294141827A00020100111                                                                        00999
2022940011069914000999V1010000000001200000000000N0000000001200000400083041026063095RODRIGUEZ MENDOZA                                           201001152294141232A00020100111                                                                        00999
2015110011053680000999V1010000000001200000000000N0000000001200000400083042222123097RUIZ FRIAS JAIR                                             201001151511151840A00020100111                                                                        00999
2015620011043056000999V1010000000001200000000000N0000000001200000400083045720393096TRISTAN DELGADILLO I                                        201001151562151315A00020100111                                                                        00999
2004910011012831000999V1010000000001200000000000N0000000001200000400910000418223096AGUAYO ARCE JULIO MA                                        201001150491132427A00020100111                                                                        00999
2004910011008938000999V1010000000001200000000000N0000000001200000400910000425993095AGUAYO ARCE JULIO                                           201001150491132611A00020100111                                                                        00999
2004910011081765000999V1010000000001200000000000N0000000001200000400910012222173094ESPINOSA GARCIA PEDR                                        201001150491154535A00020100111                                                                        00999
2004910011080672000999V1010000000001200000000000N0000000001200000400910012222873099ESPINOSA GARCIA PEDR                                        201001150491154656A00020100111                                                                        00999
2004910011086500000999V1010000000001200000000000N0000000001200000400910012224103099ESPINOSA GARCIA PEDR                                        201001150491154805A00020100111                                                                        00999
2015660011071952000999V1010000000001200000000000N0000000001200000400910018616543099GONZALEZ JASSO MARYC                                        201001151566125324A00020100111                                                                        00999
2015660011071698000999V1010000000001200000000000N0000000001200000400910018624103092GONZALEZ JASSO MARYC                                        201001151566125233A00020100111                                                                        00999
2015660011073812000999V1010000000001200000000000N0000000001200000400910018624743095GONZALEZ JASSO MARYC                                        201001151566125426A00020100111                                                                        00999
2015210011025139000999V1010000000001200000000000N0000000001200000400910029621433093MARTINEZ MEDEROS JOS                                        201001151521133929A00020100111                                                                        00999
2015210011023739000999V1010000000001200000000000N0000000001200000400910029622383099MTZ MEDEROS JOSE A                                          201001151521133552A00020100111                                                                        00999
2015210011023435000999V1010000000001200000000000N0000000001200000400910029625603097MARTINEZ MEDEROS                                            201001151521133759A00020100111                                                                        00999
2015610011004877000999V1010000000001200000000000N0000000001200000400910030716303092MEJIA SANDOVAL                                              201001151561160832A00020100111                                                                        00999
2015610011000919000999V1010000000001200000000000N0000000001200000400910030721413092SALVADOR MEJIA SANDO                                        201001151561160215A00020100111                                                                        00999
2015610011006635000999V1010000000001200000000000N0000000001200000400910030721773099SALVADOR MEJIA SANDO                                        201001151561160403A00020100111                                                                        00999
2015610011005105000999V1010000000001200000000000N0000000001200000400910030722163092SALVADOR MEJIA SAND                                         201001151561160311A00020100111                                                                        00999
2015610011008307000999V1010000000001200000000000N0000000001200000400910030722203096MEJIA SANDOVAL                                              201001151561160730A00020100111                                                                        00999
2015610011096085000999V1010000000001200000000000N0000000001200000400910030722863097SALVADOR MEJIA SAND                                         201001151561155448A00020100111                                                                        00999
2015610011097421000999V1010000000001200000000000N0000000001200000400910030724903099SALVADOR MEJIA SANDO                                        201001151561155556A00020100111                                                                        00999
2015610011091049000999V1010000000001200000000000N0000000001200000400910030725543092SALVADOR MEJIA SANDO                                        201001151561155330A00020100111                                                                        00999
2022940011080141000999V1010000000001200000000000N0000000001200000400930006821463092BECERRA RAMIREZ HECT                                        201001152294154300A00020100111                                                                        00999
2022940011074874000999V1010000000001200000000000N0000000001200000400930006823613090BECERRA RAMIREZ HECT                                        201001152294154141A00020100111                                                                        00999
2001670011031271000999V1010000000001200000000000N0000000001200000400930008123473092CABRERA ARIAS SAIRA                                         201001150167150045A00020100111                                                                        00999
2004980011067596000999V1010000000001200000000000N0000000001200000400930008727093098CAMACHO LOPEZ ERIK                                          201001150498141126A00020100111                                                                        00999
2004980011070165000999V1010000000001200000000000N0000000001200000400930008727123093CAMACHO LOPEZ ERIK                                          201001150498141332A00020100111                                                                        00999
2015610011096974000999V1010000000001200000000000N0000000001200000400930009823613094CASTAÅEDA FERNANDEZ                                         201001151561160146A00020100111                                                                        00999
2022850011091807000999V1010000000001200000000000N0000000001200000400930015026463096DURAN MACIAS RUBEN D                                        201001152285130940A00020100111                                                                        00999
2004940011057874000999V1010000000001200000000000N0000000001200000400930015222623097ENRIQUEZ LOZANO JENN                                        201001150494140303A00020100111                                                                        00999
2019480011047840000999V1010000000001200000000000N0000000001200000400930022217053090GONZALEZ ECHEGOLLEN                                         201001151948135749A00020100111                                                                        00999
2019480011053437000999V1010000000001200000000000N0000000001200000400930022220943097GONZALEZ ECHEGOLLEN                                         201001151948135946A00020100111                                                                        00999
2015610011050226000999V1010000000001200000000000N0000000001200000400930026020963098HERNANDEZ BALTAZAR                                          201001151561151843A00020100111                                                                        00999
2015610011050617000999V1010000000001200000000000N0000000001200000400930026022243093HERNANDEZ BALTAZAR                                          201001151561152002A00020100111                                                                        00999
2015590011058745000999V1010000000001200000000000N0000000001200000400930027121383095REYNA HERNANDEZ                                             201001151559140423A00020100111                                                                        00999
2015590011057190000999V1010000000001200000000000N0000000001200000400930027126843093REYNA HERNANDEZ                                             201001151559140530A00020100111                                                                        00999
2022850011038799000999V1010000000001200000000000N0000000001200000400930034220793091MARTINEZ BRITO S                                            201001152285134804A00020100111                                                                        00999
2022850011044576000999V1010000000001200000000000N0000000001200000400930034222703098MARTINEZ BRITO S                                            201001152285135230A00020100111                                                                        00999
2022850011043904000999V1010000000001200000000000N0000000001200000400930034224083093MARTINEZ BRITO S                                            201001152285135011A00020100111                                                                        00999
2022850011033401000999V1010000000001200000000000N0000000001200000400930034226173090MARTINEZ BRITO S                                            201001152285134614A00020100111                                                                        00999
2006440011070102000999V1010000000001200000000000N0000000001200000400930036317063098MELENDEZ PONCE GABRI                                        201001150644125104A00020100111                                                                        00999
2006440011063736000999V1010000000001200000000000N0000000001200000400930036322823098MELENDEZ PONCE GABRI                                        201001150644124951A00020100111                                                                        00999
2006440011066156000999V1010000000001200000000000N0000000001200000400930036326643096MELENDEZ PONCEL GABR                                        201001150644124827A00020100111                                                                        00999
2001670011067184000999V1010000000001200000000000N0000000001200000400930036917063092MENDOZA SANCHEZ ROGE                                        201001150167140811A00020100111                                                                        00999
2001670011070074000999V1010000000001200000000000N0000000001200000400930036921543097ROGELIO MENDOZA SANC                                        201001150167141037A00020100111                                                                        00999
2001670011066249000999V1010000000001200000000000N0000000001200000400930036922823092ROGELIO MENDOZA SANC                                        201001150167140934A00020100111                                                                        00999
2001670011065316000999V1010000000001200000000000N0000000001200000400930036925563091ROGELIO MENDOZA SANC                                        201001150167141146A00020100111                                                                        00999
2019480011095426000999V1010000000001200000000000N0000000001200000400930039922253096NAVARRO CASTRO JOSE                                         201001151948155547A00020100111                                                                        00999
2022850011001930000999V1010000000001200000000000N0000000001200000400930041917463094ORTIZ ORTIZ RAUL                                            201001152285143726A00020100111                                                                        00999
2022850011000923000999V1010000000001200000000000N0000000001200000400930041922823092ORTIZ ORTIZ RAUL                                            201010152285143632A00020100111                                                                        00999
2015670011037649000999V1010000000001200000000000N0000000001200000400930042023453094OSORIO RIVERA OLGA L                                        201001151567163926A00020100111                                                                        00999
2015670011037126000999V1010000000001200000000000N0000000001200000400930042024083098ROSARIO RIVERA OLGA                                         201001151567164103A00020100111                                                                        00999
2015670011046884000999V1010000000001200000000000N0000000001200000400930042026173095OSORIO RIVERA OLGA                                          201001151567164252A00020100111                                                                        00999
2002370011050602000999V1010000000001200000000000N0000000001200000400930043218523097PEREZ ACOSTA DAVID                                          201001150237151551A00020100111                                                                        00999
2002370011037603000999V1010000000001200000000000N0000000001200000400930043222693092PEREZ ACOSTA DAVID A                                        201001150237151150A00020100111                                                                        00999
2002370011044084000999V1010000000001200000000000N0000000001200000400930043224073095PEREZ ACOSTA DAVID                                          201001150237151404A00020100111                                                                        00999
2002370011044327000999V1010000000001200000000000N0000000001200000400930043225983094PEREZ ACOSTA DAVID                                          201001150237151745A00020100111                                                                        00999
2022850011019630000999V1010000000001200000000000N0000000001200000400930043623933097PEREZ MERCADO EDGAR                                         201001152285132944A00020100111                                                                        00999
2022850011020403000999V1010000000001200000000000N0000000001200000400930043624333099PEREZ MERCADO EDGAR                                         201001152285133042A00020100111                                                                        00999
2022850011029239000999V1010000000001200000000000N0000000001200000400930045618523098PRECIADO SANCHEZ CHR                                        201001152285134245A00020100111                                                                        00999
2022850011029873000999V1010000000001200000000000N0000000001200000400930045624073096PRECIADO SANCHEZ CHR                                        201001152285134042A00020100111                                                                        00999
2022850011031257000999V1010000000001200000000000N0000000001200000400930045625983095PRECIADO SANCHEZ CHR                                        201001152285134147A00020100111                                                                        00999
2015210011014854000999V1010000000001200000000000N0000000001200000400930048020953093RESENDIZ FLORES DAVI                                        201001151521144928A00020100111                                                                        00999
2015210011008886000999V1010000000001200000000000N0000000001200000400930048023633098RESENDIZ FLORES DAVI                                        201001151521144812A00020100111                                                                        00999
2015620011091167000999V1010000000001200000000000N0000000001200000400930052518543093RUIZ MARTINEZ FELIPE                                        201001151562143128A00020100111                                                                        00999
2015620011096348000999V1010000000001200000000000N0000000001200000400930052520723097RUIZ MARTINEZ FELIPE                                        201001151562143258A00020100111                                                                        00999
2015620011094085000999V1010000000001200000000000N0000000001200000400930052521483097RUIZ MARTINEZ FELIPE                                        201001151562143210A00020100111                                                                        00999
2015620011090976000999V1010000000001200000000000N0000000001200000400930052524073093RUIZ MARTINEZ FELIPE                                        201001151562143334A00020100111                                                                        00999
2015620011096700000999V1010000000001200000000000N0000000001200000400930052525983092RUIZ MARTINEZFELIP                                          201001151562143434A00020100111                                                                        00999
2022850011098527000999V1010000000001200000000000N0000000001200000400930053023933092SALAS OLGUIN EDUARDO                                        201001152285131753A00020100111                                                                        00999
2019000011019561000999V1010000000001200000000000N0000000001200000400930060420723091VERA BELTRAN JOSE MI                                        201001151900162336A00020100111                                                                        00999
2019000011020446000999V1010000000001200000000000N0000000001200000400930060421483091VERA BELTRAN JOSE MI                                        201001151900162429A00020100111                                                                        00999
2019000011028719000999V1010000000001200000000000N0000000001200000400930060422693094VERA BELTRAN JOSE MI                                        201001151900162555A00020100111                                                                        00999
2019000011030039000999V1010000000001200000000000N0000000001200000400930060424073097VERA BELTRAN JOSE MI                                        201001151900162653A00020100111                                                                        00999
2019000011028015000999V1010000000001200000000000N0000000001200000400930060425983096VERA BELTRAN JOSE MI                                        201001151900162519A00020100111                                                                        00999
2019730011086834000999V1010000000001200000000000N0000000001200000400930115921733096CAMARENA RAMIREZ ALA                                        201001151973142521A00020100111                                                                        00999
2019730011088002000999V1010000000001200000000000N0000000001200000400930115921953090CAMARENA RAMIREZ ALA                                        201001151973142412A00020100111                                                                        00999
2019730011089722000999V1010000000001200000000000N0000000001200000400930115922633097CAMARENA RAMIREZ ALA                                        201001151973142737A00020100111                                                                        00999
2019730011090390000999V1010000000001200000000000N0000000001200000400930115924433090CAMARENA RAMIREZ ALA                                        201001151973142634A00020100111                                                                        00999
2004910011029727000999V1010000000001200000000000N0000000001200000400930117621953099IRETA VELAZQUEZ CESA                                        201001150491150443A00020100111                                                                        00999
2019000011088805000999V1010000000001500000000000N0000000001500000401000035836320099GUILLERMO DAVID ENCI                                        201001151900154952A00020100111                                                                        00999
2015210011013732000999V1010000000001500000000000N0000000001500000401000056913320091RICARDO FRAUSTROS SA                                        201001151521161502A00020100111                                                                        00999
2015300011018216000999V1010000000001500000000000N0000000001500000500071008022263095FLORES C ARANZAZU                                           201001151530161922A00020100111                                                                        00999
2015120011098112000999V1010000000001500000000000N0000000001500000500073042618203098SANCHEZ LANDEROS                                            201001151512143549A00020100111                                                                        00999
2015120011003280000999V1010000000001500000000000N0000000001500000500073042627153094SANCHEZ LANDEROS                                            201001151512143703A00020100111                                                                        00999
2022940011072131000999V1010000000001500000000000N0000000001500000500083041021973097RODRIGUEZ MENDOZA                                           201001152294141720A00020100111                                                                        00999
2015210011032621000999V1010000000001500000000000N0000000001500000500910029627203091MARTINEZ MEDEROS J A                                        201001151521134110A00020100111                                                                        00999
2015300011087404000999V1010000000001700000000000N0000000001700000501000045791320098GUERRERO ULLOA MARIO                                        201001151530154842A00020100111                                                                        00999
2015210011011362000999V1010000000001700000000000N0000000001700000501000056909320094RICARDO FRAUSTROS SA                                        201001151521161234A00020100111                                                                        00999
2015210011015333000999V1010000000001700000000000N0000000001700000501000056910320091RICARDO FRAUTROS SAN                                        201001151521161638A00020100111                                                                        00999
2015620012043562000999V1010000000001200000000000N0000000001200000400051042322183098RAMIREZ FAJARDO JUAN                                        201001151562151643A00020100112                                                                        00999
2015790012088075000999V1010000000001200000000000N0000000001200000400053023916823099COLIN TAMAYO MIRIAM                                         201001151579114922A00020100112                                                                        00999
2015790012093517000999V1010000000001200000000000N0000000001200000400061000616823090COLIN TAMAYO VIRIDIA                                        201001151579115024A00020100112                                                                        00999
2006440012076797000999V1010000000001200000000000N0000000001200000400061006716823096GARCIA GUTIRREZ MARI                                        201001150644113519A00020100112                                                                        00999
2019730012098776000999V1010000000001200000000000N0000000001200000400061008123363096FRAGOSO MARTINEZ BER                                        201001151973143522A00020100112                                                                        00999
2015300012010084000999V1010000000001200000000000N0000000001200000400061008423363093SIORDIA RUIZ JORGE S                                        201001151530103947A00020100112                                                                        00999
2003130012002234000999V1010000000001200000000000N0000000001200000400061008824363098ATRISTAIN COSS LILIA                                        201001150313161019A00020100112                                                                        00999
2003130012098658000999V1010000000001200000000000N0000000001200000400061008826783095120                                                         201001150313160810A00020100112                                                                        00999
2015110012064194000999V1010000000001200000000000N0000000001200000400061017118773094ESPARZA SALZARA RODR                                        201001151511140543A00020100112                                                                        00999
2015110012062129000999V1010000000001200000000000N0000000001200000400061017119413096ESPARZA SALAZAR RODR                                        201001151511140356A00020100112                                                                        00999
2015110012067540000999V1010000000001200000000000N0000000001200000400061017119953091ESPERZA SALAZAR RODR                                        201001151511140830A00020100112                                                                        00999
2015610012004518000999V1010000000001200000000000N0000000001200000400061018918783093SEPULVEDA CHIÅAS OSC                                        201001151561115713A00020100112                                                                        00999
2015110012071100000999V1010000000001200000000000N0000000001200000400061021019863095CALDERON ZARATE CRIS                                        201001151511141130A00020100112                                                                        00999
2015110012069569000999V1010000000001200000000000N0000000001200000400061021027613094CALDERON ZARATE CRIS                                        201001151511141015A00020100112                                                                        00999
2022850012076987000999V1010000000001200000000000N0000000001200000400063006616903095NAVA IÅIGUEZ SERGIO                                         201001152285154326A00020100112                                                                        00999
2006440012010598000999V1010000000001200000000000N0000000001200000400063011923863099ZARAZUA VAZQUEZ GRIS                                        201001150644132836A00020100112                                                                        00999
2001730012032368000999V1010000000001200000000000N0000000001200000400063014017783090LUIS E TAMAYO SANCHE                                        201001150173121926A00020100112                                                                        00999
2001730012033893000999V1010000000001200000000000N0000000001200000400063014023713099LUIS E TAMAYO SANCHE                                        201001150173122151A00020100112                                                                        00999
2001730012034139000999V1010000000001200000000000N0000000001200000400063014023873091LUIS E TAMAYO SANCHE                                        201001150173122043A00020100112                                                                        00999
2002050012068940000999V1010000000001500000000000N0000000001500000400063020920223090DIAZ TORES MARIANA                                          201001150205112933A00020100112                                                                        00999
2004980012058859000999V1010000000001200000000000N0000000001200000400063027620003094UGALDE ANGULO ARIEL                                         201001150498112250A00020100112                                                                        00999
2004980012064210000999V1010000000001200000000000N0000000001200000400063027623813093UGALDE ANGULO ARIEL                                         201001150498112645A00020100112                                                                        00999
2004980012064560000999V1010000000001200000000000N0000000001200000400063027624823091UGALDE ANGULO ARIEL                                         201001150498112513A00020100112                                                                        00999
2001670012011018000999V1010000000001200000000000N0000000001200000400063029618793090VILLALOBOS TINOCO JO                                        201001150167120355A00020100112                                                                        00999
2001670012010789000999V1010000000001200000000000N0000000001200000400063029622403090VILLALOBOS TINOCO JO                                        201001150167120209A00020100112                                                                        00999
2001670012006894000999V1010000000001200000000000N0000000001200000400063029918793097CORONA RIVAS MARIA                                          201001150167161511A00020100112                                                                        00999
2000200012044016000999V1010000000001200000000000N0000000001200000400063032620033091CARLOS EDUARDO HURTA                                        201001150020110829A00020100112                                                                        00999
2000200012041514000999V1010000000001200000000000N0000000001200000400063032622403094CARLOS EDUARDO HURTA                                        201001150020110651A00020100112                                                                        00999
2000200012026788000999V1010000000001200000000000N0000000001200000400063033122393090GALINDO NORIEGA SERG                                        201001150020133646A00020100112                                                                        00999
2001670012019696000999V1010000000001200000000000N0000000001200000400063033722393094ROMERO GOMEZ GABRIEL                                        201001150167121036A00020100112                                                                        00999
2001670012016874000999V1010000000001200000000000N0000000001200000400063033722443097ROMERO GOMEZ GABRIEL                                        201001150167121240A00020100112                                                                        00999
2001670012023463000999V1010000000001200000000000N0000000001200000400063033722453096ROMERO GOMEZ GABRIEL                                        201001150167121149A00020100112                                                                        00999
2015610012040831000999V1010000000001200000000000N0000000001200000400063034022393099CORNEJO ORTEGA ANGEL                                        201001151561122556A00020100112                                                                        00999
2004910012041822000999V1010000000001200000000000N0000000001200000400063037820493094RODARTE LOPEZ DANIEL                                        201001150491122811A00020100112                                                                        00999
2004910012037544000999V1010000000001200000000000N0000000001200000400063037822023097RODARTE LOPEZ DANIEL                                        201001150491122907A00020100112                                                                        00999
2006440012016238000999V1010000000001200000000000N0000000001200000400063096524043092VALDEZ GARCIA SAUL                                          201001150644132651A00020100112                                                                        00999
2022850012073147000999V1010000000001200000000000N0000000001200000400071003918683095VAZQUEZ TABOADA JORG                                        201001152285125336A00020100112                                                                        00999
2022850012066267000999V1010000000001200000000000N0000000001200000400071005122143097RAMIREZ MARTINEZ C                                          201001152285124516A00020100112                                                                        00999
2022850012072193000999V1010000000001200000000000N0000000001200000400071005122193092RAMIREZ MARTINEZ C                                          201001152285125245A00020100112                                                                        00999
2022850012066111000999V1010000000001200000000000N0000000001200000400071005122563096RAMIREZ MARTINEZ C                                          201001152285124740A00020100112                                                                        00999
2022850012065351000999V1010000000001200000000000N0000000001200000400071005124693099RAMIREZ MARTINEZ C                                          201001152285125107A00020100112                                                                        00999
2022850012070248000999V1010000000001200000000000N0000000001200000400071005126043095RAMIREZ MARTINEZ C                                          201001152285124921A00020100112                                                                        00999
2022850012068647000999V1010000000001200000000000N0000000001200000400071005818683091RIOS SANCHEZ EMMANU                                         201001152285124943A00020100112                                                                        00999
2022850012069807000999V1010000000001200000000000N0000000001200000400071005822193095RIOS SANCHEZ EMMANU                                         201001152285125038A00020100112                                                                        00999
2022850012070768000999V1010000000001200000000000N0000000001200000400071005826043098RIOS SANCHEZ EMMANU                                         201001152285124844A00020100112                                                                        00999
2015670012090558000999V1010000000001200000000000N0000000001200000400071012019053090GONZALEZ ZAPATA JORG                                        201001151567160018A00020100112                                                                        00999
2015670012094203000999V1010000000001200000000000N0000000001200000400071012022133095GONZALEZ ZAPATA JORG                                        201001151567160250A00020100112                                                                        00999
2015610012099526000999V1010000000001200000000000N0000000001200000400071023622193090MIRELES MONJE ISRAEL                                        201001151561103053A00020100112                                                                        00999
2015610012097942000999V1010000000001200000000000N0000000001200000400071023624693097MIRELES MONJE ISRAEL                                        201001151561102903A00020100112                                                                        00999
2022850012024179000999V1010000000001200000000000N0000000001200000400073004017273091PARTIDA HUERTA C                                            201001152285133430A00020100112                                                                        00999
2015670012045719000999V1010000000001200000000000N0000000001200000400073004816693093NAVARRO MARQUEZ FERN                                        201001151567094139A00020100112                                                                        00999
2015670012047069000999V1010000000001200000000000N0000000001200000400073004817073097NAVARRO MARQUEZ FERN                                        201001151567094244A00020100112                                                                        00999
2015670012048743000999V1010000000001200000000000N0000000001200000400073004823993098NAVARRO MARQUEZ FERN                                        201001151567094403A00020100112                                                                        00999
2019000012056013000999V1010000000001200000000000N0000000001200000400073005816793098HERNANDEZ ARREGUIN S                                        201001151900170236A00020100112                                                                        00999
2019000012042559000999V1010000000001200000000000N0000000001200000400073005817013090HERNANDEZ ARREGUIN S                                        201001151900170100A00020100112                                                                        00999
2019000012054659000999V1010000000001200000000000N0000000001200000400073005817343091HERNANDEZ ARREGUIN S                                        201001151900170400A00020100112                                                                        00999
2015620012094217000999V1010000000001200000000000N0000000001200000400073006716793097BRAMBILA SANTAMARIA                                         201001151562102743A00020100112                                                                        00999
2015620012097035000999V1010000000001200000000000N0000000001200000400073006716793097BRAMBILA SANTAMARIA                                         201001151562102838A00020100112                                                                        00999
2022850012023320000999V1010000000001200000000000N0000000001200000400073007817323099GARCIA CONTERAS GREC                                        201001152285133228A00020100112                                                                        00999
2006490012001678000999V1010000000001200000000000N0000000001200000400073008618643099RODRIGO DAVALOS C                                           201001150649115450A00020100112                                                                        00999
2002380012040932000999V1010000000001200000000000N0000000001200000400073009018643093SILVA SALMERON CARLO                                        201001150238135306A00020100112                                                                        00999
2002380012049400000999V1010000000001200000000000N0000000001200000400073009022133099SILVA SALMERON CARLO                                        201001150238135216A00020100112                                                                        00999
2002380012045707000999V1010000000001200000000000N0000000001200000400073009024163094SILVIA SALMERON CARL                                        201001150238135120A00020100112                                                                        00999
2015790012077215000999V1010000000001200000000000N0000000001200000400073037222643096SALDAÅA M JEFF A                                            201001151579141758A00020100112                                                                        00999
2001670012024164000999V1010000000001200000000000N0000000001200000400073039622643098MORA ROJAS DANIEL                                           201001150167121430A00020100112                                                                        00999
2015190012078765000999V1010000000001200000000000N0000000001200000400073040225813096MACIAS ACEVES MARIA                                         201001151519141628A00020100112                                                                        00999
2006480012047640000999V1010000000001200000000000N0000000001200000400073043317753097PEREZ SOTO HECTOR MA                                        201001150648123120A00020100112                                                                        00999
2006480012047115000999V1010000000001200000000000N0000000001200000400073043322463096PEREZ SOTO HECTOR MA                                        201001150648123014A00020100112                                                                        00999
2001670012090673000999V1010000000001200000000000N0000000001200000400073043517753095SILVA CABRALES LUIS                                         201001150167102218A00020100112                                                                        00999
2001730012067389000999V1010000000001200000000000N0000000001200000400081005223413090EDGAR J ROBLES NAJAR                                        201001150173124656A00020100112                                                                        00999
2002060012041145000999V1010000000001200000000000N0000000001200000400081011222583099TERRAZAS RAMOS ANTON                                        201001150206164536A00020100112                                                                        00999
2001670012061893000999V1010000000001200000000000N0000000001200000400081013922363095JAUREGUI CHAVEZ JO                                          201001150167141047A00020100112                                                                        00999
2015140012092544000999V1010000000001200000000000N0000000001200000400081018021453093ROBLES CARRAMAN                                             201001151514143240A00020100112                                                                        00999
2015140012093875000999V1010000000001200000000000N0000000001200000400081018023423094ROBLES CARRAMAN                                             201001151514143346A00020100112                                                                        00999
2006470012096127000999V1010000000001200000000000N0000000001200000400081018123423093VEGA NUÅEZ JOEL                                             201001150647115107A00020100112                                                                        00999
2015610012088088000999V1010000000001200000000000N0000000001200000400081018321693091MIGUEL ACOSTA                                               201001151561114635A00020100112                                                                        00999
2015610012089657000999V1010000000001200000000000N0000000001200000400081018323403093MIGUEL ACOSTA                                               201001151561114527A00020100112                                                                        00999
2015610012085227000999V1010000000001200000000000N0000000001200000400081018324893094MIGUEL ACOSTA                                               201001151561114422A00020100112                                                                        00999
2022850012032495000999V1010000000001200000000000N0000000001200000400081019221273091DAVID GARCIA                                                201001152285150839A00020100112                                                                        00999
2022850012031604000999V1010000000001200000000000N0000000001200000400081019223403092DAVID GARCIA                                                201001152285150612A00020100112                                                                        00999
2022850012027897000999V1010000000001200000000000N0000000001200000400081019224893093DAVID GARCIA                                                201001152285150417A00020100112                                                                        00999
2022850012037101000999V1010000000001200000000000N0000000001200000400081019225573090DAVID GARCIA                                                201001152285150739A00020100112                                                                        00999
2001670012092083000999V1010000000001200000000000N0000000001200000400081023022183095MARES HERNANDEZ ADAN                                        201001150167143216A00020100112                                                                        00999
2001670012094101000999V1010000000001200000000000N0000000001200000400081023025803095MARES HERNANDEZ ADAN                                        201001150167143111A00020100112                                                                        00999
2004990012005642000999V1010000000001200000000000N0000000001200000400081028921113093VARGAS R DIEGO                                              201001150499160845A00020100112                                                                        00999
2004990012096317000999V1010000000001200000000000N0000000001200000400081028922123091VARGAS RAMIREZ DIEGO                                        201001150499160529A00020100112                                                                        00999
2004990012095559000999V1010000000001200000000000N0000000001200000400081028924873099VARGAS RAMIREZ DIEGO                                        201001150499160358A00020100112                                                                        00999
2022850012014439000999V1010000000001200000000000N0000000001200000400083001222263097ALONSO GONZALEZ B                                           201001152285145219A00020100112                                                                        00999
2022850012012912000999V1010000000001200000000000N0000000001200000400083001223083098ALONSO GONZALEZ B                                           201001152285145049A00020100112                                                                        00999
2022850012015869000999V1010000000001200000000000N0000000001200000400083001224243097ALONSO GONZALEZ B                                           201001152285144911A00020100112                                                                        00999
2022850012002143000999V1010000000001200000000000N0000000001200000400083002216723096ARANDA JARAMILLO                                            201001152285143659A00020100112                                                                        00999
2022850012097307000999V1010000000001200000000000N0000000001200000400083002222103093ARADA JARAMILLO                                             201001152285143537A00020100112                                                                        00999
2006440012070303000999V1010000000001200000000000N0000000001200000400083003822263097BARAJAS CAMARENA EDU                                        201001150644154210A00020100112                                                                        00999
2006440012063324000999V1010000000001200000000000N0000000001200000400083003824233098BARAJAS CAMARENA EDU                                        201001150644154003A00020100112                                                                        00999
2015300012004102000999V1010000000001200000000000N0000000001200000400083005422273095CABRERA ARELLANO MAU                                        201001151530103618A00020100112                                                                        00999
2005500012038844000999V1010000000001200000000000N0000000001200000400083010525813094DE ALBA ORTIZ DAVID                                         201001150550110512A00020100112                                                                        00999
2022850012035713000999V1010000000001200000000000N0000000001200000400083010622273093DE LA ROSA GUTIERREZ                                        201001152285110110A00020100112                                                                        00999
2003130012015433000999V1010000000001200000000000N0000000001200000400083014322123095FONSECA SAHAGUN FADR                                        201001150313162409A00020100112                                                                        00999
2002050012070414000999V1010000000001200000000000N0000000001200000400083016222263095GARCIA GUZMAN OMAR F                                        201001150205153704A00020100112                                                                        00999
2015610012002300000999V1010000000001200000000000N0000000001200000400083017017693090HECTOR D GARCIA ROME                                        201001151561143810A00020100112                                                                        00999
2015610012006686000999V1010000000001200000000000N0000000001200000400083017027183090HECTOR D GARCIA ROME                                        201001151561144117A00020100112                                                                        00999
2005530012030406000999V1010000000001200000000000N0000000001200000400083028722123091MELO CORONADO JOSUE                                         201001150553105545A00020100112                                                                        00999
2003130012021864000999V1010000000001200000000000N0000000001200000400083032622123094NUNO GARCIA DANIELA                                         201001150313133121A00020100112                                                                        00999
2003130012022841000999V1010000000001200000000000N0000000001200000400083032624873092NUNO GARCIA DANIELA                                         201001150313133323A00020100112                                                                        00999
2022850012007392000999V1010000000001200000000000N0000000001200000400083033316973091OROZCO JUAN                                                 201001152285144243A00020100112                                                                        00999
2022850012003026000999V1010000000001200000000000N0000000001200000400083033317443094OROZCO JUAN                                                 201001152285143846A00020100112                                                                        00999
2022850012010044000999V1010000000001200000000000N0000000001200000400083033323983091OROZCO JUAN                                                 201001152285144420A00020100112                                                                        00999
2022850012001292000999V1010000000001200000000000N0000000001200000400083033326673095OROZCO JUAN                                                 201001152285144004A00020100112                                                                        00999
2005530012074013000999V1010000000001200000000000N0000000001200000400083034916733091PALOS OROZCO AYEZKA                                         201001150553141236A00020100112                                                                        00999
2005530012069559000999V1010000000001200000000000N0000000001200000400083034917443096PALOS OROZCO AYEZKA                                         201001150553141115A00020100112                                                                        00999
2005530012071094000999V1010000000001200000000000N0000000001200000400083034923983093PALOS OROZCO AYEZKA                                         201001150553141000A00020100112                                                                        00999
2005530012064778000999V1010000000001200000000000N0000000001200000400083034926673097PALOS OROZCO AYEZKA                                         201001150553140840A00020100112                                                                        00999
2022850012046177000999V1010000000001200000000000N0000000001200000400083035620393098PEREZ CORTES OSCAR                                          201001152285094153A00020100112                                                                        00999
2022850012046931000999V1010000000001200000000000N0000000001200000400083039623843091ROBLES PEREZ JUAN                                           201001152285135108A00020100112                                                                        00999
2004910012094020000999V1010000000001200000000000N0000000001200000400083040321663096RODRIGUEZ GALLARDO                                          201001150491130855A00020100112                                                                        00999
2004910012085175000999V1010000000001200000000000N0000000001200000400083040322113091RODRIGUEZ GALLARDO                                          201001150491130742A00020100112                                                                        00999
2001730012047247000999V1010000000001200000000000N0000000001200000400083040522123098RODRIGUEZ AIMEE                                             201001150173094231A00020100112                                                                        00999
2001730012047659000999V1010000000001200000000000N0000000001200000400083040522323094RODRIGUEZ AIMEE                                             201001150173094319A00020100112                                                                        00999
2022850012045315000999V1010000000001200000000000N0000000001200000400083040622263091RODRIGUEZ MARISCAL D                                        201001152285110942A00020100112                                                                        00999
2022850012048390000999V1010000000001200000000000N0000000001200000400083040623763099RODRIGUEZ MARISCAL D                                        201001152285111049A00020100112                                                                        00999
2022850012049262000999V1010000000001200000000000N0000000001200000400083040624233092RODRIGUEZ MARISCAL D                                        201001152285111145A00020100112                                                                        00999
2022850012046592000999V1010000000001200000000000N0000000001200000400083041423843099ROMERO SOLIS IVAN                                           201001152285135203A00020100112                                                                        00999
2001670012082427000999V1010000000001200000000000N0000000001200000400083042623393091SALAS VALDEZ RAMON                                          201001150167130522A00020100112                                                                        00999
2001670012089822000999V1010000000001200000000000N0000000001200000400083042624253096SALAS VALDEZ RAMON                                          201001150167130645A00020100112                                                                        00999
2001670012012656000999V1010000000001200000000000N0000000001200000400083096922073093ARELLANO ESPINOZA RA                                        201001150167144915A00020100112                                                                        00999
2001670012013729000999V1010000000001200000000000N0000000001200000400083096923843098ARELLANO ESPINOZA RA                                        201001150167144724A00020100112                                                                        00999
2015610012059381000999V1010000000001200000000000N0000000001200000400083098622203095CARLOS MARTINEZ                                             201001151561140355A00020100112                                                                        00999
2015610012057704000999V1010000000001200000000000N0000000001200000400083098622863096CARLOS MARTINEZ                                             201001151561140230A00020100112                                                                        00999
2015080012098766000999V1010000000001200000000000N0000000001200000400083098722263098MEDINA PEROZA JUAN M                                        201001151508131920A00020100112                                                                        00999
2015080012012092000999V1010000000001200000000000N0000000001200000400083098723763096MEDINA PEDROZA JUAN                                         201001151508132056A00020100112                                                                        00999
2015080012012824000999V1010000000001200000000000N0000000001200000400083098724233099MEDINA PEDROZA JUAN                                         201001151508132405A00020100112                                                                        00999
2022850012089254000999V1010000000001200000000000N0000000001200000400910007322213097CHAVE PEREZ BRENDA                                          201001152285114705A00020100112                                                                        00999
2022850012096687000999V1010000000001200000000000N0000000001200000400910007322293099CHAVEZ PEREZ BRENDA                                         201001152285115055A00020100112                                                                        00999
2022850012098458000999V1010000000001200000000000N0000000001200000400910007323733093CHAVEZ PEREZ BRENDA                                         201001152285115316A00020100112                                                                        00999
2015550012026117000999V1010000000001200000000000N0000000001200000400910009016493092CUARENTA LOPEZ MARIA                                        201001151555122000A00020100112                                                                        00999
2015550012039603000999V1010000000001200000000000N0000000001200000400910009021803095CUARENTA LOPEZ MARIA                                        201001151555122504A00020100112                                                                        00999
2015550012035235000999V1010000000001200000000000N0000000001200000400910009024103097CUARENTA LOPEZ MARIA                                        201001151555122249A00020100112                                                                        00999
2001730012054378000999V1010000000001200000000000N0000000001200000400910009521973091DE ALBA DE LA MORA D                                        201001150173135947A00020100112                                                                        00999
2001730012055610000999V1010000000001200000000000N0000000001200000400910009522213091DEALBA E LA MORA DAN                                        201001150173135719A00020100112                                                                        00999
2001730012054087000999V1010000000001200000000000N0000000001200000400910009522293093DEALBA DE LA MORA DA                                        201001150173135834A00020100112                                                                        00999
2015190012071776000999V1010000000001200000000000N0000000001200000400910009621413097DE ANDA ESTRADA VIAN                                        201001151519125031A00020100112                                                                        00999
2015190012070694000999V1010000000001200000000000N0000000001200000400910009622163097DE ANDA ESTRADA VIAN                                        201001151519125133A00020100112                                                                        00999
2015190012070387000999V1010000000001200000000000N0000000001200000400910009622203091DE ANDA ESTRADA VIAN                                        201001151519124928A00020100112                                                                        00999
2015190012065501000999V1010000000001200000000000N0000000001200000400910009622863092DE ANDA ESTRADA VIAN                                        201001151519124707A00020100112                                                                        00999
2015190012070309000999V1010000000001200000000000N0000000001200000400910009624903094DE NADA ESTRADA VIAN                                        201001151519124823A00020100112                                                                        00999
2022850012033949000999V1010000000001200000000000N0000000001200000400910009825993092DE LA ROSA GUTIERREZ                                        201001152285110017A00020100112                                                                        00999
2022850012032018000999V1010000000001200000000000N0000000001200000400910011622923090DOMINGUEZ ROSAS CARL                                        201001152285105833A00020100112                                                                        00999
2022850012029935000999V1010000000001200000000000N0000000001200000400910011624733091DOMINGUEZ ROSAS CARL                                        201001152285105731A00020100112                                                                        00999
2022850012032051000999V1010000000001200000000000N0000000001200000400910011625993090DOMINGUEZ ROSAS CARL                                        201001152285105924A00020100112                                                                        00999
2004940012042942000999V1010000000001200000000000N0000000001200000400910016922283095JOSE GOMEZ                                                  201001150494151252A00020100112                                                                        00999
2001670012056819000999V1010000000001200000000000N0000000001200000400910026318403090LOPEZ FRANCO OMAR IV                                        201001150167140144A00020100112                                                                        00999
2001670012055377000999V1010000000001200000000000N0000000001200000400910026322223096LOPEZ FRANCO OMAR IV                                        201001150167140036A00020100112                                                                        00999
2001670012057651000999V1010000000001200000000000N0000000001200000400910026323723094LOPEZ FRANCO OMAR IV                                        201001150167135854A00020100112                                                                        00999
2019000012098829000999V1010000000001200000000000N0000000001200000400910032121963098MORA GONZALEZ ALEJAN                                        201001151900102941A00020100112                                                                        00999
2019000012001386000999V1010000000001200000000000N0000000001200000400910032124203096MORA GONZALEZ ALEJAN                                        201001151900103139A00020100112                                                                        00999
2015670012040047000999V1010000000001200000000000N0000000001200000400910033721963090NAVARRO MARQUEZ FER                                         201001151567093544A00020100112                                                                        00999
2015670012041404000999V1010000000001200000000000N0000000001200000400910033723743094NAVARRO MARQUEZ FER                                         201001151567093713A00020100112                                                                        00999
2015670012042449000999V1010000000001200000000000N0000000001200000400910033724143096NAVARRO MARQUEZ FERN                                        201001151567093817A00020100112                                                                        00999
2015670012039097000999V1010000000001200000000000N0000000001200000400910033724203098NAVARRO MARQUEZ FERN                                        201001151567093429A00020100112                                                                        00999
2015670012044655000999V1010000000001200000000000N0000000001200000400910033724493095NAVARRO MARQUEZ FERN                                        201001151567093935A00020100112                                                                        00999
2015610012098937000999V1010000000001200000000000N0000000001200000400910034322383092OCEGUERA ZAMARRIPA A                                        201001151561103400A00020100112                                                                        00999
2015360012072591000999V1010000000001200000000000N0000000001200000400910036325993090PEREZ NORIGA DAVID                                          201001151536125306A00020100112                                                                        00999
2015360012073464000999V1010000000001200000000000N0000000001200000400910041321433091RUIZ GUDIÅO JOSE JAI                                        201001151536100816A00020100112                                                                        00999
2015360012071789000999V1010000000001200000000000N0000000001200000400910041325603095RUIZ GUDIÅO JOSE JAI                                        201001151536100642A00020100112                                                                        00999
2015570012012505000999V1010000000001200000000000N0000000001200000400910043521433095SANTIAGO GARCIA MIGU                                        201001151557090437A00020100112                                                                        00999
2015570012011471000999V1010000000001200000000000N0000000001200000400910043525603099SANTIAGO GARCIA MIGU                                        201001151557090353A00020100112                                                                        00999
2015190012073974000999V1010000000001200000000000N0000000001200000400910044021413090SOLORZANO MOLINA AMI                                        201001151519125350A00020100112                                                                        00999
2015190012074000000999V1010000000001200000000000N0000000001200000400910044022163090SOLORZANO MOLINA AMI                                        201001151519125425A00020100112                                                                        00999
2015190012071842000999V1010000000001200000000000N0000000001200000400910044022203094SOLORZANO MOLINA AMI                                        201001151519125213A00020100112                                                                        00999
2015190012076531000999V1010000000001200000000000N0000000001200000400910044022863095SOLORZANO MOLINA AMI                                        201001151519125306A00020100112                                                                        00999
2005500012041487000999V1010000000001200000000000N0000000001200000400930000220953092ACU A NAVA SERGIO                                           201001150550122631A00020100112                                                                        00999
2005500012037868000999V1010000000001200000000000N0000000001200000400930000223633097ACU A NAVA SERGIO                                           201001150550122506A00020100112                                                                        00999
2006440012096542000999V1010000000001200000000000N0000000001200000400930003822813094ARANA PRATT DAVID CU                                        201001150644115601A00020100112                                                                        00999
2015620012061908000999V1010000000001200000000000N0000000001200000400930004420953092ARREOLA GARCIA GUILL                                        201001151562095740A00020100112                                                                        00999
2015620012064242000999V1010000000001200000000000N0000000001200000400930004423633097ARREOLA GARCIA GUILL                                        201001151562095914A00020100112                                                                        00999
2015260012055996000999V1010000000001200000000000N0000000001200000400930006223613096BAUTISTA SANTIAGO ED                                        201001151526112008A00020100112                                                                        00999
2015570012079605000999V1010000000001200000000000N0000000001200000400930006521503098BECERRA DIAZ CARLOS                                         201001151557154537A00020100112                                                                        00999
2015570012077393000999V1010000000001200000000000N0000000001200000400930006522853096BECERRA DIAZ CARLOS                                         201001151557154727A00020100112                                                                        00999
2015570012073305000999V1010000000001200000000000N0000000001200000400930006525973099BECERRA DIAZ CARLOS                                         201001151557154852A00020100112                                                                        00999
2001660012062454000999V1010000000001200000000000N0000000001200000400930007225973090BRACAMONTES MORALES                                         201001150166140637A00020100112                                                                        00999
2015120012038291000999V1010000000001200000000000N0000000001200000400930007620993099BRAVO RUBIO JUAN                                            201001151512122357A00020100112                                                                        00999
2015120012040286000999V1010000000001200000000000N0000000001200000400930007625613098BRAVO RUBIO JUAN                                            201001151512122449A00020100112                                                                        00999
2015670012038316000999V1010000000001200000000000N0000000001200000400930009322663095CARDENAS RODRIGUEZ                                          201001151567164527A00020100112                                                                        00999
2015110012062191000999V1010000000001200000000000N0000000001200000400930010923473090CEVANTES CAMPOS JUAN                                        201001151511153908A00020100112                                                                        00999
2015070012088688000999V1010000000001200000000000N0000000001200000400930013521503094DE LA MORA VIDAL EMI                                        201001151507155305A00020100112                                                                        00999
2004940012002443000999V1010000000001200000000000N0000000001200000400930014922673098DOMINGUEZ AGUAYO EDI                                        201001150494144548A00020100112                                                                        00999
2004940012011883000999V1010000000001200000000000N0000000001200000400930014923633091DOMINGUEZ AGUAYO EDI                                        201001150494144644A00020100112                                                                        00999
2001730012077148000999V1010000000001200000000000N0000000001200000400930015320943090JORGE ESCAMILLA                                             201001150173154333A00020100112                                                                        00999
2001730012079986000999V1010000000001200000000000N0000000001200000400930015322883096JORGE ESCAMILLA                                             201001150173154537A00020100112                                                                        00999
2001730012074402000999V1010000000001200000000000N0000000001200000400930015323623095JORGE ESCAMILLA                                             201001150173154439A00020100112                                                                        00999
2015140012011164000999V1010000000001200000000000N0000000001200000400930016420943097FIERRO TORRES JOSE A                                        201001151514132908A00020100112                                                                        00999
2015140012020050000999V1010000000001200000000000N0000000001200000400930016423623092FIERRO TORRES JOSE A                                        201001151514133106A00020100112                                                                        00999
2019480012083275000999V1010000000001200000000000N0000000001200000400930017122243091FLORES LAMAS JOSE                                           201001151948142448A00020100112                                                                        00999
2019480012087614000999V1010000000001200000000000N0000000001200000400930017123653090FLORES LAMAS JOSE                                           201001151948142649A00020100112                                                                        00999
2015570012046519000999V1010000000001200000000000N0000000001200000400930019526173098GARCIAA GONZALEZ MAR                                        201001151557135728A00020100112                                                                        00999
2015610012070005000999V1010000000001200000000000N0000000001200000400930020225613095GARCIA MORENO JULIO                                         201001151561113239A00020100112                                                                        00999
2002070012068366000999V1010000000001200000000000N0000000001200000400930021522663098GOMEZ MOJICA EDGAR O                                        201001150207153901A00020100112                                                                        00999
2022840012012077000999V1010000000001200000000000N0000000001200000400930023121393093GONZALEZ PEREGRINA L                                        201001152284132450A00020100112                                                                        00999
2022840012013573000999V1010000000001200000000000N0000000001200000400930023121513096GONZALEZ PEREGRINA L                                        201001152284132353A00020100112                                                                        00999
2022840012007868000999V1010000000001200000000000N0000000001200000400930023122663098GONZALEZ PEREGRINA L                                        201001152284132125A00020100112                                                                        00999
2022840012011090000999V1010000000001200000000000N0000000001200000400930023122813099GONZALEZ PEREGRINA L                                        201001152284132246A00020100112                                                                        00999
2022840012007612000999V1010000000001200000000000N0000000001200000400930023123473091GONZALEZ PEREGRINA L                                        201001152284132606A00020100112                                                                        00999
2001670012014092000999V1010000000001200000000000N0000000001200000400930023220943095GONZALEZ PEREZ AARON                                        201001150167090700A00020100112                                                                        00999
2019480012090955000999V1010000000001200000000000N0000000001200000400930028222043091JESUS HUMBERTO                                              201001151948130425A00020100112                                                                        00999
2019480012089513000999V1010000000001200000000000N0000000001200000400930030919803092LOMELI ROBLES RENE A                                        201001151948143414A00020100112                                                                        00999
2019480012097582000999V1010000000001200000000000N0000000001200000400930030920963091LOMELI ROBLES RENE A                                        201001151948143645A00020100112                                                                        00999
2019480012097324000999V1010000000001200000000000N0000000001200000400930030922243096LOMELI ROBLES RENE A                                        201001151948143538A00020100112                                                                        00999
2019480012003451000999V1010000000001200000000000N0000000001200000400930030923653095LOMELI ROBLES RENE A                                        201001151948143818A00020100112                                                                        00999
2002370012022300000999V1010000000001200000000000N0000000001200000400930031122823091LOPEZ CASTELLANOS VI                                        201001150237091534A00020100112                                                                        00999
2002370012020742000999V1010000000001200000000000N0000000001200000400930031126643099LOPEZ CASTELLANOS VI                                        201001150237091401A00020100112                                                                        00999
2015610012006367000999V1010000000001200000000000N0000000001200000400930031423933094LOPEZ HERRERA LOURDE                                        201001151561115906A00020100112                                                                        00999
2015610012071559000999V1010000000001200000000000N0000000001200000400930035318523092JONATHAN DE J MARTIN                                        201001151561141446A00020100112                                                                        00999
2001670012093338000999V1010000000001200000000000N0000000001200000400930037317473097MERCADO SOTO OSCAR                                          201001150167102420A00020100112                                                                        00999
2001670012089249000999V1010000000001200000000000N0000000001200000400930037320953093MERCADO SOTO OSCAR                                          201001150167102346A00020100112                                                                        00999
2022850012090561000999V1010000000001200000000000N0000000001200000400930038024323096MONTAÅO ROJO JUAN MA                                        201001152285114743A00020100112                                                                        00999
2015120012004795000999V1010000000001200000000000N0000000001200000400930038823463093MORALES G DIEGO EMMA                                        201001151512115724A00020100112                                                                        00999
2001670012038808000999V1010000000001200000000000N0000000001200000400930039317463094MORENO HERRERA ANDRE                                        201001150167135120A00020100112                                                                        00999
2001670012044187000999V1010000000001200000000000N0000000001200000400930039321543097MORENO HERRERA ANDRE                                        201001150167134900A00020100112                                                                        00999
2001670012033595000999V1010000000001200000000000N0000000001200000400930039321723095MORENO HERRERA ANDRE                                        201001150167134717A00020100112                                                                        00999
2002380012064485000999V1010000000001200000000000N0000000001200000400930039521753090MU OZ MARMOLEJO RICA                                        201001150238124440A00020100112                                                                        00999
2002380012065906000999V1010000000001200000000000N0000000001200000400930039522253090MU OZ MARMOLEJO RICA                                        201001150238124547A00020100112                                                                        00999
2002380012065549000999V1010000000001200000000000N0000000001200000400930039526153098MU OZ MARMOLEJO RICA                                        201001150238124710A00020100112                                                                        00999
2019480012015841000999V1010000000001200000000000N0000000001200000400930042522843092PLACIO RUELAS GABRIE                                        201001151948132358A00020100112                                                                        00999
2019480012007189000999V1010000000001200000000000N0000000001200000400930042524093092PALACIO RUELAS GABRI                                        201001151948132543A00020100112                                                                        00999
2004940012060562000999V1010000000001200000000000N0000000001200000400930045720953092PRIETO FONSECA JAIME                                        201001150494152811A00020100112                                                                        00999
2004940012056980000999V1010000000001200000000000N0000000001200000400930045722673094PRIETO FONSECA JAIME                                        201001150494152451A00020100112                                                                        00999
2004940012057638000999V1010000000001200000000000N0000000001200000400930045722893098PRIETO FONSECA JAIME                                        201001150494152645A00020100112                                                                        00999
2015610012097615000999V1010000000001200000000000N0000000001200000400930047517473094ALFREDO RAMOS                                               201001151561143424A00020100112                                                                        00999
2015610012090413000999V1010000000001200000000000N0000000001200000400930047520953090ALFREDO RAMOS                                               201001151561143508A00020100112                                                                        00999
2015610012096521000999V1010000000001200000000000N0000000001200000400930047522673092ALFREDO RAMOS                                               201001151561143325A00020100112                                                                        00999
2015610012091283000999V1010000000001200000000000N0000000001200000400930047526723091ALFREDO RAMOS                                               201001151561143551A00020100112                                                                        00999
2019480012094874000999V1010000000001200000000000N0000000001200000400930051520763095ROSAS GONZALEZ IVAN                                         201001151948114937A00020100112                                                                        00999
2019480012084430000999V1010000000001200000000000N0000000001200000400930051522593094ROSAS GONZALEZ IVAN                                         201001151948114626A00020100112                                                                        00999
2019480012089896000999V1010000000001200000000000N0000000001200000400930051522843093ROSAS GONZALEZ IVAN                                         201001151948114756A00020100112                                                                        00999
2015610012061249000999V1010000000001200000000000N0000000001200000400930051920783099RUIZ COBIAN HANS                                            201001151561140202A00020100112                                                                        00999
2015610012056518000999V1010000000001200000000000N0000000001200000400930051922613096RUIZ COBIAN RUIZ                                            201001151561135808A00020100112                                                                        00999
2015610012053907000999V1010000000001200000000000N0000000001200000400930051923933097RUIZCOBIAN HANS                                             201001151561140402A00020100112                                                                        00999
2015610012054751000999V1010000000001200000000000N0000000001200000400930051924333099RUIZ COBIAN HANS                                            201001151561140005A00020100112                                                                        00999
2004980012012557000999V1010000000001200000000000N0000000001200000400930052623623095DIANA ESMERALDA RUIZ                                        201001150498132454A00020100112                                                                        00999
2015620012095659000999V1010000000001200000000000N0000000001200000400930052727563098RUIZ RODRIGUEZ OSCAR                                        201001151562102711A00020100112                                                                        00999
2015620012092731000999V1010000000001200000000000N0000000001200000400930052727573097RUIZ RODRIGUEZ OSCAR                                        201001151562102755A00020100112                                                                        00999
2015020012065363000999V1010000000001200000000000N0000000001200000400930053722633092SANCHEZ BALLESTEROS                                         201001151502124520A00020100112                                                                        00999
2015020012060189000999V1010000000001200000000000N0000000001200000400930053724433095SANCHEZ BALLESTEROS                                         201001151502124304A00020100112                                                                        00999
2015020012063248000999V1010000000001200000000000N0000000001200000400930053726333095SANCHEZ BALLESTEROS                                         201001151502124418A00020100112                                                                        00999
2015610012092852000999V1010000000001200000000000N0000000001200000400930054522633092EDUARDO SANCHEZ                                             201001151561115016A00020100112                                                                        00999
2004980012021223000999V1010000000001200000000000N0000000001200000400930055827123093SIGALA BRAVO OSCAR A                                        201001150498120959A00020100112                                                                        00999
2004910012026348000999V1010000000001200000000000N0000000001200000400930056624773098SOLORZANO BUENROSTRO                                        201001150491150128A00020100112                                                                        00999
2004910012031008000999V1010000000001200000000000N0000000001200000400930056627093098SOLORZANO BUENROSTRO                                        201001150491150312A00020100112                                                                        00999
2004990012040189000999V1010000000001200000000000N0000000001200000400930058722613093VALDOVINOS REOLLAR D                                        201001150499165055A00020100112                                                                        00999
2004990012047505000999V1010000000001200000000000N0000000001200000400930058722783094VALDOVINOS REBOLLAR                                         201001150499165245A00020100112                                                                        00999
2004990012045441000999V1010000000001200000000000N0000000001200000400930058723933094VALDOVINOS REBOLLAR                                         201001150499165321A00020100112                                                                        00999
