2002371174063389000999V1010000000001500000000000N0000000001500000401000109799120117LOZA ESTRADA CARLOS                                         201106270237154226A00020110623                                                                        00999
2004991174046606000999V1010000000001500000000000N0000000001500000401000112329120110JOSE LUIS GONZALEZ R                                        201106270499152444A00020110623                                                                        00999
2004991174049800000999V1010000000001500000000000N0000000001500000401000112344120111JOSE LUIS GONZALEZ R                                        201106270499152347A00020110623                                                                        00999
2004991174048844000999V1010000000001500000000000N0000000001500000401000115040120111JOSE LUIS GONZALEZ R                                        201106270499152246A00020110623                                                                        00999
2002371174072091000999V1010000000001700000000000N0000000001700000501000109704120118LOZA ESTRADA CARLOS                                         201106270237154440A00020110623                                                                        00999
2015011174082761000999V1010000000001200000000000N0000000001200004000083017263761116GIBRAN FREGOSO GARIB                                        201106271501155853A00020110623                                                                        00999
2002381174091774000999V1010000000001200000000000N0000000001200004000083037366591111RAMIREZ MAGALLANES V                                        201106270238130921A00020110623                                                                        00999
2005531174023783000999V1010000000001200000000000N0000000001200004000083048365211114ROMO CRISTIAN ERNEST                                        201106270553121432A00020110623                                                                        00999
2015301174038716000999V1010000000001200000000000N0000000001200004000910009255661114LUIS ARMANDO DAVALOS                                        201106271530151417A00020110623                                                                        00999
2015301174032832000999V1010000000001200000000000N0000000001200004000910009260941113KUIS ARMANDO DAVALOS                                        201106271530151151A00020110623                                                                        00999
2015301174036756000999V1010000000001200000000000N0000000001200004000910009261641118LUIS ARMANDO DAVALOS                                        201106271530151226A00020110623                                                                        00999
2001671174005825000999V1010000000001200000000000N0000000001200004000930025758521114HARO VALENCIA ISAAC                                         201106270167115619A00020110623                                                                        00999
2005511174082251000999V1010000000001200000000000N0000000001200004000930054259201117SANCHEZ MORALES KEVI                                        201106270551155825A00020110623                                                                        00999
2001671174067076000999V1010000000001200000000000N0000000001200004001010027961731119ANGELICA LIZBETH HER                                        201106270167141110A00020110623                                                                        00999
2015301174056596000999V1010000000001200000000000N0000000001200004001030007259031113FRANCISCO JAVIER ARI                                        201106271530153413A00020110623                                                                        00999
2015301174053433000999V1010000000001200000000000N0000000001200004001030007262761110JAVIER FRANCISCO ARI                                        201106271530153314A00020110623                                                                        00999
2015621174006361000999V1010000000001200000000000N0000000001200004001030014457181112CARRANZA RAMOS DIEGO                                        201106271562162352A00020110623                                                                        00999
2022851174021556000999V1010000000001200000000000N0000000001200004001030023062621115DE LA O AVILA                                               201106272285121452A00020110623                                                                        00999
2022851174024214000999V1010000000001200000000000N0000000001200004001030023062761119DE LA O AVILA                                               201106272285121410A00020110623                                                                        00999
2022851174025016000999V1010000000001200000000000N0000000001200004001030032665961117GARCIA HERNANDEZ                                            201106272285121723A00020110623                                                                        00999
2004911174049963000999V1010000000001200000000000N0000000001200004001030055557171115MADERA PLASCENCIA RA                                        201106270491123708A00020110623                                                                        00999
2004911174052750000999V1010000000001200000000000N0000000001200004001030055557971118MADERA PLASCENCIA RA                                        201106270491123506A00020110623                                                                        00999
2001661174034121000999V1010000000001200000000000N0000000001200004001030068857201110OCHOA NIETO MARCIAL                                         201106270166150959A00020110623                                                                        00999
2001661174031423000999V1010000000001200000000000N0000000001200004001030068865821115OCHOA NIETO MARCIAL                                         201106270166150749A00020110623                                                                        00999
2001661174025205000999V1010000000001200000000000N0000000001200004001030068865991116OCHOA NIETO MARCIAL                                         201106270166150606A00020110623                                                                        00999
2001661174027128000999V1010000000001200000000000N0000000001200004001030068866321115OCHOA NIETO MARCIAL                                         201106270166150358A00020110623                                                                        00999
2001731174098322000999V1010000000001200000000000N0000000001200004001030086657001118ROSS RAMOS ANDREA AB                                        201106270173115203A00020110623                                                                        00999
2015791174055798000999V1010000000001200000000000N0000000001200004001030091656001119SANDOVAL GARCIA MARC                                        201106271579140135A00020110623                                                                        00999
2015791174052419000999V1010000000001200000000000N0000000001200004001030091665831118SANDOVAL GARCIA MARC                                        201106271579140037A00020110623                                                                        00999
2015611174048167000999V1010000000001200000000000N0000000001200004001030099062761119VALDEZ MAGALLANES PA                                        201106271561135316A00020110623                                                                        00999
2022851174030341000999V1010000000001200000000000N0000000001200004001030100162761114VAZQUEZ ESCATELL                                            201106272285121623A00020110623                                                                        00999
2015661174099377000999V1010000000001200000000000N0000000001200004001110002756981111ANAYA LEDESMA JONATH                                        201106271566161026A00020110623                                                                        00999
2015661174003785000999V1010000000001200000000000N0000000001200004001110002763251110ANAYA LEDESMA JONATH                                        201106271566161436A00020110623                                                                        00999
2015301174087575000999V1010000000001200000000000N0000000001200004001110018556971110FLORES TORRES CARLOS                                        201106271530114720A00020110623                                                                        00999
2015301174089562000999V1010000000001200000000000N0000000001200004001110018565801118FLORES TORRES CARLOS                                        201106271530114549A00020110623                                                                        00999
2004981174029957000999V1010000000001200000000000N0000000001200004001110020356991116GARCIA DIAZ DORIAN A                                        201106270498164325A00020110623                                                                        00999
2022851174038154000999V1010000000001200000000000N0000000001200004001110030056781113HERNANDEZ CONTRERAS                                         201106272285122555A00020110623                                                                        00999
2001671174057819000999V1010000000001200000000000N0000000001200004001110035956811118LEON PEREZ DAVID                                            201106270167124051A00020110623                                                                        00999
2001671174058199000999V1010000000001200000000000N0000000001200004001110035960171111LEON PEREZ DAVID                                            201106270167123943A00020110623                                                                        00999
2001671174050713000999V1010000000001200000000000N0000000001200004001110035962441116LEON PEREZ DAVID                                            201106270167123741A00020110623                                                                        00999
2001671174055298000999V1010000000001200000000000N0000000001200004001110035965611111LEON PEREZ DAVID                                            201106270167123849A00020110623                                                                        00999
2015661174007055000999V1010000000001200000000000N0000000001200004001110055156781119RAMIREZ CARRANZA BAL                                        201106271566132120A00020110623                                                                        00999
2015661174009767000999V1010000000001200000000000N0000000001200004001110055156961117RAMIREZ CARRANZA BAL                                        201106271566132219A00020110623                                                                        00999
2006441174069635000999V1010000000001200000000000N0000000001200004001110057260181111REYES COLUNGA OSCAR                                         201106270644154253A00020110623                                                                        00999
2022851174039545000999V1010000000001500000000000N0000000001500005000071000261621113BERNAL NANCY                                                201106272285151432A00020110623                                                                        00999
2001661174036644000999V1010000000001500000000000N0000000001500005001030068862151119OCHOA NIETO MARCIAL                                         201106270166151222A00020110623                                                                        00999
2019741174041313000999V1010000000001200000000000N0000000001200040000710364456653099HERNANDEZ ARANA FRAN                                        201106271974134905A00020110623                                                                        00999
2004981174088958000999V1010000000001200000000000N0000000001200040000730830462223099AYALA RODRIGUEZ PEDR                                        201106270498130600A00020110623                                                                        00999
2015071174013373000999V1010000000001200000000000N0000000001200040000830611460673090FLORES MUNGUIA SUSAN                                        201106271507104249A00020110623                                                                        00999
2001661174081257000999V1010000000001200000000000N0000000001200040000910266459303093LOPEZ                                                       201106270166130132A00020110623                                                                        00999
2019741174081827000999V1010000000001200000000000N0000000001200040010100049456683090BADILLO ORTIZ MIGUEL                                        201106271974155904A00020110623                                                                        00999
2019741174076443000999V1010000000001200000000000N0000000001200040010100049457663091BADILLO ORTIZ MIGUEL                                        201106271974155300A00020110623                                                                        00999
2019741174080464000999V1010000000001200000000000N0000000001200040010100049457983093BADILLO ORTIZ MIGUEL                                        201106271974155734A00020110623                                                                        00999
2019741174083480000999V1010000000001200000000000N0000000001200040010100049460203091BADILLO ORTIZ MIGUEL                                        201106271974160037A00020110623                                                                        00999
2019741174082287000999V1010000000001200000000000N0000000001200040010100049462333094BADILLO  ORTIZ MIGUE                                        201106271974155511A00020110623                                                                        00999
2019741174070499000999V1010000000001200000000000N0000000001200040010100090457153097CARLOS BECERRA VICTO                                        201106271974112808A00020110623                                                                        00999
2019741174071759000999V1010000000001200000000000N0000000001200040010100090457263094CARLOS BECERRA VICTO                                        201106271974112909A00020110623                                                                        00999
2019741174068766000999V1010000000001200000000000N0000000001200040010100090458393098CARLOS BECERRA VICTO                                        201106271974113008A00020110623                                                                        00999
2019741174069039000999V1010000000001200000000000N0000000001200040010100090458583094CARLOS BECERRA VISTO                                        201106271974113200A00020110623                                                                        00999
2019741174074197000999V1010000000001200000000000N0000000001200040010100090463633090CARLOS BECERRA VICTO                                        201106271974113111A00020110623                                                                        00999
2019741174000374000999V1010000000001200000000000N0000000001200040010100095459393096CARRILLO TOVAR GUADA                                        201106271974131529A00020110623                                                                        00999
2019741174002319000999V1010000000001200000000000N0000000001200040010100095461583098CARRILLO TOVAR GUADA                                        201106271974131633A00020110623                                                                        00999
2019741174024250000999V1010000000001200000000000N0000000001200040010100115457803092CHAVEZ RAMOS JORGE                                          201106271974163608A00020110623                                                                        00999
2019741174024051000999V1010000000001200000000000N0000000001200040010100115458353097CHAVEZ RAMOS JORGE                                          201106271974163421A00020110623                                                                        00999
2019741174023598000999V1010000000001200000000000N0000000001200040010100115459233090CHAVEZ RAMOS JORGE                                          201106271974163524A00020110623                                                                        00999
2019741174030686000999V1010000000001200000000000N0000000001200040010100353457663097MARTINEZ OLALDE MAUR                                        201106271974150956A00020110623                                                                        00999
2019741174035349000999V1010000000001200000000000N0000000001200040010100353462333090MARTINEZ OLALDE MAUR                                        201106271974151111A00020110623                                                                        00999
2015361174071603000999V1010000000001200000000000N0000000001200040010100502456683098RINCON VALLE ISAURA                                         201106271536125058A00020110623                                                                        00999
2015361174072154000999V1010000000001200000000000N0000000001200040010100502457663099RINCON VALLE ISAURA                                         201106271536125233A00020110623                                                                        00999
2004941174055389000999V1010000000001200000000000N0000000001200040010300289459323090FLORES DELGADILLO                                           201106270494112017A00020110623                                                                        00999
2019741174070630000999V1010000000001200000000000N0000000001200040010300300457263095FONG MORA JOSE LUIS                                         201106271974112943A00020110623                                                                        00999
2019741174073655000999V1010000000001200000000000N0000000001200040010300300458393099FONG MORA JOSE LUIS                                         201106271974113045A00020110623                                                                        00999
2019741174072843000999V1010000000001200000000000N0000000001200040010300300458583095FONG MORA JOSE LUIS                                         201106271974113138A00020110623                                                                        00999
2019741174068198000999V1010000000001200000000000N0000000001200040010300300463633091FONG MORA JOSE LUIS                                         201106271974112750A00020110623                                                                        00999
2015361174049063000999V1010000000001200000000000N0000000001200040010300337457143091GARCIA SEGOVIA CITLA                                        201106271536152308A00020110623                                                                        00999
2015361174039837000999V1010000000001200000000000N0000000001200040010300337458983099GARCIA SEGOVIA CITLA                                        201106271536151757A00020110623                                                                        00999
2015361174040546000999V1010000000001200000000000N0000000001200040010300337459363093GARCIA SEGOVIA CITLA                                        201106271536152052A00020110623                                                                        00999
2015361174044194000999V1010000000001200000000000N0000000001200040010300337459433094GARCIA SEGOVIA CITLA                                        201106271536151926A00020110623                                                                        00999
2015361174091867000999V1010000000001200000000000N0000000001200040010300346458983090GODOY PLASCENCIA LUI                                        201106271536160852A00020110623                                                                        00999
2015361174096520000999V1010000000001200000000000N0000000001200040010300346459363094GODOY PLASCENCIA LUI                                        201106271536160600A00020110623                                                                        00999
2015361174096579000999V1010000000001200000000000N0000000001200040010300346459433095GODOY PLASCENCIA LUI                                        201106271536160727A00020110623                                                                        00999
2015361174087791000999V1010000000001200000000000N0000000001200040010300346461643095GODOY PLASCENCIA LUI                                        201106271536160446A00020110623                                                                        00999
2015361174099140000999V1010000000001200000000000N0000000001200040010300371457603093GONZALEZ GALVAN VICT                                        201106271536160828A00020110623                                                                        00999
2015361174000616000999V1010000000001200000000000N0000000001200040010300371459433093GONZALEZ GALVAN VICT                                        201106271536160952A00020110623                                                                        00999
2015361174091188000999V1010000000001200000000000N0000000001200040010300470459433093IBARRA CAMPOSN JOSUE                                        201106271536114632A00020110623                                                                        00999
2015361174077957000999V1010000000001200000000000N0000000001200040010300556456933091MADRID RODRIGUEZ ADR                                        201106271536155426A00020110623                                                                        00999
2015361174085227000999V1010000000001200000000000N0000000001200040010300556458973095MADRID RODRIGUEZ ADR                                        201106271536155651A00020110623                                                                        00999
2015361174085171000999V1010000000001200000000000N0000000001200040010300556460283095MADRID RODRIGUEZ ADR                                        201106271536155539A00020110623                                                                        00999
2015361174085663000999V1010000000001200000000000N0000000001200040010300615456663098SA                                                          201106271536155714A00020110623                                                                        00999
2015361174079168000999V1010000000001200000000000N0000000001200040010300615457163098A                                                           201106271536155621A00020110623                                                                        00999
2015361174081975000999V1010000000001200000000000N0000000001200040010300652456663091MURILLO LOPEZ ALEXIS                                        201106271536101236A00020110623                                                                        00999
2002371174092812000999V1010000000001200000000000N0000000001200040010300663458603092NAVARRO CARRILLO M                                          201106270237130928A00020110623                                                                        00999
2022941174041472000999V1010000000001200000000000N0000000001200040010300741456663092PEREZ CARRETERO RAUL                                        201106272294134956A00020110623                                                                        00999
2015361174076296000999V1010000000001200000000000N0000000001200040010300991462293091A                                                           201106271536113549A00020110623                                                                        00999
2003131174064139000999V1010000000001200000000000N0000000001200040011100084456513094CARRILLO TRUJILLO AT                                        201106270313154122A00020110623                                                                        00999
2003131174066195000999V1010000000001200000000000N0000000001200040011100084456923095CARRILLO TRUJILLO AT                                        201106270313153853A00020110623                                                                        00999
2006471174048005000999V1010000000001200000000000N0000000001200040011100098456913096CERDA VITAL BENJAMIN                                        201106270647152205A00020110623                                                                        00999
2006471174043404000999V1010000000001200000000000N0000000001200040011100098457233098CERDA VITAL BENJAMIN                                        201106270647152327A00020110623                                                                        00999
2006471174044556000999V1010000000001200000000000N0000000001200040011100098458493097CERDA VITAL BENJAMIN                                        201106270647152433A00020110623                                                                        00999
2019741174013906000999V1010000000001200000000000N0000000001200040011100108456913093CHAVEZ RAMOS ERICK                                          201106271974163038A00020110623                                                                        00999
2019741174011541000999V1010000000001200000000000N0000000001200040011100108457233095CHAVEZ RAMOS ERICK                                          201106271974162851A00020110623                                                                        00999
2019741174014809000999V1010000000001200000000000N0000000001200040011100108458493094CHAVEZ RAMOS ERICK                                          201106271974163206A00020110623                                                                        00999
2019741174009800000999V1010000000001200000000000N0000000001200040011100108458893095CHAVEZ RAMOS ERICK                                          201106271974162706A00020110623                                                                        00999
2019741174015914000999V1010000000001200000000000N0000000001200040011100108459773098CHAVEZ RAMOS ERICK                                          201106271974163318A00020110623                                                                        00999
2015021174045317000999V1010000000001200000000000N0000000001200040011100232456923090GOMEZ CORDOVA KATIA                                         201106271502110909A00020110623                                                                        00999
2015551174059712000999V1010000000001500000000000N0000000001500050000830903456783091VAZQUEZ ARAMBULA ART                                        201106271555153237A00020110623                                                                        00999
2019741174004030000999V1010000000001500000000000N0000000001500050010100095464103099CARRILLO GUADALUPE S                                        201106271974131749A00020110623                                                                        00999
2019741174004253000999V1010000000001500000000000N0000000001500050010100095464623096CARRILLO TOVAR GUADA                                        201106271974131855A00020110623                                                                        00999
2019741174066014000999V1010000000001500000000000N0000000001500050010100536464103092RODRIGUEZ RAMIREZ AN                                        201106271974141013A00020110623                                                                        00999
2002051175069385000999V1010000000001200000000000N0000000001200000400103000536563115ALVAREZ QUEZADA LUIS                                        201106270205145004A00020110624                                                                        00999
2015211175079373000999V1010000000001200000000000N0000000001200000400111547456603099QUIROGA AYALA JULIO                                         201106271521161148A00020110624                                                                        00999
2022851175034317000999V1010000000001500000000000N0000000001500000401000101185120116JUAREZ PATI O                                               201106272285154010A00020110624                                                                        00999
2022851175036548000999V1010000000001500000000000N0000000001500000401000101193120116JUAREZ PATI O                                               201106272285153931A00020110624                                                                        00999
2004981175003861000999V1010000000001500000000000N0000000001500000401000102365120116RAMIREZ MORA EDUARDO                                        201106270498125524A00020110624                                                                        00999
2015611175034431000999V1010000000001500000000000N0000000001500000401000103149120117MARTINEZ MARTINEZ DI                                        201106271561120153A00020110624                                                                        00999
2015611175073897000999V1010000000001500000000000N0000000001500000401000103332120114GARCILAZO LARA JOAQU                                        201106271561160540A00020110624                                                                        00999
2022851175071460000999V1010000000001500000000000N0000000001500000401000103518120110PIÅA FRANCISCO                                              201106272285145316A00020110624                                                                        00999
2006471175094001000999V1010000000001500000000000N0000000001500000401000103528120118DE LA TORRE AGUIRRE                                         201106270647135807A00020110624                                                                        00999
2001691175032656000999V1010000000001500000000000N0000000001500000401000103884120116HARO CASTILLO ULISES                                        201106270169131513A00020110624                                                                        00999
2015661175023501000999V1010000000001500000000000N0000000001500000401000105407120119OROZCO LARA JORGE HU                                        201106271566130701A00020110624                                                                        00999
2015661175022255000999V1010000000001500000000000N0000000001500000401000105411120113OROZCO LARA JORGE HU                                        201106271566130613A00020110624                                                                        00999
2015111175004002000999V1010000000001500000000000N0000000001500000401000105441120117AYALA RODRIGUEZ JOSE                                        201106271511151604A00020110624                                                                        00999
2015621175077821000999V1010000000001500000000000N0000000001500000401000105678120111SOLTERO ECHAURI DANI                                        201106271562112312A00020110624                                                                        00999
2001731175032261000999V1010000000001500000000000N0000000001500000401000106883120110MADRIGAL OLVERA SAMU                                        201106270173153554A00020110624                                                                        00999
2004911175083537000999V1010000000001500000000000N0000000001500000401000107748120113CORTES ESCOBEDO PABL                                        201106270491124002A00020110624                                                                        00999
2004911175088723000999V1010000000001500000000000N0000000001500000401000107749120112CORTES ESCOBEDO PABL                                        201106270491124121A00020110624                                                                        00999
2015011175040356000999V1010000000001500000000000N0000000001500000401000108353120117OLIDEN GONZALEZ ALAN                                        201106271501105350A00020110624                                                                        00999
2001661175077401000999V1010000000001500000000000N0000000001500000401000108675120118RICARDO SOLORZANO AG                                        201106270166161925A00020110624                                                                        00999
2001661175089014000999V1010000000001500000000000N0000000001500000401000108680120111RICARDO SOLORZANO AG                                        201106270166161816A00020110624                                                                        00999
2015421175039017000999V1010000000001500000000000N0000000001500000401000108766120118SANCHEZ LOPEZ ALDO R                                        201106271542155041A00020110624                                                                        00999
2015421175051606000999V1010000000001500000000000N0000000001500000401000108799120119SANCHEZ LOPEZ ALDO R                                        201106271542154928A00020110624                                                                        00999
2015141175096794000999V1050000000001500000000000N0000000001500000401000108970120110ARRIAGA VILLASE OR V                                        201106271514163613A00020110624                                                                        00999
2019481175080219000999V1010000000001500000000000N0000000001500000401000109969120111ALAN DANIEL CERVANTE                                        201106271948161231A00020110624                                                                        00999
2015671175045849000999V1010000000001500000000000N0000000001500000401000110413120111CORDOVA JIMENEZ FERN                                        201106271567121516A00020110624                                                                        00999
2004911175059614000999V1010000000001500000000000N0000000001500000401000111130120111LARA GARCIA JONATHAN                                        201106270491094701A00020110624                                                                        00999
2004911175057123000999V1010000000001500000000000N0000000001500000401000111210120114LARA GARCIA JONATHAN                                        201106270491094405A00020110624                                                                        00999
2004911175057947000999V1010000000001500000000000N0000000001500000401000111217120117LARA GARCIA JONATHAN                                        201106270491094529A00020110624                                                                        00999
2015671175083574000999V1010000000001500000000000N0000000001500000401000111291120116PEREZ MARAVILLA RAUL                                        201106271567135040A00020110624                                                                        00999
2015671175084315000999V1010000000001500000000000N0000000001500000401000111294120113PEREZ MARAVILLA RAUL                                        201106271567134904A00020110624                                                                        00999
2001691175001270000999V1010000000001500000000000N0000000001500000401000111389120119REYNOSO ACOSTA LUIS                                         201106270169151251A00020110624                                                                        00999
2022881175096605000999V1010000000001500000000000N0000000001500000401000111488120119NAVARRETE DELGADILLO                                        201106272288135739A00020110624                                                                        00999
2004911175056460000999V1010000000001500000000000N0000000001500000401000111594120110LARA GARCIA SINNUE                                          201106270491094216A00020110624                                                                        00999
2004991175050577000999V1010000000001500000000000N0000000001500000401000111664120115CEJA MORA ANDREA                                            201106270499154847A00020110624                                                                        00999
2004991175052848000999V1010000000001500000000000N0000000001500000401000111666120113CEJA MORA ANDREA                                            201106270499155015A00020110624                                                                        00999
2004991175044827000999V1010000000001500000000000N0000000001500000401000111693120110CEJA MORA ANDREA                                            201106270499154705A00020110624                                                                        00999
2002381175012886000999V1010000000001500000000000N0000000001500000401000111901120118RODRIGUEZ SANCHEZ SA                                        201106270238130202A00020110624                                                                        00999
2015301175013203000999V1010000000001500000000000N0000000001500000401000112196120110CONCHAS PRECIADO RIC                                        201106271530152224A00020110624                                                                        00999
2019741175066579000999V1010000000001500000000000N0000000001500000401000112573120113PEREZ CUELLAR HUGO                                          201106271974111412A00020110624                                                                        00999
2015611175047718000999V1010000000001500000000000N0000000001500000401000113262120117SUAREZ LARA GABRIEL                                         201106271561093434A00020110624                                                                        00999
2015671175095944000999V1010000000001500000000000N0000000001500000401000113354120116CONTRERAS ORTIZ FABI                                        201106271567163531A00020110624                                                                        00999
2000301175013567000999V1010000000001500000000000N0000000001500000401000113369120119JESUS GARCIA                                                201106270030163620A00020110624                                                                        00999
2000301175010732000999V1010000000001500000000000N0000000001500000401000113526120119JESUS GARCIA                                                201106270030163446A00020110624                                                                        00999
2015421175060220000999V1010000000001500000000000N0000000001500000401000113765120119ALVAREZ MORAN GILBER                                        201106271542122244A00020110624                                                                        00999
2015421175059539000999V1010000000001500000000000N0000000001500000401000113765120119ALVAREZ MORAN GILBER                                        201106271542122509A00020110624                                                                        00999
2015081175023342000999V1010000000001500000000000N0000000001500000401000114667120116LUQUIN NAVARRO CARLO                                        201106271508141741A00020110624                                                                        00999
2019731175052575000999V1010000000001500000000000N0000000001500000401000115556120117BARBA OCHOA IVAN                                            201106271973143830A00020110624                                                                        00999
2022941175028263000999V1010000000001500000000000N0000000001500000401000115961120116YOSIJARO HINO AGUILA                                        201106272294142058A00020110624                                                                        00999
2002051175058068000999V1010000000001500000000000N0000000001500000401000117037120112DAMIANCAYETANO CARDE                                        201106270205133256A00020110624                                                                        00999
2015361175069168000999V1010000000001500000000000N0000000001500000401000117111120111RAMIREZ VASQUEZ                                             201106271536122520A00020110624                                                                        00999
2015611175066715000999V1010000000001500000000000N0000000001500000401000117428120119GONZALEZ TOVAR EDGAR                                        201106271561122346A00020110624                                                                        00999
2015611175058614000999V1010000000001500000000000N0000000001500000401000117462120116GONZALEZ TOVAR EDGAR                                        201106271561122224A00020110624                                                                        00999
2015611175058245000999V1010000000001500000000000N0000000001500000401000117496120116GONZALEZ TOVAR EDGAR                                        201106271561122114A00020110624                                                                        00999
2001671175056432000999V1010000000001500000000000N0000000001500000401000118289120115BAUTISTA RAMIREZ JOS                                        201106270167144751A00020110624                                                                        00999
2001671175065171000999V1010000000001500000000000N0000000001500000401000118412120115BAUTISTA RAMIREZ JOS                                        201106270167144702A00020110624                                                                        00999
2015611175065480000999V1010000000001500000000000N0000000001500000401000119579120112DOMINGUEZ RAMIREZ JO                                        201106271561144845A00020110624                                                                        00999
2015611175032270000999V1010000000001500000000000N0000000001500000401000119759120114PRADO MANZO RODRIGO                                         201106271561120008A00020110624                                                                        00999
2002381175051390000999V1010000000001500000000000N0000000001500000401000120690120114ALAN JOSE CAMARENA R                                        201106270238132801A00020110624                                                                        00999
2015021175018331000999V1010000000001500000000000N0000000001500000401000120713120117MARISCAL RODRIGUEZ E                                        201106271502141354A00020110624                                                                        00999
2015611175026996000999V1010000000001500000000000N0000000001500000401000120759120112MAYORGA ESCOTO MONTS                                        201106271561104344A00020110624                                                                        00999
2000201175025026000999V1010000000001500000000000N0000000001500000401000120803120118FUENTES RODRIGUEZ CE                                        201106270020141912A00020110624                                                                        00999
2015661175046447000999V1010000000001500000000000N0000000001500000401000120908120112ACOSTA MENDIOLA IRVI                                        201106271566132130A00020110624                                                                        00999
2006471175008079000999V1010000000001500000000000N0000000001500000401000121483120113PEREZ ROMERO IGNACIO                                        201106270647114400A00020110624                                                                        00999
2015611175073408000999V1010000000001500000000000N0000000001500000401000121867120119LUIS GABRIEL ARCINIE                                        201106271561095958A00020110624                                                                        00999
2015611175068210000999V1010000000001500000000000N0000000001500000401000122182120115ALEJANDRE DUEÅAS                                            201106271561160147A00020110624                                                                        00999
2015211175011290000999V1010000000001500000000000N0000000001500000401000122729120115CRUZ RUIZ NAVARRO                                           201106271521114623A00020110624                                                                        00999
2005551175025252000999V1010000000001500000000000N0000000001500000401000122743120117ADAM RAMIREZ HERNAND                                        201106270555153048A00020110624                                                                        00999
2022851175058466000999V1010000000001500000000000N0000000001500000401000123099120115AVILA ANGELES                                               201106272285155522A00020110624                                                                        00999
2015361175011744000999V1010000000001500000000000N0000000001500000401500003402120116MARTINEZ MAESTRO                                            201106271536114817A00020110624                                                                        00999
2015361175011905000999V1010000000001500000000000N0000000001500000401500003406120112MARTINEZ MAESTRO                                            201106271536114955A00020110624                                                                        00999
2015361175014529000999V1010000000001500000000000N0000000001500000401500003422120112MARTINEZ AGUIRRE ART                                        201106271536125848A00020110624                                                                        00999
2000201175032476000999V1010000000001500000000000N0000000001500000401500004339120112HERNANDEZ GUZMAN CAR                                        201106270020142403A00020110624                                                                        00999
2000201175028033000999V1010000000001500000000000N0000000001500000401500004341120118HERNANDEZ GUZMAN                                            201106270020142227A00020110624                                                                        00999
2022851175035581000999V1010000000001700000000000N0000000001700000501000108773120116ROSAS GALAVIZ                                               201106272285153836A00020110624                                                                        00999
2015661175072058000999V1010000000001700000000000N0000000001700000501000109218120117RIOS VASQUEZ OSCAR D                                        201106271566122718A00020110624                                                                        00999
2077261175047177000999V1010000000001700000000000N0000000001700000501000109325120117HERNANDEZ ROMERO MIG                                        201106277726105920A00020110624                                                                        00999
2004991175039445000999V1010000000001700000000000N0000000001700000501000109586120111VELAZQUEZ PEREZ CRIS                                        201106270499131655A00020110624                                                                        00999
2004991175040546000999V1010000000001700000000000N0000000001700000501000110062120112BARRON AGUILAR JOSE                                         201106270499142923A00020110624                                                                        00999
2001661175052532000999V1010000000001700000000000N0000000001700000501000110127120115TAPIA DON FRANCISCO                                         201106270166155222A00020110624                                                                        00999
2006471175010835000999V1010000000001700000000000N0000000001700000501000110242120115PEREZ ROMERO IGNACIO                                        201106270647114604A00020110624                                                                        00999
2001661175088052000999V1010000000001700000000000N0000000001700000501000113663120119ROBLEDO HERNANDEZ CA                                        201106270166161743A00020110624                                                                        00999
2015611175009079000999V1010000000001700000000000N0000000001700000501000115672120113SANCHEZ IBARRA IVAN                                         201106271561141148A00020110624                                                                        00999
2015361175068285000999V1010000000001700000000000N0000000001700000501000119312120111CHAVEZ MONSIVAIS ROB                                        201106271536111455A00020110624                                                                        00999
2015611175063398000999V1010000000001700000000000N0000000001700000501000119571120117DOMINGUEZ RAMIREZ JO                                        201106271561144630A00020110624                                                                        00999
2004991175079273000999V1010000000001700000000000N0000000001700000501000119668120111GONZALEZ FIGUEROA JO                                        201106270499123837A00020110624                                                                        00999
2005501175021473000999V1010000000001700000000000N0000000001700000501000119946120115ROMAN VELAZCO FRANCI                                        201106270550164319A00020110624                                                                        00999
2081151175012261000999V1010000000001700000000000N0000000001700000501000121102120111SEBASTIAN FERNANDO M                                        201106278115141429A00020110624                                                                        00999
2005551175020673000999V1010000000001700000000000N0000000001700000501000121191120113ADAM RAMIREZ HERNAND                                        201106270555152825A00020110624                                                                        00999
2015361175013865000999V1010000000001700000000000N0000000001700000501500003661120119PEREZ REYES JORGE AL                                        201106271536130013A00020110624                                                                        00999
2000201175006598000999V1010000000001700000000000N0000000001700000501500003812120117HERNANDEZ GUTIERREZ                                         201106270020114428A00020110624                                                                        00999
2002051175067250000999V1010000000001200000000000N0000000001200004000073005261011115ALVAREZ QUEZADA ERIK                                        201106270205145126A00020110624                                                                        00999
2001661175068845000999V1050000000001200000000000N0000000001200004000073007260901114SOTELO NAVARRO ANDRE                                        201106270166111508A00020110624                                                                        00999
2001661175075846000999V1050000000001200000000000N0000000001200004000073007261011111SOTELO NAVARRO ANDRE                                        201106270166112209A00020110624                                                                        00999
2001661175070398000999V1050000000001200000000000N0000000001200004000073007261631116SOTELO NAVARRO ANDRE                                        201106270166111724A00020110624                                                                        00999
2001661175065118000999V1050000000001200000000000N0000000001200004000073007264011118SOTELO NAVARRO ANDRE                                        201106270166111303A00020110624                                                                        00999
2022851175031243000999V1010000000001200000000000N0000000001200004000073012262311114ARREOLA JUAN                                                201106272285091837A00020110624                                                                        00999
2019741175081375000999V1010000000001200000000000N0000000001200004000073016562791115RODRIGUEZ ACOSTA JUA                                        201106271974123404A00020110624                                                                        00999
2019741175073704000999V1010000000001200000000000N0000000001200004000073016563791114RODRIGUEZ ACOSTA JUA                                        201106271974123450A00020110624                                                                        00999
2022941175011957000999V1010000000001200000000000N0000000001200004000073026455341118HERNANDEZ CAMPOS CAR                                        201106272294114657A00020110624                                                                        00999
2022941175010226000999V1010000000001200000000000N0000000001200004000073026456421117HERNADEZ CAMPOS CARL                                        201106272294114535A00020110624                                                                        00999
2022941175008036000999V1010000000001200000000000N0000000001200004000073026464721110HERNANDEZ CAMPOS CAR                                        201106272294114348A00020110624                                                                        00999
2015141175014042000999V1010000000001200000000000N0000000001200004000073027855371119HERNANDEZ RODRIGUEZ                                         201106271514103451A00020110624                                                                        00999
2006441175098719000999V1010000000001200000000000N0000000001200004000073028163641110DELGADILLO HANNON AN                                        201106270644162530A00020110624                                                                        00999
2019481175036862000999V1010000000001200000000000N0000000001200004000073030864101113PI  A VILLALON VICTO                                        201106271948120609A00020110624                                                                        00999
2006441175047581000999V1010000000001200000000000N0000000001200004000073040256431119MACIAS ACEVES MARIA                                         201106270644132523A00020110624                                                                        00999
2006441175049725000999V1010000000001200000000000N0000000001200004000073040257871115MACIAS ACEVES MARIA                                         201106270644132356A00020110624                                                                        00999
2015301175027839000999V1010000000001200000000000N0000000001200004000081007555501116FURLONG GOMEZ JAIME                                         201106271530131210A00020110624                                                                        00999
2022851175010023000999V1010000000001200000000000N0000000001200004000081007563761116FURLONG JAIME                                               201106272285152254A00020110624                                                                        00999
2022851175009302000999V1010000000001200000000000N0000000001200004000081007755501114TOVAR JOSE                                                  201106272285152001A00020110624                                                                        00999
2022851175011865000999V1010000000001200000000000N0000000001200004000081007756511112TOVAR JOSE                                                  201106272285152035A00020110624                                                                        00999
2022851175012737000999V1010000000001200000000000N0000000001200004000081007756561117TOVAR JOSE                                                  201106272285152117A00020110624                                                                        00999
2022851175008905000999V1010000000001200000000000N0000000001200004000081007758611118TOVAR JOSE                                                  201106272285152157A00020110624                                                                        00999
2005531175098674000999V1010000000001200000000000N0000000001200004000081007856111110SEPULVEDA ROSAS HECT                                        201106270553113841A00020110624                                                                        00999
2005531175001591000999V1010000000001200000000000N0000000001200004000081007856451110SEPULVEDA ROSAS HECT                                        201106270553113945A00020110624                                                                        00999
2005531175096871000999V1010000000001200000000000N0000000001200004000081007856521110SEPULVEDA ROSAS HECT                                        201106270553113724A00020110624                                                                        00999
2005531175094655000999V1010000000001200000000000N0000000001200004000081007863791110SEPULVEDA ROSAS HECT                                        201106270553113507A00020110624                                                                        00999
2015571175075398000999V1010000000001200000000000N0000000001200004000081015758471110CELSO OCHOA TORRES                                          201106271557145418A00020110624                                                                        00999
2015571175007298000999V1010000000001200000000000N0000000001200004000081017662971110JESUS ADRIAN YA EZ                                          201106271557152048A00020110624                                                                        00999
2015571175008911000999V1010000000001200000000000N0000000001200004000081017663801118JESUS YA EZ MARTINEZ                                        201106271557151940A00020110624                                                                        00999
2015791175039519000999V1010000000001200000000000N0000000001200004000081026356901119JUAN CARLOS MUNGUIA                                         201106271579120459A00020110624                                                                        00999
2015791175032596000999V1010000000001200000000000N0000000001200004000081026357901118JUAN CARLOS MUNGUIA                                         201106271579120311A00020110624                                                                        00999
2022851175031210000999V1010000000001200000000000N0000000001200004000083001862311119AMEZCUA REYNAGA                                             201106272285091756A00020110624                                                                        00999
2022851175031267000999V1010000000001200000000000N0000000001200004000083003862311115BARAJAS CAMARENA                                            201106272285091647A00020110624                                                                        00999
2022851175066215000999V1010000000001200000000000N0000000001200004000083007358861111CEJA LUIS                                                   201106272285122932A00020110624                                                                        00999
2015301175031082000999V1010000000001200000000000N0000000001200004000083008364721117CHAVEZ ROBLES EDWIN                                         201106271530120155A00020110624                                                                        00999
2022881175054768000999V1010000000001200000000000N0000000001200004000083009760831112COVARRUBIAS PACHECO                                         201106272288144045A00020110624                                                                        00999
2022881175059514000999V1010000000001200000000000N0000000001200004000083009761351110COVARRUBIAS PACHECO                                         201106272288144252A00020110624                                                                        00999
2006441175045124000999V1010000000001200000000000N0000000001200004000083014256381119FLORES RODARTE JOEL                                         201106270644154535A00020110624                                                                        00999
2001671175007776000999V1010000000001200000000000N0000000001200004000083018164721118GOMEZ CISNEROS OSCAR                                        201106270167152708A00020110624                                                                        00999
2001731175032826000999V1010000000001200000000000N0000000001200004000083019455681110GONZALEZ ESCOTO GUST                                        201106270173092029A00020110624                                                                        00999
2001731175032149000999V1010000000001200000000000N0000000001200004000083019461151116GONZALEZ ESCOTO GUST                                        201106270173091903A00020110624                                                                        00999
2001731175031173000999V1010000000001200000000000N0000000001200004000083019461451110GONZALEZ ESCOTO GUST                                        201106270173091733A00020110624                                                                        00999
2015611175046619000999V1010000000001200000000000N0000000001200004000083025361661112LOMELI SANDOVAL RICA                                        201106271561154811A00020110624                                                                        00999
2015611175048512000999V1010000000001200000000000N0000000001200004000083025361761110LOMELI SANDOVAL RICA                                        201106271561154925A00020110624                                                                        00999
2022851175029924000999V1010000000001200000000000N0000000001200004000083029961661118MONTANTE MARIA                                              201106272285091643A00020110624                                                                        00999
2022851175028789000999V1010000000001200000000000N0000000001200004000083029961761116MONTANTE MARIA                                              201106272285091533A00020110624                                                                        00999
2001671175031038000999V1010000000001200000000000N0000000001200004000083030456891111MORALES GOMEZ VICTOR                                        201106270167153753A00020110624                                                                        00999
2001671175030905000999V1010000000001200000000000N0000000001200004000083030462961114MORALES GOMEZ VICTOR                                        201106270167153512A00020110624                                                                        00999
2006491175074399000999V1010000000001200000000000N0000000001200004000083034055491117ORTIZ SANCHES LILIAN                                        201106270649134010A00020110624                                                                        00999
2006491175076166000999V1010000000001200000000000N0000000001200004000083034063751114ORTIZ SANCHES LILIAN                                        201106270649134114A00020110624                                                                        00999
2015141175039137000999V1010000000001200000000000N0000000001200004000083035256891112PELAYO GUZMAN ESTEFA                                        201106271514092412A00020110624                                                                        00999
2001661175093120000999V1010000000001200000000000N0000000001200004000083040261661112RODRIGUEZ DELGADO DA                                        201106270166162158A00020110624                                                                        00999
2001661175096846000999V1010000000001200000000000N0000000001200004000083040261761110RODRIGUEZ DELGADO                                           201106240166162410A00020110624                                                                        00999
2022851175073939000999V1010000000001200000000000N0000000001200004000083040757861119RODRIGUEZ LUIS                                              201106272285122829A00020110624                                                                        00999
2015111175000993000999V1010000000001200000000000N0000000001200004000083041056891112RDEZ MENDOZA RICARDO                                        201106271511140606A00020110624                                                                        00999
2015111175002487000999V1010000000001200000000000N0000000001200004000083041062961115RDEZ MENDOZA RICARDO                                        201106271511140711A00020110624                                                                        00999
2022851175025956000999V1010000000001200000000000N0000000001200004000083041458651114ROMERO IVAN                                                 201106272285115956A00020110624                                                                        00999
2022851175026745000999V1010000000001200000000000N0000000001200004000083041463761114ROMERO IVAN                                                 201106272285120042A00020110624                                                                        00999
2022851175028019000999V1010000000001200000000000N0000000001200004000083041464761113ROMERO SOLIS                                                201106272285120135A00020110624                                                                        00999
2015301175003082000999V1010000000001200000000000N0000000001200004000083044065281119SIORDIA GONZALEZ AUR                                        201106271530113939A00020110624                                                                        00999
2006441175076052000999V1010000000001200000000000N0000000001200004000083097860141110CEDILLO VILLALPANDO                                         201106270644145636A00020110624                                                                        00999
2006441175066944000999V1010000000001200000000000N0000000001200004000083097866371117CEDILLO VILLALPANDO                                         201106270644145526A00020110624                                                                        00999
2006441175047076000999V1010000000001200000000000N0000000001200004000083098357881119FLORES RODARTE LIA                                          201106270644154654A00020110624                                                                        00999
2006441175041068000999V1010000000001200000000000N0000000001200004000083098360361117FLORES RODARTE LIA D                                        201106270644154429A00020110624                                                                        00999
2004911175037117000999V1010000000001200000000000N0000000001200004000910000459421116AGUAYO ARCE JULIO                                           201106270491120621A00020110624                                                                        00999
2004981175075844000999V1010000000001200000000000N0000000001200004000910000965211118AGUILAR ZAMORA OCTAV                                        201106270498134459A00020110624                                                                        00999
2022851175043280000999V1010000000001200000000000N0000000001200004000910009157881117CUELLAR MARIO                                               201106272285105800A00020110624                                                                        00999
2022851175045664000999V1010000000001200000000000N0000000001200004000910009164191112CUELLAR MARIO                                               201106272285105709A00020110624                                                                        00999
2005531175040318000999V1010000000001200000000000N0000000001200004000910010565211111DELGADO SERRATOS EST                                        201106270553131723A00020110624                                                                        00999
2019731175035536000999V1010000000001200000000000N0000000001200004000910012055481113ESPARZA CORDOVA RICA                                        201106271973120237A00020110624                                                                        00999
2015611175072835000999V1010000000001200000000000N0000000001200004000910027455821114LOPEZ ZEPEDA ALAN                                           201106271561134246A00020110624                                                                        00999
2022851175052330000999V1010000000001200000000000N0000000001200004000910035459421112ORTIZ DAVID                                                 201106272285110349A00020110624                                                                        00999
2001671175054198000999V1010000000001200000000000N0000000001200004000910040163031116RODRIGUEZ SALAZAR RI                                        201106270167110501A00020110624                                                                        00999
2002071175095845000999V1010000000001200000000000N0000000001200004000910041959421115SALAS PIÅA EDUARDO                                          201106270207113646A00020110624                                                                        00999
2022851175070222000999V1010000000001200000000000N0000000001200004000930000257141110ACU A NAVA                                                  201106272285123010A00020110624                                                                        00999
2022851175069223000999V1010000000001200000000000N0000000001200004000930000265231119ACU A NAVA                                                  201106272285123043A00020110624                                                                        00999
2015611175000794000999V1010000000001200000000000N0000000001200004000930006255661116EDUARDO DAVID BAUTIS                                        201106271561114017A00020110624                                                                        00999
2004941175070141000999V1010000000001200000000000N0000000001200004000930007256711116BRACAMONTES MORALES                                         201106270494123222A00020110624                                                                        00999
2004941175068018000999V1010000000001200000000000N0000000001200004000930007257491114BRACAMONTES MORALES                                         201106270494123047A00020110624                                                                        00999
2024671175086423000999V1010000000001200000000000N0000000001200004000930007963371113BRISEÅO JARAMILLO OS                                        201106272467150551A00020110624                                                                        00999
2024671175087662000999V1010000000001200000000000N0000000001200004000930007965851112BRISEÅO JARAMILLO OS                                        201106272467150441A00020110624                                                                        00999
2015111175060130000999V1010000000001200000000000N0000000001200004000930010955651112CERVANTES CAMPOS JUA                                        201106271511122138A00020110624                                                                        00999
2015081175022998000999V1010000000001200000000000N0000000001200004000930011556411112CHAVEZ AREVALOS                                             201106271508164418A00020110624                                                                        00999
2015081175023936000999V1010000000001200000000000N0000000001200004000930011556701116CHAVEZ AREVALOS DANI                                        201106271508164527A00020110624                                                                        00999
2015551175024923000999V1010000000001200000000000N0000000001200004000930014256741119DE SANTIAGO ZACARIAS                                        201106271555141843A00020110624                                                                        00999
2001661175027419000999V1010000000001200000000000N0000000001200004000930014957141114DOMINGUEZ AGUAYO EDI                                        201106270166131215A00020110624                                                                        00999
2015661175053000000999V1010000000001200000000000N0000000001200004000930015958221110ESPERICUETA JASSO YI                                        201106271566133059A00020110624                                                                        00999
2019481175033253000999V1010000000001200000000000N0000000001200004000930017157151114JOSE DE JESUS FLORES                                        201106271948142639A00020110624                                                                        00999
2019481175034161000999V1010000000001200000000000N0000000001200004000930017158221114JOSE DE JESUS FLORES                                        201106271948142511A00020110624                                                                        00999
2015121175091192000999V1010000000001200000000000N0000000001200004000930017456711113FLORES PEÅA ALDO                                            201106271512150708A00020110624                                                                        00999
2015121175090491000999V1010000000001200000000000N0000000001200004000930017465501117FLORES PEÅA ALDO                                            201106271512150832A00020110624                                                                        00999
2019481175064596000999V1010000000001200000000000N0000000001200004000930022957151116GLEZ MORALES ANTONIO                                        201106271948155855A00020110624                                                                        00999
2002371175044769000999V1010000000001200000000000N0000000001200004000930031155661115LOPEZ CASTELLANOS VI                                        201106270237093110A00020110624                                                                        00999
2006441175042786000999V1010000000001200000000000N0000000001200004000930036360731116MELENDEZ PONCE GABRI                                        201106270644170200A00020110624                                                                        00999
2006441175045826000999V1010000000001200000000000N0000000001200004000930036361131118MELENDEZ PONCE GABRI                                        201106270644170345A00020110624                                                                        00999
2024841175052758000999V1010000000001200000000000N0000000001200004000930040156401116NILLE CORDOVA GERARD                                        201106272484093909A00020110624                                                                        00999
2002371175050875000999V1010000000001200000000000N0000000001200004000930041455811112OROZCO GUTIERREZ JOS                                        201106270237132925A00020110624                                                                        00999
2002371175056335000999V1010000000001200000000000N0000000001200004000930041458901118OROZCO GUTIERREZ JOS                                        201106270237133034A00020110624                                                                        00999
2002381175036328000999V1010000000001200000000000N0000000001200004000930043564051119PEREZ HDZ ALEJANDRA                                         201106270238142625A00020110624                                                                        00999
2019001175073142000999V1010000000001200000000000N0000000001200004000930056759001111SOLORZANO PEREZ JORD                                        201106271900160620A00020110624                                                                        00999
2019001175072076000999V1010000000001200000000000N0000000001200004000930056760941115SOLORZANO PEREZ JORD                                        201106271900160419A00020110624                                                                        00999
2002051175099978000999V1010000000001200000000000N0000000001200004000930115755701114BARAJAS LOZA DAVID E                                        201106270205162621A00020110624                                                                        00999
2002051175086497000999V1010000000001200000000000N0000000001200004000930115755981112BARAJAS LOZA DAVID E                                        201106270205162757A00020110624                                                                        00999
2002051175004714000999V1010000000001200000000000N0000000001200004000930115758021114BARAJAS LOZA DAVID E                                        201106270205162940A00020110624                                                                        00999
2002051175095580000999V1010000000001200000000000N0000000001200004000930115765511115BARAJAS L DAVID E                                           201106270205162308A00020110624                                                                        00999
2002051175093141000999V1010000000001200000000000N0000000001200004000930115766151119BARAJAS L DAVID E                                           201106270205162119A00020110624                                                                        00999
2002051175097559000999V1010000000001200000000000N0000000001200004000930115766921115BARAJAS L DAVID E                                           201106270205162433A00020110624                                                                        00999
2015621175075534000999V1010000000001200000000000N0000000001200004000930117955661114MARTINEZ AGUILAR JOE                                        201106271562160658A00020110624                                                                        00999
2015621175078376000999V1010000000001200000000000N0000000001200004000930117959001119MARTINEZ AGUILAR JOE                                        201106271562160915A00020110624                                                                        00999
2024671175038187000999V1010000000001200000000000N0000000001200004001010005656341113BARAJAS URIBE BRAULI                                        201106272467092504A00020110624                                                                        00999
2024671175034329000999V1010000000001200000000000N0000000001200004001010005661741117BARAJAS URIBE BRAULI                                        201106272467092113A00020110624                                                                        00999
2024671175036180000999V1010000000001200000000000N0000000001200004001010005662411116BARAJAS URIBE BRAULI                                        201106272467092306A00020110624                                                                        00999
2024671175036008000999V1010000000001200000000000N0000000001200004001010007856341117BUSTOS UBIARCO KEVIN                                        201106272467092125A00020110624                                                                        00999
2004941175058695000999V1010000000001200000000000N0000000001200004001010008956361112CARDENAS PADILLA LUI                                        201106270494160522A00020110624                                                                        00999
2004941175074400000999V1010000000001200000000000N0000000001200004001010008956751114CARDENAS PADILLA LUI                                        201106270494160710A00020110624                                                                        00999
2006471175081321000999V1010000000001200000000000N0000000001200004001010015665821112DIAZ NAVARRO DIEGO                                          201106270647112435A00020110624                                                                        00999
2015611175040102000999V1010000000001200000000000N0000000001200004001010030058881110ISAIS MURILLO JORGE                                         201106271561165915A00020110624                                                                        00999
2022851175046167000999V1010000000001200000000000N0000000001200004001010034658361119MARTINEZ CONTRERAS                                          201106272285121210A00020110624                                                                        00999
2022851175046417000999V1010000000001200000000000N0000000001200004001010034662761114MARTINEZ CONTRERAS                                          201106272285121315A00020110624                                                                        00999
2015621175068493000999V1010000000001200000000000N0000000001200004001010034663331115MARTINEZ CONTRERAS J                                        201106271562145024A00020110624                                                                        00999
2004981175052797000999V1010000000001200000000000N0000000001200004001010035655721114CERVANTES VALERA LUI                                        201106270498122028A00020110624                                                                        00999
2004981175045564000999V1010000000001200000000000N0000000001200004001010035656341110CERVANTES VALERA LUI                                        201106270498121509A00020110624                                                                        00999
2004981175048646000999V1010000000001200000000000N0000000001200004001010035658881113CERVANTES VALERA LUI                                        201106270498121717A00020110624                                                                        00999
2004981175051685000999V1010000000001200000000000N0000000001200004001010035660931112CERVANTES VELERA LUI                                        201106270498121318A00020110624                                                                        00999
2004981175047062000999V1010000000001200000000000N0000000001200004001010035661741114CERVANTES VELERA LUI                                        201106270498121150A00020110624                                                                        00999
2004981175059500000999V1010000000001200000000000N0000000001200004001010035662411113CERVANTES VALERA LUI                                        201106270498121855A00020110624                                                                        00999
2001731175048912000999V1010000000001200000000000N0000000001200004001010044257461111PARTIDA VIERA KARINA                                        201106270173155819A00020110624                                                                        00999
2001731175091695000999V1010000000001200000000000N0000000001200004001010045461571116PEREZ LOPEZ ANA                                             201106270173135406A00020110624                                                                        00999
2001731175090791000999V1010000000001200000000000N0000000001200004001010045461731116PEREZ LOPEZ ANA                                             201106270173135550A00020110624                                                                        00999
2006471175048212000999V1010000000001200000000000N0000000001200004001010048856211116RAMOS PRECIADO ABRAH                                        201106270647154912A00020110624                                                                        00999
2006471175052379000999V1010000000001200000000000N0000000001200004001010048859891112RAMOS PRECIADO ABRAH                                        201106270647155043A00020110624                                                                        00999
2006471175045554000999V1010000000001200000000000N0000000001200004001010048862641116RAMOS PRECIADO ABRAH                                        201106270647154553A00020110624                                                                        00999
2006471175045448000999V1010000000001200000000000N0000000001200004001010048863211117RAMOS PRECIADO ABRAH                                        201106270647154726A00020110624                                                                        00999
2019741175072925000999V1010000000001200000000000N0000000001200004001010052155891115RODRIGUEZ ACOSTA ANA                                        201106271974123325A00020110624                                                                        00999
2019741175070635000999V1010000000001200000000000N0000000001200004001010052161731115RODRIGUEZ ACOSTA ANA                                        201106271974123252A00020110624                                                                        00999
2015611175039515000999V1010000000001200000000000N0000000001200004001010053855791118RODRIGUEZ RODRIGUEZ                                         201106271561120809A00020110624                                                                        00999
2004911175065500000999V1010000000001200000000000N0000000001200004001010059355791110SANDOVAL GARCIA JOSE                                        201106270491133434A00020110624                                                                        00999
2002381175017119000999V1010000000001200000000000N0000000001200004001010061660041116SOSA SIMANCAS OSCAR                                         201106270238130020A00020110624                                                                        00999
2006441175086503000999V1010000000001200000000000N0000000001200004001010061955791110IVAN SUAREZ                                                 201106270644135044A00020110624                                                                        00999
2024821175048778000999V1010000000001200000000000N0000000001200004001010064155791112URIAS TORRES                                                201106272482154807A00020110624                                                                        00999
2024821175051846000999V1010000000001200000000000N0000000001200004001010064162291114URIAS TORRES                                                201106272482154936A00020110624                                                                        00999
2015611175063453000999V1010000000001200000000000N0000000001200004001010066258161119VELASCO CUELLAR JOSU                                        201106271561133853A00020110624                                                                        00999
2015611175073220000999V1010000000001200000000000N0000000001200004001010066260211118VELASCO CUELLAR JOSU                                        201106271561134008A00020110624                                                                        00999
2015611175070715000999V1010000000001200000000000N0000000001200004001010066262631115VELASCO CUELLAR JOSU                                        201106271561134124A00020110624                                                                        00999
2015621175056403000999V1010000000001200000000000N0000000001200004001030002157081112ACOSTA MORA BRUNO                                           201106271562133321A00020110624                                                                        00999
2015621175062051000999V1010000000001200000000000N0000000001200004001030002160671115ACOSTA MORA BRUNO                                           201106271562133209A00020110624                                                                        00999
2015621175055680000999V1010000000001200000000000N0000000001200004001030002163211117ACOSTA MORA BRUNO                                           201106271562133107A00020110624                                                                        00999
2004911175057233000999V1010000000001200000000000N0000000001200004001030003665631117ALDACO TORRES BRENDA                                        201106270491133118A00020110624                                                                        00999
2019481175065224000999V1010000000001200000000000N0000000001200004001030006557181117ERICK RAMIREZ ARANDA                                        201106271948144832A00020110624                                                                        00999
2015611175001093000999V1010000000001200000000000N0000000001200004001030006955991117ARENAS OLVERA DIEGO                                         201106271561125349A00020110624                                                                        00999
2015611175011350000999V1010000000001200000000000N0000000001200004001030006959411112ARENAS OLVERA DIEGO                                         201106271561125622A00020110624                                                                        00999
2015611175009672000999V1010000000001200000000000N0000000001200004001030006962761115ARENAS OLVERA DIEGO                                         201106271561125502A00020110624                                                                        00999
2006441175061527000999V1010000000001200000000000N0000000001200004001030008762701119CESAR AZPEITIA                                              201106270644122333A00020110624                                                                        00999
2006441175060213000999V1010000000001200000000000N0000000001200004001030008763201119CESAR AZPEITIA                                              201106270644122243A00020110624                                                                        00999
2001661175076278000999V1010000000001200000000000N0000000001200004001030014162391113CANIZALEZ ARIAS OSCA                                        201106270166134118A00020110624                                                                        00999
2015141175073818000999V1010000000001200000000000N0000000001200004001030018857201115CLEMENTE CARDENAS RO                                        201106271514111956A00020110624                                                                        00999
2000201175004958000999V1010000000001200000000000N0000000001200004001030021657001115RUZ VELAZQUEZ VICTOR                                        201106270020114318A00020110624                                                                        00999
2000201175006773000999V1010000000001200000000000N0000000001200004001030021662751118CRUZ VELAZQUEZ VICTO                                        201106270020114434A00020110624                                                                        00999
2000201175010279000999V1010000000001200000000000N0000000001200004001030021666351113CRUZ VELAZQUEZ VICTO                                        201106270020114514A00020110624                                                                        00999
2015791175000880000999V1010000000001200000000000N0000000001200004001030022457201111DE ALBA CARRASCO CAR                                        201106271579162712A00020110624                                                                        00999
2024841175006265000999V1010000000001200000000000N0000000001200004001030024556631115DIAZ GARCIA KARLA JA                                        201106272484152609A00020110624                                                                        00999
2024841175017039000999V1010000000001200000000000N0000000001200004001030024557671110DIAZ GARCIA KARLA JA                                        201106272484152448A00020110624                                                                        00999
2024841175019373000999V1010000000001200000000000N0000000001200004001030024559881113DIAZ GARCIA KARLA JA                                        201106272484152718A00020110624                                                                        00999
2006441175071978000999V1010000000001200000000000N0000000001200004001030024965831116DIAZ GUTIERREZ ERICK                                        201106270644160417A00020110624                                                                        00999
2006441175048622000999V1010000000001200000000000N0000000001200004001030026056641114DURAN AGUILAR SANTIA                                        201106270644143546A00020110624                                                                        00999
2006441175050269000999V1010000000001200000000000N0000000001200004001030026059871114120                                                         201106270644143826A00020110624                                                                        00999
2006441175050807000999V1010000000001200000000000N0000000001200004001030026065491113DURAN AGUILAR SANTIA                                        201106270644143721A00020110624                                                                        00999
2015791175088181000999V1010000000001200000000000N0000000001200004001030026557171116ENRIQUEZ FLORES JOSE                                        201106271579135640A00020110624                                                                        00999
2015541175006747000999V1010000000001200000000000N0000000001200004001030026759021119ESPARZA NEGRETE DANI                                        201106271554114304A00020110624                                                                        00999
2015591175010341000999V1010000000001200000000000N0000000001200004001030026862751115ESPINOSA RAMIREZ ABR                                        201106271559151922A00020110624                                                                        00999
2022881175072406000999V1010000000001200000000000N0000000001200004001030030162781111FRANCO MORAN EMIGDIO                                        201106272288134222A00020110624                                                                        00999
2002371175073616000999V1010000000001200000000000N0000000001200004001030030357461115FRANCO TOVAR J                                              201106270237134316A00020110624                                                                        00999
2002371175074806000999V1010000000001200000000000N0000000001200004001030030359861114FRANCO TOVAR J                                              201106270237134430A00020110624                                                                        00999
2022851175031349000999V1010000000001200000000000N0000000001200004001030030559871111FRIAS GARCIA                                                201106272285091842A00020110624                                                                        00999
2015141175052455000999V1010000000001200000000000N0000000001200004001030030959891115GALVAN GONZALEZ EDGA                                        201106271514132443A00020110624                                                                        00999
2005531175072634000999V1010000000001200000000000N0000000001200004001030032557201119GARCIA HERNANDEZ ALA                                        201106270553123413A00020110624                                                                        00999
2006441175070308000999V1010000000001200000000000N0000000001200004001030034055731118GARIBAY ROMANO DIEGO                                        201106270644111810A00020110624                                                                        00999
2006441175077619000999V1010000000001200000000000N0000000001200004001030034063411117GARIBAY ROMANO DIEGO                                        201106270644112137A00020110624                                                                        00999
2005551175083308000999V1010000000001200000000000N0000000001200004001030040165631114GARCIA BECERRA BRAND                                        201106270555150126A00020110624                                                                        00999
2015011175083646000999V1010000000001200000000000N0000000001200004001030041958001119MARCOS NAHUM GUZMAN                                         201106271501124055A00020110624                                                                        00999
2015011175092420000999V1010000000001200000000000N0000000001200004001030041960131110MARCOS NAHUM GUZMAN                                         201106271501124212A00020110624                                                                        00999
2001671175043634000999V1010000000001200000000000N0000000001200004001030047755771119JIMENEZ GOMEZ CARLOS                                        201106270167105819A00020110624                                                                        00999
2001671175049659000999V1010000000001200000000000N0000000001200004001030047757071112JIMENEZ GOMEZ CARLOS                                        201106270167110109A00020110624                                                                        00999
2001671175043513000999V1010000000001200000000000N0000000001200004001030047766001118JIMENEZ GOMEZ CARLOS                                        201106270167105641A00020110624                                                                        00999
2001671175048793000999V1010000000001200000000000N0000000001200004001030047766041114JIMENEZ GOMEZ CARLOS                                        201106270167105948A00020110624                                                                        00999
2015391175063839000999V1010000000001200000000000N0000000001200004001030048956011115LARIOS CAMPOS BRENDA                                        201106271539145259A00020110624                                                                        00999
2015391175071492000999V1010000000001200000000000N0000000001200004001030048963201113LARIOS CAMPOS BRENDA                                        201106271539145128A00020110624                                                                        00999
2015211175047219000999V1010000000001200000000000N0000000001200004001030054762601115LUNA DELGADO ROGELIO                                        201106271521132143A00020110624                                                                        00999
2004911175004866000999V1010000000001200000000000N0000000001200004001030058566001117MARTINEZ RAMIREZ LUI                                        201106270491114448A00020110624                                                                        00999
2015141175035033000999V1010000000001200000000000N0000000001200004001030060059031114MEISZNER GARCIA ABRA                                        201106271514131658A00020110624                                                                        00999
2006441175032731000999V1010000000001200000000000N0000000001200004001030060257171118MELENDEZ PONCE ANA                                          201106270644165150A00020110624                                                                        00999
2006441175035737000999V1010000000001200000000000N0000000001200004001030060257971111MELENDEZ PONCE ANA                                          201106270644165407A00020110624                                                                        00999
2006441175024595000999V1010000000001200000000000N0000000001200004001030060260121118MELENDEZ PONCE ANA                                          201106270644164545A00020110624                                                                        00999
2006441175010555000999V1010000000001200000000000N0000000001200004001030060260221116MELENDEZ PONCE ANA                                          201106270644164734A00020110624                                                                        00999
2006441175030536000999V1010000000001200000000000N0000000001200004001030060262361118MELENDEZ PONCE ANA                                          201106270644164956A00020110624                                                                        00999
2006441175037068000999V1010000000001200000000000N0000000001200004001030060262661111MELENDEZ PONCE ANA                                          201106270644165544A00020110624                                                                        00999
2006441175039998000999V1010000000001200000000000N0000000001200004001030060262981113MELENDEZ PONCE ANA                                          201106270644165826A00020110624                                                                        00999
2006481175064359000999V1010000000001200000000000N0000000001200004001030062656001110MONTERO DELGADO MAR                                         201106270648111355A00020110624                                                                        00999
2006481175062796000999V1010000000001200000000000N0000000001200004001030062662331113MONTERO DELGADO MARC                                        201106270648111022A00020110624                                                                        00999
