000999201006280000000168029942000000000000000000000000000000000000000000000000000000000000                                                                                                                                                                
2015110179012006000999V1050000000001200000000000N0000000001200000000000008304103727RODRIGUEZ MENDOZA RI                                        201007021511114232A00020100628                                                                        00999
2015660179045942000999V1010000000001500000000000N0000000001500000401000062848120101SEDANO URIBE MARIA G                                        201007021566131821A00020100628                                                                        00999
2004990179069954000999V1010000000001500000000000N0000000001500000401000063385120108ABRAHAM RODRIGUEZ                                           201007020499122327A00020100628                                                                        00999
2022850179028988000999V1010000000001500000000000N0000000001500000401000063611120104HERNANDEZ MEILON BEA                                        201007022285142045A00020100628                                                                        00999
2004990179067990000999V1010000000001500000000000N0000000001500000401000064427120106KARLA MARGARITA LOPE                                        201007020499122208A00020100628                                                                        00999
2001670179021360000999V1010000000001500000000000N0000000001500000401000065049120101ALVARADO PE AYO ANNA                                        201007020167130032A00020100628                                                                        00999
2022940179002153000999V1010000000001500000000000N0000000001500000401000067489120104ANGUIANO CAMACHO ART                                        201007022294124714A00020100628                                                                        00999
2004910179097449000999V1010000000001500000000000N0000000001500000401000070080120101PEREZ QUINTANA                                              201007020491124327A00020100628                                                                        00999
2004910179096090000999V1010000000001500000000000N0000000001500000401000070083120108PEREZ QUINTANA                                              201007020491124226A00020100628                                                                        00999
2001730179053907000999V1010000000001500000000000N0000000001500000401000070561120109JAIR DE J MARTINEZ H                                        201007020173121204A00020100628                                                                        00999
2001730179056446000999V1010000000001500000000000N0000000001500000401000070568120102J DE JESUS MARTINEZ                                         201007020173121339A00020100628                                                                        00999
2001730179052620000999V1010000000001500000000000N0000000001500000401000070574120104JAIR DE J MARTINEZ H                                        201007020173121435A00020100628                                                                        00999
2000200179096407000999V1010000000001500000000000N0000000001500000401000071562120106GIRO PINEDA DAVID SE                                        201007020020151512A00020100628                                                                        00999
2001670179099909000999V1010000000001200000000000N0000000001200004000063004430063091RIOS RODRIGUEZ MARCO                                        201007020167140114A00020100628                                                                        00999
2019000179039519000999V1010000000001200000000000N0000000001200004000073011633173096QUINTERO OCEGUEDA OS                                        201007021900154812A00020100628                                                                        00999
2015610179044894000999V1010000000001200000000000N0000000001200004000081022628413090SANDOVAL MOJARRO                                            201007021561155439A00020100628                                                                        00999
2015610179042721000999V1010000000001200000000000N0000000001200004000081022628683098SANDOVAL MOJARRO                                            201007021561155050A00020100628                                                                        00999
2015610179044876000999V1010000000001200000000000N0000000001200004000081022630883090SANDOVAL MOJARRO SAL                                        201007021561155237A00020100628                                                                        00999
2015610179039438000999V1010000000001200000000000N0000000001200004000081022631653096SANDOVALMOJARRO SALV                                        201007021561154809A00020100628                                                                        00999
2015110179012962000999V1050000000001200000000000N0000000001200004000083041038493094RODRIGUEZ MENDOZA R                                         201007021511114451A00020100628                                                                        00999
2005530179061146000999V1010000000001200000000000N0000000001200004000930050137413098RODRIGUEZ ROMERO DAN                                        201007020553110435A00020100628                                                                        00999
2022850179044486000999V1010000000001200000000000N0000000001200004000930116131723095CHAVARIN GALVAN IAN                                         201007022285143728A00020100628                                                                        00999
2001670179011704000999V1010000000001200000000000N0000000001200004000930125229653098URZUA DEL CASTILLO J                                        201007020167102820A00020100628                                                                        00999
2001670179021722000999V1010000000001200000000000N0000000001200004000930125232443099URZUA DEL CASTILLO J                                        201007020167103447A00020100628                                                                        00999
2001670179021906000999V1010000000001200000000000N0000000001200004000930125232853099URZUA DEL CASTILLO J                                        201007020167103553A00020100628                                                                        00999
2001670179023610000999V1010000000001200000000000N0000000001200004000930125235623093URZUA DEL CASTILLO J                                        201007020167103722A00020100628                                                                        00999
2015070179022477000999V1010000000001200000000000N0000000001200004001010023831193093GONZALEZ MU OZ ERICK                                        201007021507141835A00020100628                                                                        00999
2015070179025650000999V1010000000001200000000000N0000000001200004001010023832823094GONZALEZ MU OZ ERICK                                        201007021507142056A00020100628                                                                        00999
2003130179021206000999V1010000000001200000000000N0000000001200004001010035637863091CERVANTES VALER LUIS                                        201007020313103421A00020100628                                                                        00999
2001730179072835000999V1010000000001200000000000N0000000001200004001010045134493094JOSE A PEREZ GOMEZ                                          201007020173111437A00020100628                                                                        00999
2001730179076019000999V1010000000001200000000000N0000000001200004001010045137863095JOSE A PEREZ GOMEZ                                          201007020173111551A00020100628                                                                        00999
2015430179005978000999V1010000000001200000000000N0000000001200004001010056332683097SALAS ORTIZ                                                 201007021543125122A00020100628                                                                        00999
2015430179005226000999V1010000000001200000000000N0000000001200004001010056332833098SALAS ORTIZ                                                 201007021543124932A00020100628                                                                        00999
2015430179004558000999V1010000000001200000000000N0000000001200004001010056333793093SALAS ORTIZ ANDRES                                          201007021543124902A00020100628                                                                        00999
2015430179001036000999V1010000000001200000000000N0000000001200004001010056335933093SALAS ORTIZ                                                 201007021543125004A00020100628                                                                        00999
2015430179001840000999V1010000000001200000000000N0000000001200004001010056337643096SALAS ORTIZ                                                 201007021543125035A00020100628                                                                        00999
2015610179038683000999V1010000000001500000000000N0000000001500005000081022639163097SANDOVAL MOJARRO SAL                                        201007021561154930A00020100628                                                                        00999
2004910180039582000999V1010000000001500000000000N0000000001500000401000060677120101CORTES LOPEZ ALVARO                                         201007020491140927A00020100629                                                                        00999
2022850180034238000999V1010000000001500000000000N0000000001500000401000065242120106CUELLAR DE LA PE A J                                        201007022285163516A00020100629                                                                        00999
2015610180093584000999V1010000000001500000000000N0000000001500000401000066088120101GUTIERREZ LEDEZMA GE                                        201007021561144848A00020100629                                                                        00999
2015610180066372000999V1010000000001500000000000N0000000001500000401000067046120100AVILA NAVARRO ANGELE                                        201007021561120909A00020100629                                                                        00999
2015360180064658000999V1010000000001500000000000N0000000001500000401000067388120106HUGO JAVIER COSS Y L                                        201007021536131637A00020100629                                                                        00999
2001670180097895000999V1010000000001500000000000N0000000001500000401000068109120102CORONA MENDOZA VANES                                        201007020167160932A00020100629                                                                        00999
2015610180055312000999V1010000000001500000000000N0000000001500000401000068898120107LUIS GABRIEL ARCINIE                                        201007021561093537A00020100629                                                                        00999
2004980180056719000999V1010000000001500000000000N0000000001500000401000069958120102QUEZADA CARRILLO J H                                        201007020498105226A00020100629                                                                        00999
2005530180093991000999V1010000000001500000000000N0000000001500000401000070176120106GLEZ RAMIREZ MIGUEL                                         201007020553160533A00020100629                                                                        00999
2019480180077367000999V1010000000001500000000000N0000000001500000401000071976120106ROCHA GOMEZ ERNESTO                                         201007021948143707A00020100629                                                                        00999
2004990180085935000999V1010000000001500000000000N0000000001500000401000072310120109MAGA A MARES MANUEL                                         201007020499160025A00020100629                                                                        00999
2022850180029408000999V1010000000001500000000000N0000000001500000401000073808120106CUELLAR DE LA PE A J                                        201007022285163406A00020100629                                                                        00999
2002380180033309000999V1010000000001500000000000N0000000001500000401000074298120101HERRERA INDA FELIPE                                         201007020238163828A00020100629                                                                        00999
2002380180039417000999V1010000000001500000000000N0000000001500000401000074378120104HERRERA IDA FELIPE A                                        201007020238163951A00020100629                                                                        00999
2015610180055752000999V1010000000001500000000000N0000000001500000401000074924120103LARA RODRIGUEZ PEDRO                                        201007021561105408A00020100629                                                                        00999
2015610180056393000999V1010000000001500000000000N0000000001500000401000075084120106LARA RODRIGEZ PEDRO                                         201007021561105526A00020100629                                                                        00999
2022850180049162000999V1010000000001500000000000N0000000001500000401000075399120106OLIDEN GONZALEZ ALAN                                        201007022285093036A00020100629                                                                        00999
2004910180098615000999V1010000000001500000000000N0000000001500000401000076144120102MENDOZA RODRIGUEZ FR                                        201007020491134028A00020100629                                                                        00999
2022850180037383000999V1010000000001500000000000N0000000001500000401000076862120102OSCAR MARCIAL NUÅEZ                                         201007022285164217A00020100629                                                                        00999
2022850180036709000999V1010000000001500000000000N0000000001500000401000076863120101OSCAR MARCIAL NUÅEZ                                         201007022285164125A00020100629                                                                        00999
2015610180094207000999V1010000000001500000000000N0000000001500000401000077517120109GUTOERREZ LEDESMA GE                                        201007021561145034A00020100629                                                                        00999
2015360180032239000999V1010000000001500000000000N0000000001500000401500001493120102PEREZ SALCEDO BRUNO                                         201007021536140325A00020100629                                                                        00999
2022850180038167000999V1010000000001700000000000N0000000001700000501000069863120103LEON PUGA JOSE                                              201007022285163850A00020100629                                                                        00999
2001660180061756000999V1010000000001700000000000N0000000001700000501000069875120109OCTAVIO ORDAZ                                               201007020166153935A00020100629                                                                        00999
2022850180035664000999V1010000000001700000000000N0000000001700000501000069916120100LEON PUGA JOSE                                              201007022285163755A00020100629                                                                        00999
2005530180055258000999V1010000000001700000000000N0000000001700000501000070346120108RUELAS ACOSTA LUCIA                                         201007020553153652A00020100629                                                                        00999
2022880180023540000999V1010000000001700000000000N0000000001700000501000071563120102PULIDO FLORES ERICK                                         201007022288135652A00020100629                                                                        00999
2004990180090540000999V1010000000001700000000000N0000000001700000501000072309120109MAGA A MARES MANUEL                                         201007020499160111A00020100629                                                                        00999
2022850180041412000999V1010000000001700000000000N0000000001700000501000076859120104OSCAR MARCIAL NUÅEZ                                         201007022285164308A00020100629                                                                        00999
2004910180069292000999V1010000000001200000000000N0000000001200004000053089236343096GARCIA AVALOS ARTURO                                        201007020491143104A00020100629                                                                        00999
2015300180021294000999V1010000000001200000000000N0000000001200004000061008836343090ATRISTAIN COSS LILIA                                        201007021530124751A00020100629                                                                        00999
2015300180059887000999V1010000000001200000000000N0000000001200004000063009530073098GUTIERREZ NAVARRO JE                                        201007021530120707A00020100629                                                                        00999
2002050180045306000999V1010000000001200000000000N0000000001200004000063035132373099FERNANDEZ HERNANDEZ                                         201007020205141244A00020100629                                                                        00999
2002050180043093000999V1010000000001200000000000N0000000001200004000063035134603097FERNANDEZ HERNANDEZ                                         201007020205141104A00020100629                                                                        00999
2002050180040014000999V1010000000001200000000000N0000000001200004000063035135643092FERNANDEZ HERNANDEZ                                         201007020205140902A00020100629                                                                        00999
2001670180097284000999V1010000000001200000000000N0000000001200004000071010238563091NU O DORADO JUAN                                            201007020167160806A00020100629                                                                        00999
2015620180024299000999V1010000000001200000000000N0000000001200004000073020532313091GALVEZ ESTRADA JACOB                                        201007021562135804A00020100629                                                                        00999
2015620180024337000999V1010000000001200000000000N0000000001200004000073020534253097GALVEZ ESTRADA JACOB                                        201007021562135729A00020100629                                                                        00999
2015620180025165000999V1010000000001200000000000N0000000001200004000073020537923092GALVEZ ESTRADA JACOB                                        201007021562135845A00020100629                                                                        00999
2022850180075835000999V1010000000001200000000000N0000000001200004000073022234063099BAÅUELOS CAMEZ EMMAU                                        201007022285095346A00020100629                                                                        00999
2001660180086909000999V1010000000001200000000000N0000000001200004000073033134583094IVAN RUEDA HERNANDEZ                                        201007020166111635A00020100629                                                                        00999
2015010180053425000999V1010000000001200000000000N0000000001200004000073039934343092ANDRES TORRES GONZAL                                        201007021501105255A00020100629                                                                        00999
2019480180011331000999V1010000000001200000000000N0000000001200004000073047136293098LOAIZA TEXIS UZIEL O                                        201007021948123913A00020100629                                                                        00999
2019480180007609000999V1010000000001200000000000N0000000001200004000081007939163096ROMAN GOMEZ ARTURO                                          201007021948101809A00020100629                                                                        00999
2015610180053639000999V1010000000001200000000000N0000000001200004000081009339163098HERNANDEZ MARISCAL                                          201007021561105233A00020100629                                                                        00999
2015610180016988000999V1010000000001200000000000N0000000001200004000083025331853096LOMELI SANDOVAL RICA                                        201007021561150443A00020100629                                                                        00999
2005530180058238000999V1010000000001200000000000N0000000001200004000083034630843097PALACIOS HUERTA CLAU                                        201007020553142224A00020100629                                                                        00999
2005530180060615000999V1010000000001200000000000N0000000001200004000083034634383090PALACIOS HUERTA                                             201007020553142346A00020100629                                                                        00999
2015110180081261000999V1010000000001200000000000N0000000001200004000930001629473090ALATORRE RIVERA GUIL                                        201007021511095842A00020100629                                                                        00999
2022880180044026000999V1010000000001200000000000N0000000001200004000930003932253094ARANA SIORDIA SALVAD                                        201007022288115612A00020100629                                                                        00999
2001690180071189000999V1010000000001200000000000N0000000001200004000930004837433096AVILES ANDRADE KEVIN                                        201007020169154920A00020100629                                                                        00999
2001690180076570000999V1010000000001200000000000N0000000001200004000930004837943094AVILES ANDRADE KEVIN                                        201007020169155022A00020100629                                                                        00999
2015010180006047000999V1010000000001200000000000N0000000001200004000930010929113090CERVANTES CAMPOS JUA                                        201007021501134610A00020100629                                                                        00999
2015010180006313000999V1010000000001200000000000N0000000001200004000930010929453090CERVANTES CAMPOS JUA                                        201007021501134442A00020100629                                                                        00999
2002380180020638000999V1010000000001200000000000N0000000001200004000930012729183091CRUZ VELAZQUEZ DANIE                                        201007020238102757A00020100629                                                                        00999
2002380180017227000999V1010000000001200000000000N0000000001200004000930012731723090CRUZ VELAZQUEZ DANIE                                        201007020238102602A00020100629                                                                        00999
2002380180021421000999V1010000000001200000000000N0000000001200004000930012734813096CRUZ VELAZQUEZ DANIE                                        201007020238102931A00020100629                                                                        00999
2002380180017618000999V1010000000001200000000000N0000000001200004000930012736193091CRUZ VELAZQUEZ DANIE                                        201007020238102427A00020100629                                                                        00999
2001730180005799000999V1010000000001200000000000N0000000001200004000930014533943090DELGADO GONZALEZ ULI                                        201007020173112820A00020100629                                                                        00999
2022850180052872000999V1010000000001200000000000N0000000001200004000930015331723097ESCAMILLA CORDOVA JO                                        201007022285141945A00020100629                                                                        00999
2022850180048541000999V1010000000001200000000000N0000000001200004000930015332863090ESCAMILLA CORDOVA JO                                        201007022285141507A00020100629                                                                        00999
2022850180052073000999V1010000000001200000000000N0000000001200004000930015332943090ESCAMILLA CORDOVA JO                                        201007022285141744A00020100629                                                                        00999
2022850180049975000999V1010000000001200000000000N0000000001200004000930015334753091ESCAMILLA CORDOVA JO                                        201007022285141608A00020100629                                                                        00999
2022850180051266000999V1010000000001200000000000N0000000001200004000930015338943094ESCAMILLA CORDOVA JO                                        201007022285141656A00020100629                                                                        00999
2003130180026665000999V1010000000001200000000000N0000000001200004000930016831743098FLORES CARRANZA PEDR                                        201007020313114510A00020100629                                                                        00999
2003130180029084000999V1010000000001200000000000N0000000001200004000930016832543091FLORES CARRANZA PEDR                                        201007020313114420A00020100629                                                                        00999
2003130180027949000999V1010000000001200000000000N0000000001200004000930016833853093FLORES CARRANZA PEDR                                        201007020313114558A00020100629                                                                        00999
2019480180064231000999V1010000000001200000000000N0000000001200004000930017135793094FLORES LAMAS JOSE DE                                        201007021948142706A00020100629                                                                        00999
2015610180018311000999V1010000000001200000000000N0000000001200004000930019829563098GARCIA LOPEZ JUAN                                           201007021561090348A00020100629                                                                        00999
2015610180020528000999V1010000000001200000000000N0000000001200004000930019834093099GARCIA LOPEZ JUAN CA                                        201007021561090515A00020100629                                                                        00999
2019480180031056000999V1010000000001200000000000N0000000001200004000930021729473097GOMEZ SANDOVAL SINUH                                        201007021948163235A00020100629                                                                        00999
2019480180031539000999V1010000000001200000000000N0000000001200004000930021731253099GOMEZ SANDOVAL SINUE                                        201007021948163427A00020100629                                                                        00999
2019480180032292000999V1010000000001200000000000N0000000001200004000930021733733098GOMEZ SANDOVAL SINUE                                        201007021948163638A00020100629                                                                        00999
2001670180068865000999V1010000000001200000000000N0000000001200004000930025736183094HARO VALENCIA ISAAC                                         201007020167131824A00020100629                                                                        00999
2001670180012305000999V1010000000001200000000000N0000000001200004000930034029473097MARTIN DEL CAMPO RAM                                        201007020167150327A00020100629                                                                        00999
2001670180007599000999V1010000000001200000000000N0000000001200004000930034031253099MARTIN DEL CAMPO RAM                                        201007020167150135A00020100629                                                                        00999
2001670180095495000999V1010000000001200000000000N0000000001200004000930035733973090MAURY GUERRERO RAUL                                         201007020167133657A00020100629                                                                        00999
2006520180061932000999V1010000000001200000000000N0000000001200004000930038231743098MONTES AGUILAR JOSE                                         201007020652153849A00020100629                                                                        00999
2006520180056863000999V1010000000001200000000000N0000000001200004000930038232543091MONTES AGUILAR JOSE                                         201007020652153726A00020100629                                                                        00999
2006520180057679000999V1010000000001200000000000N0000000001200004000930038233853093MONTES AGUILAR JOSE                                         201007020652153532A00020100629                                                                        00999
2002380180045807000999V1010000000001200000000000N0000000001200004000930039533973094MU OZ MARMOLEJO RICA                                        201007020238130308A00020100629                                                                        00999
2015420180031974000999V1010000000001200000000000N0000000001200004000930040236693096NIÅO HINOJOSA EDUARD                                        201007021542151907A00020100629                                                                        00999
2014200180078303000999V1010000000001200000000000N0000000001200004000930044629343095LUIS ANTONIO PEREZ R                                        201007021420143721A00020100629                                                                        00999
2015620180055323000999V1010000000001200000000000N0000000001200004000930052729753097RUIZ RODRIGUEZ OSCAR                                        201007021562153655A00020100629                                                                        00999
2015620180054813000999V1010000000001200000000000N0000000001200004000930052732853090RUIZ RODRIGUEZ OSCAR                                        201007021562153553A00020100629                                                                        00999
2015660180097823000999V1010000000001200000000000N0000000001200004000930057735653090TREJO MATA FABIAN KE                                        201007021566145420A00020100629                                                                        00999
2001730180078446000999V1010000000001200000000000N0000000001200004000930059332773099VAZQUEZ DUEÅAS OSWAL                                        201007020173143727A00020100629                                                                        00999
2001730180085726000999V1010000000001200000000000N0000000001200004000930059332923090VAZQUEZ DUE AS OSWAL                                        201007020173144258A00020100629                                                                        00999
2001730180080364000999V1010000000001200000000000N0000000001200004000930059334093090VAZQUEZ DUEÅAS OSWAL                                        201007020173143855A00020100629                                                                        00999
2001730180082963000999V1010000000001200000000000N0000000001200004000930059335653090VAZQUEZ DUE AS OSWAL                                        201007020173144140A00020100629                                                                        00999
2001730180080006000999V1010000000001200000000000N0000000001200004000930059335983091VAZQUEZ DUEÅAS OSWAL                                        201007020173144009A00020100629                                                                        00999
2005510180035432000999V1010000000001200000000000N0000000001200004000930118331723099MONTERO ESPINOZA JOS                                        201007020551103949A00020100629                                                                        00999
2005510180031904000999V1010000000001200000000000N0000000001200004000930118332863092MONTERO ESPINOZA JOS                                        201007020551103646A00020100629                                                                        00999
2005510180032543000999V1010000000001200000000000N0000000001200004000930118332943092MONTERO ESPINOZA JOS                                        201007020551103748A00020100629                                                                        00999
2005510180026924000999V1010000000001200000000000N0000000001200004000930118334813095MONTERO ESPINOZA JOS                                        201007020551103335A00020100629                                                                        00999
2005510180030057000999V1010000000001200000000000N0000000001200004000930118336193090MONTERO ESPINOZA JOS                                        201007020551103536A00020100629                                                                        00999
2005510180035123000999V1010000000001200000000000N0000000001200004000930118338943096MONTERO ESPINOZA JOS                                        201007020551103851A00020100629                                                                        00999
2004990180098927000999V1010000000001200000000000N0000000001200004001010002531193090ALTAMIRANO R JOSE LU                                        201007020499160733A00020100629                                                                        00999
2004990180001837000999V1010000000001200000000000N0000000001200004001010002532693098ALTAMIRANO R JOSE L                                         201007020499161104A00020100629                                                                        00999
2004990180003043000999V1010000000001200000000000N0000000001200004001010002533903090ALTAMIRANO R JOSE LU                                        201007020499160932A00020100629                                                                        00999
2004990180098605000999V1010000000001200000000000N0000000001200004001010002535903098ALTAMIRANO R JOSE LU                                        201007020499160831A00020100629                                                                        00999
2004990180002861000999V1010000000001200000000000N0000000001200004001010002536563099ALTAMIRANO R JOSE L                                         201007020499161024A00020100629                                                                        00999
2004990180097145000999V1010000000001200000000000N0000000001200004001010002538073097ALTAMIRANO R JOSE LU                                        201007020499160614A00020100629                                                                        00999
2022850180070795000999V1010000000001200000000000N0000000001200004001010011632463096CHAVEZ VILLALOBOS AB                                        201007022285121347A00020100629                                                                        00999
2022850180075453000999V1010000000001200000000000N0000000001200004001010011632713094CHAVEZ VILLALOBOS A                                         201007022285121445A00020100629                                                                        00999
2022850180067254000999V1010000000001200000000000N0000000001200004001010030532713095JIMENEZ JIMENEZ GILB                                        201007022285121215A00020100629                                                                        00999
2015300180045666000999V1010000000001200000000000N0000000001200004001010035433903091MARTINEZ RAMIREZ GPE                                        201007021530115458A00020100629                                                                        00999
2001730180008168000999V1010000000001200000000000N0000000001200004001010042237863091OROZCO REYNOSO EDSON                                        201007020173150156A00020100629                                                                        00999
2022850180001344000999V1010000000001200000000000N0000000001200004001010046829623094PRECIADO MARISCAL JO                                        201007022285145653A00020100629                                                                        00999
2022850180005353000999V1010000000001200000000000N0000000001200004001010046832693092PRECIADO MARISCAL JO                                        201007022285145908A00020100629                                                                        00999
2022850180008157000999V1010000000001200000000000N0000000001200004001010046832823095PRECIADO MARISCAL JO                                        201007022285145743A00020100629                                                                        00999
2022850180003477000999V1010000000001200000000000N0000000001200004001010046835903092PRECIADO MARISCAL JO                                        201007022285145824A00020100629                                                                        00999
2002050180087878000999V1010000000001200000000000N0000000001200004001010051429143097RIZZO URZUA DIANA MA                                        201007020205144629A00020100629                                                                        00999
2002050180090690000999V1010000000001200000000000N0000000001200004001010051437053098RIZZO URZUNA DIANA M                                        201007020205144805A00020100629                                                                        00999
2019480180038501000999V1010000000001200000000000N0000000001200004001010061529313094SOLTERO CELAYA FELIP                                        201007021948152212A00020100629                                                                        00999
2019480180040377000999V1010000000001200000000000N0000000001200004001010061529313094SOLTERO CELAYA FELIP                                        201007021948152331A00020100629                                                                        00999
2015300180046300000999V1010000000001200000000000N0000000001200004001010065636403094VAZQUEZ GOMEZ LUIS F                                        201007021530115549A00020100629                                                                        00999
2015610180091364000999V1010000000001200000000000N0000000001200004001010068728633099VILLANUEVA BENITEZ                                          201007021561144832A00020100629                                                                        00999
2015610180097340000999V1010000000001200000000000N0000000001200004001010068731223094VILLANUEVA BENITEZ                                          201007021561144950A00020100629                                                                        00999
2015610180091570000999V1010000000001200000000000N0000000001200004001010068734183097VILLANUEVA BENITEZ                                          201007021561144712A00020100629                                                                        00999
2015610180088467000999V1010000000001200000000000N0000000001200004001010068735143090VILLANUEVA BENITEZ                                          201007021561144525A00020100629                                                                        00999
2015660180044904000999V1010000000001500000000000N0000000001500005000071022939163096NUNEZ HERNANDEZ ALAN                                        201007021566104623A00020100629                                                                        00999
2015610180051143000999V1010000000001500000000000N0000000001500005000081009336033095HERNANDEZ MONTSERRAT                                        201007021561105123A00020100629                                                                        00999
2022850180053586000999V1010000000001500000000000N0000000001500005000930015339373092ESCAMILL CORDOVA JO                                         201007022285141838A00020100629                                                                        00999
2015610180022125000999V1010000000001500000000000N0000000001500005000930019839373099GARCIA LOPEZ JUAN                                           201007021561090649A00020100629                                                                        00999
2015660180049170000999V1010000000001500000000000N0000000001500005000930024839103090GUTIERREZ BARAJAS VI                                        201007021566141538A00020100629                                                                        00999
2006430181087711000999V1010000000001500000000000N0000000001500000401000059651120103PADILLA JIMENEZ E A                                         201007020643164247A00020100630                                                                        00999
2015790181020927000999V1010000000001500000000000N0000000001500000401000060790120103CATA O SANTOS LAURA                                         201007021579123905A00020100630                                                                        00999
2004910181019671000999V1010000000001500000000000N0000000001500000401000061110120104ROBLES NAVA GUILLERM                                        201007020491134249A00020100630                                                                        00999
2019000181085558000999V1010000000001500000000000N0000000001500000401000061734120100MICHEL ARELLANO EVA                                         201007021900095806A00020100630                                                                        00999
2019000181087951000999V1010000000001500000000000N0000000001500000401000062268120102BASULTO IÅIGUEZ JOSE                                        201007021900100000A00020100630                                                                        00999
2015790181006127000999V1010000000001500000000000N0000000001500000401000063143120101SANCHEZ ROSAS JORGE                                         201007021579144045A00020100630                                                                        00999
2015670181056505000999V1010000000001500000000000N0000000001500000401000064377120106PEREZ HERNANDEZ CARL                                        201007021567151419A00020100630                                                                        00999
2022850181089977000999V1010000000001500000000000N0000000001500000401000065607120105RAMOS COLMENERO CYN                                         201007022285153512A00020100630                                                                        00999
2015360181069577000999V1010000000001500000000000N0000000001500000401000065716120103MARTINEZ MONTOYA PAU                                        201007021536152229A00020100630                                                                        00999
2015300181020680000999V1010000000001500000000000N0000000001500000401000066546120107GUERRERO ULOOA MARIO                                        201007021530155652A00020100630                                                                        00999
2005950181062503000999V1010000000001500000000000N0000000001500000401000067319120100JUAN P CABALLERO GAR                                        201007020595130710A00020100630                                                                        00999
2015570181027206000999V1010000000001500000000000N0000000001500000401000067837120103RIVERA ZAVALA JESUS                                         201007021557124152A00020100630                                                                        00999
2022850181064698000999V1010000000001500000000000N0000000001500000401000068115120104URIAS CALVILLO C                                            201007022285152117A00020100630                                                                        00999
2004910181040910000999V1010000000001500000000000N0000000001500000401000068761120101OROZCO PALMA RAFAEL                                         201007020491125057A00020100630                                                                        00999
2022940181082373000999V1010000000001500000000000N0000000001500000401000069259120108REYES AGUAYO                                                201007022294110850A00020100630                                                                        00999
2002380181070885000999V1010000000001500000000000N0000000001500000401000070122120101JOSE ANGEL TORRES MA                                        201007020238110001A00020100630                                                                        00999
2002380181072714000999V1010000000001500000000000N0000000001500000401000070152120104TORRES MARTIN JOSE A                                        201007020238110154A00020100630                                                                        00999
2002380181069838000999V1010000000001500000000000N0000000001500000401000070155120101JOSE ANGEL TORRES MA                                        201007020238105907A00020100630                                                                        00999
2015080181062545000999V1010000000001500000000000N0000000001500000401000071114120109PEREZ LOZANO ARACELI                                        201007021508162358A00020100630                                                                        00999
2015010181005792000999V1010000000001500000000000N0000000001500000401000071160120102BLANCAS MONTES VICTO                                        201007021501122838A00020100630                                                                        00999
2019480181051127000999V1010000000001500000000000N0000000001500000401000071528120109ALVAREZ MARES DAVID                                         201007021948151155A00020100630                                                                        00999
2006520181074084000999V1010000000001500000000000N0000000001500000401000071895120104LOMELI SANDOVAL FRAN                                        201007020652141721A00020100630                                                                        00999
2015420181099547000999V1010000000001500000000000N0000000001500000401000072231120105LIMON CALDERON JORGE                                        201007021542132902A00020100630                                                                        00999
2001700181026689000999V1010000000001500000000000N0000000001500000401000073141120102DEL REAL ALMERAZ OSC                                        201007020170155903A00020100630                                                                        00999
2015670181091756000999V1010000000001500000000000N0000000001500000401000073313120104JAVIER AVILA HERNAND                                        201007021567111455A00020100630                                                                        00999
2019480181000198000999V1010000000001500000000000N0000000001500000401000073935120102AVILA RAMIREZ LUIS F                                        201007021948112059A00020100630                                                                        00999
2019480181077988000999V1010000000001500000000000N0000000001500000401000074094120107AVALOS GUZMAN ALEJAN                                        201007021948152858A00020100630                                                                        00999
2019480181078737000999V1010000000001500000000000N0000000001500000401000074134120109AVALOS GUZMAN ALEJAN                                        201007021948153052A00020100630                                                                        00999
2019480181098453000999V1010000000001500000000000N0000000001500000401000074176120108AVILA RAMIREZ LUIS F                                        201007021948111954A00020100630                                                                        00999
2015610181005689000999V1010000000001500000000000N0000000001500000401000074404120102SERRANO VALENZUELA C                                        201007021561143812A00020100630                                                                        00999
2015610181007953000999V1010000000001500000000000N0000000001500000401000074444120104SERRANO VALENZUELA C                                        201007021561143949A00020100630                                                                        00999
2001730181044554000999V1010000000001500000000000N0000000001500000401000074601120103RODRIGUEZ CAMACHO                                           201007020173104153A00020100630                                                                        00999
2015110181059138000999V1010000000001500000000000N0000000001500000401000074613120109ULLOA ALVAREZ MIRIAM                                        201007021511151735A00020100630                                                                        00999
2015110181057665000999V1010000000001500000000000N0000000001500000401000074632120106SANCHEZ LOPEZ ALDO                                          201007021511151636A00020100630                                                                        00999
2015110181062560000999V1010000000001500000000000N0000000001500000401000074640120106ULOA ALVAREZ MIRIAM                                         201007021511151832A00020100630                                                                        00999
2015360181069562000999V1010000000001500000000000N0000000001500000401000075033120108RAMIREZ VAZQUEZ ARTU                                        201007021536141603A00020100630                                                                        00999
2002070181036019000999V1010000000001500000000000N0000000001500000401000075712120106JIMENEZ BRIOCIO SAND                                        201007020207114415A00020100630                                                                        00999
2002050181068937000999V1010000000001500000000000N0000000001500000401000075923120101DIAS REYNOSO ERNESTO                                        201007020205130922A00020100630                                                                        00999
2004940181000652000999V1010000000001500000000000N0000000001500000401000076044120103SENGUA RUVALCABA DAN                                        201007020494133029A00020100630                                                                        00999
2015790181008936000999V1010000000001500000000000N0000000001500000401000076819120106SANCHEZ ROSAS JORGE                                         201007021579144129A00020100630                                                                        00999
2022880181098485000999V1010000000001500000000000N0000000001500000401000077516120100AQUINO LOPEZ OCTAVIO                                        201007022288122524A00020100630                                                                        00999
2004990181038245000999V1010000000001500000000000N0000000001500000401000077533120109GARZA OROZCO CESAR A                                        201007020499150048A00020100630                                                                        00999
2000200181089566000999V1010000000001700000000000N0000000001700000501000068381120108CONCHAS PRECIADO RIC                                        201007020020153639A00020100630                                                                        00999
2019740181002196000999V1010000000001700000000000N0000000001700000501000068818120101MARCOS RIVERA ASCENC                                        201007021974165648A00020100630                                                                        00999
2019740181004491000999V1010000000001700000000000N0000000001700000501000068828120109MARCOS RIVERA ASCENC                                        201007021974165510A00020100630                                                                        00999
2015610181046057000999V1010000000001700000000000N0000000001700000501000069549120105GALVAN GUTIERREZ RIC                                        201007021561150651A00020100630                                                                        00999
2015360181073080000999V1010000000001700000000000N0000000001700000501000069961120104SILVA BEATO LUIS ENR                                        201007021536152418A00020100630                                                                        00999
2015610181039179000999V1010000000001700000000000N0000000001700000501000069983120108GONZALEZ GONZALEZ JJ                                        201007021561103753A00020100630                                                                        00999
2002380181071196000999V1010000000001700000000000N0000000001700000501000070123120107TORRES MARTIN JOSE A                                        201007020238110054A00020100630                                                                        00999
2004940181096277000999V1010000000001700000000000N0000000001700000501000070907120109SENGUA RUVALCABA DAN                                        201007020494132730A00020100630                                                                        00999
2015610181041803000999V1010000000001700000000000N0000000001700000501000071017120104LEPE DE LEON JUAN MI                                        201007021561135616A00020100630                                                                        00999
2015140181099566000999V1010000000001700000000000N0000000001700000501000076560120104ROMAN PRECIADO CARLO                                        201007021514132827A00020100630                                                                        00999
2006520181003136000999V1010000000001700000000000N0000000001700000501000076671120100RODRIGUEZ MENDOZA YO                                        201007020652154536A00020100630                                                                        00999
2004990181035700000999V1010000000001700000000000N0000000001700000501000076769120103GARZA  O CESAR                                              201007020499150133A00020100630                                                                        00999
2006520181009337000999V1010000000001700000000000N0000000001700000501000076945120100MARTINEZ AMADOR                                             201007020652154901A00020100630                                                                        00999
2006520181007038000999V1010000000001700000000000N0000000001700000501000076946120109MARTINEZ AMADOR ROB                                         201007020652154724A00020100630                                                                        00999
2006520181011534000999V1010000000001700000000000N0000000001700000501000076947120108MARTINEZ AMADOR ROB                                         201007020652155019A00020100630                                                                        00999
2001670181031572000999V1010000000001700000000000N0000000001700000501000077034120100LABRADA HERNANDEZ JU                                        201007020167160425A00020100630                                                                        00999
2001670181033241000999V1010000000001700000000000N0000000001700000501000077035120109LABRADA HERNANDEZ JU                                        201007020167160538A00020100630                                                                        00999
2001670181038397000999V1010000000001700000000000N0000000001700000501000077042120100LABRADA HERNANDEZ J                                         201007020167160651A00020100630                                                                        00999
2015360181036121000999V1010000000001700000000000N0000000001700000501000077211120105CARRASCO MARTINEZ JO                                        201007021536150003A00020100630                                                                        00999
2002050181097953000999V1010000000001700000000000N0000000001700000501000077435120105CUEVAS E SALVADOR                                           201007020205154105A00020100630                                                                        00999
2001670181007325000999V1010000000001700000000000N0000000001700000501000077550120104MONICA PATRICIA ROME                                        201007020167154735A00020100630                                                                        00999
2001670181065317000999V1010000000001200000000000N0000000001200004000053005638833096MONTES DE OCA MENDOZ                                        201007020167120221A00020100630                                                                        00999
2001670181062465000999V1010000000001200000000000N0000000001200004000053005638953092MONTES DE OCA MENDOZ                                        201007020167120030A00020100630                                                                        00999
2015610181038958000999V1010000000001200000000000N0000000001200004000063001729793099GONZALEZ PEÅA JESUS                                         201007021561150352A00020100630                                                                        00999
2015610181044865000999V1010000000001200000000000N0000000001200004000063001732893092GONZALEZ PEÅA JESU                                          201007021561150502A00020100630                                                                        00999
2022850181006164000999V1010000000001200000000000N0000000001200004000063002030063099COVARRUBIAS OCEGUEDA                                        201007022285133316A00020100630                                                                        00999
2022850181004619000999V1010000000001200000000000N0000000001200004000063002038813099COVARRUBIAS OCEGUEDA                                        201007022285133227A00020100630                                                                        00999
2022850181004650000999V1010000000001200000000000N0000000001200004000063002330063096GRAJALES ZEPEDA HUGO                                        201007022285133212A00020100630                                                                        00999
2022850181004306000999V1010000000001200000000000N0000000001200004000063002338813096GRAJALES ZEPEDA HUGO                                        201007022285133257A00020100630                                                                        00999
2022850181002948000999V1010000000001200000000000N0000000001200004000063003830063099MAYORGA LANDAVERDE L                                        201007022285133126A00020100630                                                                        00999
2022850181054849000999V1010000000001200000000000N0000000001200004000063004129303097DIAZ CASTA EDA CHIS                                         201007022285104941A00020100630                                                                        00999
2022850181056887000999V1010000000001200000000000N0000000001200004000063004138263092DIAZ CASTA EDA CHRIS                                        201007022285104856A00020100630                                                                        00999
2002050181068076000999V1010000000001200000000000N0000000001200004000063006229993099VAZQUEZ CALVARIO MAN                                        201007020205130719A00020100630                                                                        00999
2001670181065306000999V1010000000001200000000000N0000000001200004000063008338833091RIVERA ESPADAS MARIA                                        201007020167120339A00020100630                                                                        00999
2001670181063966000999V1010000000001200000000000N0000000001200004000063008338953097RIVERA ESPADAS MARIA                                        201007020167120228A00020100630                                                                        00999
2022850181008670000999V1010000000001200000000000N0000000001200004000063014036353093TAMAYO SANCHEZ LUIS                                         201007022285112626A00020100630                                                                        00999
2022850181008438000999V1010000000001200000000000N0000000001200004000063014836353095BARAJAS GUTIERREZ JO                                        201007022285112535A00020100630                                                                        00999
2022850181035645000999V1010000000001200000000000N0000000001200004000063016836353090LOPEZ HERANDEZ ROD                                          201007022285135435A00020100630                                                                        00999
2015610181000498000999V1010000000001200000000000N0000000001200004000071003639163090HERNANDEZ BANUELOS H                                        201007021561133132A00020100630                                                                        00999
2002380181011810000999V1010000000001200000000000N0000000001200004000071005136383097RAMIREZ MARTINEZ CLA                                        201007020238155104A00020100630                                                                        00999
2015620181077826000999V1010000000001200000000000N0000000001200004000071005236383096PONCE VERDIN LUIS F                                         201007021562131458A00020100630                                                                        00999
2001660181021322000999V1010000000001200000000000N0000000001200004000071006536383091CEJA RIVERA MIGUEL A                                        201007020166134313A00020100630                                                                        00999
2022850181052699000999V1010000000001200000000000N0000000001200004000071008429303095EVANGELISTA MU OZ                                           201007022285104722A00020100630                                                                        00999
2022850181051691000999V1010000000001200000000000N0000000001200004000071008438263090EVANGELISTA MU OZ PA                                        201007022285104637A00020100630                                                                        00999
2005500181060814000999V1010000000001200000000000N0000000001200004000071019834073090QUEZADA GOMEZ REYN                                          201007020550093812A00020100630                                                                        00999
2005500181060557000999V1010000000001200000000000N0000000001200004000071019834363095QUEZADA GOMEZ REYNAL                                        201007020550093722A00020100630                                                                        00999
2001670181002114000999V1010000000001200000000000N0000000001200004000071020132893098ROMERO MACIAS PEDRO                                         201007020167154624A00020100630                                                                        00999
2005500181063485000999V1010000000001200000000000N0000000001200004000071020628023093QUEZADA GOMEZ REYN                                          201007020550093940A00020100630                                                                        00999
2005500181061371000999V1010000000001200000000000N0000000001200004000071020634073090QUEZADA GOMEZ REYN                                          201007020550093901A00020100630                                                                        00999
2004990181098618000999V1010000000001200000000000N0000000001200004000071022035613094GOMEZ VILLA ENRIQUE                                         201007020499122415A00020100630                                                                        00999
2002380181006702000999V1010000000001200000000000N0000000001200004000073000329963092BARBA ARIAS JORGE AR                                        201007020238144106A00020100630                                                                        00999
2002380181006488000999V1010000000001200000000000N0000000001200004000073000336413099BARBA ARIAS JORGE AR                                        201007020238144158A00020100630                                                                        00999
2015620181049460000999V1010000000001200000000000N0000000001200004000073006729963095BRAMBILA SANTAMARINA                                        201007021562104522A00020100630                                                                        00999
2015620181052467000999V1010000000001200000000000N0000000001200004000073006736413092BRAMBILA SANTAMARINA                                        201007021562104730A00020100630                                                                        00999
2022840181076364000999V1010000000001200000000000N0000000001200004000073009235413092ANDRADE APARICIO LAU                                        201007022284121105A00020100630                                                                        00999
2001670181081185000999V1010000000001200000000000N0000000001200004000073010234343090GUTIERREZ LOPEZ ISMA                                        201007020167131906A00020100630                                                                        00999
2015610181037632000999V1010000000001200000000000N0000000001200004000073014035413094DELGADILLA CASA                                             201007021561135411A00020100630                                                                        00999
2022850181079340000999V1010000000001200000000000N0000000001200004000073014234073095PONCE OROZCO CESAR                                          201007022285095300A00020100630                                                                        00999
2015110181009789000999V1010000000001200000000000N0000000001200004000073020132283090MTZ GTZ KARLA ALEJAN                                        201007021511170217A00020100630                                                                        00999
2015190181087380000999V1010000000001200000000000N0000000001200004000073026031643094VILLARREAL NARANJO D                                        201007021519142621A00020100630                                                                        00999
2004980181087115000999V1010000000001200000000000N0000000001200004000073027734253090DE LA CRUZ PEREZ OSC                                        201007020498131953A00020100630                                                                        00999
2015020181094621000999V1010000000001200000000000N0000000001200004000073031432373093ESTRADA  ROBLES  ALV                                        201007021502132618A00020100630                                                                        00999
2004990181055042000999V1010000000001200000000000N0000000001200004000073036332373093CHAVEZ VARGAS LUIS C                                        201007020499140648A00020100630                                                                        00999
2004990181060155000999V1010000000001200000000000N0000000001200004000073036335643096CHAVEZ VARGAS LUIS                                          201007020499140847A00020100630                                                                        00999
2022850181040005000999V1010000000001200000000000N0000000001200004000073085136293098MARTINEZ VELASCO CES                                        201007022285092059A00020100630                                                                        00999
2015270181062870000999V1010000000001200000000000N0000000001200004000081004033133091VELAZQUEZ AVELAR CES                                        201007021527141112A00020100630                                                                        00999
2015270181064048000999V1010000000001200000000000N0000000001200004000081004033173097VELAZQUEZ AVELAR CES                                        201007021527141224A00020100630                                                                        00999
2001670181079060000999V1010000000001200000000000N0000000001200004000081011437963098LIMON JIMENEZ VICTOR                                        201007020167121215A00020100630                                                                        00999
2006470181009870000999V1010000000001200000000000N0000000001200004000081011631643090LUIS MANUEL ALVAREZ                                         201007020647112706A00020100630                                                                        00999
2015670181032446000999V1010000000001200000000000N0000000001200004000081012037963090GONZALEZ DEL RIO KEV                                        201007021567124432A00020100630                                                                        00999
2015300181075641000999V1010000000001200000000000N0000000001200004000081023531653095AYALA OCHOA RAFAEL                                          201007021530141937A00020100630                                                                        00999
2022850181030472000999V1010000000001200000000000N0000000001200004000083002037433093ANGUIANO GONZALEZ IG                                        201007022285114024A00020100630                                                                        00999
2022850181018467000999V1010000000001200000000000N0000000001200004000083002535223095ARMAS MACIAS DANIEL                                         201007022285134117A00020100630                                                                        00999
2022850181016054000999V1010000000001200000000000N0000000001200004000083002535923090ARMAS MACIAS DANIEL                                         201007022285133925A00020100630                                                                        00999
2022850181016179000999V1010000000001200000000000N0000000001200004000083002538743099ARMAS MACIAS DANIEL                                         201007022285134001A00020100630                                                                        00999
2022850181079828000999V1010000000001200000000000N0000000001200004000083004129803092BARON ARELLANO JESUS                                        201007022285131813A00020100630                                                                        00999
2022850181013057000999V1010000000001200000000000N0000000001200004000083009131833094CORREA RUIZ M                                               201007022285123155A00020100630                                                                        00999
2022850181011979000999V1010000000001200000000000N0000000001200004000083009134443099CORREA RUIZ M                                               201007022285123118A00020100630                                                                        00999
2015390181085544000999V1010000000001200000000000N0000000001200004000083025631513093LOPEZ ORNELAS ROMAN                                         201007021539121432A00020100630                                                                        00999
2015390181082339000999V1010000000001200000000000N0000000001200004000083025631823096LOPEZ ORNELAS ROMAN                                         201007021539121315A00020100630                                                                        00999
2004990181094376000999V1010000000001200000000000N0000000001200004000083047036083092VAZQUEZ CALVARIO JOS                                        201007020499143157A00020100630                                                                        00999
2002380181064837000999V1010000000001200000000000N0000000001200004000083096833203098TOPETE PEREA ALEJAND                                        201007020238141137A00020100630                                                                        00999
2002380181061645000999V1010000000001200000000000N0000000001200004000083096833363090TOPETE PEREA ALEJAND                                        201007020238140946A00020100630                                                                        00999
2002380181059475000999V1010000000001200000000000N0000000001200004000083096836083091TOPETE PEREA ALEJAND                                        201007020238140745A00020100630                                                                        00999
2004910181036237000999V1010000000001200000000000N0000000001200004000910015831333094GASTELUM                                                    201007020491114315A00020100630                                                                        00999
2004910181034972000999V1010000000001200000000000N0000000001200004000910015833163093GASTELUM                                                    201007020491114226A00020100630                                                                        00999
2015660181006230000999V1010000000001200000000000N0000000001200004000910021029053098HARO LIMON VICTOR DA                                        201007021566122743A00020100630                                                                        00999
2015660181099433000999V1010000000001200000000000N0000000001200004000910021029103091HARO LION VICTOR DAN                                        201007021566122544A00020100630                                                                        00999
2015660181007719000999V1010000000001200000000000N0000000001200004000910021029463099HARO LIMON VICTOR DA                                        201007021566122954A00020100630                                                                        00999
2015660181099065000999V1010000000001200000000000N0000000001200004000910021033833097HARO LIMON VICTOR DA                                        201007021566122431A00020100630                                                                        00999
2015660181006134000999V1010000000001200000000000N0000000001200004000910021033983090HARO LIMON VICTOR DA                                        201007021566122851A00020100630                                                                        00999
2000200181061889000999V1010000000001200000000000N0000000001200004000910022732443097HERNANDEZ RIOS LUIS                                         201007020020105340A00020100630                                                                        00999
2000200181064089000999V1010000000001200000000000N0000000001200004000910022735623091HERNANDEZ RIOS LUIS                                         201007020020105515A00020100630                                                                        00999
2015790181086610000999V1010000000001200000000000N0000000001200004000910036529643099PEREZ ROCHA LUIS MAN                                        201007021579142849A00020100630                                                                        00999
2015790181090929000999V1010000000001200000000000N0000000001200004000910036533873096PEREZ ROCHA LUIS MAN                                        201007021579143143A00020100630                                                                        00999
2015790181091458000999V1010000000001200000000000N0000000001200004000910036538433094PEREZ ROCHA LUIS MAN                                        201007021579143002A00020100630                                                                        00999
2015140181066315000999V1010000000001200000000000N0000000001200004000930000229553095ACU A NAVA SERGIO                                           201007021514130612A00020100630                                                                        00999
2019480181066300000999V1010000000001200000000000N0000000001200004000930005329353098BANUELOS HUERTA ANAH                                        201007021948094235A00020100630                                                                        00999
2019480181065126000999V1010000000001200000000000N0000000001200004000930005331263095BA UELOS HUERTA ANAH                                        201007021948094051A00020100630                                                                        00999
2019480181062365000999V1010000000001200000000000N0000000001200004000930005335993093BA UELOS HUERTA ANAH                                        201007021948093851A00020100630                                                                        00999
2004980181015239000999V1010000000001200000000000N0000000001200004000930007729453098BRISEÅO AZANO SEIJI                                         201007020498101959A00020100630                                                                        00999
2004980181014170000999V1010000000001200000000000N0000000001200004000930007733963090BRISEÅO AZANO SEIJI                                         201007020498101752A00020100630                                                                        00999
2004980181018760000999V1010000000001200000000000N0000000001200004000930007736103090BRISEÅO AZANO SEIJI                                         201007020498102236A00020100630                                                                        00999
2004980181086491000999V1010000000001200000000000N0000000001200004000930010829343094CERDA RIZO PERLA                                            201007020498132059A00020100630                                                                        00999
2004980181084689000999V1010000000001200000000000N0000000001200004000930010832073092CERDA RIZO PERLA                                            201007020498131921A00020100630                                                                        00999
2004980181088329000999V1010000000001200000000000N0000000001200004000930010832223093CERDA RIZO PERLA                                            201007020498132211A00020100630                                                                        00999
2004980181082532000999V1010000000001200000000000N0000000001200004000930010832253090CERDA RIZO PERLA                                            201007020498131813A00020100630                                                                        00999
2002370181077901000999V1010000000001200000000000N0000000001200004000930011329353096CHAVARIN MORALES OSC                                        201007020237163519A00020100630                                                                        00999
2002370181072784000999V1010000000001200000000000N0000000001200004000930011331263093CHAVARIN MORALES OSC                                        201007020237163421A00020100630                                                                        00999
2002370181066981000999V1010000000001200000000000N0000000001200004000930011332783099CHAVARIN MORALES OSC                                        201007020237163141A00020100630                                                                        00999
2002370181069117000999V1010000000001200000000000N0000000001200004000930011335993091CHAVARIN MORALES OSC                                        201007020237163311A00020100630                                                                        00999
2015070181014534000999V1010000000001200000000000N0000000001200004000930013531493090DE LA MORA VIDAL EMI                                        201007021507155252A00020100630                                                                        00999
2015070181015680000999V1010000000001200000000000N0000000001200004000930013533393090DE LA MORA VIDAL EMI                                        201007021507155531A00020100630                                                                        00999
2015070181018758000999V1010000000001200000000000N0000000001200004000930013533923094DE LA MORA VIDAL EMI                                        201007021507155412A00020100630                                                                        00999
2015610181039576000999V1010000000001200000000000N0000000001200004000930014331723090DELGADILLO CASA DIA                                         201007021561135531A00020100630                                                                        00999
2015300181087960000999V1010000000001200000000000N0000000001200004000930017631723090FLORES SANCHEZ EDUAR                                        201007021530132151A00020100630                                                                        00999
2022850181049877000999V1010000000001200000000000N0000000001200004000930019931733092GARCIA LOPEZ ULISES                                         201007022285092915A00020100630                                                                        00999
2022850181049029000999V1010000000001200000000000N0000000001200004000930019935803099GARCIA LOPEZ ULISES                                         201007022285092809A00020100630                                                                        00999
2015610181090379000999V1010000000001200000000000N0000000001200004000930020234093093GARCIA MORENO JULIO                                         201007021561132332A00020100630                                                                        00999
2015610181088491000999V1010000000001200000000000N0000000001200004000930020237023097GARCIA MORENO JULIO                                         201007021561132212A00020100630                                                                        00999
2015610181092689000999V1010000000001200000000000N0000000001200004000930020237563092GARCIA MORENO JULIO                                         201007021561132500A00020100630                                                                        00999
2019480181043921000999V1010000000001200000000000N0000000001200004000930022229573097GONZALEZ ECHEGOLLEN                                         201007021948114811A00020100630                                                                        00999
2019480181039654000999V1010000000001200000000000N0000000001200004000930022229873091GONZALEZ ECHEGOLLEN                                         201007021948114607A00020100630                                                                        00999
2019480181044814000999V1010000000001200000000000N0000000001200004000930022231273090GONZALEZ ECHEGOLLEN                                         201007021948114919A00020100630                                                                        00999
2019480181040399000999V1010000000001200000000000N0000000001200004000930022232103098GONZALEZZ ECHEGOLLEN                                        201007021948114704A00020100630                                                                        00999
2019480181048392000999V1010000000001200000000000N0000000001200004000930022234203094GONZALEZ ECHEGOLLEN                                         201007021948115015A00020100630                                                                        00999
2006520181032811000999V1010000000001200000000000N0000000001200004000930023129453091GONZALEZ PEREGRINA L                                        201007020652145740A00020100630                                                                        00999
2006520181036337000999V1010000000001200000000000N0000000001200004000930023136183095GONZALEZ PEREGRINA L                                        201007020652145929A00020100630                                                                        00999
2015610181057123000999V1010000000001200000000000N0000000001200004000930026036183099HERNANDEZ BALTAZAR C                                        201007021561093513A00020100630                                                                        00999
2004910181012700000999V1010000000001200000000000N0000000001200004000930029231743097JIMENEZ GONZALEZ                                            201007020491101834A00020100630                                                                        00999
2005510181033071000999V1010000000001200000000000N0000000001200004000930029629063090HUGO ENRIQUE JIMENEZ                                        201007020551114119A00020100630                                                                        00999
2005510181028489000999V1010000000001200000000000N0000000001200004000930029629453093HUGO ENRIQUE JIMENEZ                                        201007020551113901A00020100630                                                                        00999
2005510181033705000999V1010000000001200000000000N0000000001200004000930029633823091HUGO ENRIQUE JIMENEZ                                        201007020551114005A00020100630                                                                        00999
2015790181085449000999V1010000000001200000000000N0000000001200004000930030731743090LIZARRAGA OSUNA ABRA                                        201007021579132005A00020100630                                                                        00999
2000200181025318000999V1010000000001200000000000N0000000001200004000930035829643094MAXEMIN AGUILAR JOAQ                                        201007020020090843A00020100630                                                                        00999
2000200181028144000999V1010000000001200000000000N0000000001200004000930035832433095MAXEMIN AGUILAR JOAQ                                        201007020020091123A00020100630                                                                        00999
2000200181023471000999V1010000000001200000000000N0000000001200004000930035833873091MAXEMIN AGUILAR JOAQ                                        201007020020090708A00020100630                                                                        00999
2000200181021621000999V1010000000001200000000000N0000000001200004000930035835633097MAXEMIN AGUILAR JOAQ                                        201007020020090545A00020100630                                                                        00999
2000200181030507000999V1010000000001200000000000N0000000001200004000930035837263091MAXEMIN AGUILAR JOAQ                                        201007020020091256A00020100630                                                                        00999
2000200181026204000999V1010000000001200000000000N0000000001200004000930035838523097MAXEMIN AGUILAR JOAQ                                        201007020020090944A00020100630                                                                        00999
2015120181034570000999V1010000000001200000000000N0000000001200004000930045233983093PLASCENCIA AVI A MAN                                        201007021512114313A00020100630                                                                        00999
2022850181060615000999V1010000000001200000000000N0000000001200004000930048829573096RIVAS INZUNZA EDSON                                         201007022285115924A00020100630                                                                        00999
2022850181061977000999V1010000000001200000000000N0000000001200004000930048831273099RIVAS INZUNZA EDSON                                         201007022285120015A00020100630                                                                        00999
2002370181075118000999V1010000000001200000000000N0000000001200004000930060729483094CESAR AHKIN VERDIN T                                        201007020237163730A00020100630                                                                        00999
2002370181077854000999V1010000000001200000000000N0000000001200004000930060735673092CESAR AHKIN VERDIN                                          201007020237163559A00020100630                                                                        00999
2015190181080706000999V1010000000001200000000000N0000000001200004000930061232253099VILLASE OR CONTRERAS                                        201007021519142253A00020100630                                                                        00999
2015620181021986000999V1010000000001200000000000N0000000001200004001010002428863094ALMAZAN FALCON HECTO                                        201007021562102325A00020100630                                                                        00999
2015620181015197000999V1010000000001200000000000N0000000001200004001010002429773094ALMAZAN FALCON HECTO                                        201007021562102008A00020100630                                                                        00999
2015620181016804000999V1010000000001200000000000N0000000001200004001010002433723093ALAMZAN FALCON HECTO                                        201007021562102135A00020100630                                                                        00999
2015620181007239000999V1010000000001200000000000N0000000001200004001010002434633093ALMAZAN FALCON HECT                                         201007021562101413A00020100630                                                                        00999
2015620181003372000999V1010000000001200000000000N0000000001200004001010002434773097ALMAZAN FALCON HECTO                                        201007021562101130A00020100630                                                                        00999
2015620181012692000999V1010000000001200000000000N0000000001200004001010002435183098ALMAZAN FALCON HECTO                                        201007021562101834A00020100630                                                                        00999
2006470181007574000999V1010000000001200000000000N0000000001200004001010002929623096ALVAREZ PACHECO JESS                                        201007020647112517A00020100630                                                                        00999
2006470181005553000999V1010000000001200000000000N0000000001200004001010002932693094ALVAREZ PACHECO JESS                                        201007020647112428A00020100630                                                                        00999
2006470181003384000999V1010000000001200000000000N0000000001200004001010002933903096ALVAREZ PACHECO JESS                                        201007020647112240A00020100630                                                                        00999
2006470181006135000999V1010000000001200000000000N0000000001200004001010002935903094ALVAREZ PACHECO JESS                                        201007020647112328A00020100630                                                                        00999
2006470181013265000999V1010000000001200000000000N0000000001200004001010002936563095ALVAREZ PACHECO JESS                                        201007020647112602A00020100630                                                                        00999
2004980181005136000999V1010000000001200000000000N0000000001200004001010003034633095AMEZCUA CRUZ CARLOS                                         201007020498170053A00020100630                                                                        00999
2022850181032824000999V1010000000001200000000000N0000000001200004001010003432463095ANGUIANO GONZALEZ F                                         201007022285114107A00020100630                                                                        00999
2022850181036058000999V1010000000001200000000000N0000000001200004001010003434793093ANGUIANO GONZALEZ F                                         201007022285114150A00020100630                                                                        00999
2022850181022849000999V1010000000001200000000000N0000000001200004001010006332713097BARRENA GARCIA JUAN                                         201007022285113532A00020100630                                                                        00999
2001660181054882000999V1010000000001200000000000N0000000001200004001010012829773099CORTES IBARRA FATIMA                                        201007020166130012A00020100630                                                                        00999
2001660181056693000999V1010000000001200000000000N0000000001200004001010012833723098CORTES IBARRA FATIMA                                        201007020166130124A00020100630                                                                        00999
2001660181058588000999V1010000000001200000000000N0000000001200004001010012834633098CORTES IBARRA FATIMA                                        201007020166130228A00020100630                                                                        00999
2001660181054813000999V1010000000001200000000000N0000000001200004001010012835183093CORTES IBARRA FATIMA                                        201007020166125923A00020100630                                                                        00999
2001660181052560000999V1010000000001200000000000N0000000001200004001010012836713096CORTES IBARRA FATIMA                                        201007020166125821A00020100630                                                                        00999
2002370181099558000999V1010000000001200000000000N0000000001200004001010014529613096DE LA CRUZ MACIAS                                           201007020237154433A00020100630                                                                        00999
2002370181001101000999V1010000000001200000000000N0000000001200004001010014531033093DE LA CRUZ MACIAS                                           201007020237154543A00020100630                                                                        00999
2002370181000428000999V1010000000001200000000000N0000000001200004001010014532463091DE LA CRUZ MACIAS J                                         201007020237154143A00020100630                                                                        00999
2002370181092996000999V1010000000001200000000000N0000000001200004001010014532713099DE LA CRUZ MACIAS JO                                        201007020237154024A00020100630                                                                        00999
2002370181098831000999V1010000000001200000000000N0000000001200004001010014534793099DE LA CRUZ MACIAS                                           201007020237154253A00020100630                                                                        00999
2004910181068045000999V1010000000001200000000000N0000000001200004001010016733723090ENRIQUEZ SANCHEZ                                            201007020491152158A00020100630                                                                        00999
2004910181071061000999V1010000000001200000000000N0000000001200004001010016734633090ENRIQUEZ SANCHEZ                                            201007020491152259A00020100630                                                                        00999
2004910181067411000999V1010000000001200000000000N0000000001200004001010016735183095ENRIQUEZ SANCHEZ                                            201007020491152052A00020100630                                                                        00999
2004910181062333000999V1010000000001200000000000N0000000001200004001010016736713098ENRIQUEZ SANCHEZ                                            201007020491151947A00020100630                                                                        00999
2004910181031714000999V1010000000001200000000000N0000000001200004001010018130373099FERNANDEZ                                                   201007020491114027A00020100630                                                                        00999
2004910181030466000999V1010000000001200000000000N0000000001200004001010018135183097FERNANDEZ                                                   201007020491113935A00020100630                                                                        00999
2022850181021892000999V1010000000001200000000000N0000000001200004001010021829423092GARCIA MORA ALBERTO                                         201007022285090545A00020100630                                                                        00999
2022850181023298000999V1010000000001200000000000N0000000001200004001010021832053092GARCIA MORA ALBERTO                                         201007022285090654A00020100630                                                                        00999
2022850181020969000999V1010000000001200000000000N0000000001200004001010021834463091GARCIA MORA ALBERTO                                         201007022285090459A00020100630                                                                        00999
2000200181037173000999V1010000000001200000000000N0000000001200004001010024329373098GONZALEZ RAMIREZ ANA                                        201007020020150020A00020100630                                                                        00999
2000200181034411000999V1010000000001200000000000N0000000001200004001010024332463092GONZALEZ RAMIREZ ANA                                        201007020020145849A00020100630                                                                        00999
2000200181035225000999V1010000000001200000000000N0000000001200004001010024332713090GONZALEZ RAMIREZ ANA                                        201007020020145940A00020100630                                                                        00999
2001730181036870000999V1010000000001200000000000N0000000001200004001010024534633096CAMARENA RAMIREZ                                            201007020173160946A00020100630                                                                        00999
2015610181076521000999V1010000000001200000000000N0000000001200004001010027928863096HERNANDEZ MACIAS                                            201007021561163833A00020100630                                                                        00999
2015610181077691000999V1010000000001200000000000N0000000001200004001010027930373092HERNANDEZ MACIAS                                            201007021561163934A00020100630                                                                        00999
2015610181085365000999V1010000000001200000000000N0000000001200004001010027935183090HERNANDEZ MACIAS                                            201007021561164054A00020100630                                                                        00999
2015260181016025000999V1010000000001200000000000N0000000001200004001010033334463091LUQUIN ORTIZ IVAN                                           201007021526113119A00020100630                                                                        00999
2002370181023626000999V1010000000001200000000000N0000000001200004001010040932683095ANDRES DE JESUS LOPE                                        201007020237145325A00020100630                                                                        00999
2002370181025481000999V1010000000001200000000000N0000000001200004001010040933793091ANDRES DE JESUS LOPE                                        201007020237145158A00020100630                                                                        00999
2019480181039956000999V1010000000001200000000000N0000000001200004001010043230733091PADILLA BERNAL GUSTA                                        201007021948150429A00020100630                                                                        00999
2019480181044372000999V1010000000001200000000000N0000000001200004001010043232703092PADILLA BERNAL GUSTA                                        201007021948150541A00020100630                                                                        00999
