2004940232072645000999V1010000000008500000000000N0000000008500000200000093007251102DAVILA CUEVAS ANGELI                                        201009040494163744A00020100820                                                                        00999
2015360232010714000999V1010000000006200000023000R0000000008500000200000101005921103SANDOVAL CAMPOS MIRI                                        201008161536154741A00020100820                                                                        00999
2015540232011826000999V1010000000006000000023000R0000000008300000201000611098320102CESAR DAVID CASILLAS                                        201008161554170214A00020100820                                                                        00999
2004940232072645000999V1010000000008500000000000N0000000008500000200000093007251102DAVILA CUEVAS ANGELI                                        201009040494163744A00020100820                                                                        00999
2015360232010714000999V1010000000006200000023000R0000000008500000200000101005921103SANDOVAL CAMPOS MIRI                                        201008161536154741A00020100820                                                                        00999
2015540232011826000999V1010000000006000000023000R0000000008300000201000611098320102CESAR DAVID CASILLAS                                        201008161554170214A00020100820                                                                        00999
2002380235028514000999V1010000000006900000023000R0000000009200000020110110206320105PEÅA CORTES LUCIO CE                                        201008160238103336A00020100823                                                                        00999
2015420235082888000999V1010000000011870000000000N0000000011870000100000103004611109HERRERA JAUREGUI YAI                                        201009041542144042A00020100823                                                                        00999
2015360235019022000999V1010000000008500000000000N0000000008500000200000008307901107PEÅA ROJAS ERICK RIC                                        201009041536091024A00020100823                                                                        00999
2002370235045712000999V1010000000008500000000000N0000000008500000200000008308291102SALVADOR REYNOSO                                            201009040237120149A00020100823                                                                        00999
2019740235029654000999V1050000000008500000000000N0000000008500000200000093010911106SAUCEDO RANGEL                                              201009041974104430A00020100823                                                                        00999
2004940235049118000999V1010000000008500000000000N0000000008500000200000101004171106OLIVARES SAILVA RUTH                                        201009040494094700A00020100823                                                                        00999
2004910235061811000999V1010000000006900000023000R0000000009200000201009310346320102ROSALES PULIDO                                              201008160491121052A00020100823                                                                        00999
2019740236061021000999V1010000000009200000000000N0000000009200000020110110066320104CARAPIA CHAVEZ JOSE                                         201009031974132743A00020100824                                                                        00999
2015790236078658000999V1010000000009200000000000N0000000009200000020110110109320103FRANCISCO J GARCIA                                          201009031579111326A00020100824                                                                        00999
2001730236073943000999V1010000000011870000000000N0000000011870000100000103010801108CARPINTERO AGUIRRE M                                        201009030173134013A00020100824                                                                        00999
2022850236000298000999V1010000000008500000000000N0000000008500000200000008301721105GARIBAY FREGOSO GIB                                         201009032285101406A00020100824                                                                        00999
2015570236019619000999V1010000000008500000000000N0000000008500000200000008303991102RODRIGUEZ ARAMBULA D                                        201009031557153644A00020100824                                                                        00999
2004910236052091000999V1010000000008500000000000N0000000008500000200000091000881107CRUZ GUTIERREZ LENIN                                        201009030491160758A00020100824                                                                        00999
2015300236062329000999V1010000000008500000000000N0000000008500000200000093002081108GARCIA RUIZ RICARDO                                         201009031530094305A00020100824                                                                        00999
2019000236007354000999V1010000000008500000000000N0000000008500000200000093005671103SOLORZANO PEREZ                                             201009031900153039A00020100824                                                                        00999
2002070236044074000999V1010000000008500000000000N0000000008500000200000093006821103CAMACHO CORTES JORGE                                        201009040207131708A00020100824                                                                        00999
2002370236081570000999V1010000000006200000023000R0000000008500000200000093007551105FLORES ABATOS ISMAEL                                        201008160237150421A00020100824                                                                        00999
2015620236077364000999V1010000000009200000000000N0000000009200000201000611188320103ALEJANDRO ROMO RODRI                                        201009031562134248A00020100824                                                                        00999
2022850236005713000999V1010000000009200000000000N0000000009200000201000711132320108VARGAS FLORES SERGIO                                        201009032285153011A00020100824                                                                        00999
2022850236034601000999V1010000000009200000000000N0000000009200000201000731123320107GUTIERREZ GOMEZ JAV                                         201009032285142630A00020100824                                                                        00999
2001670236028045000999V1010000000009200000000000N0000000009200000201000831111320109HERNANDEZ ROMERO MIG                                        201009030167142251A00020100824                                                                        00999
2006480236092881000999V1010000000009200000000000N0000000009200000201009310073320101CHAVEZ VILLANUEVA IS                                        201009030648151936A00020100824                                                                        00999
2002050236066393000999V1010000000009200000000000N0000000009200000201009310218320107MALDONADO HERNANDEZ                                         201009030205133410A00020100824                                                                        00999
2006470237081872000999V1010000000002500000000000N0000000002500000000300101004881101RAMOS PRECIADO ABR                                          201009030647141620A00020100825                                                                        00999
2015590237034462000999V1010000000008500000000000N0000000008500000200000091000991104DE LA TORRE VILLARRU                                        201009041559134033A00020100825                                                                        00999
2002070237091150000999V1010000000008500000000000N0000000008500000200000093009591109NUÅEZ HERNANDEZ CESA                                        201009040207130409A00020100825                                                                        00999
2001700237047549000999V1010000000008500000000000N0000000008500000200000101003661107MARIA GPE MENDOZA MA                                        201009040170093346A00020100825                                                                        00999
2006470237076880000999V1010000000008500000000000N0000000008500000200000101004881100RAMON PRECIADO ABRAH                                        201009030647141522A00020100825                                                                        00999
2001730237083223000999V1010000000009200000000000N0000000009200000201000831123320105LARA RODRIGUEZ JOSE                                         201009030173125751A00020100825                                                                        00999
2015080237036153000999V1010000000009200000000000N0000000009200000201000831220320107TALAVERA SANCHEZ DAN                                        201009031508105816A00020100825                                                                        00999
2015360237054841000999V1010000000009200000000000N0000000009200000201009310223320100A                                                           201009031536111259A00020100825                                                                        00999
2015300237023668000999V1010000000009200000000000N0000000009200000201009310264320100NU EZ GARCIA JAIME                                          201009031530120937A00020100825                                                                        00999
2019740238083123000999V1010000000008500000000000N0000000008500000200000007307241100HERNANDEZ GOMEZ BREN                                        201009041974101200A00020100826                                                                        00999
2022850238053542000999V1010000000008500000000000N0000000008500000200000091002381106IBARRA GUZMAN LILIAN                                        201009032285123750A00020100826                                                                        00999
2015360238048432000999V1010000000008500000000000N0000000008500000200000093010121102A                                                           201009041536135758A00020100826                                                                        00999
2019480238043703000999V1010000000008500000000000N0000000008500000200000101001081100JORGE                                                       201009031948135245A00020100826                                                                        00999
2019480239008589000999V1010000000009200000000000N0000000009200000020110110048320107AVALOS GUZMAN                                               201009031948141754A00020100827                                                                        00999
2015670239021784000999V1010000000009200000000000N0000000009200000020110110259320101TERAN REYES LEONEL                                          201009031567120027A00020100827                                                                        00999
2003130239059318000999V1010000000008500000000000N0000000008500000200000006302791101VILLASEÅOR LOPEZ JOS                                        201009030313145404A00020100827                                                                        00999
2006480239030298000999V1010000000008500000000000N0000000008500000200000093010861103SANDOVAL DE LA CRUZ                                         201009040648154623A00020100827                                                                        00999
2002050239098060000999V1010000000009200000000000N0000000009200000201000016823320106CARDENAS VAZQUEZ FAB                                        201009030205164206A00020100827                                                                        00999
2006430239038915000999V1010000000009200000000000N0000000009200000201000731214320107NIEVES CAMARILLO JUA                                        201009030643144246A00020100827                                                                        00999
2006490242072338000999V1010000000009200000000000N0000000009200000020110110071320107OMAR CASTRO HUERTA                                          201009030649143453A00020100830                                                                        00999
2015300242028543000999V1010000000008500000000000N0000000008500000200000093002951102JIMENEZ MU OZ ROMAN                                         201009031530114544A00020100830                                                                        00999
2015550242065012000999V1010000000009200000000000N0000000009200000201000631196320101RENE TORRES GUZMAN                                          201009031555110213A00020100830                                                                        00999
2015070242076196000999V1010000000006900000023000R0000000009200000201009110251320109TORRES LOMELI ALAN                                          201008161507123010A00020100830                                                                        00999
2019730242046453000999V1010000000009200000000000N0000000009200000201009310325320107ROBLES LEAL VICTOR M                                        201009031973130522A00020100830                                                                        00999
2019740243031899000999V1010000000009200000000000N0000000009200000020110110060320100BLAS NAVARRO CARLOS                                         201009031974102649A00020100831                                                                        00999
2004980243076734000999V1010000000009200000000000N0000000009200000020110110142320102MONICA ALEJANDRA HER                                        201009030498130232A00020100831                                                                        00999
2006440243030877000999V1010000000011870000000000N0000000011870000100000103000321109ALATORRE OROZCO ALEJ                                        201009030644091233A00020100831                                                                        00999
2019740243005879000999V1010000000011870000000000N0000000011870000100000103010671105FLORES RODRIGUEZ                                            201009041974142925A00020100831                                                                        00999
2003130243010469000999V1010000000008500000000000N0000000008500000200000093005211108RUIZ DE LA RIVA DANI                                        201009030313143224A00020100831                                                                        00999
2019740243021413000999V1010000000008500000000000N0000000008500000200000093011181105VALLE VELASCO ITZA D                                        201009041974123028A00020100831                                                                        00999
2002050243055921000999V1010000000006900000023000R0000000009200000201009110040320105CASTREJON MORALES VI                                        201008160205093219A00020100831                                                                        00999
2001730243045171000999V1010000000009200000000000N0000000009200000201009310124320100GARCIA GARCIA JUAN A                                        201009030173092309A00020100831                                                                        00999
2015300244048293000999V1010000000009200000000000N0000000009200000020110110269320109URIBE GUERRERO MICHE                                        201009031530151012A00020100901                                                                        00999
2001730244036855000999V1010000000011870000000000N0000000011870000100000103000181107ACOSTA ESPARZA DIEGO                                        201009030173113520A00020100901                                                                        00999
2014200244050143000999V1010000000008500000000000N0000000008500000200000008101171105VAZQUEZ SANTANA JONA                                        201009031420103757A00020100901                                                                        00999
2006520244041113000999V1010000000008500000000000N0000000008500000200000008303061104MORALES SANDOVAL JEN                                        201009030652103245A00020100901                                                                        00999
2015070244066404000999V1010000000008500000000000N0000000008500000200000008304301103SANDOVAL DE CASAS P.                                        201009031507094102A00020100901                                                                        00999
2015120244077864000999V1010000000009200000000000N0000000009200000201000310526320103MACIAS DELGADO LAURA                                        201009031512115902A00020100901                                                                        00999
2000200244081386000999V1010000000009200000000000N0000000009200000201000511025320102BOJORQUEZ SOLORIO SA                                        201009030020131111A00020100901                                                                        00999
2015620244060460000999V1010000000009200000000000N0000000009200000201000611037320106GONZALEZ LOPEZ FERNA                                        201009031562125354A00020100901                                                                        00999
2015620244099036000999V1010000000009200000000000N0000000009200000201000831242320101VILLASEÅOR JUAREZ ED                                        201009031562143346A00020100901                                                                        00999
2001730244067360000999V1010000000009200000000000N0000000009200000201009110184320101OROZCO OLVERAM JAIME                                        201009030173152239A00020100901                                                                        00999
2015590245055647000999V1010000000009200000000000N0000000009200000020110110111320109JOSE DE JESUS DIAZ                                          201009031559110107A00020100902                                                                        00999
2015070245038537000999V1010000000011870000000000N0000000011870000100000103002721108ESQUIVEL DE ALBA EDU                                        201009041507092253A00020100902                                                                        00999
2004940245056025000999V1010000000006200000023000R0000000008500000200000007301701109GONZALEZ CORONADO CR                                        201008160494144625A00020100902                                                                        00999
2015610245083497000999V1010000000008500000000000N0000000008500000200000008300333100AVILES JUAN PABLO                                           201009031561100210A00020100902                                                                        00999
2015660245043167000999V1010000000008500000000000N0000000008500000200000009101151105DIAZ RODRIGUEZ MONIC                                        201009041566092809A00020100902                                                                        00999
2006470245098689000999V1010000000008500000000000N0000000008500000200000091003811101RAMOS GOMEZ LUIS FRA                                        201009030647101400A00020100902                                                                        00999
2022850245032444000999V1010000000008500000000000N0000000008500000200000093005303103SALAS OLGIN                                                 201009032285131153A00020100902                                                                        00999
2005530245000250000999V1010000000008500000000000N0000000008500000200000093005431102SANCHEZ MU OZ JESUS                                         201009030553140606A00020100902                                                                        00999
2019000245073130000999V1010000000008500000000000N0000000008500000200000093010191105RAMOS SILVESTRE                                             201009041900134207A00020100902                                                                        00999
2015550245006745000999V1010000000008500000000000N0000000008500000200000101001091109CERVANTES CERVANTES                                         201010041555140724A00020100902                                                                        00999
2005500245027766000999V1010000000008500000000000N0000000008500000200000101004961100REYES                                                       201009030550154724A00020100902                                                                        00999
2015660245015354000999V1010000000009200000000000N0000000009200000201000831139320107MARTINEZ MARTINEZ MA                                        201009031566102951A00020100902                                                                        00999
2015540245070675000999V1010000000009200000000000N0000000009200000201009110132320104MARTIN DE JESUS LOZA                                        201009031554095050A00020100902                                                                        00999
2015020245076230000999V1010000000009200000000000N0000000009200000201009310283320107PARADA LOPEZ ABRAHAM                                        201009031502134705A00020100902                                                                        00999
2015420245094002000999V1010000000009200000000000N0000000009200000201009310357320108MARCO EDUARDO SAINOS                                        201009031542135652A00020100902                                                                        00999
2022850246060051000999V1010000000009200000000000N0000000009200000020110110022320107CISNEROS R SALVADOR                                         201009032285144349A00020100903                                                                        00999
2015790246056302000999V1010000000009200000000000N0000000009200000020110110023320106GIL GARCIA JUAN ANTO                                        201009031579110300A00020100903                                                                        00999
2002050246067653000999V1010000000009200000000000N0000000009200000020110110180320105MENDIOLA URIBE LUIS                                         201009030205144202A00020100903                                                                        00999
2019000246048534000999V1010000000009200000000000N0000000009200000020110110221320106RAMIREZ HARO CESAR                                          201009031900142723A00020100903                                                                        00999
2002370246041883000999V1010000000011870000000000N0000000011870000100000103008781106RUVIRA TRUJILLO                                             201009040237105016A00020100903                                                                        00999
2001730246077941000999V1010000000011870000000000N0000000011870000100000103010813103FLORES VARGAS JOHANN                                        201009030173100007A00020100903                                                                        00999
2001730246033325000999V1010000000008500000000000N0000000008500000200000006101543109MU OZ HERNANDEZ LUIS                                        201009030173142438A00020100903                                                                        00999
2015080246013393000999V1010000000008500000000000N0000000008500000200000006103121102DE SANTIAGO GONZALEZ                                        201009031508151555A00020100903                                                                        00999
2015360246047124000999V1010000000008500000000000N0000000008500000200000006307951106A                                                           201009041536142432A00020100903                                                                        00999
2005510246095666000999V1010000000008500000000000N0000000008500000200000008100763100ROMERO BAENA MOISES                                         201009030551162046A00020100903                                                                        00999
2019480246049616000999V1010000000008500000000000N0000000008500000200000008101053105MORALES ALVAREZ OMAR                                        201009031948142840A00020100903                                                                        00999
2001730246024889000999V1010000000008500000000000N0000000008500000200000008101751104DOMINGUEZ MALDONADO                                         201009030173130111A00020100903                                                                        00999
2015020246080674000999V1010000000008500000000000N0000000008500000200000008308211100RAMOS SILVESTRE  JOS                                        201009041502111851A00020100903                                                                        00999
2022880246070045000999V1010000000008500000000000N0000000008500000200000091000131107ALFEREZ MORENO LEONA                                        201009032288144107A00020100903                                                                        00999
2022850246022963000999V1010000000008500000000000N0000000008500000200000091000403100BAEZA F MIGUEL A                                            201009032285152823A00020100903                                                                        00999
2022850246098705000999V1010000000008500000000000N0000000008500000200000093003673101MENDOZA M HELEN                                             201009032285135857A00020100903                                                                        00999
2004980246043433000999V1010000000008500000000000N0000000008500000200000093007791107GARCIA PALACIOS JORG                                        201009040498120821A00020100903                                                                        00999
2002070246065848000999V1010000000008500000000000N0000000008500000200000093010971100SIMENTAL FLORES AISL                                        201009040207122055A00020100903                                                                        00999
2019740246068593000999V1010000000008500000000000N0000000008500000200000093011101103TORRES TORNERO DIANA                                        201009041974155413A00020100903                                                                        00999
2005670246057229000999V1010000000009200000000000N0000000009200000201000015377320108HERMOSILLO PEREZ OCT                                        201009030567094156A00020100903                                                                        00999
2015110246093409000999V1010000000009200000000000N0000000009200000201000431141320102HINIJOSA FLORES FCO                                         201009031511134940A00020100903                                                                        00999
2004980246089768000999V1010000000009200000000000N0000000009200000201000431146320107ROSALES GONZALEZ HUG                                        201009030498150541A00020100903                                                                        00999
2019730246067350000999V1010000000009200000000000N0000000009200000201000431171320105DELGADILLO GUZMAN KA                                        201009031973144118A00020100903                                                                        00999
2000200246030314000999V1010000000009200000000000N0000000009200000201000611180320101FERNANDO SOTO SAINZ                                         201009030020142217A00020100903                                                                        00999
2022850246026355000999V1010000000009200000000000N0000000009200000201000631117320107CRUZ ORNELAS ALE                                            201009032285141925A00020100903                                                                        00999
2005500246051091000999V1010000000009200000000000N0000000009200000201000711095320103LOPEZ                                                       201009030550153815A00020100903                                                                        00999
2015570246080567000999V1010000000009200000000000N0000000009200000201000711108320108MEDINA CASTA OS IRVI                                        201009031557145901A00020100903                                                                        00999
2015140246018306000999V1010000000009200000000000N0000000009200000201000831175320102PAEZ GRANADOS                                               201009031514140701A00020100903                                                                        00999
2006520246022846000999V1010000000009200000000000N0000000009200000201009310052320106CARLOS FLORES VICTOR                                        201009030652151555A00020100903                                                                        00999
2022850246082360000999V1010000000009200000000000N0000000009200000201009310412320101CHAVEZ LEON VIC                                             201009032285150020A00020100903                                                                        00999
2019480246036889000999V1010000000009200000000000N0000000009200000201009310423320108CHAVEZ CAMARENA MAXI                                        201009031948104622A00020100903                                                                        00999