2002079232066795000999V1010000000007500000000000N0000000007500000000002005304841098AGUILAR CUMPLIDO CES                                        200908310207133011A00020090820                                                                        00999
2015429232002745000999V1010000000007500000000000N0000000007500000000002005308151098MALAGON NU EZ JAMILE                                        200908311542122400A00020090820                                                                        00999
2015219232076686000999V1010000000007500000000000N0000000007500000000002006103631094MACIAS RUVALCABA HEC                                        200908311521102415A00020090820                                                                        00999
2015369232035460000999V1010000000007500000000000N0000000007500000000002006307931092GARATE CASTRO ALEJAN                                        200908311536125735A00020090820                                                                        00999
2015559232070077000999V1010000000007500000000000N0000000007500000000002006308031090LOYA QUINTERO JAVIER                                        200908311555102750A00020090820                                                                        00999
2004989232074681000999V1010000000007500000000000N0000000007500000000002007103871094BARAJAS SANCHEZ JESU                                        200908310498115956A00020090820                                                                        00999
2019739232043608000999V1010000000007500000000000N0000000007500000000002007305961099JOSE LUIS MOJICA GUE                                        200908311973143513A00020090820                                                                        00999
2015369232094990000999V1010000000007500000000000N0000000007500000000002007308731093MEJIA GONZALEZ DANIE                                        200908311536104054A00020090820                                                                        00999
2000209232053653000999V1010000000007500000000000N0000000007500000000002008120771093ARANDA ESPINOSA MARC                                        200908310020144711A00020090820                                                                        00999
2015369232096777000999V1010000000007500000000000N0000000007500000000002008305491095CARRAZCO MARTINEZ JO                                        200908311536122729A00020090820                                                                        00999
2015369232007336000999V1010000000007500000000000N0000000007500000000002008306621096HERNANDEZ CASTILLO M                                        200908311536140920A00020090820                                                                        00999
2015669232014668000999V1010000000007500000000000N0000000007500000000002009101371093JOHSUEE DE JESUS FRA                                        200908311566123510A00020090820                                                                        00999
2015369232041884000999V1010000000007500000000000N0000000007500000000002009102371092IBARRA GRAJEDA MANUE                                        200908311536130646A00020090820                                                                        00999
2003139232001495000999V1010000000011870000000000N0000000011870000000010093012293091GOMEZ BALTAZAR SERGI                                        200908310313140454A00020090820                                                                        00999
2022859232037074000999V1010000000011870000000000N00000000118700000000100930123030981187                                                        200908312285112453A00020090820                                                                        00999
2022859232042664000999V1010000000011870000000000N0000000011870000000010093012363092HERNANDEZ BARBOSA G                                         200908312285112820A00020090820                                                                        00999
2004949232023248000999V1010000000011870000000000N0000000011870000000010093012393099JIMENEZ HURTADO EDGA                                        200908310494160855A00020090820                                                                        00999
2022859232074896000999V1010000000011870000000000N0000000011870000000010093012443092RAMIREZ ZARAGOZA CA                                         200908312285115729A00020090820                                                                        00999
2015579232013034000999V1010000000011870000000000N0000000011870000000010093012513092ERNESTO TORRES G                                            200908311557155534A00020090820                                                                        00999
2005539232085753000999V1010000000011870000000000N0000000011870000000010093012533090VAZQUEZ HDEZ OSCAR D                                        200908310553134325A00020090820                                                                        00999
2022859232034107000999V1010000000011870000000000N0000000011870000000010093012553098HERNANDEZ LOPEZ EDG                                         200908312285113112A00020090820                                                                        00999
2015799232006857000999V1010000000008500000000000N0000000008500000000020004100303096LANGARICA RIVAS HECT                                        200908311579140025A00020090820                                                                        00999
2022949232025991000999V1010000000008500000000000N0000000008500000000020005104903096RODRIGUEZ CERVANTES                                         200908312294141803A00020090820                                                                        00999
2006529232055774000999V1010000000008500000000000N0000000008500000000020005300993099MORENO DE LEON LAURA                                        200908310652144659A00020090820                                                                        00999
2001679232029444000999V1010000000008500000000000N0000000008500000000020006300013094JUAN FRANCISCO MARQU                                        200908310167142114A00020090820                                                                        00999
2004919232057688000999V1010000000008500000000000N0000000008500000000020006301753094DAVID LOPEZ GONZALEZ                                        200908310491114429A00020090820                                                                        00999
2001679232031679000999V1010000000008500000000000N0000000008500000000020006302423093JOSE CARLOS MARQUEZ                                         200908310167142320A00020090820                                                                        00999
2001679232060836000999V1010000000008500000000000N0000000008500000000020006303533098ENRIQUE ZEPEDA FRUTO                                        200908310167145415A00020090820                                                                        00999
2004919232014432000999V1010000000008500000000000N0000000008500000000020007300443091CORTEZ CASTILLO LUIS                                        200908310491154843A00020090820                                                                        00999
2015429232018765000999V1010000000008500000000000N0000000008500000000020007301783099JIMENEZ TORRES LLUVI                                        200908311542142116A00020090820                                                                        00999
2005519232073265000999V1010000000008500000000000N0000000008500000000020007303263090GUTIERREZ OROZCO BRU                                        200908310551165749A00020090820                                                                        00999
2001679232043866000999V1010000000008500000000000N0000000008500000000020007304353098SILVA CABRALES LUIS                                         200908310167094654A00020090820                                                                        00999
2001669232046981000999V1010000000008500000000000N0000000008500000000020008100283091RODRIGUEZ CABELLO MA                                        200908310166143833A00020090820                                                                        00999
2015629232043751000999V1010000000008500000000000N0000000008500000000020008102673091CORNEJO REYES CLAUDI                                        200908311562162201A00020090820                                                                        00999
2001669232039085000999V1010000000008500000000000N0000000008500000000020008304643090VALENCIA BARUSTA                                            200908310166143023A00020090820                                                                        00999
2004919232090832000999V1010000000008500000000000N0000000008500000000020008309723095FRANCO GONZALEZ ULIS                                        200908310491152433A00020090820                                                                        00999
2004919232060076000999V1050000000008500000000000N0000000008500000000020091002293095HERNANDEZ VILLA DANI                                        200908310491132507A00020090820                                                                        00999
2004989232067588000999V1010000000008500000000000N0000000008500000000020091002383094IBARRA GUZMAN LILIAN                                        200908310498150938A00020090820                                                                        00999
2015369233004085000999V1010000000007500000000000N0000000007500000000002007103591098MADERA ZUMARAN CESAR                                        200908311536105459A00020090821                                                                        00999
2015369233024963000999V1010000000007500000000000N0000000007500000000002007307631096GONZALEZ RODRIGUEZ A                                        200908311536124338A00020090821                                                                        00999
2015559233010111000999V1010000000007500000000000N0000000007500000000002009103981097RODRIGUEZ AGUILERA I                                        200908311555152040A00020090821                                                                        00999
2001739233006322000999V1010000000009200000000000N0000000009200000000002015311133090NU EZ CARVAJAL JOSE                                         200908310173134627A00020090821                                                                        00999
2015149233064287000999V1010000000006000000000000N0000000006000000000002016310393099FERNANDO GONZALEZ SA                                        200908241514144106A00020090821                                                                        00999
2001739233045471000999V1010000000009200000000000N0000000009200000000002016312243094JOSE DE J TELLO SERR                                        200908310173142050A00020090821                                                                        00999
2015579233043596000999V1010000000009200000000000N0000000009200000000002017111283091ROBLES MORENO GERMAN                                        200908311557154747A00020090821                                                                        00999
2015019233070630000999V1010000000009200000000000N0000000009200000000002017310833092ROMAN VELASCO FRANCI                                        200908311501144335A00020090821                                                                        00999
2004999233085220000999V1010000000009200000000000N0000000009200000000002018110463098ESPINOZA GARCIA ALAN                                        200908310499120840A00020090821                                                                        00999
2022859233068405000999V1010000000009200000000000N0000000009200000000002018111943098ALVAREZ MURGUIA CR                                          200908312285131619A00020090821                                                                        00999
2005539233014732000999V1010000000011870000000000N0000000011870000000010093012083096AILLAUD RODRIGUEZ DA                                        200908310553091035A00020090821                                                                        00999
2015429233068705000999V1010000000011870000000000N0000000011870000000010093012091099ALVARADO GLEZ J                                             200908311542144138A00020090821                                                                        00999
2004949233097715000999V1010000000011870000000000N0000000011870000000010093012103092DIEGO AVALOS                                                200908310494104422A00020090821                                                                        00999
2015429233071890000999V1010000000011870000000000N0000000011870000000010093012131093CABALLERO RAMOS SELE                                        200908311542131658A00020090821                                                                        00999
2006489233009752000999V1010000000011870000000000N0000000011870000000010093012161090CARRILLO NAVARRO MON                                        200908310648122421A00020090821                                                                        00999
2004999233077917000999V1010000000011870000000000N0000000011870000000010093012183094CASTELLANOS H CHRIST                                        200908310499161945A00020090821                                                                        00999
2015309233052460000999V1010000000011870000000000N0000000011870000000010093012213099JORGE A CONTRERAS DE                                        200908311530095544A00020090821                                                                        00999
2015619233086304000999V1010000000011870000000000N0000000011870000000010093012233097DE LA TORRE Q ALFONS                                        200908311561103033A00020090821                                                                        00999
2015429233055460000999V1010000000011870000000000N0000000011870000000010093012243096ENCINAS MENDEZ CARLO                                        200908311542142941A00020090821                                                                        00999
2001739233026967000999V1010000000011870000000000N0000000011870000000010093012253095VICTOR E FERNANDEZ A                                        200908310173124516A00020090821                                                                        00999
2015199233009572000999V1010000000011870000000000N0000000011870000000010093012263094FERNNADEZ ROBLES DIE                                        200908311519090255A00020090821                                                                        00999
2019749233020468000999V1010000000011870000000000N0000000011870000000010093012271097FRIAS MORENO SALVADO                                        200908311974152735A00020090821                                                                        00999
2015369233083134000999V1010000000011870000000000N0000000011870000000010093012311091GONTES ALONSO LUIS M                                        200908311536120210A00020090821                                                                        00999
2015669233053118000999V1010000000011870000000000N0000000011870000000010093012333095GLEZ TOSTADO JOSE                                           200908311566095916A00020090821                                                                        00999
2015619233006325000999V1010000000011870000000000N0000000011870000000010093012373091IRIS HURTADO                                                200908311561134540A00020090821                                                                        00999
2019749233034667000999V1010000000011870000000000N0000000011870000000010093012401090MARROQUIN PEREZ AMAD                                        200908311974124356A00020090821                                                                        00999
2005519233044620000999V1010000000011870000000000N0000000011870000000010093012463090RODRIGUEZ GOMEZ DIEG                                        200908310551112518A00020090821                                                                        00999
2015369233068758000999V1010000000011870000000000N0000000011870000000010093012471093SALAZAR GOVEA IVONNE                                        200908311536144210A00020090821                                                                        00999
2001679233027389000999V1010000000011870000000000N0000000011870000000010093012523091URZUA DEL CASTILLO J                                        200908310167140454A00020090821                                                                        00999
2015619233075493000999V1010000000012570000000000N0000000012570000000010193100693093ROCIO CEJA SANCHEZ                                          200908311561162041A00020090821                                                                        00999
2006479233050502000999V1010000000008500000000000N0000000008500000000020005102463093CASAS JIMENEZ BRENDA                                        200908310647095325A00020090821                                                                        00999
2001669233082026000999V1010000000008500000000000N0000000008500000000020007301813094MENDOZA LOPEZ ISRAEL                                        200908310166120115A00020090821                                                                        00999
2022889233010996000999V1010000000008500000000000N0000000008500000000020008100053098SANCHEZ ORDONEZ SAUL                                        200908312288122332A00020090821                                                                        00999
2003139233092504000999V1010000000008500000000000N0000000008500000000020008100463099RODRIGUEZ CHAVEZ OSC                                        200908310313120752A00020090821                                                                        00999
2004989233060446000999V1010000000008500000000000N0000000008500000000020008102123097TORRES BUENROSTRO CU                                        200908310498160621A00020090821                                                                        00999
2015619233021529000999V1010000000008500000000000N0000000008500000000020008102753091CORTES ALEJANDRA                                            200908311561152824A00020090821                                                                        00999
2015799233034976000999V1010000000008500000000000N0000000008500000000020008300153094ALVARADO FREGOSO ROD                                        200908311579111945A00020090821                                                                        00999
2015439233075431000999V1010000000008500000000000N0000000008500000000020008301903091GOMEZ SANCHEZ                                               200908311543162039A00020090821                                                                        00999
2015369233036739000999V1010000000008500000000000N0000000008500000000020008303513096PEGUERO ROCHA ERICK                                         200908311536154233A00020090821                                                                        00999
2019749233048346000999V1010000000008500000000000N0000000008500000000020008304303091SANDOVAL DE CASAS PE                                        200908311974155516A00020090821                                                                        00999
2019489233015419000999V1010000000009200000000000N0000000009200000000020191101583097MORENO GARCIA JOSAFA                                        200908311948123005A00020090821                                                                        00999
2015679233068484000999V1010000000009200000000000N0000000009200000000020191102413096SANCHEZ SOLIS EMMANU                                        200908311567114646A00020090821                                                                        00999
2015799233039536000999V1010000000002500000000000N0000000002500000000030008300153092ALVARADO FREGOSO ROD                                        200908311579112041A00020090821                                                                        00999
2015439233068649000999V1010000000002500000000000N0000000002500000000030008301903099GOMEZ                                                       200908311543162118A00020090821                                                                        00999
2001739233033528000999V1010000000002500000000000N0000000002500000000030093012253091VICTOR E FERNANDEZ A                                        200908310173124620A00020090821                                                                        00999
2015669233056674000999V1010000000002500000000000N0000000002500000000030093012333091GLEZ TOSTADO JOSE                                           200908311566100042A00020090821                                                                        00999
2015669236075060000999V1010000000007500000000000N0000000007500000000002005101451091CASAS GOMEZ JULIO                                           200908311566142157A00020090824                                                                        00999
2001669236066000000999V1010000000007500000000000N0000000007500000000002007102921098GERARDO ARECHIGA                                            200908310166125356A00020090824                                                                        00999
2015559236086673000999V1010000000007500000000000N0000000007500000000002007305411095NAVARRO VITAL OSCAR                                         200908311555135843A00020090824                                                                        00999
2006479236028788000999V1010000000007500000000000N0000000007500000000002007305991096REYNOSO CARBAJAL KAR                                        200908310647150746A00020090824                                                                        00999
2003139236059675000999V1010000000009200000000000N0000000009200000000002013311233093FERNANDEZ MEJIA JORG                                        200908310313095323A00020090824                                                                        00999
2015399236047793000999V1010000000009200000000000N0000000009200000000002014310223093ECHAURI FLORES JOSE                                         200908311539094140A00020090824                                                                        00999
2015679236001159000999V1010000000009200000000000N0000000009200000000002015110163090CINTO RODRIGUEZ LUIS                                        200908311567144700A00020090824                                                                        00999
2005509236027557000999V1010000000009200000000000N0000000009200000000002015311173096LEIJA                                                       200908310550164912A00020090824                                                                        00999
2001669236098672000999V1010000000009200000000000N0000000009200000000002018110233095CORONA OLVERA JOSE                                          200908310166161459A00020090824                                                                        00999
2004999236049499000999V1010000000009200000000000N0000000009200000000002018311803092PEREZ ANDRADE JOSE                                          200908310499152618A00020090824                                                                        00999
2022859236011031000999V1010000000011870000000000N0000000011870000000010093012173095CASILLAS OROZCO MARC                                        200908312285090305A00020090824                                                                        00999
2015369236034007000999V1010000000011870000000000N0000000011870000000010093012321090GONZALEZ OROZCO ISAB                                        200908311536134454A00020090824                                                                        00999
2015369236032769000999V1010000000011870000000000N0000000011870000000010093012381094I IGUEZ GARCIA ISAY                                         200908311536092531A00020090824                                                                        00999
2015669236045362000999V1010000000011870000000000N0000000011870000000010093012491091OTTMAR SANDOVAL PREC                                        200908311566093901A00020090824                                                                        00999
2001739236029273000999V1010000000012570000000000N0000000012570000000010193104323093GIOVANNI A HDEZ AREN                                        200908310173164319A00020090824                                                                        00999
2015669236055070000999V1010000000008500000000000N0000000008500000000020005301153099GARCIA SOTO JONATHAN                                        200908311566123923A00020090824                                                                        00999
2001739236076804000999V1010000000008500000000000N0000000008500000000020006302383099LUIS I RODRIGUEZ NEI                                        200908310173113709A00020090824                                                                        00999
2004919236089684000999V1010000000008500000000000N0000000008500000000020007301233095SAINZ DEL REAL CARLO                                        200908310491130849A00020090824                                                                        00999
2004919236000171000999V1010000000008500000000000N0000000008500000000020008301453097FRANCO GONZALEZ ARTU                                        200908310491131351A00020090824                                                                        00999
2004919236091632000999V1010000000008500000000000N0000000008500000000020091000883095850                                                         200908310491160449A00020090824                                                                        00999
2015669236046459000999V1010000000002500000000000N0000000002500000000030093012491097OTTMAR SANDOVAL PREC                                        200908311566094005A00020090824                                                                        00999
2002079238065335000999V1010000000007500000000000N0000000007500000000002005308211090CARRILLO MACIAS ADRI                                        200908310207144324A00020090826                                                                        00999
2015079238000226000999V1010000000007500000000000N0000000007500000000002007306661094VELA BA UELOS NOEMI                                         200908311507170307A00020090826                                                                        00999
2015629238076866000999V1010000000009200000000000N0000000009200000000002016110033093ANTONIO ECHEVERRIA M                                        200908311562115127A00020090826                                                                        00999
2004999238087897000999V1010000000009200000000000N0000000009200000000002017310613098OCHOA JIMENEZ MAURIC                                        200908310499150548A00020090826                                                                        00999
2015199238021608000999V1010000000009200000000000N0000000009200000000002018310543095CORTES MIRANDA LUIS                                         200908311519153753A00020090826                                                                        00999
2002379238016191000999V1010000000009200000000000N0000000009200000000020191100683096DE MIGUEL GONZALEZ S                                        200908310237105555A00020090826                                                                        00999
2015619238063060000999V1010000000009200000000000N0000000009200000000020191102383091JOSE DE JESUS SALCED                                        200908311561130358A00020090826                                                                        00999
2004989237036243000999V1010000000007500000000000N0000000007500000000002006103691098NAVARRO RIVERA OMAR                                         200908310498154121A00020090825                                                                        00999
2005559237030589000999V1010000000007500000000000N0000000007500000000002006305461092REYNOSO SAHAGUN CARL                                        200908310555153548A00020090825                                                                        00999
2015669237092144000999V1010000000007500000000000N0000000007500000000002009100101095AHUMADA CASTANEDA                                           200908311566164612A00020090825                                                                        00999
2000209237015347000999V1010000000007500000000000N0000000007500000000002009100121093ALDACO JAIME JUAN JA                                        200908310020090757A00020090825                                                                        00999
2015369237003709000999V1010000000007500000000000N0000000007500000000002009103341094MURILLO PINTO JOHANN                                        200908311536103925A00020090825                                                                        00999
2015549237098769000999V1010000000009200000000000N0000000009200000000002016311033090JESUS E SILVA PADILL                                        200908311554120346A00020090825                                                                        00999
2001669237039463000999V1010000000009200000000000N0000000009200000000002018111723094RUELAS ACOSTA LUCIA                                         200908310166140540A00020090825                                                                        00999
2000209237030890000999V1010000000012570000000000N0000000012570000000010193103163094REYES BAÅUELOS ISRAE                                        200908310020135934A00020090825                                                                        00999
2015669237036592000999V1010000000008500000000000N0000000008500000000020005102703092CARRILLO LUCANO BERN                                        200908311566111029A00020090825                                                                        00999
2004949237052941000999V1010000000008500000000000N0000000008500000000020006101453093CARLOS EDEL CARRILLO                                        200908310494142150A00020090825                                                                        00999
2015619237013948000999V1010000000008500000000000N0000000008500000000020007101913094GARCIA EFRAIN                                               200908311561121523A00020090825                                                                        00999
2003139237092401000999V1010000000009200000000000N0000000009200000000020191102093096RAMIREZ HUERTA OCTAV                                        200908310313115620A00020090825                                                                        00999
2015579237062256000999V1010000000009200000000000N0000000009200000000020191102663096VILLAGRANA HERNANDEZ                                        200908311557160754A00020090825                                                                        00999
2015079239082409000999V1010000000007500000000000N0000000007500000000002008308841098TILDS ROCHA NICOLE                                          200908311507152353A00020090827                                                                        00999
2015079239034082000999V1010000000007500000000000N0000000007500000000002009102601092LOPEZ AMPARO ANA COR                                        200908311507093405A00020090827                                                                        00999
2019749239010385000999V1010000000007500000000000N0000000007500000000002009103791090RAMIREZ PONCE EVA BE                                        200908311974090240A00020090827                                                                        00999
2015679239023146000999V1010000000009200000000000N0000000009200000000002014311443096VALDEZ VIDRIO PAULIN                                        200908311567111258A00020090827                                                                        00999
2005519239031153000999V1010000000009200000000000N0000000009200000000002015111733099REYES PERES JESUS AN                                        200908310551125347A00020090827                                                                        00999
2004989239003439000999V1010000000008500000000000N0000000008500000000020006101313099VICTOR DANIEL CAZARE                                        200908310498122821A00020090827                                                                        00999
2015619239041569000999V1010000000008500000000000N0000000008500000000020007303843099ANGEL DURAN HERNANDE                                        200908311561162859A00020090827                                                                        00999
2001679239088412000999V1010000000009200000000000N0000000009200000000020191100753097FERNANDEZ LOPEZ CATR                                        200908310167153035A00020090827                                                                        00999
2015079240096978000999V1010000000008500000000000N0000000008500000000002004305741092DELGADILLO SANCHEZ J                                        200908311507144334A00020090828                                                                        00999
2015669240027764000999V1010000000007500000000000N0000000007500000000002005306561090GARCIA TEJEDA ANA KA                                        200908311566122105A00020090828                                                                        00999
2015669240026161000999V1010000000007500000000000N0000000007500000000002006306291092GARCIA TEJEDA MINERV                                        200908311566122215A00020090828                                                                        00999
2015429240049725000999V1010000000007500000000000N0000000007500000000002006307691092ACOSTA GLEZ RAYMUNDO                                        200908311542152303A00020090828                                                                        00999
2004949240072995000999V1010000000007500000000000N0000000007500000000002008306441099GONZALEZ MENA OSCAR                                         200908310494125907A00020090828                                                                        00999
2019749240044363000999V1010000000008500000000000N0000000008500000000002008307101098850                                                         200908311974135258A00020090828                                                                        00999
2015079240073230000999V1010000000009200000000000N0000000009200000000002014110593091CAZARES NUNO JORGE S                                        200908311507114053A00020090828                                                                        00999
2015089240059989000999V1010000000009200000000000N0000000009200000000002014311453095MIGUEL VIDRIALES RAF                                        200908311508153411A00020090828                                                                        00999
2022859240047854000999V1010000000009200000000000N0000000009200000000002016311883098HECTOR VILLALOBOS FL                                        200908312285164616A00020090828                                                                        00999
2022889240076037000999V1010000000008500000000000N0000000008500000000020006303623097GERARDO ISAAC TEJEDA                                        200908312288142116A00020090828                                                                        00999
2015619240018443000999V1010000000008500000000000N0000000008500000000020007102343093VICTOR H BERMEJO Q                                          200908311561161145A00020090828                                                                        00999
2015199240016892000999V1010000000008500000000000N0000000008500000000020008102423091PEREZ SANDOVAL ALEXI                                        200908311519133241A00020090828                                                                        00999
2015309240013199000999V1010000000008500000000000N0000000008500000000020008300833091EDWIN A CHAVEZ R                                            200908311530133110A00020090828                                                                        00999
2015119240010307000999V1010000000009200000000000N0000000009200000000020191100463093CHAVEZ TORRES LUIS O                                        200908311511090200A00020090828                                                                        00999
2002059240015978000999V1010000000009200000000000N0000000009200000000020191100573099CRUZ LOPEZ OCTAVIO                                          200908310205145529A00020090828                                                                        00999
2015669240017792000999V1010000000009200000000000N0000000009200000000020191101703091NAVARRO PRECIADO GUI                                        200908311566133855A00020090828                                                                        00999
2004919240086312000999V1010000000009200000000000N0000000009200000000020191102703090ZAMBRANO CARRASCOÙ                                          200908310491114835A00020090828                                                                        00999
2015579243026007000999V1010000000009200000000000N0000000009200000000000201184533093LUNA SANCHEZ VICTOR                                         200908311557104744A00020090831                                                                        00999
2019749243069671000999V1010000000008500000000000N0000000008500000000002005308511093VAZQUEZ BELTRAN LUCE                                        200908311974123510A00020090831                                                                        00999
2015089243059470000999V1010000000007500000000000N0000000007500000000002007309701095GUZMAN MACIAS EDGAR                                         200908311508145115A00020090831                                                                        00999
2015369243026404000999V1010000000008500000000000N0000000008500000000002008120061099DELGADO GONZALEZ CES                                        200908311536142558A00020090831                                                                        00999
2015369243061500000999V1010000000008500000000000N0000000008500000000002008305541097CASTILLO CARDONA BRI                                        200908311536145225A00020090831                                                                        00999
2002379243097853000999V1010000000007500000000000N0000000007500000000002008306871097LARES SEPULVEDA JOSE                                        200908310237135617A00020090831                                                                        00999
2019749243068352000999V1010000000008500000000000N0000000008500000000002008309041094VAZQUEZ BELTRAN LAUR                                        200908311974123428A00020090831                                                                        00999
2015089243003107000999V1010000000008500000000000N0000000008500000000002008309281096YANEZ JERONIO ALEXIS                                        200908311508141125A00020090831                                                                        00999
2015369243033750000999V1010000000008500000000000N0000000008500000000002009100501096BRIONES SAAVEDRA LUZ                                        200908311536155029A00020090831                                                                        00999
2015579243088942000999V1010000000007500000000000N0000000007500000000002009102661096LOPEZ LEON GABRIELA                                         200908311557162516A00020090831                                                                        00999
2001679243069205000999V1010000000009200000000000N0000000009200000000002013310353090TAPIA ROBLES MARIO A                                        200908310167161607A00020090831                                                                        00999
2015669243082126000999V1010000000009200000000000N0000000009200000000002013312693097MEDINA DELGADILLO JO                                        200908311566113016A00020090831                                                                        00999
2019009243082114000999V1010000000009200000000000N0000000009200000000002014110913091FERNANDEZ MORALES MI                                        200908311900135759A00020090831                                                                        00999
2000209243029876000999V1010000000009200000000000N0000000009200000000002014111533096CHAVEZ LUCIO RICARDO                                        200908310020170352A00020090831                                                                        00999
2001679243085788000999V1010000000009200000000000N0000000009200000000002014310463095ROQUE VARGAS ISAAC                                          200908310167162854A00020090831                                                                        00999
2015029243082827000999V1010000000009200000000000N0000000009200000000002014311013097MACHUCA  HERNADEZ CY                                        200908311502101231A00020090831                                                                        00999
2019489243024474000999V1010000000009200000000000N0000000009200000000002014311463094ROSALES GONZALEZ HUG                                        200908311948120223A00020090831                                                                        00999
2004949243021114000999V1010000000009200000000000N0000000009200000000002015110573090DAVALOS MOSQUEDA DUL                                        200908310494091511A00020090831                                                                        00999
2004949243019753000999V1010000000009200000000000N0000000009200000000002015111363095FLORES ESQUEDA VICTO                                        200908310494091353A00020090831                                                                        00999
2006449243098204000999V1010000000009200000000000N0000000009200000000002016310753094JAIR ISAAC RUBIO ROM                                        200908310644114127A00020090831                                                                        00999
2019489243064341000999V1010000000009200000000000N0000000009200000000002016310883099OSCAR RIGOBERTO AVI                                         200908311948134124A00020090831                                                                        00999
2006479243045002000999V1010000000009200000000000N0000000009200000000002016311753093NU O LOPEZ HUGO ENRI                                        200908310647171045A00020090831                                                                        00999
2004919243018933000999V1010000000009200000000000N0000000009200000000002016312373099DARIO ENRIQUE FLORES                                        200908310491115801A00020090831                                                                        00999
2006489243080385000999V1010000000009200000000000N0000000009200000000002018110193091JOSE D E JESUS SOTO                                         200908310648131208A00020090831                                                                        00999
2006479243027224000999V1010000000009200000000000N0000000009200000000002018110243094LOPEZ FAUSTO                                                200908310647165656A00020090831                                                                        00999
2015279243009327000999V1010000000009200000000000N0000000009200000000002018110813094MACIAS FLORES SALVAD                                        200908311527141550A00020090831                                                                        00999
2019489243069058000999V1010000000009200000000000N0000000009200000000002018311013098GONZALEZ GUTIEREZ JO                                        200908311948145757A00020090831                                                                        00999
2015669243016434000999V1010000000009200000000000N0000000009200000000002018311943096RODARTE ARIAS SALVAD                                        200908311566130824A00020090831                                                                        00999
2019739243002392000999V1010000000009200000000000N0000000009200000000002018312073091SANCHEZ RAMIREZ                                             200908311973140749A00020090831                                                                        00999
2006529243056647000999V1010000000009200000000000N0000000009200000000002018312503097ESTRADA ROBLES LUIS                                         200908310652144817A00020090831                                                                        00999
2006449243090450000999V1010000000011870000000000N0000000011870000000010093001203093CONTRERAS RODRIGUEZ                                         200908310644101915A00020090831                                                                        00999
2001669243077475000999V1010000000008500000000000N0000000008500000000020005102603094GONZALEZ AMEZCUA ADR                                        200908310166150902A00020090831                                                                        00999
2015149243006661000999V1010000000008500000000000N0000000008500000000020005302963090GONZALEZ RIVERA OSCA                                        200908311514152611A00020090831                                                                        00999
2022859243009581000999V1010000000008500000000000N0000000008500000000020006100173098PALOS DIAZ MIGUEL                                           200908312285090210A00020090831                                                                        00999
2001739243009420000999V1010000000008500000000000N0000000008500000000020006101543091LUIS JAVIER MUNOZ HE                                        200908310173125957A00020090831                                                                        00999
2004919243042433000999V1010000000008500000000000N0000000008500000000020006304963096MARCO ANTONIO                                               200908310491170819A00020090831                                                                        00999
2006479243012553000999V1010000000008500000000000N0000000008500000000020007101523091LOPEZ ORTEGA SERGIO                                         200908310647152952A00020090831                                                                        00999
2006499243003012000999V1010000000008500000000000N0000000008500000000020007101813096HERNANDEZ COVARRUBIA                                        200908310649125705A00020090831                                                                        00999
2019489243025761000999V1010000000008500000000000N0000000008500000000020008100103091VERDIN MARTINEZ ANA                                         200908311948165550A00020090831                                                                        00999
2015679243069302000999V1010000000008500000000000N0000000008500000000020008101743093CAMARENA DIAZ CARLOS                                        200908311567161610A00020090831                                                                        00999
2003139243078712000999V1010000000008500000000000N0000000008500000000020008304843096ZURITA ZARAGOZA EMMA                                        200908310313101036A00020090831                                                                        00999
2015669243082074000999V1010000000008500000000000N0000000008500000000020091000193099ALVAREZ RIZO TERESA                                         200908311566162608A00020090831                                                                        00999
2022859243069409000999V1010000000008500000000000N0000000008500000000020091002993090MARTINEZ RIVERA JOSE                                        200908312285134458A00020090831                                                                        00999
2015119243035839000999V1010000000008500000000000N0000000008500000000020091003393092NORIEGA PADILLA GUIL                                        200908311511092946A00020090831                                                                        00999
2015629243092484000999V1010000000009200000000000N0000000009200000000020191100023095ACEVEDO LOPEZ FERNAN                                        200908311562151537A00020090831                                                                        00999
2015269243098045000999V1010000000009200000000000N0000000009200000000020191101153099JAIME ALVARADO OSCAR                                        200908311526151925A00020090831                                                                        00999
2015669243024856000999V1010000000009200000000000N0000000009200000000020191101493099MENDOZA BECERRA DANI                                        200908311566091902A00020090831                                                                        00999
2001639243075858000999V1010000000009200000000000N0000000009200000000020191101743097NUÅEZ SALAS JOSE ANT                                        200908310163150307A00020090831                                                                        00999
2015679243058851000999V1010000000009200000000000N0000000009200000000020191101873092PACHECO VAZQUEZ LUIS                                        200908311567121323A00020090831                                                                        00999
2015669243056508000999V1010000000009200000000000N0000000009200000000030191102043099PULIDO GUZMAN CHRIST                                        200908311566094957A00020090831                                                                        00999