2015369211024192000999V1010000000006200000000000N0000000006200000000002006305221090CASTA EDA GARCIA EDW                                        200908141536123510A00020090730                                                                        00999
2002379211014337000999V1010000000006200000000000N0000000006200000000002006306901096YA EZ TRUJILLO KARLA                                        200908160237122619A00020090730                                                                        00999
2015619211054875000999V1010000000006200000000000N0000000006200000000002006308421093RUBIO JEREZ SARA ABI                                        200908161561095638A00020090730                                                                        00999
2015369211014010000999V1010000000006200000000000N0000000006200000000002007304981098RODRIGUEZ VALDIVIA J                                        200908141536090815A00020090730                                                                        00999
2015369211034451000999V1010000000006200000000000N0000000006200000000002007305331095VALDOVINOS SANTANA C                                        200908141536111403A00020090730                                                                        00999
2019749211091253000999V1010000000006200000000000N0000000006200000000002007305831094GUERRERO YANEZ JOSE                                         200908141974132844A00020090730                                                                        00999
2015369211071331000999V1010000000006200000000000N0000000006200000000002007307051097ARELLANO VILLALPANDO                                        200908161536114745A00020090730                                                                        00999
2015079211005472000999V1010000000006200000000000N0000000006200000000002007309051095SALAZAR ACEVEDO GUIL                                        200908141507134319A00020090730                                                                        00999
2015369211048973000999V1010000000006200000000000N0000000006200000000002007309301094RUVALCABA COBIAN JES                                        200908141536112724A00020090730                                                                        00999
2000209211008005000999V1010000000006200000000000N0000000006200000000002007309381096GALLEGOS BOLANOS CIT                                        200908160020152046A00020090730                                                                        00999
2015149211008579000999V1010000000006200000000000N0000000006200000000002008305211097BARAJAS SANCHEZ LAUR                                        200908141514134605A00020090730                                                                        00999
2006489211005263000999V1010000000006200000000000N0000000006200000000002008305371099CAMPOS GARCIA NATALI                                        200908140648134520A00020090730                                                                        00999
2000209211015124000999V1010000000006200000000000N0000000006200000000002008305461098MARIA LAURA CARMONAS                                        200908160020134953A00020090730                                                                        00999
2015079211073697000999V1010000000006200000000000N0000000006200000000002008306091092CESAR ALVARO FLORES                                         200908161507114530A00020090730                                                                        00999
2015219211069937000999V1010000000006200000000000N0000000006200000000002008306841090JIMENEZ DIAZ DULCE A                                        200908161521101041A00020090730                                                                        00999
2004949211062791000999V1010000000006200000000000N0000000006200000000002008306891095LARIOS CASTELLANOS D                                        200908160494100323A00020090730                                                                        00999
2002379211097066000999V1010000000006200000000000N0000000006200000000002008307261090MARTINEZ TEJEDA JORG                                        200908140237121001A00020090730                                                                        00999
2006489211075267000999V1010000000006200000000000N0000000006200000000002008307751090ORTEGA MARTINEZ MARI                                        200908140648144617A00020090730                                                                        00999
2019749211026354000999V1010000000006200000000000N0000000006200000000002008308651091SANCHEZ MARQUEZ ALEJ                                        200908161974123111A00020090730                                                                        00999
2000209211011727000999V1010000000006200000000000N0000000006200000000002008308981092VALENZUELA JIMENEZ L                                        200908160020151956A00020090730                                                                        00999
2004989211057325000999V1010000000006200000000000N0000000006200000000002009102081097GUZMAN VERA JORGE                                           200908140498113639A00020090730                                                                        00999
2015219211074102000999V1010000000002500000000000N0000000002500000000003008306841099JIMENEZ DIAZ DULCE A                                        200908161521101222A00020090730                                                                        00999
2015429211005709000999V1010000000009570000000000N0000000009570000000010093006671096BARBA CERVANTES EDUA                                        200908141542121955A00020090730                                                                        00999
2015559211023282000999V1010000000009570000000000N0000000009570000000010093007381091DURAN GARCIA JUAN                                           200908141555091931A00020090730                                                                        00999
2022889211055023000999V1010000000009570000000000N0000000009570000000010093007761094GARCIA CHAVEZ ALEJAN                                        200908162288113302A00020090730                                                                        00999
2015429211056796000999V1010000000009570000000000N0000000009570000000010093008571096HERRERA RAMIREZ EDWI                                        200908141542113425A00020090730                                                                        00999
2015369211036881000999V1010000000009570000000000N0000000009570000000010093008821095LANDEROS REYNA LUIS                                         200908141536124205A00020090730                                                                        00999
2019749211028904000999V1010000000009570000000000N0000000009570000000010093009101091MACIAS MURILLO LAURA                                        200908141974123959A00020090730                                                                        00999
2019749211005289000999V1010000000009570000000000N0000000009570000000010093009221097MARTINEZ PEREZ KENNY                                        200908141974121701A00020090730                                                                        00999
2005519211042786000999V1010000000009570000000000N0000000009570000000010093009601090OCHOA VIRGEN DIEGO R                                        200908140551154705A00020090730                                                                        00999
2002379211015055000999V1010000000009570000000000N0000000009570000000010093009771091A                                                           200908140237122539A00020090730                                                                        00999
2015029211081615000999V1010000000009570000000000N0000000009570000000010093009941090PEREZ PRADO HUGO ALB                                        200908141502132026A00020090730                                                                        00999
2015029211081254000999V1010000000009570000000000N0000000009570000000010093010001090POLITRON RUVALCAVA J                                        200908141502131745A00020090730                                                                        00999
2006479211045687000999V1010000000009570000000000N0000000009570000000010093010031097PUENTE EMARTINEZ                                            200908160647112454A00020090730                                                                        00999
2015369211026214000999V1010000000009570000000000N0000000009570000000010093010121096RAMIREZ DURAN MARIA                                         200908141536110151A00020090730                                                                        00999
2019749211066121000999V1010000000009570000000000N0000000009570000000010093010331091RIOS SANCHEZ ELISA14                                        200908141974161608A00020090730                                                                        00999
2002079211026157000999V1010000000009570000000000N0000000009570000000010093010551094RODRIGUEZ RODRIGUEZ                                         200908160207110648A00020090730                                                                        00999
2015429211035135000999V1010000000009570000000000N0000000009570000000010093010591090ROMERO MEJIA LUIS RA                                        200908141542093147A00020090730                                                                        00999
2015369211039514000999V1010000000009570000000000N0000000009570000000010093011161091VALDOVINOS SANTANA J                                        200908141536111654A00020090730                                                                        00999
2002379211010998000999V1010000000009570000000000N0000000009570000000010093011461095YA EZ TRUJILLO MAYRA                                        200908160237122220A00020090730                                                                        00999
2015669211052016000999V1010000000009570000000000N0000000009570000000010093011471094JESSICA JAZMIN ZACAR                                        200908141566113004A00020090730                                                                        00999
2006479211060671000999V1010000000006200000000000N0000000006200000000020006103153097LUIS ENRRIQUE OLBEDO                                        200908140647130149A00020090730                                                                        00999
2015549211074258000999V1010000000006200000000000N0000000006200000000020007101493097JORGE A SANCHEZ PREC                                        200908141554114756A00020090730                                                                        00999
2015309211044746000999V1010000000006200000000000N0000000006200000000020007300613099LESLY A GALICIA M                                           200908141530141600A00020090730                                                                        00999
2005509211014188000999V1010000000006200000000000N0000000006200000000020007302493094MONTIEL MARTINEZ                                            200908140550152517A00020090730                                                                        00999
2001679211019128000999V1010000000006200000000000N0000000006200000000020008300323093AVILA PRADO IVAN ALE                                        200908140167135531A00020090730                                                                        00999
2015619211080444000999V1010000000006200000000000N0000000006200000000020008303773096RAMIREZ PRECIADO JUA                                        200908141561132218A00020090730                                                                        00999
2003139211018207000999V1010000000006200000000000N0000000006200000000020091002163090HERNANDEZ FLORES DIA                                        200908140313135001A00020090730                                                                        00999
2015619211029816000999V1010000000006200000000000N0000000006200000000020091004803099WIEDMANN ALFREDO                                            200908141561123549A00020090730                                                                        00999
2015619211083366000999V1010000000002500000000000N0000000002500000000030008303773094RAMIREZ PRECIADO JUA                                        200908141561132348A00020090730                                                                        00999
2015429211015926000999V1010000000002500000000000N0000000002500000000030093006671092BARBA CERVANTES EDUA                                        200908141542122144A00020090730                                                                        00999
2015369211038046000999V1010000000002500000000000N0000000002500000000030093008821091LANDEROS REYNA LUIS                                         200908141536124307A00020090730                                                                        00999
2015369211026498000999V1010000000002500000000000N0000000002500000000030093010121092RAMIREZ DURAN MARIA                                         200908141536110314A00020090730                                                                        00999
2015369211033842000999V1010000000002500000000000N0000000002500000000030093011161097VALDOVINOS SANTANA J                                        200908141536111529A00020090730                                                                        00999
2015559212007739000999V1010000000006200000000000N0000000006200000000002005305961093ESTRADA CASTILLO LAU                                        200908141555155149A00020090731                                                                        00999
2015429212081876000999V1010000000006200000000000N0000000006200000000002006305541091RIVAS MELANO CESAR D                                        200908141542114041A00020090731                                                                        00999
2015369212034061000999V1010000000006200000000000N0000000006200000000002006305581097SOLIS MARTINEZ LAURA                                        200908161536092721A00020090731                                                                        00999
2015369212034403000999V1010000000006200000000000N0000000006200000000002006306521092ACEVES CORTES SANDRA                                        200908141536092828A00020090731                                                                        00999
2015369212073732000999V1010000000006200000000000N0000000006200000000002006306851093GONZALEZ AGUILAR ALI                                        200908141536113234A00020090731                                                                        00999
2015559212099720000999V1010000000006200000000000N0000000006200000000002006307341094OCHOA GUZMAN MARIA                                          200908141555131113A00020090731                                                                        00999
2019749212020827000999V1010000000006200000000000N0000000006200000000002006307461090TORNEL DE LA ROSA P                                         200908161974132417A00020090731                                                                        00999
2006499212030930000999V1010000000006200000000000N0000000006200000000002006308241095ISAAC MENDOZA LAMAS                                         200908140649133548A00020090731                                                                        00999
2015269212090343000999V1010000000006200000000000N0000000006200000000002006308371090PEREZ PLASCENCIA EVE                                        200908141526102357A00020090731                                                                        00999
2015669212052270000999V1010000000006200000000000N0000000006200000000002006308851091MARES HERNANDEZ FATI                                        200908141566123205A00020090731                                                                        00999
2015369212088926000999V1010000000006200000000000N0000000006200000000002006309471097DE SANTIAGO ENRIQUEZ                                        200908161536141950A00020090731                                                                        00999
2015429212072700000999V1010000000006200000000000N0000000006200000000002006309511090ARIAS GARNICA CYNTHI                                        200908141542152421A00020090731                                                                        00999
2004949212018664000999V1010000000006200000000000N0000000006200000000002007305421094ZERMEÅO MAGAÅA JONAT                                        200908140494132552A00020090731                                                                        00999
2015369212046439000999V1010000000006200000000000N0000000006200000000002007306571095MURGUIA IZARRARAZ LU                                        200908161536134411A00020090731                                                                        00999
2015669212084505000999V1010000000006200000000000N0000000006200000000002007308541096ALAN RAUL PLASCENCIA                                        200908161566114040A00020090731                                                                        00999
2015429212004077000999V1010000000006200000000000N0000000006200000000002007309161092620                                                         200908161542155332A00020090731                                                                        00999
2019749212078359000999V1010000000006200000000000N0000000006200000000002008304901094AGUILAR SANTANA LUIS                                        200908161974140923A00020090731                                                                        00999
2015429212073172000999V1010000000006200000000000N0000000006200000000002008305141096ARIAS GARNICA JONATH                                        200908141542152534A00020090731                                                                        00999
2015429212047585000999V1010000000006200000000000N0000000006200000000002008305281090BOLA OS GUERRERO SAL                                        200908161542111011A00020090731                                                                        00999
2019749212069708000999V1010000000006200000000000N0000000006200000000002008305551096CASTILLO RIVAS MARCO                                        200908141974124645A00020090731                                                                        00999
2001669212015157000999V1010000000006200000000000N0000000006200000000002008305571094CASTRO VALLE OSCAR                                          200908160166104342A00020090731                                                                        00999
2015559212013481000999V1010000000006200000000000N0000000006200000000002008305961097ESTRADA CASTILLO JUA                                        200908141555155322A00020090731                                                                        00999
2015079212005651000999V1010000000006200000000000N0000000006200000000002008306921090LOPEZ ACERO BETSABE                                         200908161507143025A00020090731                                                                        00999
2015669212014116000999V1010000000006200000000000N0000000006200000000002008306961096LOPEZ ORTIZ ARELI                                           200908141566120238A00020090731                                                                        00999
2015369212021466000999V1010000000006200000000000N0000000006200000000002008307491093MOYA RAMIREZ RUBEN                                          200908141536132519A00020090731                                                                        00999
2015369212081277000999V1010000000006200000000000N0000000006200000000002008308911099URCIAGA GUTIERREZ PE                                        200908141536113815A00020090731                                                                        00999
2006439212096533000999V1010000000006200000000000N0000000006200000000002008309171099NELLY AYDEE VERA GOM                                        200908140643142309A00020090731                                                                        00999
2015089212095410000999V1010000000006200000000000N0000000006200000000002008309371095GONZALEZ GONZALEZ RO                                        200908141508154128A00020090731                                                                        00999
2006489212025440000999V1010000000006200000000000N0000000006200000000002008309441096LUCERO HERNANDEZ RAM                                        200908140648121037A00020090731                                                                        00999
2015369212033529000999V1010000000006200000000000N0000000006200000000002009101981099GUERRERO CORONA ANTO                                        200908141536110132A00020090731                                                                        00999
2015219212038447000999V1010000000006200000000000N0000000006200000000002009103361092NAVARRO HERNANDEZ MA                                        200908141521110242A00020090731                                                                        00999
2015429212029567000999V1010000000006200000000000N0000000006200000000002009103871090REYNAGA GARCIA MARIA                                        200908161542121801A00020090731                                                                        00999
2015669212054938000999V1010000000006900000000000N0000000006900000000002012311193091MAGANA MARES MANUEL                                         200908141566162709A00020090731                                                                        00999
2015669212033620000999V1010000000006900000000000N0000000006900000000002013312123095CAMBEROS CIPRIAN JAV                                        200908141566092738A00020090731                                                                        00999
2015089212000738000999V1010000000006900000000000N0000000006900000000002017111413094GTZ BRAVO GABRIEL                                           200908141508170539A00020090731                                                                        00999
2006479212092860000999V1010000000006900000000000N0000000006900000000002017111623098MACEDO GALLEGOS LUIS                                        200908140647154002A00020090731                                                                        00999
2000239212099237000999V1010000000006900000000000N0000000006900000000002018310493093CLEMENTE CARDENAS RU                                        200908140023103003A00020090731                                                                        00999
2019749212020019000999V1010000000006900000000000N0000000006900000000002018312033095RUIS NERI JORGE                                             200907311974160155A00020090731                                                                        00999
2015369212044330000999V1010000000002500000000000N0000000002500000000003007306571094MURGUIA IZARRARAZ LU                                        200908161536134526A00020090731                                                                        00999
2001679212007117000999V1010000000009570000000000N0000000009570000000010093001323099DAVILA ASSAD ALFREDO                                        200908140167115710A00020090731                                                                        00999
2015549212049710000999V1010000000009570000000000N0000000009570000000010093001473092DIEGO A DIAZ VOSS                                           200908141554122923A00020090731                                                                        00999
2015619212069067000999V1010000000009570000000000N0000000009570000000010093001483091DIONISIO ORTIZ                                              200908141561100217A00020090731                                                                        00999
2004989212091187000999V1010000000009570000000000N0000000009570000000010093002343096GONZALEZ RIVAS OSMAR                                        200908140498130331A00020090731                                                                        00999
2015679212036727000999V1010000000009570000000000N0000000009570000000010093002583097HEREDIA CASTRO DIEGO                                        200909141567122051A00020090731                                                                        00999
2015599212079310000999V1010000000009570000000000N0000000009570000000010093003803098JUAN MONTANO ROJO                                           200908141559125422A00020090731                                                                        00999
2015119212016819000999V1010000000009570000000000N0000000009570000000010093004023092NINO HINOJOSA EDUARD                                        200908141511132120A00020090731                                                                        00999
2015279212022528000999V1010000000009570000000000N0000000009570000000010093004153097ORTA RUEDA CARLOS                                           200908141527091441A00020090731                                                                        00999
2006449212077100000999V1050000000009570000000000N0000000009570000000010093004363092PEREZ MERCADO EDGAR                                         200908140644125054A00020090731                                                                        00999
2015089212079742000999V1010000000009570000000000N0000000009570000000010093005573095SHARIIEFF RAMIREZ JA                                        200909141508125341A00020090731                                                                        00999
2015429212078544000999V1010000000009570000000000N0000000009570000000010093006681095BARON LOZANO GABRIEL                                        200908161542125429A00020090731                                                                        00999
2015369212072227000999V1010000000009570000000000N0000000009570000000010093007971099GONZALEZ AGUILAR SAN                                        200908141536113117A00020090731                                                                        00999
2015369212034738000999V1010000000009570000000000N0000000009570000000010093008541099HERNANDEZ RODRIGUEZ                                         200908141536105951A00020090731                                                                        00999
2015429212070849000999V1010000000009570000000000N0000000009570000000010093008631098IBARRA ESTRADA EDGAR                                        200908141542112911A00020090731                                                                        00999
2015429212088461000999V1010000000009570000000000N0000000009570000000010093008851092LARIOS CARREON ALAN                                         200908141542130220A00020090731                                                                        00999
2001639212066579000999V1010000000009570000000000N0000000009570000000010093009311096MENDOZA HERNANDEZ JO                                        200908140163095937A00020090731                                                                        00999
2015369212050808000999V1010000000009570000000000N0000000009570000000010093009411094MORA SALINAS MARIA F                                        200908141536111252A00020090731                                                                        00999
2006489212033157000999V1010000000009570000000000N0000000009570000000010093009481097MUÅOZ AMCIAS GPE ALE                                        200908140648133627A00020090731                                                                        00999
2015669212087538000999V1010000000009570000000000N0000000009570000000010093009541098NAVARRO BUSTOS VICTO                                        200908141566141629A00020090731                                                                        00999
2019749212027627000999V1010000000009570000000000N0000000009570000000010093010661091RUIS NERI BRYAN                                             200908141974160431A00020090731                                                                        00999
2001679212044662000999V1010000000010270000000000N0000000010270000000010193100083097ALVARADO PELAYO ANNA                                        200908140167150806A00020090731                                                                        00999
2015629212094031000999V1010000000013270000000000N0000000013270000000010193100593095CATA EDA GARCIA CARL                                        200908141562102352A00020090731                                                                        00999
2001679212003556000999V1010000000013270000000000N0000000013270000000010193100853093DAVILA ASSAD MARIA N                                        200908140167115443A00020090731                                                                        00999
2002059212018633000999V1010000000010270000000000N0000000010270000000010193101193093F ACEVES LUIS A                                             200908140205160449A00020090731                                                                        00999
2002059212032321000999V1010000000010270000000000N0000000010270000000010193101203090F ACEVES PAULINA                                            200908140205160805A00020090731                                                                        00999
2000209212001851000999V1010000000013270000000000N0000000013270000000010193101313097GIRO PINEDA DAVID SE                                        200908140020154529A00020090731                                                                        00999
2015129212049446000999V1010000000010270000000000N0000000010270000000010193102473098MEZA LUNA DAVID ARMA                                        200908141512135113A00020090731                                                                        00999
2004919212046439000999V1010000000013270000000000N0000000013270000000010193103033099PULIDO ERICK OSVALDO                                        200908140491122747A00020090731                                                                        00999
2004919212092527000999V1010000000013270000000000N0000000013270000000010193103103090RAMIREZ MORA EDUARDO                                        200908140491102359A00020090731                                                                        00999
2015679212040714000999V1010000000010270000000000N0000000010270000000010193103453099JUAN FERNANDO ROSALE                                        200908141567122354A00020090731                                                                        00999
2015149212083796000999V1010000000010270000000000N0000000010270000000010193104003091VILLALVAZO RAMIREZ P                                        200908141514153750A00020090731                                                                        00999
2015119212083585000999V1010000000006200000000000N0000000006200000000020005300443095VILLA GONZALEZ JORGE                                        200908141511114004A00020090731                                                                        00999
2019739212051213000999V1010000000006200000000000N0000000006200000000020005302611095ZACARIAS LUEVANOS AN                                        200908141973111426A00020090731                                                                        00999
2003139212046738000999V1010000000006200000000000N0000000006200000000020006102763094JESUS OSWALDO VELASC                                        200908140313111111A00020090731                                                                        00999
2015619212082031000999V1010000000006200000000000N0000000006200000000020006102893099JOSE ANTONIO MARTINE                                        200908141561113828A00020090731                                                                        00999
2002059212055716000999V1010000000006200000000000N0000000006200000000020006300053090JUAN ANTONIO DELGADO                                        200908140205094919A00020090731                                                                        00999
2003139212000349000999V1010000000006200000000000N0000000006200000000020006301703099EDUARDO RENE RODRIGU                                        200908140313130855A00020090731                                                                        00999
2001739212082962000999V1010000000006200000000000N0000000006200000000020006302153096JENNIFER GUADALUPE S                                        200908140173165812A00020090731                                                                        00999
2001739212065913000999V1010000000006200000000000N0000000006200000000020006302413094HUGO EDUARDO SANDOVA                                        200908140173112518A00020090731                                                                        00999
2015799212039912000999V1010000000006200000000000N0000000006200000000020007300073096LIZARRAGA PERAZA JOS                                        200908141579134154A00020090731                                                                        00999
2015629212053399000999V1010000000006200000000000N0000000006200000000020007300673093BRAMBILA SANTAMARIAA                                        200908141562123458A00020090731                                                                        00999
2006489212005511000999V1010000000006200000000000N0000000006200000000020007300773091ESCAMILLA NAVARRO GU                                        200908140648115613A00020090731                                                                        00999
2001679212054497000999V1010000000006200000000000N0000000006200000000020007301133097JIMENEZ GONZALEZ MAR                                        200908140167123348A00020090731                                                                        00999
2015619212098908000999V1010000000006200000000000N0000000006200000000020007301173093TORRES ORTEGA JOSE I                                        200908141561103127A00020090731                                                                        00999
2001739212030554000999V1050000000006200000000000N0000000006200000000020007302133096VAZQUEZ ALVARADO MAR                                        200908140173133630A00020090731                                                                        00999
2015219212027988000999V1010000000006200000000000N0000000006200000000020007302723094NU EZ  CHAVEZ JAVIER                                        200908141521145008A00020090731                                                                        00999
2015129212064748000999V1010000000006200000000000N0000000006200000000020008101573094OCHOA TORRES CELSO F                                        200908141512135910A00020090731                                                                        00999
2015619212049227000999V1010000000006200000000000N0000000006200000000020008300713095CASTREJON GOMEZ FERN                                        200908141561134627A00020090731                                                                        00999
2001669212078852000999V1010000000006200000000000N0000000006200000000020008300783098HERRERA FREGOSO ALDO                                        200908140166113556A00020090731                                                                        00999
2015619212021932000999V1010000000006200000000000N0000000006200000000020008301253091IVAN ROMARICO ESPINO                                        200908141561121215A00020090731                                                                        00999
2019489212047722000999V1010000000006200000000000N0000000006200000000020008302183099HERNANDEZ SANCHEZ DI                                        200908141948134803A00020090731                                                                        00999
2015129212081254000999V1010000000006200000000000N0000000006200000000020008303053093ÙMORALES MENDEZ                                             200908141512164915A00020090731                                                                        00999
2004919212096058000999V1010000000006200000000000N0000000006200000000020008303753098RAMIREZ MORA DIEGO                                          200908140491102527A00020090731                                                                        00999
2005539212047942000999V1010000000006200000000000N0000000006200000000020008304833097ZUNIGA ROMO                                                 200908140553134534A00020090731                                                                        00999
2015619212050219000999V1010000000006200000000000N0000000006200000000020008309643095ALONSO S SANCHEZ V                                          200908141561150536A00020090731                                                                        00999
2015619212049432000999V1010000000006200000000000N0000000006200000000020008309653094BARAJAS LOZA GUILLER                                        200908141561111146A00020090731                                                                        00999
2001679212058819000999V1010000000006200000000000N0000000006200000000020091000493093BRAMBILA ELORZA EDUR                                        200908140167151447A00020090731                                                                        00999
2001679212073421000999V1010000000006900000000000N0000000006900000000020191100973091GONZALEZ PEREZ JESSI                                        200908140167124900A00020090731                                                                        00999
2015619212048811000999V1010000000002500000000000N0000000002500000000030008309653092BARAJAS LOZA GUILLER                                        200908141561111235A00020090731                                                                        00999
2002059212048547000999V1010000000002500000000000N0000000002500000000030193101193099F ACEVES LUIS A                                             200908140205162206A00020090731                                                                        00999
2002059212038085000999V1010000000002500000000000N0000000002500000000030193101203096F ACEVES PAULINA                                            200908140205161311A00020090731                                                                        00999
2004949215056637000999V1010000000006200000000000N0000000006200000000002005307221090AVILA RIOS ALEXANDER                                        200908140494095112A00020090803                                                                        00999
2015029215075481000999V1010000000006200000000000N0000000006200000000002005307461092ZAMORA VAZQUEZ DIEGO                                        200908141502124621A00020090803                                                                        00999
2015369215043690000999V1010000000006200000000000N0000000006200000000002006104761098QUINTANA URIBE SAMUE                                        200908161536133730A00020090803                                                                        00999
2015079215064278000999V1010000000006200000000000N0000000006200000000002006305061090ALDACO MEDINA ERIC A                                        200908141507095818A00020090803                                                                        00999
2000209215002052000999V1010000000006200000000000N0000000006200000000002006305371093GARCIA NAVARRO EDUAR                                        200908160020114938A00020090803                                                                        00999
2015429215018915000999V1010000000006200000000000N0000000006200000000002006307561097SANDOVAL DAVILA GRIS                                        200908141542104524A00020090803                                                                        00999
2015429215025445000999V1010000000006200000000000N0000000006200000000002006307641097ELIZONDO ARIAS RICAR                                        200908141542120719A00020090803                                                                        00999
2015669215094490000999V1010000000006200000000000N0000000006200000000002006308391098CARLOS RAYGOZA VALDO                                        200908161566130051A00020090803                                                                        00999
2015369215076493000999V1010000000006200000000000N0000000006200000000002006308471098GUERRERO RAMIREZ TAY                                        200908161536124626A00020090803                                                                        00999
2019749215083721000999V1010000000006200000000000N0000000006200000000002006308551097GARCIA DIAZ BEBRENIC                                        200908151974124952A00020090803                                                                        00999
2015369215086789000999V1010000000006200000000000N0000000006200000000002006308761092RODRIGUEZ VERA RODRI                                        200908161536113622A00020090803                                                                        00999
2002389215017428000999V1010000000006200000000000N0000000006200000000002006308821094GONZALEZ FABIAN CARO                                        200908160238143724A00020090803                                                                        00999
2015079215095998000999V1010000000006200000000000N0000000006200000000002007304921094PEREZ VALDOVINOS GRA                                        200908161507130058A00020090803                                                                        00999
2019749215010248000999V1010000000006200000000000N0000000006200000000002007305031091ZU IGA SANTANA JUAN                                         200908161974115652A00020090803                                                                        00999
2019749215066115000999V1010000000006200000000000N0000000006200000000002007305251095CAMPOS FRAUSTO ESTEB                                        200908141974135351A00020090803                                                                        00999
2002079215079650000999V1010000000006200000000000N0000000006200000000002007305681093GOMEZ ALENJADRE SADD                                        200908160207124846A00020090803                                                                        00999
2015559215081365000999V1010000000006200000000000N0000000006200000000002007305711098LOMELI CHAVEZ IVAN E                                        200908141555124806A00020090803                                                                        00999
2015079215067076000999V1010000000006200000000000N0000000006200000000002007306171094GARCIA MIRANDA DIEGO                                        200908161507135904A00020090803                                                                        00999
2015079215081946000999V1010000000006200000000000N0000000006200000000002007306581094TORRES SANCHES CARLO                                        200908161507101305A00020090803                                                                        00999
2015089215046641000999V1010000000006200000000000N0000000006200000000002007306761092JARQUIN SALINAS MAUR                                        200908161508110640A00020090803                                                                        00999
2019749215092873000999V1010000000006200000000000N0000000006200000000002007307561095GRANADOS VILLALOBOS                                         200908141974114428A00020090803                                                                        00999
2004989215060984000999V1010000000006200000000000N0000000006200000000002007307611098CARRILLO RAYA ADRIAN                                        200908140498123416A00020090803                                                                        00999
2006489215068430000999V1010000000006200000000000N0000000006200000000002007308191090RODRIGUEZ SORIANO YE                                        200908160648112234A00020090803                                                                        00999
2006489215009357000999V1010000000006200000000000N0000000006200000000002007308221095VALENCIA PE A MANUEL                                        200908160648155126A00020090803                                                                        00999
2004989215060440000999V1010000000006200000000000N0000000006200000000002007308301095AYALA RODRIGUEZ PEDR                                        200908160498123351A00020090803                                                                        00999
2006479215041179000999V1010000000006200000000000N0000000006200000000002007308881096GOMEZ MARTINEZ                                              200908140647121654A00020090803                                                                        00999
2015399215035291000999V1010000000006200000000000N0000000006200000000002007309041096RUVALCABA TORRES CRI                                        200908161539121254A00020090803                                                                        00999
2004949215038421000999V1010000000006200000000000N0000000006200000000002007309071093SALAZAR QUEZADA ADRI                                        200908160494093403A00020090803                                                                        00999
2004919215008544000999V1010000000006200000000000N0000000006200000000002007309131095HERNANDEZ OROZCO                                            200908140491103649A00020090803                                                                        00999
2015369215072659000999V1010000000006200000000000N0000000006200000000002007309631094CRUZ GOMEA KARLA ROC                                        200909161536112538A00020090803                                                                        00999
2002379215084865000999V1010000000006200000000000N0000000006200000000002008306231094JUAN JOSE GARCIA                                            200908160237101617A00020090803                                                                        00999
2019749215089897000999V1010000000006200000000000N0000000006200000000002008306411092GONZALEZ GOMEZ MARTI                                        200908141974153353A00020090803                                                                        00999
2019749215087247000999V1010000000006200000000000N0000000006200000000002008306421091GONZALEZ GOMEZ MIRIA                                        200908141974153230A00020090803                                                                        00999
2019749215062706000999V1010000000006200000000000N0000000006200000000002008306531097GUERRERO VARGAS DIEG                                        200908161974111800A00020090803                                                                        00999
2006489215032370000999V1010000000006200000000000N0000000006200000000002008306551095GUTIERREZ MORENO JOR                                        200908160648121505A00020090803                                                                        00999
2002079215035163000999V1010000000006200000000000N0000000006200000000002008306571093GUTIOERREZ TABARES M                                        200908140207105846A00020090803                                                                        00999
2015079215033413000999V1010000000006200000000000N0000000006200000000002008307201096MARTINEZ MALDONADO C                                        200908161507121124A00020090803                                                                        00999
2015369215088541000999V1010000000006200000000000N0000000006200000000002008308431098RODRIGUEZ VERA PAU                                          200908161536113722A00020090803                                                                        00999
2015429215020736000999V1010000000006200000000000N0000000006200000000002008308701094SANDOVAL DAVILA MAXI                                        200908141542104641A00020090803                                                                        00999
2015369215041978000999V1010000000006200000000000N0000000006200000000002009104071096RUBIO PINTOR EMMANUE                                        200908161536110225A00020090803                                                                        00999
2015369215076322000999V1010000000006200000000000N0000000006200000000002009104451090TOPETE SIGALA MIGUEL                                        200908161536140207A00020090803                                                                        00999
2015669215061724000999V1010000000006900000000000N0000000006900000000002014110023099MONTANO ORTIZ CONCEP                                        200908141566122026A00020090803                                                                        00999
2001679215069277000999V1010000000006900000000000N0000000006900000000002015111613093GARCIA GONZALEZ ALBE                                        200908140167165627A00020090803                                                                        00999
2022889215075128000999V1010000000006900000000000N0000000006900000000002015111943094AQUILES RASCON ALFON                                        200908142288165216A00020090803                                                                        00999
2004989215048451000999V1010000000006900000000000N0000000006900000000002015311153098ANTUNEZ BALLESTEROS                                         200908140498122645A00020090803                                                                        00999
2015149215073052000999V1010000000006900000000000N0000000006900000000002016111333096RIVERA ASCENCIO                                             200908141514164902A00020090803                                                                        00999
2002059215015635000999V1010000000006900000000000N0000000006900000000002016111753095JUAN DIEGO PIMIENTA                                         200908140205155743A00020090803                                                                        00999
2015429215045951000999V1010000000006900000000000N0000000006900000000002016310563097MIGUEL ANGEL GLEZ BT                                        200908141542133810A00020090803                                                                        00999
2002059215099220000999V1010000000006900000000000N0000000006900000000002016310603091JOSE LUIS G RODAS                                           200908140205154252A00020090803                                                                        00999
2019009215088271000999V1010000000006900000000000N0000000006900000000002016310703099ISRAEL SANCHEZ ROBLE                                        200908141900153335A00020090803                                                                        00999
2006479215029930000999V1010000000006900000000000N0000000006900000000002016311833093LUIS FERNANDO PRECIA                                        200908140647092400A00020090803                                                                        00999
2015669215059179000999V1010000000006900000000000N0000000006900000000002017110543099PENA LOPEZ GABRIELA                                         200908141566121110A00020090803                                                                        00999
2015799215024245000999V1010000000006900000000000N0000000006900000000002017310413093CATAÅO SANTOS LAURA                                         200908141579104955A00020090803                                                                        00999
2004989215053401000999V1010000000006900000000000N0000000006900000000002017310533098QUEZADA CARRILLO JOR                                        200908140498150901A00020090803                                                                        00999
2004949215018611000999V1010000000006900000000000N0000000006900000000002017311173092SENGUA RUVALCABA DAN                                        200908140494091215A00020090803                                                                        00999
2004989215068311000999V1010000000006900000000000N0000000006900000000002018110683091ESPINOZA MONTES JULI                                        200908140498135714A00020090803                                                                        00999
2004919215076784000999V1010000000006900000000000N0000000006900000000002018111883096EDUARDO ESRAEL PEREZ                                        200908140491140648A00020090803                                                                        00999
2077159215092391000999V1010000000006900000000000N0000000006900000000002018310013099ABARCA NU EZ ALFREDO                                        200908147715114406A00020090803                                                                        00999
2015079215011452000999V1010000000006900000000000N0000000006900000000002018310383096CARDENAS DE LA TORRE                                        200908141507094018A00020090803                                                                        00999
2039019215089991000999V1010000000006900000000000N0000000006900000000002018311103097HERNANDEZ MEILLON BE                                        200908143901141341A00020090803                                                                        00999
2001739215097310000999V1010000000006900000000000N0000000006900000000002018311143093HERRERA TORRES EDGAR                                        200908140173141937A00020090803                                                                        00999
2022949215049336000999V1010000000006900000000000N0000000006900000000002018311873095PULIDO BERNAL LAURA                                         200908142294133911A00020090803                                                                        00999
2000209215051326000999V1010000000006900000000000N0000000006900000000002018312343098VAZQUEZ DIAZ EDGAR E                                        200908140020150402A00020090803                                                                        00999
2015089215030484000999V1010000000006900000000000N0000000006900000000002018312593098RODRIGUEZ MENDOZA YO                                        200908141508120857A00020090803                                                                        00999
2006479215039193000999V1010000000002500000000000N0000000002500000000003007308881095GOMEZ MARTINEZ ELISA                                        200908140647121819A00020090803                                                                        00999
2001739215062954000999V1010000000009570000000000N0000000009570000000010093000013097ACOSTA REYNOSO EDUAR                                        200908140173164929A00020090803                                                                        00999
2015369215054080000999V1010000000009570000000000N0000000009570000000010093000173099ALDANA DIAZ MARCO AN                                        200908141536163145A00020090803                                                                        00999
2015579215083231000999V1010000000009570000000000N0000000009570000000010093000273097ALVAREZ HERNANDEZ JO                                        200908141557140738A00020090803                                                                        00999
2015309215010105000999V1010000000009570000000000N0000000009570000000010093000323090AMEZCUA DUEÅAS                                              200908141530155822A00020090803                                                                        00999
2019489215038539000999V1010000000009570000000000N0000000009570000000010093000593098BARRAGAN VELEZ MAYEL                                        200908141948145316A00020090803                                                                        00999
2019489215038745000999V1010000000009570000000000N0000000009570000000010093000673098BECERRA NAPOLES JORG                                        200908141948133221A00020090803                                                                        00999
2015309215010381000999V1010000000009570000000000N0000000009570000000010093000733090MANUEL S BRA A M                                            200908141530143408A00020090803                                                                        00999
2002059215088889000999V1010000000009570000000000N0000000009570000000010093000943095CARDENAS R RICARDO                                          200908140205170759A00020090803                                                                        00999
2001699215034318000999V1010000000009570000000000N0000000009570000000010093001393092D LEON RODRIGUEZ IVA                                        200908140169161136A00020090803                                                                        00999
2015679215070388000999V1010000000009570000000000N0000000009570000000010093001433096DELGADILLO CASAS DI                                         200908141567164725A00020090803                                                                        00999
2002069215056168000999V1010000000009570000000000N0000000009570000000010093002043092GARICA OROPEZA GIOVA                                        200908140206150804A00020090803                                                                        00999
2015619215047741000999V1010000000009570000000000N0000000009570000000010093002593096DAVID AVALOS HERNAND                                        200908141561094212A00020090803                                                                        00999
2002389215050024000999V1010000000009570000000000N0000000009570000000010093002633090HERNANDEZ CORTES RUB                                        200908140238150132A00020090803                                                                        00999
2002059215068766000999V1010000000009570000000000N0000000009570000000010093002983099JOSE ROCHA VICTOR                                           200908140205124129A00020090803                                                                        00999
2015619215040246000999V1010000000009570000000000N0000000009570000000010093003163097MARCO A LOPEZ MADERA                                        200908141561145414A00020090803                                                                        00999
2001739215007569000999V1010000000009570000000000N0000000009570000000010093003213090LOZANO JUAREZ JANIA                                         200908140173154936A00020090803                                                                        00999
2006499215062439000999V1010000000009570000000000N0000000009570000000010093003623090MELENDEZ PE A CARLOS                                        200908140649135238A00020090803                                                                        00999
2015399215074273000999V1010000000009570000000000N0000000009570000000010093004343094PEREZ GARCIA FCO JAV                                        200908141539124402A00020090803                                                                        00999
2003139215075333000999V1010000000009570000000000N0000000009570000000010093004593094QUIROGA GONZALEZ ROG                                        200908140313125802A00020090803                                                                        00999
2001679215035582000999V1010000000009570000000000N0000000009570000000010093004753094RAMOS VILLAGOMEZ ALF                                        200908140167145247A00020090803                                                                        00999
2005509215023863000999V1010000000009570000000000N0000000009570000000010093005013092RODRIGUEZ ROMERO DAN                                        200908140550091802A00020090803                                                                        00999
2022859215086678000999V1010000000002500000000000N0000000002500000000010093005193092RUIZ COBIAN HANS                                            200908032285141101A00020090803                                                                        00999
2022859215089022000999V1010000000009570000000000N0000000009570000000010093005193092RUIZ COBIAN HANS                                            200908032285141400A00020090803                                                                        00999
2005519215084510000999V1010000000009570000000000N0000000009570000000010093005423093SANCHEZ MORALES KEVI                                        200908140551170203A00020090803                                                                        00999
2015619215028391000999V1010000000009570000000000N0000000009570000000010093005453090EDUARDO SANCHEZ V                                           200908141561144444A00020090803                                                                        00999
2015539215078296000999V1010000000009570000000000N0000000009570000000010093005513091ANGEL SANTILLAN B                                           200908141553140549A00020090803                                                                        00999
2001739215034646000999V1010000000009570000000000N0000000009570000000010093005703098CARLOS I TELLEZ URAK                                        200908140173121643A00020090803                                                                        00999
2019749215070546000999V1010000000009570000000000N0000000009570000000010093006291093ACWVWZ NIZ JESUS ANT                                        200908141974135740A00020090803                                                                        00999
2002379215044546000999V1010000000009570000000000N0000000009570000000010093006561099ARROYO MUNGUIA MICHE                                        200908140237145716A00020090803                                                                        00999
2001669215009665000999V1010000000009570000000000N0000000009570000000010093006601093BADILLO BAUTISTA EDG                                        200908140166130830A00020090803                                                                        00999
2015079215041221000999V1010000000009570000000000N0000000009570000000010093006661097BARAJAS MONTES CRIST                                        200908161507121656A00020090803                                                                        00999
2015369215030234000999V1010000000009570000000000N0000000009570000000010093006741097BOVADILLA HUERTA MIG                                        200908141536092445A00020090803                                                                        00999
2000209215046499000999V1010000000009570000000000N0000000009570000000010093006801099CAMACHO ASCENCIO JOE                                        200909140020145951A00020090803                                                                        00999
2015079215089451000999V1010000000009570000000000N0000000009570000000010093006851094CANTERO ESPINOSA JOS                                        200908141507125846A00020090803                                                                        00999
2015559215032166000999V1010000000009570000000000N0000000009570000000010093006961091GILBERTO SADUJ CASTA                                        200908141555161400A00020090803                                                                        00999
2022889215034615000999V1010000000009570000000000N0000000009570000000010093007451092ESPARZA GUTIERREZ DI                                        200908142288133333A00020090803                                                                        00999
2000209215045527000999V1010000000009570000000000N0000000009570000000010093007661096957                                                         200908140020145805A00020090803                                                                        00999
2006479215032204000999V1010000000009570000000000N0000000009570000000010093007911095GOMEZ MARTINEZ                                              200908140647121226A00020090803                                                                        00999
2015579215092743000999V1010000000009570000000000N0000000009570000000010093007931093GOMEZ PENA EDGAR                                            200908141557141524A00020090803                                                                        00999
2019749215084195000999V1010000000009570000000000N0000000009570000000010093008041090GONZALEZ GOMEZ MARIA                                        200908141974152909A00020090803                                                                        00999
2015199215071802000999V1050000000009570000000000N0000000009570000000010093008121090GONZALEZ NAVARRETE A                                        200908141519152214A00020090803                                                                        00999
2001739215072469000999V1010000000009570000000000N0000000009570000000010093008201090MAYRA C GONZALEZ V                                          200908140173124846A00020090803                                                                        00999
2019749215091739000999V1010000000009570000000000N0000000009570000000010093008221098GRANADOS VILLALOBOS                                         200908141974114138A00020090803                                                                        00999
2015369215079038000999V1010000000009570000000000N0000000009570000000010093008261094GUERRERO RAMIREZ JUA                                        200908141536124742A00020090803                                                                        00999
2019749215006057000999V1010000000009570000000000N0000000009570000000010093008271093GUEVARA RAMOS OMAR E                                        200908141974142622A00020090803                                                                        00999
2000209215020623000999V1010000000009570000000000N0000000009570000000010093008371091GUZMAN FIGUEROA FRAN                                        200908140020131954A00020090803                                                                        00999
2015669215067764000999V1010000000009570000000000N0000000009570000000010093009041099LOPEZ ORTIZ ADRIANA                                         200908141566112431A00020090803                                                                        00999
2015669215069873000999V1010000000009570000000000N0000000009570000000010093009051098LOPEZ ORTIZ ROBERTO                                         200908141566112545A00020090803                                                                        00999
2002079215022304000999V1010000000009570000000000N0000000009570000000010093009551097NAVARRO GOMEZ LEONAR                                        200908140207104808A00020090803                                                                        00999
2019749215065183000999V1010000000009570000000000N0000000009570000000010093010181090RAMOS JIMENEZ ALEJAN                                        200908141974164216A00020090803                                                                        00999
2015369215012641000999V1010000000009570000000000N0000000009570000000010093010821091SANCHEZ GUTIERREZ JU                                        200908141536103914A00020090803                                                                        00999
2015079215079728000999V1010000000009570000000000N0000000009570000000010093011091090TPRRES SANCHEZ SERGI                                        200908141507101054A00020090803                                                                        00999
2015559215084975000999V1010000000009570000000000N0000000009570000000010093011421099VILLASEÅOR GUTIERREZ                                        200908141555132918A00020090803                                                                        00999
2019749215014601000999V1010000000009570000000000N0000000009570000000010093011531095ZU IGA RAMIREZ LUIS                                         200908141974090815A00020090803                                                                        00999
2004999215079934000999V1010000000010270000000000N0000000010270000000010193100033092AGUIRRE QUIROGA URIE                                        200908140499101104A00020090803                                                                        00999
2004949215094829000999V1010000000010270000000000N0000000010270000000010193100473090CAMPOS FRAUSTO SELEN                                        200908140494102454A00020090803                                                                        00999
2004989215071423000999V1010000000013270000000000N0000000013270000000010193100493098CAMPOS MACIAS LEOBAR                                        200908140498124754A00020090803                                                                        00999
2015369215069721000999V1010000000010270000000000N0000000010270000000010193100633099CASTILLO CRISTIN LUI                                        200908141536135830A00020090803                                                                        00999
2015629215041270000999V1010000000013270000000000N0000000013270000000010193100673095CAZARES VELAZQUEZ SA                                        200908141562162040A00020090803                                                                        00999
2019489215097251000999V1010000000010270000000000N0000000010270000000010193101183094FREDENHAGEN MIRELES                                         200908141948102553A00020090803                                                                        00999
2001739215001548000999V1010000000010270000000000N0000000010270000000010193101333095GOMEZ BARAJS JESUS M                                        200908140173130815A00020090803                                                                        00999
2019749215008629000999V1010000000010270000000000N0000000010270000000010193101493097GONZALEZ GONZALEZ LU                                        200908141974103636A00020090803                                                                        00999
2006529215039644000999V1010000000013270000000000N0000000013270000000010193101973098LOMELI                                                      200908140652110217A00020090803                                                                        00999
2015279215005615000999V1010000000013270000000000N0000000013270000000010193102113090LOZA CANTU RAFAEL ES                                        200908141527103400A00020090803                                                                        00999
2004919215085492000999V1010000000010270000000000N0000000010270000000010193103243094RIVERA VAZQUEZ STEPH                                        200908140491141107A00020090803                                                                        00999
2001669215053744000999V1010000000010270000000000N0000000010270000000010193103303096RODRIGUEZ                                                   200908140166122910A00020090803                                                                        00999
2015669215004455000999V1010000000010270000000000N0000000010270000000010193103423092RODRIGUEZ VAZQUEZ KE                                        200908141566130809A00020090803                                                                        00999
2015629215040172000999V1010000000010270000000000N0000000010270000000010193103623097SANCHEZ SANCHEZ JAVI                                        200908141562121903A00020090803                                                                        00999
2015089215073335000999V1010000000010270000000000N0000000010270000000010193103633096SANDOVAL CASTRO RICA                                        200908141508152334A00020090803                                                                        00999
2004999215091472000999V1010000000010270000000000N0000000010270000000010193103743093SUAREZ RAMO JOEL E                                          200908140499102335A00020090803                                                                        00999
2002079215053250000999V1010000000010270000000000N0000000010270000000010193103753092TINAJERO DALLI MIGUE                                        200908140207134226A00020090803                                                                        00999
2015799215025295000999V1010000000006200000000000N0000000006200000000020005300533093CHAVEZ CRUZ EDGAR I                                         200908141579144148A00020090803                                                                        00999
2001669215024409000999V1010000000006200000000000N0000000006200000000020005309033095PE A SANDOVAL MIGUEL                                        200908140166104832A00020090803                                                                        00999
2015629215059456000999V1010000000006200000000000N0000000006200000000020006100113094GASPAR ARELLANO ARTU                                        200908141562095326A00020090803                                                                        00999
2001699215098780000999V1010000000006200000000000N0000000006200000000020006100203093VELANCIA PLASCENCIA                                         200908140169154456A00020090803                                                                        00999
2001699215039028000999V1010000000006200000000000N0000000006200000000020006300063099GUILLERMO OCHOA                                             200908140169133105A00020090803                                                                        00999
2001699215013940000999V1010000000006200000000000N0000000006200000000020006300433094KATHIA ELIZABET H HA                                        200908140169143245A00020090803                                                                        00999
2015669215090058000999V1010000000006200000000000N0000000006200000000020006301663095JUAN ALBERTO SILVA R                                        200908141566125622A00020090803                                                                        00999
2015579215025660000999V1010000000006200000000000N0000000006200000000020006301673094KAREN TORRES H                                              200908141557160350A00020090803                                                                        00999
2015579215000674000999V1010000000006200000000000N0000000006200000000020006302363091HECTOR SANCHEZ RAMIR                                        200908141557130424A00020090803                                                                        00999
2015579215009706000999V1010000000006200000000000N0000000006200000000020006302403095MARTIN JHONATAN MARE                                        200908141557131132A00020090803                                                                        00999
2015579215005623000999V1010000000006200000000000N0000000006200000000020006302753093CESAR OMAR DE LEANDR                                        200908141557131115A00020090803                                                                        00999
2015619215083622000999V1010000000006200000000000N0000000006200000000020006302843092ARLETTE D J HERNANDE                                        200908141561140837A00020090803                                                                        00999
2001739215030789000999V1010000000006200000000000N0000000006200000000020006303113099JORGE E VIERA LOPEZ                                         200908140173092439A00020090803                                                                        00999
2015629215096796000999V1010000000006200000000000N0000000006200000000020006304483095RAYMUNDO DARIO MACIA                                        200908141562141837A00020090803                                                                        00999
2003139215036515000999V1010000000006200000000000N0000000006200000000020006304663092KARLA JEANETTE MERCA                                        200908140313145522A00020090803                                                                        00999
2015369215095499000999V1010000000006200000000000N0000000006200000000020007100433094PE A CISNEROS ALBERT                                        200908141536153936A00020090803                                                                        00999
2001669215084585000999V1010000000006200000000000N0000000006200000000020007100923094CAZARES DIAZ MIRIAM                                         200908140166141321A00020090803                                                                        00999
2015309215029213000999V1010000000006200000000000N0000000006200000000020007101053099ANTON M CARLOS E                                            200908141530144902A00020090803                                                                        00999
2015679215063480000999V1010000000006200000000000N0000000006200000000020007101203090GONZALEZ ZAPATA JORG                                        200908141567112109A00020090803                                                                        00999
2001669215034173000999V1010000000006200000000000N0000000006200000000020007102233096GARCIA SANCHEZ PABLO                                        200908140166105752A00020090803                                                                        00999
2000209215039563000999V1010000000006200000000000N0000000006200000000020007102403095CESAR OCTAVIO LOPEZ                                         200908140020093325A00020090803                                                                        00999
2015679215041790000999V1010000000006200000000000N0000000006200000000020007300183093ANAYA MACIAS ALFONSO                                        200908141567133445A00020090803                                                                        00999
2001669215041154000999V1050000000006200000000000N0000000006200000000020007300723096ANDREA SOTELO NAVARR                                        200908140166110345A00020090803                                                                        00999
2015679215067887000999V1050000000006200000000000N0000000006200000000020007301403094DELGADILLO CASAS ED                                         200908141567164511A00020090803                                                                        00999
2015619215082006000999V1010000000006200000000000N0000000006200000000020007301433091EDUARDO ESTRADA S                                           200908141561113532A00020090803                                                                        00999
2015619215049259000999V1010000000006200000000000N0000000006200000000020007301853090JOSE E HERNANDEZ A                                          200908141561094352A00020090803                                                                        00999
2019009215039129000999V1010000000006200000000000N0000000006200000000020007302103099RODRIGO MENDOZA SANC                                        200908141900145257A00020090803                                                                        00999
2015629215059762000999V1010000000006200000000000N0000000006200000000020007302393096GASPAR ARELLANO ISAI                                        200908141562095452A00020090803                                                                        00999
2015619215007573000999V1010000000006200000000000N0000000006200000000020007303183090VILLANUEVA SANCHEZ                                          200908141561143151A00020090803                                                                        00999
2001739215067005000999V1010000000006200000000000N0000000006200000000020007303463096AGUILAR ASTORGA ALDO                                        200908140173123633A00020090803                                                                        00999
2004989215077508000999V1010000000006200000000000N0000000006200000000020007303483094MORELOS ACEVES DAVID                                        200908140498124932A00020090803                                                                        00999
2001679215090391000999V1010000000006200000000000N0000000006200000000020007303963095MORA ROJAS DANIEL                                           200908140167102243A00020090803                                                                        00999
2006489215016412000999V1010000000006200000000000N0000000006200000000020007304333090PEREZ SOTO HECTOR MA                                        200908140648131449A00020090803                                                                        00999
2014209215088089000999V1010000000006200000000000N0000000006200000000020007304503098CESAR AA LUPERCIO                                           200908141420153218A00020090803                                                                        00999
2004919215043848000999V1010000000006200000000000N0000000006200000000020007308143099MARTINEZ BARBOSA JOR                                        200908140491093800A00020090803                                                                        00999
2001679215018671000999V1010000000006200000000000N0000000006200000000020008100633097AGUILAR FLORES LUIS                                         200908140167143634A00020090803                                                                        00999
2015309215086239000999V1010000000006200000000000N0000000006200000000020008100753093FURLONG GOMEZ JAIME                                         200908141530113737A00020090803                                                                        00999
2015619215024002000999V1010000000006200000000000N0000000006200000000020008100933091MONTSERRAT HDEZ                                             200908141561144052A00020090803                                                                        00999
2019739215019368000999V1010000000006200000000000N0000000006200000000020008101923091IBARRA GARCIA DAVID                                         200908141973131839A00020090803                                                                        00999
2015619215075947000999V1010000000006200000000000N0000000006200000000020008102263091SALVADOR SANDOVAL M                                         200908141561140340A00020090803                                                                        00999
2015679215054617000999V1010000000006200000000000N0000000006200000000020008102303095ADAN LERIT MARES HER                                        200908141567150525A00020090803                                                                        00999
2004989215032261000999V1010000000006200000000000N0000000006200000000020008102623096ROJAS RUVALCABA LUIS                                        200908140498121031A00020090803                                                                        00999
2003139215006727000999V1010000000006200000000000N0000000006200000000020008300163093620                                                         200908140313092005A00020090803                                                                        00999
2019009215076999000999V1010000000006200000000000N0000000006200000000020008300523098CABALLERO CRUZ DANIE                                        200908141900152405A00020090803                                                                        00999
2015399215095471000999V1010000000006200000000000N0000000006200000000020008300663092CASTANEDA LOPEZ HECT                                        200908141539102520A00020090803                                                                        00999
2019009215097920000999V1010000000006200000000000N0000000006200000000020008300883096CONTRERAS LOPEZ RODR                                        200908141900142003A00020090803                                                                        00999
2001739215032773000999V1010000000006200000000000N0000000006200000000020008301943097GONZALEZ ESCOTO GUST                                        200908140173105507A00020090803                                                                        00999
2015799215040025000999V1010000000006200000000000N0000000006200000000020008302043095GUTIERREZ GOMEZ JAIR                                        200908141579133432A00020090803                                                                        00999
2015129215090386000999V1010000000006200000000000N0000000006200000000020008302593099LOPEZ RIVERA OSCAR                                          200908141512134536A00020090803                                                                        00999
2014209215057807000999V1010000000006200000000000N0000000006200000000020008303523095PELAYO GUZMAN ESTEFA                                        200908141420134713A00020090803                                                                        00999
2006489215014870000999V1010000000006200000000000N0000000006200000000020008303623093PEREZ SOTO OSCAR ALF                                        200908140648131217A00020090803                                                                        00999
2004919215002296000999V1010000000006200000000000N0000000006200000000020008303953094ROARO QUIROZ                                                200908140491130546A00020090803                                                                        00999
2001679215067482000999V1010000000006200000000000N0000000006200000000020008303963093ROBLES PEREZ IGNACIO                                        200908140167100225A00020090803                                                                        00999
2022949215022324000999V1050000000006200000000000N0000000006200000000020008304103095RODRIGUEZ MENDOZA                                           200908142294160509A00020090803                                                                        00999
2015119215026209000999V1010000000006200000000000N0000000006200000000020091000923099DAVALOS AVALOS LUIS                                         200908141511120745A00020090803                                                                        00999
2015549215043702000999V1010000000006200000000000N0000000006200000000020091001163091CARLOS A DOMINGUEZ R                                        200908141554133450A00020090803                                                                        00999
2015679215001705000999V1010000000006200000000000N0000000006200000000020091002033095GUTIERREZ RUVALCABA                                         200908141567142659A00020090803                                                                        00999
2001699215010273000999V1010000000006200000000000N0000000006200000000020091002093099HARO CASTILLO JOSE R                                        200908140169143402A00020090803                                                                        00999
2006449215059145000999V1010000000006200000000000N0000000006200000000020091003663098PEREZ SANCHEZ R                                             200908140644095222A00020090803                                                                        00999
2004989215092782000999V1010000000006200000000000N0000000006200000000020091003733099PRUNEDA AMPARO ALVAR                                        200908140498141400A00020090803                                                                        00999
2015199215056344000999V1010000000006200000000000N0000000006200000000020091003993099RODIGUEZ GOMEZ JOEL                                         200908141519095136A00020090803                                                                        00999
2006479215066255000999V1010000000006200000000000N0000000006200000000020091004383092SILVA AVALOS JOSUE O                                        200908140647100118A00020090803                                                                        00999
2015309215030286000999V1010000000006200000000000N0000000006200000000020091004853094RAMIREZ H DIEGO D                                           200908141530144959A00020090803                                                                        00999
2005539215020041000999V1010000000006900000000000N0000000006900000000020191100633091DE LA ROSA MARTIN LU                                        200908140553160133A00020090803                                                                        00999
2001669215018085000999V1010000000006900000000000N0000000006900000000020191102323097RUIZ                                                        200908140166131749A00020090803                                                                        00999
2002379215052511000999V1010000000006900000000000N0000000006900000000020191102423095CARLOS SANCHES                                              200908140237122600A00020090803                                                                        00999
2001669215025506000999V1010000000002500000000000N0000000002500000000030005309033093PE A SANDOVAL MIGUEL                                        200908140166105046A00020090803                                                                        00999
2015799215041786000999V1010000000002500000000000N0000000002500000000030008302043093GUTIERREZ GOMEZ JAIR                                        200908141579133548A00020090803                                                                        00999
2014209215059074000999V1010000000002500000000000N0000000002500000000030008303523093PELAYO GUZMAN ESTEFA                                        200908141420134957A00020090803                                                                        00999
2019489215038258000999V1010000000002500000000000N0000000002500000000030093000593094BARRAGAN VELEZ MAYEL                                        200908141948145447A00020090803                                                                        00999
2005509215026540000999V1010000000002500000000000N0000000002500000000030093005013098RODRIGUEZ ROMERO                                            200908140550092052A00020090803                                                                        00999
2006479215035525000999V1010000000002500000000000N0000000002500000000030093007911091GOMEZ MARTINEZ                                              200908140647121503A00020090803                                                                        00999
2001739215071760000999V1010000000002500000000000N0000000002500000000030093008201096MAYRA C GONZALEZ V                                          200908140173125000A00020090803                                                                        00999
2005539215023691000999V1010000000002500000000000N0000000002500000000030191100633099DEL ROSA MARTIN LUIS                                        200908140553160321A00020090803                                                                        00999
2015629215040552000999V1010000000002500000000000N0000000002500000000030193103623093SANCHEZ SANCHEZ JAVI                                        200908141562122059A00020090803                                                                        00999
2015559216074370000999V1010000000006200000000000N0000000006200000000002005305641091HERNANDEZ LOZANO JOS                                        200908161555130752A00020090804                                                                        00999
2000209216090330000999V1010000000006200000000000N0000000006200000000002005305711092CURIEL VILLEGAS RICA                                        200908140020144637A00020090804                                                                        00999
2015369216007719000999V1010000000006200000000000N0000000006200000000002005307971090LOPEZ SOLIS MELISSA                                         200908141536150656A00020090804                                                                        00999
2000209216003190000999V1010000000006200000000000N0000000006200000000002006103581091DIAS ORTIZ DANIEL MA                                        200908140020145946A00020090804                                                                        00999
2015559216093480000999V1010000000006200000000000N0000000006200000000002006104351098GONZALEZ GONZALEZ DI                                        200908161555115953A00020090804                                                                        00999
2004949216044455000999V1010000000006200000000000N0000000006200000000002006305091097VILLANUEVA SANCHEZ L                                        200908140494094151A00020090804                                                                        00999
2015369216099067000999V1010000000006200000000000N0000000006200000000002006305111093DURON LOYA ABRAHAM                                          200908161536103451A00020090804                                                                        00999
2015089216068951000999V1010000000006200000000000N0000000006200000000002006305361094ASCENCIO OLVERA ANA                                         200908141508130026A00020090804                                                                        00999
2015429216048309000999V1010000000006200000000000N0000000006200000000002006305521093GUTIERREZ MUÅOZ EDGA                                        200908141542141015A00020090804                                                                        00999
2015369216016856000999V1010000000006200000000000N0000000006200000000002006306411096SALDAÅA MONTAÅO CHRI                                        200908141536151434A00020090804                                                                        00999
2015369216019748000999V1010000000006200000000000N0000000006200000000002006307171095TAPIA GOMEZ GUADALUP                                        200908141536122132A00020090804                                                                        00999
2015369216057966000999V1010000000006200000000000N0000000006200000000002006307681093GALLARDO GARCIA OMAR                                        200908141536155152A00020090804                                                                        00999
2005519216040605000999V1010000000006200000000000N0000000006200000000002006308401095GONZALEZ GARCIA CLAU                                        200908140551140405A00020090804                                                                        00999
2002379216093750000999V1010000000006200000000000N0000000006200000000002006308771091MARIANA     VISCAINI                                        200908160237103118A00020090804                                                                        00999
2000209216086845000999V1010000000006200000000000N0000000006200000000002006308881098TORRES ARELLANO RODR                                        200908140020131541A00020090804                                                                        00999
2022889216002955000999V1010000000006200000000000N0000000006200000000002006308891097SANCHEZ SANCHEZ SAND                                        200908142288132917A00020090804                                                                        00999
2015219216033028000999V1010000000006200000000000N0000000006200000000002006309161094ALEJ CALDERON GUTIER                                        200908161521110827A00020090804                                                                        00999
2015369216060336000999V1010000000006200000000000N0000000006200000000002006309461098SILVA CHAVEZ CAROLIN                                        200908161536125349A00020090804                                                                        00999
2019749216029673000999V1010000000006200000000000N0000000006200000000002007305391099OLIVA MONJARAZ ILEAN                                        200908161974092616A00020090804                                                                        00999
2002379216034953000999V1010000000006200000000000N0000000006200000000002007305921093MONTES DUE AS ALBERT                                        200908160237152916A00020090804                                                                        00999
2015369216046759000999V1010000000006200000000000N0000000006200000000002007306481097MARTINEZ LLAMAS ALDO                                        200908141536094620A00020090804                                                                        00999
2006489216089265000999V1010000000006200000000000N0000000006200000000002007307491095ORTIZ HERNANDEZ JUAN                                        200908140648131718A00020090804                                                                        00999
2015089216060345000999V1010000000006200000000000N0000000006200000000002007307681091VAZQUEZ GONZALEZ ALB                                        200908161508113039A00020090804                                                                        00999
2002379216038971000999V1010000000006200000000000N0000000006200000000002007309171091PATRICIA VEGAS                                              200908160237123625A00020090804                                                                        00999
2002379216098667000999V1010000000006200000000000N0000000006200000000002007309621095JORGE VIZCANO                                               200908160237103706A00020090804                                                                        00999
2002079216041225000999V1010000000006200000000000N0000000006200000000002007309721093AVILA LUNA RICARDO                                          200908140207094002A00020090804                                                                        00999
2015369216066613000999V1010000000006200000000000N0000000006200000000002007309751090CAZARES TORRES LUIS                                         200908161536100449A00020090804                                                                        00999
2015669216055156000999V1010000000006200000000000N0000000006200000000002008120071098CASTRO GARCIA ULISES                                        200908161566141549A00020090804                                                                        00999
2001739216069378000999V1010000000006200000000000N0000000006200000000002008120791091CHAVEZ MENDOZA ROSA                                         200908140173130047A00020090804                                                                        00999
2019749216027817000999V1010000000006200000000000N0000000006200000000002008305101090ARAMBULA GALINDO JOS                                        200908141974122458A00020090804                                                                        00999
2002079216041100000999V1010000000006200000000000N0000000006200000000002008305171093AVILA LUNA LEONARDO                                         200908140207093806A00020090804                                                                        00999
2019749216068411000999V1010000000006200000000000N0000000006200000000002008305241094BEATO HERRERA RAFAEL                                        200908141974130002A00020090804                                                                        00999
2019749216092751000999V1010000000006200000000000N0000000006200000000002008305561095CASTRO DIAZ ABELARDO                                        200908161974145243A00020090804                                                                        00999
