2015570033035955000999V1010000000006200000000000N0000000006200000000000000000000000IPENZA RETAMOZO SAMI                                        201002051557125142A00020100202                                                                        00999
2042100033022898000999V1010000000006200000000000N0000000006200000000000000000910455VALENCIA ZALAPA RODO                                        201002054210103113A00020100202                                                                        00999
2000200033098002000999V1010000000006200000000000N0000000006200000000002006100591093GUSTAVO HERNANDEZ BE                                        201002050020112114A00020100202                                                                        00999
2015360033072688000999V1010000000006200000000000N0000000006200000000002006104691097ESPARZA SOLTERO VICT                                        201002051536142705A00020100202                                                                        00999
2006490033034479000999V1010000000006200000000000N0000000006200000000002006104991091ESPINOSA CORTES JESI                                        201002050649135848A00020100202                                                                        00999
2015070033010171000999V1010000000006200000000000N0000000006200000000002006305031093RAMIREZ ESPEJEL DAN                                         201002051507140744A00020100202                                                                        00999
2015360033095601000999V1010000000006200000000000N0000000006200000000002006305111093DURON LOYA ABRAHAM                                          201002051536155835A00020100202                                                                        00999
2015360033081690000999V1010000000006200000000000N0000000006200000000002006305131091MARTIN HERNANDEZ JOS                                        201002051536110947A00020100202                                                                        00999
2015360033024778000999V1010000000006200000000000N0000000006200000000002006305221090CASTA EDA GARCIA EDW                                        201002051536150308A00020100202                                                                        00999
2001660033003069000999V1010000000006200000000000N0000000006200000000002006305231099VIZCARRA GUTIERREZ A                                        201002050166112304A00020100202                                                                        00999
2015360033014431000999V1010000000006200000000000N0000000006200000000002006305251097MARTINEZ GUTIERREZ R                                        201002051536160816A00020100202                                                                        00999
2015360033038479000999V1010000000006200000000000N0000000006200000000002006305261096VAZQUEZ BRISEÅO OMAR                                        201002051536162640A00020100202                                                                        00999
2015360033058605000999V1010000000006200000000000N0000000006200000000002006305271095MAGAÅA CORONA CARLOS                                        201002051536141650A00020100202                                                                        00999
2019740033068385000999V1010000000006200000000000N0000000006200000000002006305301090TREVIÅO CORDOVA JUAN                                        201002051974120702A00020100202                                                                        00999
2015070033092839000999V1050000000006200000000000N0000000006200000000002006305311099FLORES MUNGIA DIEGO                                         201002051507131943A00020100202                                                                        00999
2004940033036204000999V1010000000006200000000000N0000000006200000000002006305321098MU OZ VENEGAS JOSE R                                        201002050494151543A00020100202                                                                        00999
2000200033021733000999V1010000000006200000000000N0000000006200000000002006305371093GARCIA NAVARRO EDUAR                                        201002050020091239A00020100202                                                                        00999
2015360033099214000999V1010000000006200000000000N0000000006200000000002006305381092OROZCO ORTIZ PATRICI                                        201002051536155658A00020100202                                                                        00999
2015360033027209000999V1010000000006200000000000N0000000006200000000002006305401098CASTAÅEDA TAPIA MICH                                        201002051536124536A00020100202                                                                        00999
2015360033062841000999V1010000000006200000000000N0000000006200000000002006305481090RUELAS OLEA EDGAR AD                                        201002051536141836A00020100202                                                                        00999
2015420033018516000999V1010000000006200000000000N0000000006200000000002006305521093GUTIERREZ MUÅOZ EDGA                                        201002051542134955A00020100202                                                                        00999
2015360033051008000999V1010000000006200000000000N0000000006200000000002006306081097GUERRERO PLASCENCIA                                         201002051536141303A00020100202                                                                        00999
2015360033035653000999V1010000000006200000000000N0000000006200000000002006306171096MENDO IBARRA CELESTE                                        201002051536162519A00020100202                                                                        00999
2015550033041507000999V1010000000006200000000000N0000000006200000000002006306421095DIAZ PE A HECTOR                                            201002051555110641A00020100202                                                                        00999
2015360033049495000999V1010000000006200000000000N0000000006200000000002006306521092ACEVES CORTES SANDRA                                        201002051536093542A00020100202                                                                        00999
2015080033064346000999V1010000000006200000000000N0000000006200000000002006306711099DURAN MENDOZA BLANCA                                        201002051508153556A00020100202                                                                        00999
2015070033011833000999V1010000000006200000000000N0000000006200000000002006306751095SOLIS REYES ROSA ALI                                        201002051507140919A00020100202                                                                        00999
2015660033082350000999V1010000000006200000000000N0000000006200000000002006306991097OROZCO SALCIDO LUCER                                        201002051566143340A00020100202                                                                        00999
2015360033085494000999V1010000000006200000000000N0000000006200000000002006307051099LOPEZ LEAL CARLOS RO                                        201002051536121713A00020100202                                                                        00999
2002070033071193000999V1010000000006200000000000N0000000006200000000002006307091095PAEZ ALVAREZ                                                201002050207095418A00020100202                                                                        00999
2019740033028166000999V1010000000006200000000000N0000000006200000000002006307561097SANDOVAL DAVILA GRIS                                        201002051974124609A00020100202                                                                        00999
2015360033090312000999V1010000000006200000000000N0000000006200000000002006307621099LOPEZ SANCHEZ CESAR                                         201002051536143813A00020100202                                                                        00999
2015070033038600000999V1010000000006200000000000N0000000006200000000002006307811096LOPEZ BALTIERRA RICA                                        201002051507104130A00020100202                                                                        00999
2015360033021268000999V1010000000006200000000000N0000000006200000000002006307931092GARATE CASTRO ALEJAN                                        201002051536113521A00020100202                                                                        00999
2015360033000116000999V1010000000006200000000000N0000000006200000000002006307941091BERMUDEZ LAMAS CHRIS                                        201002051536133419A00020100202                                                                        00999
2015660033027516000999V1010000000006200000000000N0000000006200000000002006308071096AGREDANO ORNELAS ITZ                                        201002051566103320A00020100202                                                                        00999
2015070033097646000999V1010000000006200000000000N0000000006200000000002006308131098ESPARZA HERNANDEZ DA                                        201002051507144344A00020100202                                                                        00999
2015360033080257000999V1010000000006200000000000N0000000006200000000002006308171094CHAVERO ALVAREZ ROBE                                        201002051536143117A00020100202                                                                        00999
2015260033055764000999V1010000000006200000000000N0000000006200000000002006308371090PEREZ PLASCENCIA EVE                                        201002051526152511A00020100202                                                                        00999
2015360033037138000999V1010000000006200000000000N0000000006200000000002006308471098GUERRERO RAMIREZ TAY                                        201002051536140108A00020100202                                                                        00999
2002070033075742000999V1010000000006200000000000N0000000006200000000002006308481097BALDERRAMOS MARTINEZ                                        201002050207095528A00020100202                                                                        00999
2015360033083205000999V1010000000006200000000000N0000000006200000000002006308541098AGUILAR DELGADILLO N                                        201002051536143324A00020100202                                                                        00999
2019740033036013000999V1010000000006200000000000N0000000006200000000002006308551097GARCIA DIAZ BERENICE                                        201002051974151115A00020100202                                                                        00999
2015550033067610000999V1010000000006200000000000N0000000006200000000002006308791099VASZQUEZ ZU IGA NELL                                        201002051555142236A00020100202                                                                        00999
2001730033039467000999V1010000000006200000000000N0000000006200000000002006308821094CAROLINA GONZALEZ                                           201002050173110058A00020100202                                                                        00999
2015360033005183000999V1010000000006200000000000N0000000006200000000002006309031099BOBADILLA HERNANDEZ                                         201002051536160116A00020100202                                                                        00999
2015080033001373000999V1010000000006200000000000N0000000006200000000002006309201098FERNANDEZ MORENO JON                                        201002051508112321A00020100202                                                                        00999
2015360033082847000999V1010000000006200000000000N0000000006200000000002006309461098SILVA CHAVEZ CAROLIN                                        201002051536143442A00020100202                                                                        00999
2020420033046512000999V1010000000006200000000000N0000000006200000000002006309481096KAREN PAOLA SEPULVED                                        201002052042163317A00020100202                                                                        00999
2015660033082915000999V1010000000006200000000000N0000000006200000000002006309521099MACIAS REA                                                  201005021566121658A00020100202                                                                        00999
2015620033006754000999V1010000000006200000000000N0000000006200000000002007102861096ALVAREZ CHAVEZ EFREN                                        201002051562101735A00020100202                                                                        00999
2002380033076998000999V1010000000006200000000000N0000000006200000000002007103461094GONZALEZ JAUREGUI ED                                        201002050238131822A00020100202                                                                        00999
2015660033023994000999V1010000000006200000000000N0000000006200000000002007103851096CRUZ LOPEZ GLADYS                                           201002051566124333A00020100202                                                                        00999
2015420033092980000999V1010000000006200000000000N0000000006200000000002007305161096GOMEZ RGUEZ MIRIAM J                                        201002051542132931A00020100202                                                                        00999
2015360033054777000999V1010000000006200000000000N0000000006200000000002007305201090TORRES JAIME HESBON                                         201002051536141301A00020100202                                                                        00999
2015070033058983000999V1010000000006200000000000N0000000006200000000002007305321096VILLAVICENCIO COVARR                                        201002051507115343A00020100202                                                                        00999
2019740033026315000999V1010000000006200000000000N0000000006200000000002007305651096ANGULO RUELAS DIEGO                                         201002051974135304A00020100202                                                                        00999
2015360033073017000999V1010000000006200000000000N0000000006200000000002007306181093RODRIGUEZ SALAS ALAN                                        201002051536131647A00020100202                                                                        00999
2015210033084180000999V1010000000006200000000000N0000000006200000000002007306391098VALLE CARRANZA ERICK                                        201002051521132317A00020100202                                                                        00999
2015360033063673000999V1010000000006200000000000N0000000006200000000002007306521090MONTAÅO RAMOS                                               201002051536153100A00020100202                                                                        00999
2019740033055132000999V1010000000006200000000000N0000000006200000000002007306561096TABARES GUTIERREZ RO                                        201002051974141341A00020100202                                                                        00999
2005500033003039000999V1010000000006200000000000N0000000006200000000002007306781090NAVARRO HDZ                                                 201002050550144716A00020100202                                                                        00999
2019740033032900000999V1010000000006200000000000N0000000006200000000002007306881098VIDAL TORRES HUMBERT                                        201002051974135751A00020100202                                                                        00999
2001660033017346000999V1010000000006200000000000N0000000006200000000002007306941090VERA HERNANDEZ NOEMI                                        201002050166090829A00020100202                                                                        00999
2004940033019354000999V1010000000006200000000000N0000000006200000000002007306951099NAPOLES ACEVES ARIAN                                        201002050494134828A00020100202                                                                        00999
2015360033050111000999V1010000000006200000000000N0000000006200000000002007307051097ARELLANO VILLALPANDO                                        201002051536140959A00020100202                                                                        00999
2006470033068778000999V1010000000006200000000000N0000000006200000000002007307101090SANCHEZ ALCAZAR                                             201002050647120519A00020100202                                                                        00999
2015360033049522000999V1010000000006200000000000N0000000006200000000002007307291099GUTIERREZ RAMOS ESTE                                        201002051536140916A00020100202                                                                        00999
2015070033081516000999V1010000000006200000000000N0000000006200000000002007307301096PATI O VAZQUEZ MAYRA                                        201002051507143220A00020100202                                                                        00999
2015210033072083000999V1010000000006200000000000N0000000006200000000002007307531098DIAZ RIOS OSVALDO                                           201002051521110305A00020100202                                                                        00999
2015550033003540000999V1010000000006200000000000N0000000006200000000002007307711096BARRERA TORRES MIGUE                                        201002051555145020A00020100202                                                                        00999
2015360033089309000999V1010000000006200000000000N0000000006200000000002007307791098ROJAS NUÅO JESUS GER                                        201002051536143940A00020100202                                                                        00999
2015360033016341000999V1010000000006200000000000N0000000006200000000002007307831092MORA BARAJAS JULIO C                                        201002051536145702A00020100202                                                                        00999
2019740033084457000999V1010000000006200000000000N0000000006200000000002007307961097LOPEZ ANGUHEVEI IGNA                                        201002051974121803A00020100202                                                                        00999
2002070033039871000999V1010000000006200000000000N0000000006200000000002007307971096LOPEZ FERNANDEZ JUAN                                        201002050207151820A00020100202                                                                        00999
2015420033031072000999V1010000000006200000000000N0000000006200000000002007308221095VALENCIA PE A MANUEL                                        201002051542162016A00020100202                                                                        00999
2004940033072218000999V1010000000006200000000000N0000000006200000000002007308401093TORRES GOMEZ SERVAND                                        201002050494131730A00020100202                                                                        00999
2001730033035295000999V1010000000006200000000000N0000000006200000000002007308541096ALAN R PLASCENCIA AB                                        201002050173114430A00020100202                                                                        00999
2015420033081716000999V1010000000006200000000000N0000000006200000000002007308631095MARISCAL TERRONES JU                                        201002051542143227A00020100202                                                                        00999
2015360033019476000999V1010000000006200000000000N0000000006200000000002007308931099RESENDIZ MENERA ALFO                                        201002051536134807A00020100202                                                                        00999
2015420033032931000999V1010000000006200000000000N0000000006200000000002007309161092GUIZAR GARCIA KAREN                                         201002051542162146A00020100202                                                                        00999
2001730033029371000999V1010000000006200000000000N0000000006200000000002007309281098RODRIGUEZ MU OZ CARL                                        201002050173162415A00020100202                                                                        00999
2015420033061182000999V1010000000006200000000000N0000000006200000000002007309421090HERNANDEZ ROJAS IVAN                                        201002051542141732A00020100202                                                                        00999
2015010033066577000999V1010000000006200000000000N0000000006200000000002007309441098DAYANA JAZMIN RUIZ                                          201002051501131145A00020100202                                                                        00999
2006480033049287000999V1010000000006200000000000N0000000006200000000002007309541095ALEJANDRA MONTES CON                                        201002050648130201A00020100202                                                                        00999
2019740033057104000999V1010000000006200000000000N0000000006200000000002007309791096REYNAGA PATIÅO ALMA                                         201002051974105252A00020100202                                                                        00999
2015660033025192000999V1010000000006200000000000N0000000006200000000002008120731097CARRILLO ALCIZO CARL                                        201002051566091553A00020100202                                                                        00999
2015210033034061000999V1010000000006200000000000N0000000006200000000002008120771093ARANDA ESPINOZA MARC                                        201002051521125009A00020100202                                                                        00999
2015360033083770000999V1010000000006200000000000N0000000006200000000002008304891097AGUILAR DELGADILLO A                                        201002051536143436A00020100202                                                                        00999
2002070033012523000999V1010000000006200000000000N0000000006200000000002008304911093AGUIRRE INDA M                                              201002050207112925A00020100202                                                                        00999
2015660033086340000999V1010000000006200000000000N0000000006200000000002008305001092ALVARADO SILVA BREND                                        201002051566100430A00020100202                                                                        00999
2015140033051016000999V1010000000006200000000000N0000000006200000000002008305211097BARAJAS SANCHEZ LAUR                                        201002051514130128A00020100202                                                                        00999
2015360033016358000999V1010000000006200000000000N0000000006200000000002008305261092BERNAL DIAZ YADIRA                                          201002051536123755A00020100202                                                                        00999
2015360033083453000999V1010000000006200000000000N0000000006200000000002008305311095BRAVO ORENELAS                                              201002051536154929A00020100202                                                                        00999
2015360033077272000999V1010000000006200000000000N0000000006200000000002008305351091CALLEJA VAZQUEZ                                             201002051536121119A00020100202                                                                        00999
2015360033010207000999V1010000000006200000000000N0000000006200000000002008305461098CARMONA SANCHEZ MARI                                        201002051536160703A00020100202                                                                        00999
2015360033021623000999V1010000000006200000000000N0000000006200000000002008305581093CEDANO VALENCIA MOIS                                        201002051536124207A00020100202                                                                        00999
2015360033051423000999V1010000000006200000000000N0000000006200000000002008305681091COVARRUBIAS LOZANO V                                        201002051536141059A00020100202                                                                        00999
2015360033066463000999V1010000000006200000000000N0000000006200000000002008305781099DIAZ HERRERA                                                201002051536120354A00020100202                                                                        00999
2019740033022122000999V1010000000006200000000000N0000000006200000000002008305881097ESCAREÅO PEREZ PALOM                                        201002051974124149A00020100202                                                                        00999
2015070033095965000999V1010000000006200000000000N0000000006200000000002008305911092ESPARZA HERNANDEZ SE                                        201002051507144549A00020100202                                                                        00999
2015610033090971000999V1050000000006200000000000N0000000006200000000002008306091092FLORES LABRADA CESAR                                        201002051561155511A00020100202                                                                        00999
2015070033093269000999V1050000000006200000000000N0000000006200000000002008306111098FLORES MUNGUIA SUSAN                                        201002051507132057A00020100202                                                                        00999
2019740033099072000999V1010000000006200000000000N0000000006200000000002008306131096FONG MORA LUIS ENRIQ                                        201002051974160112A00020100202                                                                        00999
2000200033094429000999V1010000000006200000000000N0000000006200000000002008306141095FRAUSTO ROJAS FERNAN                                        201002050020133310A00020100202                                                                        00999
2019740033029810000999V1010000000006200000000000N0000000006200000000002008306411092GONZALEZ GOMEZ MARTI                                        201002051974091940A00020100202                                                                        00999
2019740033028537000999V1010000000006200000000000N0000000006200000000002008306421091GONZALEZ GOMEZ MIRIA                                        201002051974091830A00020100202                                                                        00999
2015070033035182000999V1010000000006200000000000N0000000006200000000002008306621096HERNANDEZ CASTILLO M                                        201002051507135903A00020100202                                                                        00999
2015550033039051000999V1010000000006200000000000N0000000006200000000002008306631095HERNANDEZ ECHEVERRIA                                        201002051555151323A00020100202                                                                        00999
2002070033092854000999V1010000000006200000000000N0000000006200000000002008306821092JAUREGUI SEGURA HECT                                        201002050207144222A00020100202                                                                        00999
2015070033042323000999V1010000000006200000000000N0000000006200000000002008306941098LOPEZ BALTIERRA EDUA                                        201002051507104320A00020100202                                                                        00999
2015660033048819000999V1010000000006200000000000N0000000006200000000002008306961096LOPEZ ORTIZ                                                 201002051566130007A00020100202                                                                        00999
2015360033087539000999V1010000000006200000000000N0000000006200000000002008307041096LUNA OLIVARES                                               201002051536154827A00020100202                                                                        00999
2015660033023695000999V1010000000006200000000000N0000000006200000000002008307341090MELENDEZ CHECA CRIST                                        201002051566101511A00020100202                                                                        00999
2015360033096260000999V1010000000006200000000000N0000000006200000000002008307431099MONTOYA BALVADENA VI                                        201002051536122651A00020100202                                                                        00999
2004910033048972000999V1010000000006200000000000N0000000006200000000002008307531096MURILLO DOMINGUEZ                                           201002050491152136A00020100202                                                                        00999
2015660033032968000999V1010000000006200000000000N0000000006200000000002008307851098PANTALEON CORONA                                            201002051566114232A00020100202                                                                        00999
2015070033085249000999V1010000000006200000000000N0000000006200000000002008307861097PATI O VAZQUEZ MARIA                                        201002051507143541A00020100202                                                                        00999
2015360033014068000999V1010000000006200000000000N0000000006200000000002008307871096PATRICIO MURGUIA JOS                                        201002051536134410A00020100202                                                                        00999
2015360033065170000999V1010000000006200000000000N0000000006200000000002008307891094PEÅA MURILLO MARISEL                                        201002051536142311A00020100202                                                                        00999
2015360033005751000999V1010000000006200000000000N0000000006200000000002008307901091PEÅA ROJAS ERICK                                            201002051536112508A00020100202                                                                        00999
2002370033088711000999V1010000000006200000000000N0000000006200000000002008307931098PEREZ HERNANDEZ IRMA                                        201002050237130901A00020100202                                                                        00999
2015360033074939000999V1010000000006200000000000N0000000006200000000002008307971094PEREZ SALCEDO VICTOR                                        201002051536154303A00020100202                                                                        00999
2019740033038697000999V1010000000006200000000000N0000000006200000000002008308201095RAMOS CHOLICO CESAR                                         201002051974114728A00020100202                                                                        00999
2002370033064685000999V1010000000006200000000000N0000000006200000000002008308371096A                                                           201002050237131024A00020100202                                                                        00999
2004940033045652000999V1010000000006200000000000N0000000006200000000002008308481093ROSAS ORTIZ ALEJANDR                                        201002050494140709A00020100202                                                                        00999
2019740033039081000999V1010000000006200000000000N0000000006200000000002008308611095SANCHEZ BERLANGA DAV                                        201002051974140150A00020100202                                                                        00999
2015080033046604000999V1010000000006200000000000N0000000006200000000002008308691097SANCHEZ SANTIAGO JES                                        201002051508104656A00020100202                                                                        00999
2019740033028171000999V1010000000006200000000000N0000000006200000000002008308701094SANDOVAL DAVILA MAX                                         201002051974124725A00020100202                                                                        00999
2019740033084351000999V1010000000006200000000000N0000000006200000000002008308981092VALENZUELA JIMENEZ L                                        201002051974154706A00020100202                                                                        00999
2015360033014873000999V1010000000006200000000000N0000000006200000000002008309401090MORALES ASCENCIO ROC                                        201002051536134525A00020100202                                                                        00999
2002070033038434000999V1010000000006200000000000N0000000006200000000002008309851096LOPEZ GUTIERREZ MIGU                                        201002050207151720A00020100202                                                                        00999
2002070033045891000999V1010000000006200000000000N0000000006200000000002009100051092AGUAYO GARCIA MIRIAM                                        201002050207140720A00020100202                                                                        00999
2000200033072050000999V1010000000006200000000000N0000000006200000000002009100141091ALMENDARIZ RAVELERO                                         201002050020121005A00020100202                                                                        00999
2019740033074983000999V1010000000006200000000000N0000000006200000000002009100421097BA ALES CARRILLO SUS                                        201002051974121053A00020100202                                                                        00999
2015660033055897000999V1010000000006200000000000N0000000006200000000002009101241098FRANCISCO JAVIER EZP                                        201002051566115908A00020100202                                                                        00999
2019740033087180000999V1010000000006200000000000N0000000006200000000002009101681095GOMEZ MANRIQUEZ ABRA                                        201002051974121939A00020100202                                                                        00999
2015360033037577000999V1010000000006200000000000N0000000006200000000002009101981099GUERRERO CORONA ANTO                                        201002051536104007A00020100202                                                                        00999
2015660033008457000999V1010000000006200000000000N0000000006200000000002009102411096ISIDRO RAMIREZ LUIS                                         201002051566145522A00020100202                                                                        00999
2015120033044993000999V1010000000006200000000000N0000000006200000000002009102971099MARTINEZ REYES VICTO                                        201002051512140626A00020100202                                                                        00999
2002370033008734000999V1010000000006200000000000N0000000006200000000002009104331094SANTANA MORQUECHO                                           201002050237140001A00020100202                                                                        00999
2015360033081298000999V1010000000006200000000000N0000000006200000000002009104451090TOPETE SIGALA MIGUEL                                        201002051536154452A00020100202                                                                        00999
2006470033034132000999V1010000000006200000000000N0000000006200000000002009104871099ROMO GARCIA ADAN                                            201002050647125135A00020100202                                                                        00999
2019740033096640000999V1010000000006200000000000N0000000006200000000020093006371091AHUMADA ANDRADE ABRA                                        201002051974144508A00020100202                                                                        00999
2015360033041831000999V1010000000006200000000000N0000000006200000000020093006451091AMEZCUA CORONA ALESH                                        201002051536104239A00020100202                                                                        00999
2015360033008274000999V1010000000006200000000000N0000000006200000000020093006471099AMEZQUITA SANTIAGO I                                        201002051536134018A00020100202                                                                        00999
2019740033011682000999V1010000000006200000000000N0000000006200000000020093006481098ANDRADE ARIAS VICTOR                                        201002051974134328A00020100202                                                                        00999
2002060033069378000999V1010000000006200000000000N0000000006200000000020093006651096PABLO BARAJAS                                               201002050206165219A00020100202                                                                        00999
2015070033071894000999V1010000000006200000000000N0000000006200000000020093006851092JOSE CANTERO                                                201002051507110401A00020100202                                                                        00999
2015070033020936000999V1010000000006200000000000N0000000006200000000020093006861091NANCY CANTERO                                               201002051507091137A00020100202                                                                        00999
2015020033026745000999V1010000000006200000000000N0000000006200000000020093006921093CARRILLO LEON ANDREA                                        201002051502135526A00020100202                                                                        00999
2019740033052133000999V1010000000006200000000000N0000000006200000000020093007011092CECEÅA GUZMAN CARLOS                                        201002051974141156A00020100202                                                                        00999
2015360033086497000999V1010000000006200000000000N0000000006200000000020093007021091CHAVARIN SANCHEZ HEC                                        201002051536132449A00020100202                                                                        00999
2006440033011921000999V1010000000006200000000000N0000000006200000000020093007071096CHAVEZ TORRES PAULIN                                        201002050644123424A00020100202                                                                        00999
2015360033066224000999V1010000000006200000000000N0000000006200000000020093007181093CORTES SIMENTAL NORM                                        201002051536131215A00020100202                                                                        00999
2001630033057257000999V1010000000006200000000000N0000000006200000000020093007231096CUEVAS VIDRIO MAURO                                         201002050163141550A00020100202                                                                        00999
2004980033043804000999V1010000000006200000000000N0000000006200000000020093007261093DE ANDA RAMIREZ YEDI                                        201002050498093139A00020100202                                                                        00999
2004910033081718000999V1010000000006200000000000N0000000006200000000020093007401095ECHEVERRIA ORENDAIN                                         201002050491132123A00020100202                                                                        00999
2015020033012677000999V1010000000006200000000000N0000000006200000000020093007661094GALINDO GUIJARRO OMA                                        201002051502160702A00020100202                                                                        00999
2015360033000144000999V1010000000006200000000000N0000000006200000000020093007681092GALLEGOS GOMEZ SAMUE                                        201002051536133510A00020100202                                                                        00999
2015020033008006000999V1010000000006200000000000N0000000006200000000020093008001092GONZALEZ CORONA ANDR                                        201002051502101949A00020100202                                                                        00999
2006480033033471000999V1010000000006200000000000N0000000006200000000020093008021090GONZALEZ GALINDO VIA                                        201002050648103641A00020100202                                                                        00999
2019740033027725000999V1010000000006200000000000N0000000006200000000020093008041098GONZALEZ GOMEZ MARIA                                        201002051974091706A00020100202                                                                        00999
2002070033056620000999V1010000000006200000000000N0000000006200000000020093008061096GONZALEZ HERNANDEZ J                                        201002050207130538A00020100202                                                                        00999
2015360033012282000999V1010000000006200000000000N0000000006200000000020093008241094GUERRERO ESPINOSA ER                                        201002051536160709A00020100202                                                                        00999
2015360033039367000999V1010000000006200000000000N0000000006200000000020093008261092GUERRERO RAMIREZ JUA                                        201002051536140227A00020100202                                                                        00999
2019740033018547000999V1010000000006200000000000N0000000006200000000020093008271091GUEVARA RAMOS OMAR E                                        201002051974090930A00020100202                                                                        00999
2015420033019889000999V1010000000006200000000000N0000000006200000000020093008311095GUTIERREZ MUÅOZ BREN                                        201002051542135052A00020100202                                                                        00999
2004940033076425000999V1010000000006200000000000N0000000006200000000020093008321094GUTIEREZ MU OZ SERGI                                        201002050494142811A00020100202                                                                        00999
2015210033051007000999V1010000000006200000000000N0000000006200000000020093008391097HERNANDEZ BAUTISTA A                                        201002051521104942A00020100202                                                                        00999
2001730033004652000999V1010000000006200000000000N0000000006200000000020093008521099HERNANDEZ PONCE KARL                                        201002050173145242A00020100202                                                                        00999
2015420033010230000999V1010000000006200000000000N0000000006200000000020093008601099HUERTA OROZCO MIRNA                                         201002051542102126A00020100202                                                                        00999
2015360033015405000999V1010000000006200000000000N0000000006200000000020093008731094JIMENEZ AGUIRRE JAQU                                        201002051536145942A00020100202                                                                        00999
2015660033009630000999V1010000000006200000000000N0000000006200000000020093008771090JIMENEZ RAMON MARTIN                                        201002051566123252A00020100202                                                                        00999
2015420033031420000999V1010000000006200000000000N0000000006200000000020093008861099LARIOS MARTINEZ DANI                                        201002051542114244A00020100202                                                                        00999
2015360033080462000999V1010000000006200000000000N0000000006200000000020093008891096LEDEZMA MILANEZ ALEJ                                        201002051536132051A00020100202                                                                        00999
2004940033056994000999V1010000000006200000000000N0000000006200000000020093009111098MACIAS RIVAS ANTONIO                                        201002050494105257A00020100202                                                                        00999
2015550033085792000999V1010000000006200000000000N0000000006200000000020093009141095MALDONADO RENTERIA X                                        201002051555154809A00020100202                                                                        00999
2019740033081666000999V1010000000006200000000000N0000000006200000000020093009321093MENDOZA URIBE LAURA                                         201002051974132247A00020100202                                                                        00999
2019740033083072000999V1010000000006200000000000N0000000006200000000020093009441099MORALES RUBIO GABRIE                                        201002051974121454A00020100202                                                                        00999
2003130033080172000999V1010000000006200000000000N0000000006200000000020093009501090NAVA RAMOS M                                                201002050313132014A00020100202                                                                        00999
2005500033097138000999V1010000000006200000000000N0000000006200000000020093009571093NAVARO HERNANDEZ                                            201002050550144409A00020100202                                                                        00999
2015070033031264000999V1010000000006200000000000N0000000006200000000020093009861098PELAYO AGUIRRE IRMA                                         201002051507162548A00020100202                                                                        00999
2015360033045939000999V1010000000006200000000000N0000000006200000000020093009911091PEREZ GARCIA OSMAR L                                        201002051536152145A00020100202                                                                        00999
2019740033063355000999V1010000000006200000000000N0000000006200000000020093010041094PULIDO NU O MARTHA T                                        201002051974131008A00020100202                                                                        00999
2004980033026787000999V1010000000006200000000000N0000000006200000000020093010141092RAMIREZ HAMDEN FABIO                                        201002050498103241A00020100202                                                                        00999
2002070033061990000999V1010000000006200000000000N0000000006200000000020093010221092REYES GONZALEZ MIREY                                        201002050207130830A00020100202                                                                        00999
2015070033002278000999V1010000000006200000000000N0000000006200000000020093010291095REYNOSO GARCIA JAIRO                                        201002051507133835A00020100202                                                                        00999
2019740033082315000999V1010000000006200000000000N0000000006200000000020093010331099RIOS SANCHEZ ELISA                                          201002051974171123A00020100202                                                                        00999
2002370033066282000999V1010000000006200000000000N0000000006200000000020093010531094AS                                                          201002050237131124A00020100202                                                                        00999
2001660033029615000999V1010000000006200000000000N0000000006200000000020093010571090RODRIGUEZ VAZQUEZ GE                                        201002050166103458A00020100202                                                                        00999
2019740033086885000999V1010000000006200000000000N0000000006200000000020093010651090ROSAS VALDOVINOS CAR                                        201002051974132603A00020100202                                                                        00999
2019740033026834000999V1010000000006200000000000N0000000006200000000020093010931096SEPULVEDA ZUÅIGA JUA                                        201002051974135530A00020100202                                                                        00999
2019740033095597000999V1010000000006200000000000N0000000006200000000020093010951094SEVILLA ORTEGA JOHAN                                        201002051974144308A00020100202                                                                        00999
2015360033086110000999V1010000000006200000000000N0000000006200000000020093010961093SILVA CHAVEZ ROBERTO                                        201002051536143542A00020100202                                                                        00999
2019740033023316000999V1010000000006200000000000N0000000006200000000020093010981091SORIANO VERA BRIAN Y                                        201002051974161451A00020100202                                                                        00999
2015360033060072000999V1010000000006200000000000N0000000006200000000020093011061091TELLES ISLAS DANIEL                                         201002051536152820A00020100202                                                                        00999
2019740033061744000999V1010000000006200000000000N0000000006200000000020093011151090VALDOVINOS CANCINO                                          201002051974105608A00020100202                                                                        00999
2001660033006322000999V1010000000006200000000000N0000000006200000000020093011191096VARELA VAZQUEZ DIEGO                                        201002050166145017A00020100202                                                                        00999
2002070033048779000999V1010000000006200000000000N0000000006200000000020093011311090VELEZ GOMEZ ROGELIO                                         201002050207140850A00020100202                                                                        00999
2015660033032514000999V1010000000006200000000000N0000000006200000000020093011401099VILLALOBOS VEGA                                             201002051566103643A00020100202                                                                        00999
2015660033090382000999V1010000000006200000000000N0000000006200000000020093011411098VILLALPANDO CELIS                                           201005021566143933A00020100202                                                                        00999
2006480033053517000999V1010000000006200000000000N0000000006200000000020093012161098CARRILLO NAVARRO MON                                        201002050648152815A00020100202                                                                        00999
2015790033050970000999V1010000000002500000000000N0000000002500000000030006301121100HERNANDEZ RAMIREZ LA                                        201002051579152154A00020100202                                                                        00999
2015790033032828000999V1010000000002500000000000N0000000002500000000030008303541103PERALES TEJEDA DANIE                                        201002051579103646A00020100202                                                                        00999
2015120033018495000999V1010000000002500000000000N0000000002500000000030008303741109RAMIREZ MARES DAVID                                         201002051512145911A00020100202                                                                        00999
2001690033064936000999V1010000000002500000000000N0000000002500000000030093002961109HUGO ENRIQUE JIMENEZ                                        201002050169105853A00020100202                                                                        00999
2014200033072805000999V1010000000002500000000000N0000000002500000000030093004461108LUIS ANTONIO PEREZ R                                        201002051420131645A00020100202                                                                        00999
2019480033087710000999V1010000000002500000000000N0000000002500000000030093104501100250                                                         201002051948132623A00020100202                                                                        00999
2019480033099439000999V1010000000002500000000000N0000000002500000000030101001891100FLORES MARTINEZ GERM                                        201002051948133357A00020100202                                                                        00999
2019480033094011000999V1010000000002500000000000N0000000002500000000030101001901107250                                                         201002051948133100A00020100202                                                                        00999
2019480033009109000999V1010000000002500000000000N0000000002500000000030101002291102GOMEZ SANCHEZ JESUS                                         201002051948160452A00020100202                                                                        00999
2001660033070801000999V1010000000002500000000000N0000000002500000000030101003291101LOYA CISNEROS LUIS A                                        201002050166153732A00020100202                                                                        00999
2015670033061219000999V1010000000002500000000000N0000000002500000000030101004321105GUSTAVO PADILLA                                             201002051567115911A00020100202                                                                        00999
2015790033010799000999V1010000000002500000000000N0000000002500000000030101004381109PANDURO GUDI O JOSE                                         201002051579160605A00020100202                                                                        00999
2001660033079270000999V1010000000002500000000000N0000000002500000000030101102591104TERAN REYES LEONEL                                          201002050166100013A00020100202                                                                        00999
2015360033047058000999V1010000000009570000000000N0000000009570000000100101000031091ACEVES CORTES JENIFE                                        201002051536093422A00020100202                                                                        00999
2019740033037691000999V1010000000009570000000000N0000000009570000000100101000571096BARAJAS VILLASE OR                                          201002051974151645A00020100202                                                                        00999
2019740033019796000999V1010000000009570000000000N0000000009570000000100101000911094CARMONA ANGUIANO RIC                                        201002051974091054A00020100202                                                                        00999
2015360033044938000999V1010000000009570000000000N0000000009570000000100101001031090CASTRO JIMENEZ ANDRE                                        201002051536104443A00020100202                                                                        00999
2015660033089779000999V1010000000009570000000000N0000000009570000000100101001221097CORDOVA RINCON EDUAR                                        201002051566132656A00020100202                                                                        00999
2015610033097046000999V1010000000009570000000000N0000000009570000000100101001341093CRUZCASTILLO DANIEL                                         201002051561155710A00020100202                                                                        00999
2015360033048280000999V1010000000009570000000000N0000000009570000000100101001741094ESPARZA ESCOBEDO ZEN                                        201002051536152410A00020100202                                                                        00999
2015660033092057000999V1010000000009570000000000N0000000009570000000100101001851091FIGUEROA MEDINA                                             201002051566155221A00020100202                                                                        00999
2015360033014917000999V1010000000009570000000000N0000000009570000000100101001941090FLORES TORRES FRANCI                                        201002051536113212A00020100202                                                                        00999
2019740033010602000999V1010000000009570000000000N0000000009570000000100101001961098FRANCO HERNANDEZ JUA                                        201002051974123556A00020100202                                                                        00999
2019740033042672000999V1010000000009570000000000N0000000009570000000100101001981096FRANCO PEREZ ALEJAND                                        201002051974092916A00020100202                                                                        00999
2019740033097077000999V1010000000009570000000000N0000000009570000000100101002011091GALLARDO NU EZ PAULI                                        201002051974155712A00020100202                                                                        00999
2019740033071923000999V1010000000009570000000000N0000000009570000000100101002401094GONZALEZ ORTIZ FRANC                                        201002051974095313A00020100202                                                                        00999
2015420033095896000999V1010000000009570000000000N0000000009570000000100101002721095HERNANDEZ DIAZ EDGAR                                        201002051542155422A00020100202                                                                        00999
2015420033097242000999V1010000000009570000000000N0000000009570000000100101002731094HERNANDEZ DIAZ LEONA                                        201002051542155531A00020100202                                                                        00999
2019740033008570000999V1010000000009570000000000N0000000009570000000100101002741093HERNANDEZ GUETA ENRI                                        201002051974145248A00020100202                                                                        00999
2006480033060204000999V1010000000009570000000000N0000000009570000000100101002781099HERNANDEZ LOZA MOISE                                        201002020648130920A00020100202                                                                        00999
2006480033070904000999V1010000000009570000000000N0000000009570000000100101002881097HERNANDEZ TOVAR LORE                                        201002050648153738A00020100202                                                                        00999
2015610033036244000999V1010000000009570000000000N0000000009570000000100101003151094LEDEZMA IZALITURDEZ                                         201002051561140010A00020100202                                                                        00999
2019740033035228000999V1010000000009570000000000N0000000009570000000100101003471096MARTINEZ DELGADO JOS                                        201002051974114518A00020100202                                                                        00999
2004980033041840000999V1010000000009570000000000N0000000009570000000100101003661092MENDOZA MARGARITO MA                                        201002050498162853A00020100202                                                                        00999
2015360033012740000999V1010000000009570000000000N0000000009570000000100101003781098MORA BARAJAS CARLOS                                         201002051536145833A00020100202                                                                        00999
2004980033049937000999V1010000000009570000000000N0000000009570000000100101003841090MORENO CARRILLO JOSU                                        201002050498115506A00020100202                                                                        00999
2015360033002021000999V1010000000009570000000000N0000000009570000000100101004571092PEREZ MENDOZA ALEJAN                                        201002051536133823A00020100202                                                                        00999
2019740033032994000999V1010000000009570000000000N0000000009570000000100101004641093PONCE MARTINEZ LUIS                                         201002051974092121A00020100202                                                                        00999
2019740033017690000999V1010000000009570000000000N0000000009570000000100101004661091PORTILLO GARCIA FATI                                        201002051974102731A00020100202                                                                        00999
2004940033048627000999V1010000000009570000000000N0000000009570000000100101005181099ROBLES SANCHEZ NANCY                                        201002050494104819A00020100202                                                                        00999
2019740033069092000999V1010000000009570000000000N0000000009570000000100101005431098RODRIGUEZ ZUAREZ MAR                                        201002051974131309A00020100202                                                                        00999
2002370033081989000999V1010000000009570000000000N0000000009570000000100101005571091RUELAS JIMENEZ GABRI                                        201002050237125135A00020100202                                                                        00999
2002370033001764000999V1010000000009570000000000N0000000009570000000100101005681098A                                                           201002050237133457A00020100202                                                                        00999
2002070033075744000999V1010000000009570000000000N0000000009570000000100101005751099SANCHEZ CAÅADA ANGEL                                        201002050207154004A00020100202                                                                        00999
2015360033031179000999V1010000000009570000000000N0000000009570000000100101005781096SANCHEZ GUTIERREZ DI                                        201002051536103500A00020100202                                                                        00999
2015360033036711000999V1010000000009570000000000N0000000009570000000100101005921098SANDOVAL CAMPOS MIRI                                        201002051536140050A00020100202                                                                        00999
2001660033054166000999V1010000000009570000000000N0000000009570000000100101006771096VIDAÅA ARROYO LUIS L                                        201002050166114012A00020100202                                                                        00999
2015550033062164000999V1010000000009570000000000N0000000009570000000100101006941095VILLASEÅOR GUTIERREZ                                        201002051555120150A00020100202                                                                        00999
2015360033031362000999V1010000000009570000000000N0000000009570000000100101007201093HERRERA JAUREGUI YAR                                        201002051536092004A00020100202                                                                        00999
2005530033070767000999V1010000000006900000000000N0000000006900000002019110004120103ACU A ANGULO JORGE A                                        201002050553165330A00020100202                                                                        00999
2001730033039104000999V1010000000006900000000000N0000000006900000002019110069120105GRACIELA DELGADO MED                                        201002050173162844A00020100202                                                                        00999
2001730033086589000999V1010000000006900000000000N0000000006900000002019110077120105ANIBAL FLORES ORTIZ                                         201002050173132551A00020100202                                                                        00999
2019730033052958000999V1010000000006900000000000N0000000006900000002019110113120101ILLAN GONZALEZ OSCAR                                        201002051973115724A00020100202                                                                        00999
2004910033084909000999V1010000000006900000000000N0000000006900000002019110150120105MENDOZA RODRIGUEZ FR                                        201002050491100424A00020100202                                                                        00999
2015430033013455000999V1010000000006900000000000N0000000006900000002019110188120101PARRA LOPEZ                                                 201002051543123525A00020100202                                                                        00999
2022850033087162000999V1010000000006900000000000N0000000006900000002019110216120107RODRIGUEZ HEREDIA MO                                        201002052285143614A00020100202                                                                        00999
2015210033004157000999V1010000000006900000000000N0000000006900000002019110231120108RUIZ HUERTA JUAN PAB                                        201002051521160233A00020100202                                                                        00999
2002370033071991000999V1010000000006900000000000N0000000006900000002019110242120105SANCHEZ TORRES                                              201002050237095440A00020100202                                                                        00999
2000200033026213000999V1010000000006900000000000N0000000006900000002019110272120108ZAVALA RAMIREZ THANI                                        201002050020150828A00020100202                                                                        00999
2001670033036578000999V1010000000006900000000000N0000000006900000002019310008120105ALVARADO PELAYO ANNA                                        201002050167151451A00020100202                                                                        00999
2015360033040595000999V1010000000006900000000000N0000000006900000002019310024120105ARRIAGA JACOBO DIEGO                                        201002051536092731A00020100202                                                                        00999
2015360033013660000999V1010000000006900000000000N0000000006900000002019310042120103BERNAL DIAZ EDGAR AN                                        201002051536123612A00020100202                                                                        00999
2022880033036329000999V1010000000006900000000000N0000000006900000002019310108120104ELIAS FRANCO GUSTAVO                                        201002052288125112A00020100202                                                                        00999
2015190033089440000999V1010000000006900000000000N0000000006900000002019310110120100ESCOBAR LEAL INDALEC                                        201002051519144059A00020100202                                                                        00999
2001730033017554000999V1010000000006900000000000N0000000006900000002019310133120103GOMEZ BARAJAS JESUS                                         201002050173161458A00020100202                                                                        00999
2004910033096161000999V1010000000006900000000000N0000000006900000002019310142120102GONZALEZ CORRALES                                           201002050491111854A00020100202                                                                        00999
2006440033077311000999V1010000000006900000000000N0000000006900000002019310165120104HERMOSILLO MANSO HUG                                        201002050644110624A00020100202                                                                        00999
2022880033055984000999V1010000000006900000000000N0000000006900000002019310175120102HERNANDEZ PEREZ LUIS                                        201002052288152954A00020100202                                                                        00999
2002050033087792000999V1010000000006900000000000N0000000006900000002019310209120102LOPEZ SOLANO HECTOR                                         201002050205143638A00020100202                                                                        00999
2001660033007393000999V1010000000006900000000000N0000000006900000002019310214120105MADERA CUEVAS JOEL                                          201002050166135810A00020100202                                                                        00999
2015790033014964000999V1010000000006900000000000N0000000006900000002019310218120101MALDONADO H MAURICIO                                        201002051579134518A00020100202                                                                        00999
2015420033091647000999V1010000000006900000000000N0000000006900000002019310221120106MARQUEZ PLASCENCIA R                                        201002051542143921A00020100202                                                                        00999
2006470033085703000999V1010000000006900000000000N0000000006900000002019310235120100MARTINEZ PRECIADO JO                                        201002050647143700A00020100202                                                                        00999
2015610033020916000999V1010000000006900000000000N0000000006900000002019310267120101OCEGUERA DIEGO                                              201002051561124111A00020100202                                                                        00999
2015110033078040000999V1010000000006900000000000N0000000006900000002019310286120108PARRA ZAMBRANO FCO J                                        201002051511131855A00020100202                                                                        00999
2004940033045981000999V1010000000006900000000000N0000000006900000002019310288120106PELAYO CEJA ULISES V                                        201002050494115040A00020100202                                                                        00999
2001670033092699000999V1010000000006900000000000N0000000006900000002019310300120100POLANCO AGUILAR TATI                                        201002050167155200A00020100202                                                                        00999
2015610033023746000999V1010000000006900000000000N0000000006900000002019310332120102MIGUEL A RODRIGUEZ C                                        201002051561103036A00020100202                                                                        00999
2015620033029324000999V1010000000006900000000000N0000000006900000002019310351120108RUIZ GALAN RAFAEL                                           201002051562124657A00020100202                                                                        00999
2015610033033020000999V1010000000006900000000000N0000000006900000002019310352120107RUIZ LOPEZ MARCELA                                          201002051561103609A00020100202                                                                        00999
2003130033072372000999V1010000000006900000000000N0000000006900000002019310379120106TORRES JOSE                                                 201002050313122643A00020100202                                                                        00999
2002060033019603000999V1010000000006900000000000N0000000006900000002019310411120106AVILA RODRIGUEZ JOSE                                        201002050206113338A00020100202                                                                        00999
2015190033037656000999V1010000000006900000000000N0000000006900000002019310416120101ARANDA SOLANO RICARD                                        201002051519140048A00020100202                                                                        00999
2001670033034327000999V1010000000006900000000000N0000000006900000002019310425120100FLORES RODRIGUEZ ALB                                        201002050167125007A00020100202                                                                        00999
2006430033007213000999V1010000000006900000000000N0000000006900000002019310426120109GALAN ROMO JHONATHAN                                        201002050643112605A00020100202                                                                        00999
2019480033086224000999V1010000000006900000000000N0000000006900000002019310450120108REYNOSO RODRIGUEZ JO                                        201002051948132436A00020100202                                                                        00999
2001670033074189000999V1010000000009570000000000N0000000009570000100010100004120105ACUÅA DE ANDA JUAN M                                        201002050167153958A00020100202                                                                        00999
2001670033035109000999V1010000000009570000000000N0000000009570000100010100011120106AGUILAR GONZALEZ VIC                                        201002050167114535A00020100202                                                                        00999
2015570033059413000999V1010000000009570000000000N0000000009570000100010100013120104AGUILAR RIVERA ENGEL                                        201002051557164257A00020100202                                                                        00999
2002380033063529000999V1010000000009570000000000N0000000009570000100010100014120103SOFIA PRISCILA AGUIL                                        201002050238153116A00020100202                                                                        00999
2006520033099077000999V1010000000009570000000000N0000000009570000100010100043120108ASCENCIO LIMON FERNA                                        201002050652112049A00020100202                                                                        00999
2015660033004476000999V1010000000009570000000000N0000000009570000100010100078120106BUSTOS UBIARCO KEVIN                                        201002051566145235A00020100202                                                                        00999
2001660033096048000999V1010000000009570000000000N0000000009570000100010100099120101CASTELLANOS YEPEZ AR                                        201002050166111900A00020100202                                                                        00999
2004990033020697000999V1010000000009570000000000N0000000009570000100010100104120104CAZARES RIVERA MARIO                                        201002050499134921A00020100202                                                                        00999
2015080033078912000999V1010000000009570000000000N0000000009570000100010100106120102CEBREROS CARRION EZE                                        201002051508170209A00020100202                                                                        00999
2015610033002003000999V1010000000009570000000000N0000000009570000100010100108120100CERNA LARA JORGE ASA                                        201002051561112240A00020100202                                                                        00999
2006480033055492000999V1010000000009570000000000N0000000009570000100010100153120104DELGADO SERRATOS                                            201002050648141345A00020100202                                                                        00999
2019480033095908000999V1010000000009570000000000N0000000009570000100010100189120102FLORES MARTINEZ GERM                                        201002051948133244A00020100202                                                                        00999
2019480033092490000999V1010000000009570000000000N0000000009570000100010100190120109FLORES MARTINEZ JUAN                                        201002051948132942A00020100202                                                                        00999
2001730033094843000999V1010000000009570000000000N0000000009570000100010100200120107FREGOSO GONZALEZ GON                                        201002050173101134A00020100202                                                                        00999
2015620033047287000999V1010000000009570000000000N0000000009570000100010100215120100GARCIA LOPEZ YESAI                                          201002051562093410A00020100202                                                                        00999
2006480033083044000999V1010000000009570000000000N0000000009570000100010100217120108GARCIA MENDOZA JESUS                                        201002050648143320A00020100202                                                                        00999
2019480033008243000999V1010000000009570000000000N0000000009570000100010100229120104GOMEZ SANCHEZ JESUS                                         201002051948160334A00020100202                                                                        00999
2001730033089165000999V1010000000009570000000000N0000000009570000100010100295120103HUERTA RAMOS VICTOR                                         201002050173100655A00020100202                                                                        00999
2006440033055048000999V1010000000009570000000000N0000000009570000100010100305120101JIMENEZ JIMENEZ GILB                                        201002050644115849A00020100202                                                                        00999
2015660033083671000999V1010000000009570000000000N0000000009570000100010100314120100CHRISTOPHER LEAL HER                                        201002051566132253A00020100202                                                                        00999
2001660033071678000999V1010000000009570000000000N0000000009570000100010100329120103LOYA CISNEROS LUIS A                                        201002050166153635A00020100202                                                                        00999
2015140033050880000999V1010000000009570000000000N0000000009570000100010100343120105MARTIN DEL CAMPO MON                                        201002051514152149A00020100202                                                                        00999
2002050033038363000999V1010000000009570000000000N0000000009570000100010100348120100MARTINEZ FRANCO LUIS                                        201002050205104120A00020100202                                                                        00999
2022840033084604000999V1010000000009570000000000N0000000009570000100010100354120101MARTINEZ RAMIREZ GUA                                        201002052284143749A00020100202                                                                        00999
2015610033051566000999V1010000000009570000000000N0000000009570000100010100358120107MEDINA CASTRO JOSE F                                        201002051561141326A00020100202                                                                        00999
2001670033006943000999V1010000000009570000000000N0000000009570000100010100377120104MONTES VENEGAS BRAND                                        201002050167135508A00020100202                                                                        00999
2015620033014415000999V1010000000009570000000000N0000000009570000100010100387120102MOTA PARRA SALVADOR                                         201002051562090531A00020100202                                                                        00999
2022940033059834000999V1010000000009570000000000N0000000009570000100010100402120103NEGRETE VILLAGOMEZ J                                        201002052294120145A00020100202                                                                        00999
2015660033010288000999V1010000000009570000000000N0000000009570000100010100410120103OCAMPO DE LA CRUZ                                           201002051566145234A00020100202                                                                        00999
2001660033059584000999V1010000000009570000000000N0000000009570000100010100413120100OCHOA RODRIGUEZ ANA                                         201002050166152926A00020100202                                                                        00999
2015670033060952000999V1010000000009570000000000N0000000009570000100010100432120107GUSTAVO PADILLA                                             201002051567115805A00020100202                                                                        00999
2004980033086610000999V1010000000009570000000000N0000000009570000100010100437120102PALMA LEDEZMA FERNAN                                        201002050498143550A00020100202                                                                        00999
2015790033007696000999V1010000000009570000000000N0000000009570000100010100438120101PANDURO GUDI O JOSE                                         201002051579160516A00020100202                                                                        00999
2015610033049740000999V1010000000009570000000000N0000000009570000100010100469120103ZAIDA X QUEZADA LOPE                                        201002051561140929A00020100202                                                                        00999
2015660033095974000999V1010000000009570000000000N0000000009570000100010100473120107RAMIREZ BAUTISTA ERI                                        201002051566111942A00020100202                                                                        00999
2015390033088415000999V1010000000009570000000000N0000000009570000100010100515120107ROBLES CORNEJO ALEJA                                        201002051539132721A00020100202                                                                        00999
2001730033063633000999V1010000000009570000000000N0000000009570000100010100521120109ANA CRISTINA RODRIGU                                        201002050173120511A00020100202                                                                        00999
2022850033076955000999V1010000000009570000000000N0000000009570000100010100529120101RODRIGUEZ LOPEZ SARA                                        201002052285110710A00020100202                                                                        00999
2001670033089620000999V1010000000009570000000000N0000000009570000100010100549120107ROMERO BERNACHE CAR                                         201002050167155053A00020100202                                                                        00999
2004910033008548000999V1010000000009570000000000N0000000009570000100010100555120108ROSALES PULIDO                                              201002050491160808A00020100202                                                                        00999
2019000033086867000999V1010000000009570000000000N0000000009570000100010100562120109RUIZ SILVA ALAN                                             201002051900111401A00020100202                                                                        00999
2001670033040629000999V1010000000009570000000000N0000000009570000100010100570120109SALCEDO DELGADILLO O                                        201002050167092825A00020100202                                                                        00999
2004990033006546000999V1010000000009570000000000N0000000009570000100010100574120105SANCHEZ BLANCO                                              201002050499123144A00020100202                                                                        00999
2002370033075952000999V1010000000009570000000000N0000000009570000100010100588120109SANCHEZ TORRES                                              201002050237095623A00020100202                                                                        00999
2001670033001179000999V1010000000009570000000000N0000000009570000100010100600120103SANTOS PEREZ RAUL                                           201002050167155757A00020100202                                                                        00999
2015190033034660000999V1010000000009570000000000N0000000009570000100010100601120102SANTOS SALDAÅA RANDY                                        201002051519092244A00020100202                                                                        00999
2015670033006523000999V1010000000009570000000000N0000000009570000100010100604120109SERRANO CHAVEZ JOSE                                         201002051567101833A00020100202                                                                        00999
2015670033010666000999V1010000000009570000000000N0000000009570000100010100605120108SERRANO CHAVEZ SONIA                                        201002051567102013A00020100202                                                                        00999
2001730033005237000999V1010000000009570000000000N0000000009570000100010100615120106SOLTERO CELAYA FELI                                         201002050173123122A00020100202                                                                        00999
2002380033011391000999V1050000000009570000000000N0000000009570000100010100619120102SUAREZ HERNANDEZ IVA                                        201002050238141119A00020100202                                                                        00999
2004940033091123000999V1010000000009570000000000N0000000009570000100010100639120108ULLOA ALVAREZ OSCAR                                         201002050494155100A00020100202                                                                        00999
2022850033033314000999V1010000000009570000000000N0000000009570000100010100685120101VILLALOBOS LEAL EDUA                                        201002052285124933A00020100202                                                                        00999
2006430033036809000999V1010000000009570000000000N0000000009570000100010100698120106VILLEGAS HERNANDEZ L                                        201002050643125204A00020100202                                                                        00999
2002380033070217000999V1010000000009570000000000N0000000009570000100010100701120101MIGUEL ANGEL VIRGEN                                         201002050238122237A00020100202                                                                        00999
2019480033010360000999V1010000000010270000000000N0000000010270000101010110049120109LUIS                                                        201002051948123421A00020100202                                                                        00999
2015610033004042000999V1010000000010270000000000N0000000010270000101010110075120106CERNA LARA ARNOLDO                                          201002051561112343A00020100202                                                                        00999
2015260033079816000999V1010000000010270000000000N0000000010270000101010110080120109CORTES GARCIA IRMA P                                        201002051526154436A00020100202                                                                        00999
2001670033089876000999V1010000000010270000000000N0000000010270000101010110083120106DE LA FUENTE DAVILA                                         201002050167111550A00020100202                                                                        00999
2002370033086006000999V1010000000010270000000000N0000000010270000101010110085120104DE LA TORRE RODRIGUE                                        201002050237100435A00020100202                                                                        00999
2006440033041507000999V1010000000010270000000000N0000000010270000101010110093120104DIAZ RODRIGUEZ ERIKA                                        201002050644151512A00020100202                                                                        00999
2015300033076122000999V1010000000010270000000000N0000000010270000101010110123120108GONZALEZ URIBE DANIE                                        201002051530154020A00020100202                                                                        00999
2003130033008876000999V1010000000010270000000000N0000000010270000101010110137120102HERNANDEZ GUTIERREZ                                         201002050313145540A00020100202                                                                        00999
2015420033075375000999V1010000000010270000000000N0000000010270000101010110149120108IDELFONSO HERRERA GU                                        201002051542131825A00020100202                                                                        00999
2015620033012766000999V1010000000010270000000000N0000000010270000101010110156120108JOAQUIN RENTERIA LUI                                        201002051562160706A00020100202                                                                        00999
2015620033035044000999V1010000000010270000000000N0000000010270000101010110171120109MAGA A MARTINEZ CARL                                        201002051562103821A00020100202                                                                        00999
2015610033002834000999V1010000000010270000000000N0000000010270000101010110173120107MARQUEZ PEÅA IVAN                                           201002051561133858A00020100202                                                                        00999
2006480033040390000999V1010000000010270000000000N0000000010270000101010110182120106MENDOZA NOVOA CESAR                                         201002050648110252A00020100202                                                                        00999
2015660033023598000999V1010000000010270000000000N0000000010270000101010110199120107OROZCO RUVALCABA                                            201002051566103030A00020100202                                                                        00999
2019740033034206000999V1010000000010270000000000N0000000010270000101010110202120102ORTEGA CASANOVA BELE                                        201002051974114435A00020100202                                                                        00999
2015360033076308000999V1010000000010270000000000N0000000010270000101010110209120105PERE3Z SALCEDO BRUNO                                        201002051536095806A00020100202                                                                        00999
2015360033002330000999V1010000000010270000000000N0000000010270000101010110218120104RAMIREZ CERVANTES RI                                        201002051536144937A00020100202                                                                        00999
2004910033008360000999V1010000000010270000000000N0000000010270000101010110236120102RUBIO MIRAMONTES                                            201002050491134119A00020100202                                                                        00999
2015660033023417000999V1010000000010270000000000N0000000010270000101010110240120106RUIZ SEGURA ROBERTO                                         201002051566124409A00020100202                                                                        00999
2006520033034610000999V1010000000010270000000000N0000000010270000101010110241120105RUIZ VALERIO JAVIER                                         201002050652114517A00020100202                                                                        00999
2004980033085450000999V1010000000010270000000000N0000000010270000101010110257120106SOTO QUINTERO DIEGO                                         201002050498111220A00020100202                                                                        00999
2001660033053229000999V1010000000010270000000000N0000000010270000101010110259120104TERAN REYES LEONEL                                          201002050166093749A00020100202                                                                        00999
2006430033043173000999V1010000000010270000000000N0000000010270000101010110260120101TINAJERA SEDANO FERN                                        201002050643151602A00020100202                                                                        00999
2004940033083860000999V1010000000010270000000000N0000000010270000101010110266120105ULLOA ALVAREZ MIRIAM                                        201002050494154729A00020100202                                                                        00999
2006430033056179000999V1010000000010270000000000N0000000010270000101010110279120100VAZQUEZ CAMACHO ANUA                                        201002050643141648A00020100202                                                                        00999
2078020033054928000999V1010000000010270000000000N0000000010270000101010110295120100CAMPA RAMIREZ JORGE                                         201002057802115844A00020100202                                                                        00999
2015020033058005000999V1010000000010270000000000N0000000010270000101010110296120109CHENGE CALDERON ESTA                                        201002051502164136A00020100202                                                                        00999
2015110033098652000999V1010000000010270000000000N0000000010270000101010110300120103AYALA RODRIGUEZ JOSE                                        201002051511122707A00020100202                                                                        00999
2022880033092095000999V1010000000006200000000000N0000000006200000200000005104231100RAMIREZ FAJARDO JUAN                                        201002052288144144A00020100202                                                                        00999
2019480033064737000999V1010000000006200000000000N0000000006200000200000006100131104DAVID                                                       201002051948141958A00020100202                                                                        00999
2000200033048226000999V1010000000006200000000000N0000000006200000200000006100191108LOPEZ PALOMARES CI                                          201002050020152320A00020100202                                                                        00999
2001690033061211000999V1010000000006200000000000N0000000006200000200000006100201105JOSE DE JESUS VALENC                                        201002050169094436A00020100202                                                                        00999
2001730033048039000999V1010000000006200000000000N0000000006200000200000006100981102MENDOZA DE SANTIAGO                                         201002050173163614A00020100202                                                                        00999
2001730033027752000999V1010000000006200000000000N0000000006200000200000006102191106URDIALES MORAN JESUS                                        201002050173150945A00020100202                                                                        00999
2015300033061398000999V1010000000006200000000000N0000000006200000200000006102201103OROPEZA SOLORIO JOSE                                        201002051530094633A00020100202                                                                        00999
2006480033060675000999V1010000000006200000000000N0000000006200000200000006104131100CARRILLO NAVARRO EMA                                        201002050648153036A00020100202                                                                        00999
2006490033006640000999V1010000000006200000000000N0000000006200000200000006300131102TOVAR LOPEZ SALVADOR                                        201002050649123300A00020100202                                                                        00999
2015080033025789000999V1010000000006200000000000N0000000006200000200000006300261107FRANCO OLIVARES JESU                                        201002021508103203A00020100202                                                                        00999
2015570033091043000999V1010000000006200000000000N0000000006200000200000006300321109ARMENTA BRISE O HUGO                                        201002051557155148A00020100202                                                                        00999
2019480033055898000999V1010000000006200000000000N0000000006200000200000006300331108RODRIGO                                                     201002051948141354A00020100202                                                                        00999
2001690033020887000999V1010000000006200000000000N0000000006200000200000006300431106HARO CASTILLO KATHIA                                        201002050169124025A00020100202                                                                        00999
2001660033079294000999V1010000000006200000000000N0000000006200000200000006300441105RIOS RODRIGUEZ MARCO                                        201002050166121317A00020100202                                                                        00999
2004980033005702000999V1010000000006200000000000N0000000006200000200000006300501106LEOS SEGOVIANO EDWIN                                        201002050498123242A00020100202                                                                        00999
2014200033032199000999V1010000000006200000000000N0000000006200000200000006301061100ARENAS CASTRO FAUSTO                                        201002051420124921A00020100202                                                                        00999
2015420033095939000999V1010000000006200000000000N0000000006200000200000006301081108MARTINEZ HERNANDEZ E                                        201002051542122351A00020100202                                                                        00999
2015790033049751000999V1010000000006200000000000N0000000006200000200000006301121102HERNANDEZ RAMIREZ LA                                        201002051579152058A00020100202                                                                        00999
2015670033067793000999V1010000000006200000000000N0000000006200000200000006301231109PEDRO ARANA VALDEZ                                          201002051567120701A00020100202                                                                        00999
2015620033084840000999V1010000000006200000000000N0000000006200000200000006301261106GUTIERREZ BESANA ROG                                        201002051562154633A00020100202                                                                        00999
2015660033003423000999V1010000000006200000000000N0000000006200000200000006301491109VILLA HERNANDEZ LUIS                                        201002051566101736A00020100202                                                                        00999
2015660033098577000999V1010000000006200000000000N0000000006200000200000006301661107SILVA RAMIREZ JUAN A                                        201002051566144507A00020100202                                                                        00999
2019730033008144000999V1010000000006200000000000N0000000006200000200000006301881101ARREOLA JIMENEZ MARG                                        201002051973123151A00020100202                                                                        00999
2004990033075982000999V1010000000006200000000000N0000000006200000200000006301891100EDUARDO ARRIOLA                                             201002050499142943A00020100202                                                                        00999
2015020033085333000999V1010000000006200000000000N0000000006200000200000006301991108PEREZ MORQUECHO RAMI                                        201002051502143455A00020100202                                                                        00999
2006440033025887000999V1010000000006200000000000N0000000006200000200000006302171106ROCHA ORTIZ OSCAR RO                                        201002050644135313A00020100202                                                                        00999
2001660033085343000999V1010000000006200000000000N0000000006200000200000006302261105LOERA PEREZ DARIO                                           201002150166143816A00020100202                                                                        00999
