2015070053041476000999V1010000000008500000000000N0000000008500000000002008309141092CECAR VELASQUEZ                                             201002261507123304A00020100222                                                                        00999
2004940053078969000999V1010000000011870000000000N0000000011870000100000101003021106MACIAS MORALES SERGI                                        201002260494142502A00020100222                                                                        00999
2004940053074248000999V1010000000006200000023000R0000000008500000200000093012391109JIMENEZ HURTADO EDGA                                        201002100494154844A00020100222                                                                        00999
2015070053053127000999V1010000000009200000000000N0000000009200000201000411059120108JORGE CAZAREZ                                               201002261507095109A00020100222                                                                        00999
2002050053066946000999V1010000000009200000000000N0000000009200000201000611001120102JORGE RAUL ESPIONOSA                                        201002260205154616A00020100222                                                                        00999
2005530053091784000999V1010000000009200000000000N0000000009200000201000811022120103MARTINEZ RODRIGUEZ N                                        201002260553143840A00020100222                                                                        00999
2022850053037751000999V1010000000009200000000000N0000000009200000201000811047120104GONZALEZ ARMENTA JOS                                        201002262285151926A00020100222                                                                        00999
2004910053091126000999V1010000000009200000000000N0000000009200000201000811100120108PERALES                                                     201002260491115235A00020100222                                                                        00999
2015080053039324000999V1010000000009200000000000N0000000009200000201000811201120106GOMEZ PEREZ JOSE TOM                                        201002261508123135A00020100222                                                                        00999
2015260053022081000999V1010000000009200000000000N0000000009200000201009110016120109ASCENCIO VELAZQUEZ C                                        201002261526133854A00020100222                                                                        00999
2000200054095978000999V1010000000008500000000000N0000000008500000000002005305711092CURIEL VILLEGAS RICA                                        201002260020115821A00020100223                                                                        00999
2015360054024024000999V1010000000008500000000000N0000000008500000000002007103591098MADERA ZAMURRAN CESA                                        201002261536105630A00020100223                                                                        00999
2004980054073064000999V1010000000011870000000000N0000000011870000100000101007301108LARIOS TORRES SERGIO                                        201002260498113829A00020100223                                                                        00999
2015550054078391000999V1010000000012570000000000N0000000012570000101010110254120109SERRANO PEREZ IGNACI                                        201002261555131017A00020100223                                                                        00999
2015610054096870000999V1010000000008500000000000N0000000008500000200000007300381101SINGH GOMEZ ANDARPRI                                        201002261561103151A00020100223                                                                        00999
2019480054035130000999V1010000000009200000000000N0000000009200000201000431006120100OSCAR                                                       201002261948123036A00020100223                                                                        00999
2015790054088535000999V1010000000009200000000000N0000000009200000201000531210120109CASTRO ESPARZA HECTO                                        201002261579163233A00020100223                                                                        00999
2001670054076394000999V1010000000009200000000000N0000000009200000201000611076120102OMAR ALEJANDRO CAST                                         201002260167161825A00020100223                                                                        00999
2002050054058615000999V1010000000009200000000000N0000000009200000201000831239120100V R DIEGO ALEJANDRO                                         201002260205141810A00020100223                                                                        00999
2002050054099595000999V1010000000009200000000000N0000000009200000201000831251120103HERNANDEZ HERNANDEZ                                         201002260205103425A00020100223                                                                        00999
2002070054094584000999V1010000000009200000000000N0000000009200000201009110129120103LOPEZ JIMENEZ CARLOS                                        201002260207102939A00020100223                                                                        00999
2002370055059373000999V1010000000008500000000000N0000000008500000000020093008141096GONZALEZ RAMIREZ JOR                                        201002260237125214A00020100224                                                                        00999
2015550055029519000999V1010000000011870000000000N0000000011870000000100101007281095MU OZ MARTINEZ WALTE                                        201002261555110219A00020100224                                                                        00999
2019740055095138000999V1010000000006900000023000R0000000009200000002019110156120109MORALES SOLIS JESSIC                                        201002051974163757A00020100224                                                                        00999
2015610055097607000999V1010000000008500000000000N0000000008500000200000008300331104AVILES CONTRERAS JUA                                        201002261561145933A00020100224                                                                        00999
2004980055020638000999V1010000000008500000000000N0000000008500000200000008309761103VERDIN GOMEZ VANNESA                                        201002260498091402A00020100224                                                                        00999
2015620055051158000999V1010000000009200000000000N0000000009200000201000531154120107JAUREGUI VALENZUELA                                         201002261562141352A00020100224                                                                        00999
2015610055020778000999V1010000000009200000000000N0000000009200000201000611163120106ALBERTO ANGEL MORA Z                                        201002261561134831A00020100224                                                                        00999
2015670055036336000999V1010000000009200000000000N0000000009200000201000711138120106OLIVIA PROA JOSE ANG                                        201002261567140254A00020100224                                                                        00999
2004910055011282000999V1010000000009200000000000N0000000009200000201000731098120102CORTES ESCOBEDO                                             201002260491104621A00020100224                                                                        00999
2015300055003241000999V1010000000009200000000000N0000000009200000201000811087120105FIGUEROA GUTIERREZ G                                        201002261530133207A00020100224                                                                        00999
2005510055074622000999V1010000000009200000000000N0000000009200000201009110072120100HECTOR OMAR DOMINGUE                                        201002260551161826A00020100224                                                                        00999
2001670055021873000999V1010000000009200000000000N0000000009200000201009110161120102MORGA VEGA LUIS ALEJ                                        201002260167091527A00020100224                                                                        00999
2015360056046030000999V1010000000008500000000000N0000000008500000000002009104581094JOSE ALBERTO VARGAS                                         201002261536153957A00020100225                                                                        00999
2004910056097679000999V1010000000006200000023000R0000000008500000000020093007291090DIAZ CRUZ                                                   201002100491103625A00020100225                                                                        00999
2015660056011332000999V1010000000008500000000000N0000000008500000000020093008441090EMMANUEL HERNANDEZ D                                        201002261566104840A00020100225                                                                        00999
2004990056036287000999V1010000000011870000000000N0000000011870000100000101006591105PEREZ MOTOYA GALDINO                                        201002260499110808A00020100225                                                                        00999
2001730056000980000999V1010000000008500000000000N0000000008500000200000006302381101RODRIGUEZ NEIRA LUIS                                        201002260173163307A00020100225                                                                        00999
2000200056057222000999V1010000000009200000000000N0000000009200000201000331193120105VAZQUEZ MEDRANO OSCA                                        201002260020141940A00020100225                                                                        00999
2014200056014849000999V1010000000009200000000000N0000000009200000201000411060120105ROMAN PRECIADO  CARL                                        201002261420090657A00020100225                                                                        00999
2015140056092915000999V1010000000009200000000000N0000000009200000201000531048120107ADO O RAMIREZ DANIEL                                        201002261514145542A00020100225                                                                        00999
2001730056004090000999V1010000000009200000000000N0000000009200000201000531189120106MARTINEZ ESPARZA ALF                                        201002260173163834A00020100225                                                                        00999
2006520056010896000999V1010000000009200000000000N0000000009200000201000631180120103CUTBERTO OCTAVIO MEZ                                        201002260652150719A00020100225                                                                        00999
2015570056004756000999V1010000000009200000000000N0000000009200000201000711073120103FLORES GONZALEZ IVAN                                        201002261557103920A00020100225                                                                        00999
2022840056079946000999V1010000000009200000000000N0000000009200000201000711094120108SOLORZANO MENDEZ JOS                                        201002262284101632A00020100225                                                                        00999
2006440056019195000999V1010000000009200000000000N0000000009200000201000831074120108FAJARDO AGUAYO LUIS                                         201002260644151702A00020100225                                                                        00999
2022850056079066000999V1010000000009200000000000N0000000009200000201000831075120107FERNANDEZ PADILLA JO                                        201002262285101811A00020100225                                                                        00999
2019480056085604000999V1010000000009200000000000N0000000009200000201009310398120103VILLALOBOS BARRAGAN                                         201002261948162145A00020100225                                                                        00999
2015360057081383000999V1010000000008500000000000N0000000008500000000002007307001092PONCE GALLARDO LUIS                                         201002261536134110A00020100226                                                                        00999
2022850057064311000999V1010000000008500000000000N0000000008500000000002007307461098SERRATOS CHAVEZ ISMA                                        201002262285094924A00020100226                                                                        00999
2019740057002300000999V1010000000011870000000000N0000000011870000000100101004591090PEREZ VARGAS BRIANDA                                        201002261974102313A00020100226                                                                        00999
2015420057084256000999V1010000000011870000000000N0000000011870000000100101004801093RAMIREZ MALDONADO HE                                        201002261542160400A00020100226                                                                        00999
2015610057087810000999V1010000000011870000000000N0000000011870000100000101005261106GARCIA SANCHEZ JESUS                                        201002261561101154A00020100226                                                                        00999
2004980057044411000999V1010000000012570000000000N0000000012570000101010110070120101CASTILLO ORNELAS CAR                                        201002260498164727A00020100226                                                                        00999
2022850057078536000999V1010000000008500000000000N0000000008500000200000003301121109PALACIOS DE LEON JOS                                        201002262285100432A00020100226                                                                        00999
2001690057070328000999V1010000000008500000000000N0000000008500000200000007300681104AVILES ANDRADE RUBEN                                        201002260169111211A00020100226                                                                        00999
2006480057031751000999V1010000000008500000000000N0000000008500000200000008100841104RAMIREZ ROSALES JESS                                        201002260648152818A00020100226                                                                        00999
2022850057042293000999V1010000000008500000000000N0000000008500000200000008302511109LIMON REYES JESUS EV                                        201002262285105137A00020100226                                                                        00999
2004980057023950000999V1010000000008500000000000N0000000008500000200000091000951108DE ALBA DE LA MORA D                                        201002260498115321A00020100226                                                                        00999
2005530057031013000999V1010000000008500000000000N0000000008500000200000091001091102DIAZ DE LEON DE RUED                                        201002260553130804A00020100226                                                                        00999
2019480057011104000999V1010000000008500000000000N0000000008500000200000091002311103HINOJOSA MADRIGAL JO                                        201002261948114141A00020100226                                                                        00999
2002370057066629000999V1010000000008500000000000N0000000008500000200000091003221103A                                                           201002260237170628A00020100226                                                                        00999
2001690057065896000999V1010000000008500000000000N0000000008500000200000093000481102AVILES ANDRADE KEVIN                                        201002260169111102A00020100226                                                                        00999
2022880057020452000999V1010000000009200000000000N0000000009200000201000331249120109FERNANDA MIRANDA RIC                                        201002262288151909A00020100226                                                                        00999
2015540057093374000999V1010000000006900000023000R0000000009200000201000411153120103CHAVEZ LUCIO RICARDO                                        200902261554161319A00020100226                                                                        00999
2015590057064682000999V1010000000009200000000000N0000000009200000201000431046120102ROQUE                                                       201002261559144029A00020100226                                                                        00999
2015610057068486000999V1010000000009200000000000N0000000009200000201000431146120101ROSALES GONZALEZ HUG                                        201002261561155351A00020100226                                                                        00999
2015080057007464000999V1010000000009200000000000N0000000009200000201000431184120104BELTRAN MONTIEL YAVI                                        201002261508162012A00020100226                                                                        00999
2002380057074928000999V1010000000009200000000000N0000000009200000201000431217120105DIAZ HERNANDEZ GENAR                                        201002260238122602A00020100226                                                                        00999
2019000057075772000999V1010000000009200000000000N0000000009200000201000511069120103ELI GABRIEL SALMERON                                        201002261900122955A00020100226                                                                        00999
2019000057082933000999V1010000000009200000000000N0000000009200000201000511083120105CASTILLO MORALES MAR                                        201002261900145746A00020100226                                                                        00999
2015790057058048000999V1010000000009200000000000N0000000009200000201000511182120105GARZA OROZCO CESAR                                          201002261579154919A00020100226                                                                        00999
2004990057091133000999V1010000000009200000000000N0000000009200000201000531042120103VAZQUEZ ISABELES AMR                                        201002260499112725A00020100226                                                                        00999
2015790057073088000999V1010000000009200000000000N0000000009200000201000531049120106GONZALEZ PEREZ LUIS                                         201002261579111517A00020100226                                                                        00999
2001690057098180000999V1010000000009200000000000N0000000009200000201000531185120100MERCADO RIVERA FERN                                         201002260169150427A00020100226                                                                        00999
2019480057084626000999V1010000000009200000000000N0000000009200000201000531192120101FUENTES RODRIGUEZ CE                                        201002261948160419A00020100226                                                                        00999
2019480057035723000999V1010000000009200000000000N0000000009200000201000631088120106OSCAR                                                       201002261948141925A00020100226                                                                        00999
2001670057076901000999V1010000000009200000000000N0000000009200000201000631117120101ALEJANDRO CRUZ ORNEL                                        201002260167123022A00020100226                                                                        00999
2022880057038418000999V1050000000009200000000000N0000000009200000201000631143120109LAURA PAULINA LEON P                                        201002262288153306A00020100226                                                                        00999
2001730057049366000999V1010000000009200000000000N0000000009200000201000631159120100JESUS ABELARDO RUESG                                        201002260173143121A00020100226                                                                        00999
2015300057037984000999V1010000000009200000000000N0000000009200000201000631176120109MONICA PATRICIA ROME                                        201002261530104843A00020100226                                                                        00999
2001670057040075000999V1010000000009200000000000N0000000009200000201000631219120108JAIME AHARON GONZALE                                        201002260167153417A00020100226                                                                        00999
2015110057007558000999V1010000000009200000000000N0000000009200000201000711044120109MARTINEZ CORONA ALEJ                                        201002261511102531A00020100226                                                                        00999
2001730057066657000999V1010000000009200000000000N0000000009200000201000711114120104MANUEL GARCIA CERVAN                                        201002260173133205A00020100226                                                                        00999
2000200057059468000999V1010000000009200000000000N0000000009200000201000731081120101PEREZ GUZMAN ELIAS A                                        201002260020165757A00020100226                                                                        00999
2013080057074340000999V1010000000009200000000000N0000000009200000201000731181120100CRESPO PRADO CARLOS                                         201002261308155658A00020100226                                                                        00999
2013080057071627000999V1010000000009200000000000N0000000009200000201000731196120103MEJIA CRUZ JORGE HUM                                        201002261308155802A00020100226                                                                        00999
2019000057085482000999V1010000000009200000000000N0000000009200000201000731200120107PASILLAS SIGALA MIGU                                        201002261900145639A00020100226                                                                        00999
2015620057083630000999V1010000000009200000000000N0000000009200000201000811048120103GONZALEZ RAMIREZ RAU                                        201002261562123240A00020100226                                                                        00999
2002380057076685000999V1010000000009200000000000N0000000009200000201000811162120103RIVERA GALINDO HECTO                                        201002260238155829A00020100226                                                                        00999
2004980057044696000999V1010000000009200000000000N0000000009200000201000831101120105GONZALEZ GUTIERREZ J                                        201002260498131501A00020100226                                                                        00999
2015660057099354000999V1010000000009200000000000N0000000009200000201000831139120101MTZ MTZ                                                     201002261566150838A00020100226                                                                        00999
2019480057066997000999V1010000000009200000000000N0000000009200000201009110026120107BECERRA GOLLAS VICEN                                        201002261948155449A00020100226                                                                        00999
2015420057063818000999V1010000000009200000000000N0000000009200000201009110048120101CONTRERAS ESCOTO ANT                                        201002261542170412A00020100226                                                                        00999
2001730057009066000999V1010000000009200000000000N0000000009200000201009110094120104ERIC B GONZALEZ GODI                                        201002260173125239A00020100226                                                                        00999
2022850057045455000999V1010000000009200000000000N0000000009200000201009110098120100GONZALEZ RODRIGUEZ K                                        201002262285153758A00020100226                                                                        00999
2019730057014875000999V1010000000009200000000000N0000000009200000201009110109120107HERNANDEZ LOZANO JUA                                        201002261973090454A00020100226                                                                        00999
2022850057004206000999V1010000000009200000000000N0000000009200000201009310101120101DOMINGUEZ MURO ALBER                                        201002262285150929A00020100226                                                                        00999
2015610057026487000999V1010000000009200000000000N0000000009200000201009310152120109GONZALEZ TOVAR EDGAR                                        201002261561141744A00020100226                                                                        00999