2002059188038185000999V1010000000001700000000000N000000000170000000050149G168233087CARDENAS VAZQUEZ FAB                                        200907100205153335A00020090707                                                                        00999
2002059188031102000999V1010000000001700000000000N000000000170000000050164F168233089CARDENAS VAZQUEZ FAB                                        200907100205153211A00020090707                                                                        00999
2015089188093939000999V1010000000001500000000000N00000000015000000040110D6111963081SERGIO O GONZALEZ TO                                        200907101508132140A00020090707                                                                        00999
2015019188033006000999V1010000000001500000000000N00000000015000000040116E6310943089FCO DANIEL FLORES H                                         200907101501153349A00020090707                                                                        00999
2001669188062528000999V1010000000001500000000000N00000000015000000040133H5110223084BOCANEGRA RAMIREZ JO                                        200907100166125922A00020090707                                                                        00999
2015369188060565000999V1010000000001500000000000N00000000015000000040146G5110573084DAVALOS MOSQUEDA DUL                                        200907101536160053A00020090707                                                                        00999
2001739188096634000999V1010000000001500000000000N00000000015000000040151G6111473084MOISES ARROYO ALVARE                                        200907100173145427A00020090707                                                                        00999
2004989188058380000999V1010000000001500000000000N00000000015000000040163F4310093080PLASCENCIA TORRES BL                                        200907100498142119A00020090707                                                                        00999
2022859188050294000999V1010000000001500000000000N00000000015000000040164G4311523082VENEGAS ALEMAN JESSI                                        200907102285155119A00020090707                                                                        00999
2001679188034083000999V1010000000001500000000000N00000000015000000040164G4312493087YA EZ IBARRA JOSE NO                                        200907100167153600A00020090707                                                                        00999
2001739188090774000999V1010000000001500000000000N00000000015000000040164G6111473087MOISES ARROYO ALVARE                                        200907100173145301A00020090707                                                                        00999
2004989188076234000999V1010000000001500000000000N00000000015000000040166F6111013087RAMIREZ VAZQUEZ GUIL                                        200907100498114352A00020090707                                                                        00999
2001679188072363000999V1010000000001500000000000N00000000015000000040171G2311193083MAGA A MARES MANUEL                                         200907100167160657A00020090707                                                                        00999
2015019188033872000999V1010000000001500000000000N00000000015000000040180E6310943085FCO DANIEL FLORES H                                         200907101501153552A00020090707                                                                        00999
2004989188059207000999V1010000000001500000000000N00000000015000000040182E4310093080PLASCENCIA TORRES BL                                        200907100498142331A00020090707                                                                        00999
2001679188064163000999V1010000000001500000000000N00000000015000000040182G2311193080MAGA A MARES MANUEL                                         200907100167160524A00020090707                                                                        00999
2015369188061151000999V1010000000001500000000000N00000000015000000040183F5111363083FLORES ESQUEDA VICTO                                        200907101536160216A00020090707                                                                        00999
2015019188036280000999V1010000000001500000000000N00000000015000000040187G6310943089FCO DANIEL FLORES H                                         200907101501153721A00020090707                                                                        00999
2015369188069223000999V1010000000001500000000000N00000000015000000040189G5111363089FLORES ESQUEDA VICTO                                        200907101536160348A00020090707                                                                        00999
2015369188067323000999V1010000000001500000000000N00000000015000000040193K5111363080FLORES ESUQEDA VICTO                                        200907101536160447A00020090707                                                                        00999
2015429188097514000999V1010000000001500000000000N00000000015000000040193K5111633086LUNA ALVAREZ SERGIO                                         200907101542103435A00020090707                                                                        00999
2019489188015247000999V1010000000001700000000000N00000000017000000050151G4311033086ROJAS MORENO EMMANUE                                        200907101948105122A00020090707                                                                        00999
2019489188017992000999V1010000000001700000000000N00000000017000000050164F4311033080ROJAS MORENO EMMANUE                                        200907101948105305A00020090707                                                                        00999
2011379188063498000999V1010000000001500000000000N00000000015000000401CB127111463089CASTILLO PADILLA CHR                                        200907101137142820A00020090707                                                                        00999
2006449188066069000999V1010000000001500000000000N00000000015000000401CB127312173081JIMENEZ CAMACHO JOSE                                        200907100644113557A00020090707                                                                        00999
2015799188053562000999V1010000000001500000000000N00000000015000000401CB148310453085CEJA MORA ANDREA                                            200907101579155351A00020090707                                                                        00999
2006549188032714000999V1010000000001500000000000N00000000015000000401CB148311103085HERNANDEZ MEILLON BE                                        200907100654135727A00020090707                                                                        00999
2015579188091876000999V1010000000001500000000000N00000000015000000401CI118111023088MTZ GUILLEN URIEL                                           200907101557163535A00020090707                                                                        00999
2011379188060053000999V1010000000001500000000000N00000000015000000401CI127111463087CASTILLO PADILLA CHR                                        200907101137142701A00020090707                                                                        00999
2022859188066787000999V1010000000001500000000000N00000000015000000401CS128311453080MERCADO CORONA OMAR                                         200907102285143121A00020090707                                                                        00999
2015369188071149000999V1010000000001500000000000N0000000001500000040165H25111363087FLORES ESUQEDA VICTO                                        200907101536160543A00020090707                                                                        00999
2015429188099184000999V1010000000001500000000000N0000000001500000040165H25111633083LUNA ALVAREZ SERGIO                                         200907101542103606A00020090707                                                                        00999
2001679188068246000999V1010000000001500000000000N0000000001500000040182H22311193082MAGA A MARES MANUEL                                         200907100167160814A00020090707                                                                        00999
2001679188000524000999V1010000000001700000000000N00000000017000000501CB108310863088GALVEZ GOMEZ JONATHA                                        200907100167133059A00020090707                                                                        00999
2001739188034837000999V1010000000001500000000000N0000000001500000401CB1091100593088CUEVAS MARTINEZ MARC                                        200907100173093052A00020090707                                                                        00999
2005539188064558000999V1010000000001500000000000N0000000001500000401CB1091100633082DE LA ROSA MARTIN LU                                        200907100553113428A00020090707                                                                        00999
2015669188052337000999V1010000000001500000000000N0000000001500000401CB1091100793084FRANCO BECERRA JOSE                                         200907101566112311A00020090707                                                                        00999
2019489188096469000999V1010000000001500000000000N0000000001500000401CB1091101343087LOZANO RENTERIA JOSE                                        200907101948164123A00020090707                                                                        00999
2015029188003104000999V1010000000001500000000000N0000000001500000401CB1091102023084PUGA CANDELARIO ADRI                                        200907101502133109A00020090707                                                                        00999
2015429188016372000999V1010000000001500000000000N0000000001500000401CB4091100073088ALAMILLO JUAREZ MA                                          200907101542151835A00020090707                                                                        00999
2006529188012824000999V1010000000001500000000000N0000000001500000401CB4091100753085CARLOS                                                      200907100652150955A00020090707                                                                        00999
2015669188053741000999V1010000000001500000000000N0000000001500000401CB4091100793081FRANCO BECERRA JOSE                                         200907101566112358A00020090707                                                                        00999
2019739188049967000999V1010000000001500000000000N0000000001500000401CB4091101673084NARANJO ROBERTO                                             200907101973155101A00020090707                                                                        00999
2022859188060971000999V1010000000001500000000000N0000000001500000401CB4091102283081ROSAS GALAVIZ MIGUEL                                        200907102285142605A00020090707                                                                        00999
2001739188036635000999V1010000000001500000000000N0000000001500000401CB7091100593082CUEVAS MARTINEZ MARC                                        200907100173093235A00020090707                                                                        00999
2005539188061276000999V1010000000001500000000000N0000000001500000401CB7091100633086DE LA ROSA MARTIN LU                                        200907100553113142A00020090707                                                                        00999
2006529188010368000999V1010000000001500000000000N0000000001500000401CB7091100753082CARLOS                                                      200907100652151154A00020090707                                                                        00999
2015669188053050000999V1010000000001500000000000N0000000001500000401CB7091100793088FRANCO BECERRA JOSE                                         200907101566112454A00020090707                                                                        00999
2019489188097865000999V1010000000001500000000000N0000000001500000401CB7091101343081LOZANO RENTERIA JOSE                                        200907101948164257A00020090707                                                                        00999
2006529188011538000999V1010000000001500000000000N0000000001500000401CB7091101413082ROBERTO                                                     200907100652151300A00020090707                                                                        00999
2019739188051114000999V1010000000001500000000000N0000000001500000401CB7091101673081NARANJO ROBERTO                                             200907101973155203A00020090707                                                                        00999
2015029188001158000999V1010000000001500000000000N0000000001500000401CI1091100343084CARRAZCO DIAZ ALMA M                                        200907101502133208A00020090707                                                                        00999
2001739188031477000999V1010000000001500000000000N0000000001500000401CI1091100593084CUEVAS MARTINEZ MARC                                        200907100173092628A00020090707                                                                        00999
2006529188008397000999V1010000000001500000000000N0000000001500000401CI1091100753084CARLOS                                                      200907100652151114A00020090707                                                                        00999
2015669188055760000999V1010000000001500000000000N0000000001500000401CI1091100793080FRANCO BECERRA JOSE                                         200907101566112544A00020090707                                                                        00999
2019489188099981000999V1010000000001500000000000N0000000001500000401CI1091101343083LOZANO RENTERIA JOSE                                        200907101948164414A00020090707                                                                        00999
2019739188052306000999V1010000000001500000000000N0000000001500000401CI1091101673083RANJO ROBERTO                                               200907101973154940A00020090707                                                                        00999
2015429188020391000999V1010000000001500000000000N0000000001500000401CS1291100073084ALAMILLO JUAREZ MARI                                        200907101542151658A00020090707                                                                        00999
2022889189071289000999V1010000000001500000000000N00000000015000000040110D4310373087SANCHEZ IBARRA EDGAR                                        200907102288101025A00020090708                                                                        00999
2015369189003615000999V1010000000001500000000000N00000000015000000040110D5311793082ESTRELLA GONZALEZ VI                                        200907101536133523A00020090708                                                                        00999
2015129189049870000999V1010000000001500000000000N00000000015000000040110D5311953082MARTINEZ HUIZAR JAIR                                        200907101512155634A00020090708                                                                        00999
2015619189094358000999V1010000000001500000000000N00000000015000000040110D6312223087LUIS ARCINIEGA                                              200907101561103015A00020090708                                                                        00999
2001739189074578000999V1010000000001500000000000N00000000015000000040110E5110913089INFANTE TORRES SAMUE                                        200907100173101347A00020090708                                                                        00999
2015629189021349000999V1010000000001500000000000N00000000015000000040110E5311593086VELASCO GUERRERO                                            200907101562153530A00020090708                                                                        00999
2015629189025124000999V1010000000001500000000000N00000000015000000040116E5311593083VELASCO GUERRERO                                            200907101562153429A00020090708                                                                        00999
2015549189085089000999V1010000000001500000000000N00000000015000000040116E6110983087CESAR DAVID CASILLAS                                        200907101554164532A00020090708                                                                        00999
2019489189085108000999V1010000000001500000000000N00000000015000000040120E6110753086EDUARDO LOPEZ GARCIA                                        200907101948145419A00020090708                                                                        00999
2001669189096892000999V1010000000001500000000000N00000000015000000040140D6311753081HUGO ENRIQUE NU O LO                                        200907100166164816A00020090708                                                                        00999
2002059189088798000999V1010000000001500000000000N00000000015000000040140D7111043087SANCHEZ HERNANDEZ FE                                        200907100205164347A00020090708                                                                        00999
2003139189077172000999V1010000000001500000000000N00000000015000000040147G4310783088SANTANA SANCHEZ                                             200907100313144839A00020090708                                                                        00999
2003139189085824000999V1010000000001500000000000N00000000015000000040151G4310783080SANTANA SANCHEZ                                             200907100313145224A00020090708                                                                        00999
2015129189043828000999V1010000000001500000000000N00000000015000000040162E5311953083MARTINEZ HUIZAR JAIR                                        200907101512155726A00020090708                                                                        00999
2004989189049571000999V1010000000001500000000000N00000000015000000040163E5312013083MENDOZA ALVAREZ CARL                                        200907100498112054A00020090708                                                                        00999
2019749189034248000999V1010000000001500000000000N00000000015000000040163E6111373082FERNANDO REYNAGA                                            200907101974123720A00020090708                                                                        00999
2006529189011793000999V1010000000001500000000000N00000000015000000040164F3105853086HECTOR                                                      200907100652152119A00020090708                                                                        00999
2001679189081018000999V1010000000001500000000000N00000000015000000040164F6110463080VICTOR HUGO RICO OSU                                        200907100167145415A00020090708                                                                        00999
2019489189085299000999V1010000000001500000000000N00000000015000000040164F6110753084EDUARDO LOPEZ GARCIA                                        200907101948145236A00020090708                                                                        00999
2015129189046886000999V1010000000001500000000000N00000000015000000040164G4312573086RIVERA GUTIEREZ ABEL                                        200907101512155524A00020090708                                                                        00999
2015679189017221000999V1010000000001500000000000N00000000015000000040164G5310973087MERCADO AVELAR KARLA                                        200907101567152502A00020090708                                                                        00999
2001669189094605000999V1010000000001500000000000N00000000015000000040166F6311753086HUGO ENRIQUE NU O LO                                        200907100166164929A00020090708                                                                        00999
2015629189031461000999V1010000000001500000000000N00000000015000000040166F6311923085JORGE A ARREOLA                                             200907101562153815A00020090708                                                                        00999
2001739189075533000999V1010000000001500000000000N00000000015000000040180E5110913082INFANTE TORRES SAMUE                                        200907100173101452A00020090708                                                                        00999
2015629189029485000999V1010000000001500000000000N00000000015000000040180E5311593089VELASCOGUERRERO                                             200907101562153627A00020090708                                                                        00999
2015549189095413000999V1010000000001500000000000N00000000015000000040180E6110983083CEAR DAVID CASILLAS                                         200907101554164722A00020090708                                                                        00999
2003139189083000000999V1010000000001500000000000N00000000015000000040182E4310783086SANTANA SANCHEZ                                             200907100313145006A00020090708                                                                        00999
2015619189089312000999V1010000000001500000000000N00000000015000000040182E5311333086HEBERT A CUELLAR L                                          200907101561150222A00020090708                                                                        00999
2015629189025360000999V1010000000001500000000000N00000000015000000040182F6311923082JORGE A ARREOLA                                             200907101562153916A00020090708                                                                        00999
2015149189028489000999V1010000000001500000000000N00000000015000000040183F6111573085RAMON OMAR GONZALEZ                                         200907101514123104A00020090708                                                                        00999
2000209189080983000999V1010000000001500000000000N00000000015000000040183F6111863080CHRISTIAN VELASCO GO                                        200907100020114739A00020090708                                                                        00999
2015629189027958000999V1010000000001500000000000N00000000015000000040183F6311923080VELASC O GUERRERO                                           200907101562153717A00020090708                                                                        00999
2015619189010148000999V1010000000001500000000000N00000000015000000040190D7111363084ANGEL AVILA                                                 200907101561121542A00020090708                                                                        00999
2015579189006763000999V1010000000001500000000000N00000000015000000040193K4110793082HERRERA ULLOA ANGEL                                         200907101557151347A00020090708                                                                        00999
2019489189095498000999V1010000000001500000000000N00000000015000000040193K5111923081CORONADO JIMENEZ JOE                                        200907101948103322A00020090708                                                                        00999
2002059189090900000999V1010000000001700000000000N00000000017000000050110D6311893085DANIEL CERVANTES ORO                                        200907100205164516A00020090708                                                                        00999
2015149189079290000999V1010000000001700000000000N00000000017000000050110F4110603086ROMAN PRECIADO CARLO                                        200907101514131408A00020090708                                                                        00999
2022859189093716000999V1010000000001700000000000N00000000017000000050145F6110333081LOPEZ RODRIGUEZ JULI                                        200907102285132634A00020090708                                                                        00999
2019009189083805000999V1010000000001700000000000N00000000017000000050163F5310343083ZAMORA CAMARENA JAIR                                        200907101900115203A00020090708                                                                        00999
2015549189075237000999V1010000000001500000000000N00000000015000000401CB147310723083OMAR NOEL REYESLOZAN                                        200907101554101435A00020090708                                                                        00999
2015089189053120000999V1010000000001500000000000N00000000015000000401CB148112013087GOMEZ PEREZ JOSE                                            200907101508160319A00020090708                                                                        00999
2015399189090927000999V1010000000001500000000000N00000000015000000401CB148310463084CELIS FERREIRO IVAN                                         200907101539102717A00020090708                                                                        00999
2015089189051887000999V1010000000001500000000000N00000000015000000401CB148310843087GALLARDO GUTIERREZ P                                        200907101508112351A00020090708                                                                        00999
2001699189075871000999V1010000000001500000000000N00000000015000000401CB148311763086JOSE DE J PARTIDA DE                                        200907100169114601A00020090708                                                                        00999
2015129189031719000999V1010000000001500000000000N00000000015000000401CB148312243088ALEJANDRA E TORRES                                          200907101512110804A00020090708                                                                        00999
2001679189004803000999V1010000000001500000000000N00000000015000000401CB148312573088GOMEZ GONZALEZ ARMAN                                        200907100167104317A00020090708                                                                        00999
2015399189025961000999V1010000000001500000000000N00000000015000000401CB167311293084PEREZ ZARAGOZA ANDRE                                        200907101539092028A00020090708                                                                        00999
2002059189019152000999V1010000000001500000000000N00000000015000000401CB167311383083MEJIA BAUTISTA CHRIS                                        200907100205152845A00020090708                                                                        00999
2022859189079875000999V1010000000001500000000000N00000000015000000401CB168110043084MARIN AGUIRRE VALERI                                        200907102285163440A00020090708                                                                        00999
2015619189036086000999V1010000000001500000000000N00000000015000000401CB168110983081MELENDEZ TOVAR EDER                                         200907101561093218A00020090708                                                                        00999
2015619189044128000999V1010000000001500000000000N00000000015000000401CB168111703082MARTINEZ FLORES OMAR                                        200907101561094115A00020090708                                                                        00999
2001739189070634000999V1010000000001500000000000N00000000015000000401CB168111723080RUELAS ACOSTA LUCIA                                         200907100173114017A00020090708                                                                        00999
2002059189015792000999V1010000000001500000000000N00000000015000000401CB187311383081MEJIA BAUTISTA CHRIS                                        200907100205152656A00020090708                                                                        00999
2004949189081490000999V1010000000001500000000000N00000000015000000401CB207311363089PELAYO CEJA J ELIAS                                         200907100494115115A00020090708                                                                        00999
2019489189074948000999V1010000000001500000000000N00000000015000000401CB248110693086ISABEL RUIZ                                                 200907101948114244A00020090708                                                                        00999
2015089189050605000999V1010000000001500000000000N00000000015000000401CB428112013083GOMEZ PEREZ JOSE                                            200907101508160451A00020090708                                                                        00999
2006479189035571000999V1010000000001500000000000N00000000015000000401CB476312143085RICARDO SOLORZANO AG                                        200907100647140322A00020090708                                                                        00999
2004949189084178000999V1010000000001500000000000N00000000015000000401CB477311363088PELAYO CEJA J ELIAS                                         200907100494115318A00020090708                                                                        00999
2001739189099348000999V1010000000001500000000000N00000000015000000401CB477312093080CINTHIA I RUIZ LOPEZ                                        200907100173133222A00020090708                                                                        00999
2002059189013927000999V1010000000001500000000000N00000000015000000401CB487311383085MEJIA BAUTISTA CHRIS                                        200907100205152500A00020090708                                                                        00999
2001739189099072000999V1010000000001500000000000N00000000015000000401CB507311703089JUAN M VELAZQUEZ JIM                                        200907100173133122A00020090708                                                                        00999
2015619189034335000999V1010000000001500000000000N00000000015000000401CB508110983088MELENDEZ TOVAR EDER                                         200907101561092956A00020090708                                                                        00999
2001669189014771000999V1010000000001500000000000N00000000015000000401CI108311923088RIVERA RIOS ALEJANDR                                        200907100166121947A00020090708                                                                        00999
2002059189022559000999V1010000000001500000000000N00000000015000000401CI117311383086MEJIA BAUTISTA CHRIS                                        200907100205153041A00020090708                                                                        00999
2015089189054254000999V1010000000001500000000000N00000000015000000401CI118112013088GOMEZ PEREZ JOSE                                            200907101508160625A00020090708                                                                        00999
2015619189094858000999V1010000000001500000000000N00000000015000000401CI138110893083SERGIO DELGADILLO D                                         200907101561103214A00020090708                                                                        00999
2015619189044678000999V1010000000001500000000000N00000000015000000401CI138111703083MARTINEZ FLORES OMAR                                        200907101561094205A00020090708                                                                        00999
2014209189014442000999V1010000000001500000000000N00000000015000000401CI138310143081ARIAS RIVERA JORGE                                          200907101420134427A00020090708                                                                        00999
2077269189056620000999V1010000000001500000000000N00000000015000000401CS128310293081BARRAGAN DE LEON ALA                                        200907107726142422A00020090708                                                                        00999
2015579189002543000999V1010000000001500000000000N0000000001500000040165H24110793089HERRERA ULLOA ANGEL                                         200907101557151529A00020090708                                                                        00999
2001669189003777000999V1010000000001500000000000N0000000001500000040165H25312043082MEZA VALDERRAMA FELI                                        200907140166151045A00020090708                                                                        00999
2001679189017540000999V1010000000001500000000000N0000000001500000401CB1091100923087GONZALEZ ALVAREZ MON                                        200907100167091054A00020090708                                                                        00999
2004989189014253000999V1010000000001500000000000N0000000001500000401CB1091101433086MARTINEZ SAUCEDO FAB                                        200907100498152154A00020090708                                                                        00999
2015309189096120000999V1010000000001500000000000N0000000001500000401CB1091101453084MEDINA MIRAMONTES VI                                        200907101530120206A00020090708                                                                        00999
2001739189069040000999V1010000000001500000000000N0000000001500000401CB1091101843086OROZCO OLVERA JAIME                                         200907100173143614A00020090708                                                                        00999
2001679189013962000999V1010000000001500000000000N0000000001500000401CB7091100923081GONZALEZ ALVAREZ MON                                        200907100167090632A00020090708                                                                        00999
2004989189012534000999V1010000000001500000000000N0000000001500000401CB7091101433080MARTINEZ SAUCEDO FAB                                        200907100498151927A00020090708                                                                        00999
2006479189053083000999V1010000000001500000000000N0000000001500000401CB7091101693089NAVARRO GARCIA JESUS                                        200907100647095106A00020090708                                                                        00999
2001739189061936000999V1010000000001500000000000N0000000001500000401CB7091101843080OROZCO OLVERA JAIME                                         200907100173143447A00020090708                                                                        00999
2004949189036469000999V1010000000001500000000000N0000000001500000401CII167310063089ESPINOZA CISNEROS JO                                        200907100494154300A00020090708                                                                        00999
2015309189019709000999V1010000000001500000000000N0000000001500000401CII177311153086GUERRERO ULLOA MARIO                                        200907101530152741A00020090708                                                                        00999
2001679189016199000999V1010000000001500000000000N0000000001500000401CI1091100923083GOZNALEZ ALVAREZ MON                                        200907100167090909A00020090708                                                                        00999
2001739189060746000999V1010000000001500000000000N0000000001500000401CI1091101843082OROZCO OLVERA JAIME                                         200907100173143334A00020090708                                                                        00999
2005519189027554000999V1010000000001500000000000N0000000001500000401OCI156310323080FERNANDO GUTIERREZ A                                        200907100551153425A00020090708                                                                        00999
2001679189002844000999V1010000000001500000000000N0000000001500000401OCI158312573084GOMEZ GONZALEZ ARMAN                                        200907100167104138A00020090708                                                                        00999
2015119190058872000999V1010000000001500000000000N000000000150000000040110F184533088LUNA SANCHEZ VICTOR                                         200907101511150128A00020090709                                                                        00999
2015119190063671000999V1010000000001500000000000N000000000150000000040116E184533082LUNA SANCHEZ VICTOR                                         200907101511145953A00020090709                                                                        00999
2015369190020364000999V1010000000001500000000000N000000000150000000040133H170093080LUCIO NUÅEZ MARIA HA                                        200907101536160736A00020090709                                                                        00999
2015369190018995000999V1010000000001700000000000N000000000170000000050145G170093085LUCIO NUÅEZ MARIA HA                                        200907101536160606A00020090709                                                                        00999
2015119190058972000999V1010000000001700000000000N000000000170000000050145G184533084LUNA SANCHEZ VICTOR                                         200907101511145830A00020090709                                                                        00999
2001669190026179000999V1010000000001700000000000N000000000170000000050164F153773081HERMOSILLO PEREZ OCT                                        200907100166142658A00020090709                                                                        00999
2015369190025038000999V1010000000001700000000000N000000000170000000050164F170093083LUCIO NUÅEZ MARIA HA                                        200907101536160837A00020090709                                                                        00999
2015539190099659000999V1010000000001500000000000N00000000015000000040110D5110253080SAMUEL B SOLORIO                                            200907101553154503A00020090709                                                                        00999
2001679190092181000999V1010000000001500000000000N00000000015000000040110D5110673089MORA GAMEZ FRANCISCO                                        200907100167153738A00020090709                                                                        00999
2001679190048180000999V1010000000001500000000000N00000000015000000040110D5111823089GARZA OROZCO CESAR                                          200907100167164219A00020090709                                                                        00999
2015429190098388000999V1010000000001500000000000N00000000015000000040110D6310563088MIGUEL ANGEL GONZALE                                        200907101542104817A00020090709                                                                        00999
2001679190083448000999V1010000000001500000000000N00000000015000000040110D6311173085ALEJANDRO CRUZ ORNEL                                        200907100167121002A00020090709                                                                        00999
2015619190006321000999V1010000000001500000000000N00000000015000000040110D7111493087GUTIERREZ LEDEZMA GE                                        200907101561140836A00020090709                                                                        00999
2001679190094515000999V1010000000001500000000000N00000000015000000040110E5110673089MORA GAMEZ FRACISCO                                         200907100167154008A00020090709                                                                        00999
2019739190034860000999V1010000000001500000000000N00000000015000000040110F5311053081CARRASCO MIRANDA ERI                                        200907101973112319A00020090709                                                                        00999
2015619190002930000999V1010000000001500000000000N00000000015000000040111E6111323086ROBERTO FLORES BERME                                        200907101561154421A00020090709                                                                        00999
2001739190013304000999V1010000000001500000000000N00000000015000000040116D5310163086GONZALEZ PUGA ENRIQU                                        200907100173141402A00020090709                                                                        00999
2001669190090505000999V1010000000001500000000000N00000000015000000040116D6111453080JAIME CORREA VALENZU                                        200907100166134909A00020090709                                                                        00999
2006529190051486000999V1010000000001500000000000N00000000015000000040116E6310653084ALDO RODRIGO ROMAN P                                        200907100652144705A00020090709                                                                        00999
2001679190082335000999V1010000000001500000000000N00000000015000000040120D6311173084ALEJANDRO CRUZ ORNEL                                        200907100167120900A00020090709                                                                        00999
2004999190030648000999V1010000000001500000000000N00000000015000000040120E6110853084TANIA ELIZABETH SANC                                        200907100499125349A00020090709                                                                        00999
2001679190053779000999V1010000000001500000000000N00000000015000000040120F5111613083GARCIA GONZALEZ ALBE                                        200907100167163928A00020090709                                                                        00999
2015799190055300000999V1010000000001500000000000N00000000015000000040120F5111713081VAZQUEZ FLORES                                              200907101579164933A00020090709                                                                        00999
2015619190025746000999V1010000000001500000000000N00000000015000000040120F6111613081CINHIA ELIZABETH RAM                                        200907101561161341A00020090709                                                                        00999
2015619190097595000999V1010000000001500000000000N00000000015000000040133H5312113083ALBERTO BAEZ                                                200907101561153454A00020090709                                                                        00999
2001679190047809000999V1010000000001500000000000N00000000015000000040140D5111823086GARZA OROZCO CESAR                                          200907100167164307A00020090709                                                                        00999
2001679190084752000999V1010000000001500000000000N00000000015000000040140D6311173082ALEJANDRO CRUZ ORNEL                                        200907100167121111A00020090709                                                                        00999
2001679190079976000999V1010000000001500000000000N00000000015000000040140D6311843080ROBERTO GUERRERO PON                                        200907100167120648A00020090709                                                                        00999
2015369190088898000999V1010000000001500000000000N00000000015000000040140H4311253086SANCHEZ TORRES OSCAR                                        200907101536103635A00020090709                                                                        00999
2015619190097943000999V1010000000001500000000000N00000000015000000040145F6311573082GABRIELA SANCHEZ ALV                                        200907101561153916A00020090709                                                                        00999
2006499190032522000999V1010000000001500000000000N00000000015000000040145G4310353084MARTINEZ VALENZELA M                                        200907100649125653A00020090709                                                                        00999
2006499190035512000999V1010000000001500000000000N00000000015000000040145G4310963080CORTES HERRADA JUAN                                         200907100649125510A00020090709                                                                        00999
2019489190010605000999V1010000000001500000000000N00000000015000000040145G5111403085MANZO VALENCIA HECTO                                        200907101948090329A00020090709                                                                        00999
2015799190009628000999V1010000000001500000000000N00000000015000000040145G5310983085RUIZ ZARATE EDGAR                                           200907101579155613A00020090709                                                                        00999
2015619190038407000999V1010000000001500000000000N00000000015000000040145G5311783088PLASCENCIA CARDENAS                                         200907101561094021A00020090709                                                                        00999
2019009190065669000999V1010000000001500000000000N00000000015000000040145G6110153085JUAN CARLOS CERVANTE                                        200907101900101130A00020090709                                                                        00999
2001679190075530000999V1010000000001500000000000N00000000015000000040146H4110913085FERNANDEZ MORALES MI                                        200907100167133810A00020090709                                                                        00999
2001739190041625000999V1010000000001500000000000N00000000015000000040146H4311573084MARIN VARGAS ANGEL                                          200907100173144320A00020090709                                                                        00999
2015539190004847000999V1010000000001500000000000N00000000015000000040146H5110253083SAMUEL B SOLORIO                                            200907101553154616A00020090709                                                                        00999
2015399190094362000999V1010000000001500000000000N00000000015000000040147G5311543082JAUREGUI VALENZUELA                                         200907101539135555A00020090709                                                                        00999
2015399190096041000999V1010000000001500000000000N00000000015000000040147G5311543082JAUREGUI VALENZULA                                          200907101539135800A00020090709                                                                        00999
2015149190029471000999V1010000000001500000000000N00000000015000000040151G4110023083MONTANO ORTIZ CONCEP                                        200907101514161832A00020090709                                                                        00999
2005509190044234000999V1010000000001500000000000N00000000015000000040151G5111663082CHAVARIN DIAZ                                               200907100550162735A00020090709                                                                        00999
2005509190042349000999V1010000000001500000000000N00000000015000000040151G5311923088FUENTES RODRIGUEZ                                           200907100550162502A00020090709                                                                        00999
2022859190012593000999V1010000000001500000000000N00000000015000000040151G5311983082CHCA CHAVEZ FAUSTO                                          200907102285141447A00020090709                                                                        00999
2015619190006310000999V1010000000001500000000000N00000000015000000040162E7111493088GUTIERREDZ LEDEZMA G                                        200907101561140803A00020090709                                                                        00999
2004999190036373000999V1010000000001500000000000N00000000015000000040164F3311623083MORENO ESCANDON ROMA                                        200907100499130045A00020090709                                                                        00999
2006499190033968000999V1010000000001500000000000N00000000015000000040164F4310353086MARTINEZ VALENZUELA                                         200907100649125809A00020090709                                                                        00999
2006499190032855000999V1010000000001500000000000N00000000015000000040164F4310963082CORTES HERRADA JUAN                                         200907100649125557A00020090709                                                                        00999
2015669190017738000999V1010000000001500000000000N00000000015000000040164F4311863083DEREK TORRES MARTINE                                        200907101566110522A00020090709                                                                        00999
2006499190029232000999V1010000000001500000000000N00000000015000000040164F5110473081GUZMAN GARCIA LUIS E                                        200907100649125351A00020090709                                                                        00999
2001689190091115000999V1010000000001500000000000N00000000015000000040164F6111333084MARCOS RIVERA ASCENC                                        200907100168153521A00020090709                                                                        00999
2015369190084589000999V1010000000001500000000000N00000000015000000040164G2106933086NAVARRO RAMIREZ GUST                                        200907101536103236A00020090709                                                                        00999
2001679190073793000999V1010000000001500000000000N00000000015000000040164G4110913088FERNANDEZ MORALES MI                                        200907100167133640A00020090709                                                                        00999
2005509190036379000999V1010000000001500000000000N00000000015000000040164G5311923081FUENTES RODRIGUEZ                                           200907100550162611A00020090709                                                                        00999
2015619190058929000999V1010000000001500000000000N00000000015000000040164G5312343081MIGUEL A FRIAS RODRI                                        200907101561150041A00020090709                                                                        00999
2001669190087928000999V1010000000001500000000000N00000000015000000040166F6111453085JAIME CORREA VALENZU                                        200907100166135008A00020090709                                                                        00999
2022859190065312000999V1010000000001500000000000N00000000015000000040166F6311713080SALVADOR SANCHEZ SOL                                        200907102285115209A00020090709                                                                        00999
2022859190061946000999V1010000000001500000000000N00000000015000000040166F6312173086ANA ELI GLEZ VASQUEZ                                        200907102285115111A00020090709                                                                        00999
2015369190086484000999V1010000000001500000000000N00000000015000000040168H2106933087NAVARRO RAMIREZ GUST                                        200907101536103359A00020090709                                                                        00999
2015629190085113000999V1010000000001500000000000N00000000015000000040168H4111323080BALTAZAR RANGEL ALBE                                        200907101562103307A00020090709                                                                        00999
2004919190046851000999V1010000000001500000000000N00000000015000000040168H4111633082CASILLAS MONTES                                             200907100491130651A00020090709                                                                        00999
2015669190012480000999V1010000000001500000000000N00000000015000000040168H4310553081PINTO GARCIA MONSE                                          200907101566110149A00020090709                                                                        00999
2015369190097449000999V1010000000001500000000000N00000000015000000040168H4310573089LAMAS MARQUEZ CLAUDI                                        200907101536135924A00020090709                                                                        00999
2015369190087817000999V1010000000001500000000000N00000000015000000040168H4311253087SANCHEZ TORRES OSCAR                                        200907101536103526A00020090709                                                                        00999
2015619190091149000999V1010000000001500000000000N00000000015000000040171G5311753087CEJA LANDEROS JUAN G                                        200907101561135319A00020090709                                                                        00999
2015619190096748000999V1010000000001500000000000N00000000015000000040180E5311753089CEJA LANDEROS JUAN G                                        200907101561135400A00020090709                                                                        00999
2006489190005387000999V1010000000001500000000000N00000000015000000040180E6111083081CARLOS ENRIQUE HERNA                                        200907100648122952A00020090709                                                                        00999
2006529190046771000999V1010000000001500000000000N00000000015000000040180E6310653080ALDO RODRIGO ROMAN P                                        200907100652144610A00020090709                                                                        00999
2015669190016121000999V1010000000001500000000000N00000000015000000040182E4311863085DEREK TORRES MARTINE                                        200907101566110431A00020090709                                                                        00999
2001679190055245000999V1010000000001500000000000N00000000015000000040182E5111823088GARZA OROZCO CESAR                                          200907100167164118A00020090709                                                                        00999
2015619190028226000999V1010000000001500000000000N00000000015000000040182E6310913084JUAN JESUS ANTONIO G                                        200907101561125256A00020090709                                                                        00999
2002059190075108000999V1010000000001500000000000N00000000015000000040182F6111533081LOPEZ DEL C KARLA M                                         200907100205133235A00020090709                                                                        00999
2001679190015899000999V1010000000001500000000000N00000000015000000040182F6311813085ABRAHAM RODRIGUEZ AL                                        200907100167155835A00020090709                                                                        00999
2001739190064573000999V1010000000001500000000000N00000000015000000040182F6311913083JOSE MIGUEL URZUA AR                                        200907100173101123A00020090709                                                                        00999
2001679190044959000999V1010000000001500000000000N00000000015000000040183F5111613081GARCIA GONZALEZ ALBE                                        200907100167163805A00020090709                                                                        00999
2001679190057150000999V1010000000001500000000000N00000000015000000040183F5111823086GARZA OROZCO CESAR                                          200907100167164357A00020090709                                                                        00999
2002059190071468000999V1010000000001500000000000N00000000015000000040183F6111533089LOPEZ DEL C KARLA M                                         200907100205133415A00020090709                                                                        00999
2015619190028730000999V1010000000001500000000000N00000000015000000040183F6111613089CINTHIA ELIZABETH RA                                        200907101561161313A00020090709                                                                        00999
2001679190011362000999V1010000000001500000000000N00000000015000000040183F6311813083ABRAHAM RODRIGUEZ AL                                        200907100167155717A00020090709                                                                        00999
2002079190035185000999V1010000000001500000000000N00000000015000000040183F6311873087JESUS ARTURO DURAN G                                        200907100207125641A00020090709                                                                        00999
2006489190063039000999V1010000000001500000000000N00000000015000000040185F4110773082VAZQUEZ DE LA CRUZ V                                        200907100648115009A00020090709                                                                        00999
2015619190098110000999V1010000000001500000000000N00000000015000000040186E6111323088ROBERTO FLORES BERME                                        200907101561154306A00020090709                                                                        00999
2015309190073188000999V1010000000001500000000000N00000000015000000040188G4111723089RIVERA LAGUNA FER                                           200907101530151726A00020090709                                                                        00999
2015369190097676000999V1010000000001500000000000N00000000015000000040190D4110123080RETANA RODRIGUEZ MOI                                        200907101536122327A00020090709                                                                        00999
2001679190097440000999V1010000000001500000000000N00000000015000000040190D5110673081MORA GAMEZ FRANCISCO                                        200907100167153846A00020090709                                                                        00999
2015579190012478000999V1010000000001500000000000N00000000015000000040190D6111693086JORGE A VARGAS GUERR                                        200907101557123743A00020090709                                                                        00999
2015429190098533000999V1010000000001500000000000N00000000015000000040190D6310563080MIGUEL ANGEL GONZALE                                        200907101542104642A00020090709                                                                        00999
2001679190081141000999V1010000000001500000000000N00000000015000000040190D6311173087ALEJANDRO CRUZ ORNEL                                        200907100167120754A00020090709                                                                        00999
2015369190036139000999V1010000000001500000000000N00000000015000000040190D7111203082GONZALEZ JIMENEZ ISA                                        200907101536112619A00020090709                                                                        00999
2015669190032822000999V1010000000001500000000000N00000000015000000040193K3312693082MEDINA DELGADILLO JO                                        200907101566143208A00020090709                                                                        00999
2015549190095521000999V1010000000001500000000000N00000000015000000040193K4310053089JOSE ORLANDO LUNA BO                                        200907101554135657A00020090709                                                                        00999
2000209190074575000999V1010000000001500000000000N00000000015000000040193K4310693082BARRERA MEDEL RAUL A                                        200907100020151121A00020090709                                                                        00999
2005559190011677000999V1010000000001500000000000N00000000015000000040193K4312153085GONZALEZ BARAJAS ANT                                        200907100555155737A00020090709                                                                        00999
2015149190061679000999V1010000000001500000000000N00000000015000000040193K4312523089SAHAGUN MICHEL FELIP                                        200907101514165936A00020090709                                                                        00999
2015619190007565000999V1010000000001500000000000N00000000015000000040193K5110843082SAUL VALDERRAMA                                             200907101561122925A00020090709                                                                        00999
2004949190055574000999V1010000000001500000000000N00000000015000000040193K5110893087ENRIQUEZ MARTINEZ GI                                        200907090494114220A00020090709                                                                        00999
2015799190053562000999V1010000000001700000000000N00000000017000000050110D5111713089VAZQUEZ FLORES E                                            200907101579165020A00020090709                                                                        00999
2001679190073437000999V1010000000001700000000000N00000000017000000050110F4110913089FERNANDEZ MORALES MI                                        200907100167133513A00020090709                                                                        00999
2006529190026277000999V1010000000001700000000000N00000000017000000050145G5311173089LEIJA MARISCAL GERAR                                        200907100652161429A00020090709                                                                        00999
2005509190043647000999V1010000000001700000000000N00000000017000000050164F5111663083CHAVARIN DIAZ ERIK                                          200907100550162647A00020090709                                                                        00999
2006489190061472000999V1010000000001700000000000N00000000017000000050182G4110773085VAZQUEZ DE LA CRUZ V                                        200907100648114843A00020090709                                                                        00999
2006489190063188000999V1010000000001700000000000N00000000017000000050182H4110773085VAZQUEZ DE LA CRUZ V                                        200907100648115217A00020090709                                                                        00999
2001679190078998000999V1010000000001700000000000N00000000017000000050192I4110913086FERNANDES MORALES MI                                        200907100167134029A00020090709                                                                        00999
2015149190061305000999V1010000000001700000000000N00000000017000000050193K4311023088ESCOTO REYES IVAN DE                                        200907101514165905A00020090709                                                                        00999
2015579190077870000999V1010000000001500000000000N00000000015000000401CB127110733086FLORES GLEZ IVAN                                            200907101557134010A00020090709                                                                        00999
2015799190048831000999V1010000000001500000000000N00000000015000000401CB127110823085SANCHEZ ROSAS JORGE                                         200907101579095249A00020090709                                                                        00999
2004999190061597000999V1010000000001500000000000N00000000015000000401CB128110473087GONZALEZ A JOSE FRAN                                        200907100499114850A00020090709                                                                        00999
2004919190039711000999V1010000000001500000000000N00000000015000000401CB128310123086ARECHIGA LOPEZ MANUE                                        200907100491144049A00020090709                                                                        00999
2015669190095861000999V1010000000001500000000000N00000000015000000401CB128310403082LUIS FERNANDO SINAY                                         200907101566154146A00020090709                                                                        00999
2015669190029051000999V1010000000001500000000000N00000000015000000401CB128310563083HUGO JAVIER COSS Y L                                        200907101566124915A00020090709                                                                        00999
2005519190070588000999V1010000000001500000000000N00000000015000000401CB128310663081DELGADO CARDONA CARL                                        200907100551115620A00020090709                                                                        00999
2015369190001879000999V1010000000001500000000000N00000000015000000401CB128310903081GARCIA NUÅO CESAR AL                                        200907101536122634A00020090709                                                                        00999
2004919190041687000999V1010000000001500000000000N00000000015000000401CB128311143083HERRERA TORRES EDGAR                                        200907100491144244A00020090709                                                                        00999
2001699190033243000999V1010000000001500000000000N00000000015000000401CB128311763088J DE JESUS PARTIDA                                          200907100169112122A00020090709                                                                        00999
2004949190078049000999V1010000000001500000000000N00000000015000000401CB128311893083RAMOS COMPARAN VICTO                                        200907100494102424A00020090709                                                                        00999
2006449190059465000999V1010000000001500000000000N00000000015000000401CB128312103086SANCHEZ NARANJO HUGO                                        200907100644150132A00020090709                                                                        00999
2002059190042700000999V1010000000001500000000000N00000000015000000401CB128312513086HERNANDEZ HERNANDEZ                                         200907100205163343A00020090709                                                                        00999
2015579190076586000999V1010000000001500000000000N00000000015000000401CB147110733084FLORES GLEZ IVAN                                            200907101557133808A00020090709                                                                        00999
2015119190030632000999V1010000000001500000000000N00000000015000000401CB148110023088GUTIERREZ MONTOYA JA                                        200907101511143221A00020090709                                                                        00999
2077159190077846000999V1010000000001500000000000N00000000015000000401CB148310013087ABARCA NUÅEZ ALFREDO                                        200907107715120446A00020090709                                                                        00999
2005519190066252000999V1010000000001500000000000N00000000015000000401CB148310663089DELGADO CARDONA CARL                                        200907100551115344A00020090709                                                                        00999
2004919190043331000999V1010000000001500000000000N00000000015000000401CB148311143081HERRERA TORRES EDGAR                                        200907100491144433A00020090709                                                                        00999
2003139190057890000999V1010000000001500000000000N00000000015000000401CB148311183087JIMENEZ CHAVEZ EDUAR                                        200907090313145931A00020090709                                                                        00999
2001739190036067000999V1010000000001500000000000N00000000015000000401CB148311353086MADRIGAL OLVERA SAMU                                        200907100173143659A00020090709                                                                        00999
2019749190053148000999V1010000000001500000000000N00000000015000000401CB148311843086PEREZ URZUA HUGO ALO                                        200907101974145237A00020090709                                                                        00999
2004949190077083000999V1010000000001500000000000N00000000015000000401CB148311893081RAMOS COMPARAN VICTO                                        200907100494102542A00020090709                                                                        00999
2015629190023592000999V1010000000001500000000000N00000000015000000401CB148312423086VILLASE OR SUAREZ  E                                        200907101562124804A00020090709                                                                        00999
2002059190037513000999V1010000000001500000000000N00000000015000000401CB148312513084HERNANDEZ HERNANDEZ                                         200907100205163010A00020090709                                                                        00999
2003139190045436000999V1010000000001500000000000N00000000015000000401CB148312533082GIRON HURTADO ADOLFO                                        200907100313144111A00020090709                                                                        00999
2005509190041195000999V1010000000001500000000000N00000000015000000401CB167110543085PE A LOPEZ                                                  200907100550162336A00020090709                                                                        00999
2001679190083169000999V1010000000001500000000000N00000000015000000401CB167110763089TORRES MARTIN JOSE A                                        200907100167103106A00020090709                                                                        00999
2015679190008780000999V1010000000001500000000000N00000000015000000401CB167111383085OLIVA PROA JOSE ANGE                                        200907101567155436A00020090709                                                                        00999
2015799190031649000999V1010000000001500000000000N00000000015000000401CB167312183086CUEVAS ESCARENO                                             200907101579125606A00020090709                                                                        00999
2015669190085418000999V1010000000001500000000000N00000000015000000401CB168110573080ZABDIEL VERGARA OROZ                                        200907101566120948A00020090709                                                                        00999
2015399190005083000999V1010000000001500000000000N00000000015000000401CB168111573089VALERIO LAMAS                                               200907101539123055A00020090709                                                                        00999
2015799190050100000999V1010000000001500000000000N00000000015000000401CB187110823089SANCHEZ ROSAS JORGE                                         200907101579095343A00020090709                                                                        00999
2015799190032111000999V1010000000001500000000000N00000000015000000401CB187312183084CUEVAS ESCARENO SALV                                        200907101579125520A00020090709                                                                        00999
2005509190035418000999V1010000000001500000000000N00000000015000000401CB188111403087MORA GONZALEZ                                               200907100550162732A00020090709                                                                        00999
2003139190037788000999V1010000000001500000000000N00000000015000000401CB207310563085SEGOVIA MARTINEZ JUA                                        200907100313112757A00020090709                                                                        00999
2015799190032551000999V1010000000001500000000000N00000000015000000401CB207311313084GARCIA ARRIAZA JOSUE                                        200907101579125538A00020090709                                                                        00999
2004919190031844000999V1010000000001500000000000N00000000015000000401CB207311563084OROZCO PALMA RAFAEL                                         200907100491143326A00020090709                                                                        00999
2022889190001049000999V1010000000001500000000000N00000000015000000401CB207311833081MORENO BRAVO CARLOS                                         200907102288140248A00020090709                                                                        00999
2001639190043384000999V1010000000001500000000000N00000000015000000401CB207311843080VAZQUEZ ARAMBULA RAM                                        200907100163144651A00020090709                                                                        00999
2015429190042063000999V1010000000001500000000000N00000000015000000401CB207312073083JIMENEZ FARIAS LUIS                                         200907101542130241A00020090709                                                                        00999
2003139190038719000999V1010000000001500000000000N00000000015000000401CB408312533080GIRON HURTADO ADOLFO                                        200907100313143950A00020090709                                                                        00999
2015579190081687000999V1010000000001500000000000N00000000015000000401CB447110733088FLORES GLEZ IVAN                                            200907101557133910A00020090709                                                                        00999
2004999190058343000999V1010000000001500000000000N00000000015000000401CB448110473089GONZALEZ A JOSE FRAN                                        200907100499114743A00020090709                                                                        00999
2002379190087782000999V1010000000001500000000000N00000000015000000401CB477310853089CHAVEZ CARILLO MARCO                                        200907100237121354A00020090709                                                                        00999
2015439190011298000999V1010000000001500000000000N00000000015000000401CB477311253081LOPEZ CARDONA ALFRED                                        200907101543141329A00020090709                                                                        00999
2004919190038681000999V1010000000001500000000000N00000000015000000401CB477311563083OROZCO PALMA RAFAEL                                         200907100491143423A00020090709                                                                        00999
2002059190018326000999V1010000000001500000000000N00000000015000000401CB477311723083OSCAR ANTONIO ZAVALA                                        200907100205141948A00020090709                                                                        00999
2001679190077565000999V1010000000001500000000000N00000000015000000401CB477311783087GUERRERO PONCE OMAR                                         200907100167120549A00020090709                                                                        00999
2022889190000777000999V1010000000001500000000000N00000000015000000401CB477311833080MORNO BRAVO CARLOS                                          200907102288140155A00020090709                                                                        00999
2001639190049981000999V1010000000001500000000000N00000000015000000401CB477311843089VAZQUEZ ARAMBULA RAM                                        200907100163144532A00020090709                                                                        00999
2004999190017120000999V1010000000001500000000000N00000000015000000401CB477311903081QUINTO MARTINEZ ARTU                                        200907100499141800A00020090709                                                                        00999
2015669190095135000999V1010000000001500000000000N00000000015000000401CB708310403081LUIS FERNANDO SINAY                                         200907101566154043A00020090709                                                                        00999
2015119190029462000999V1010000000001500000000000N00000000015000000401CI108110023080GUTIERREZ MONTOYA JA                                        200907101511143057A00020090709                                                                        00999
2019749190051517000999V1010000000001500000000000N00000000015000000401CI108311843088PEREZ URZUA HUGO ALO                                        200907101974145340A00020090709                                                                        00999
2015029190041730000999V1010000000001500000000000N00000000015000000401CI117310333082BARAJAS RIZO RODRIGO                                        200907101502112930A00020090709                                                                        00999
2001699190000786000999V1010000000001500000000000N00000000015000000401CI118311493081URIEL MIRANDA                                               200907100169122312A00020090709                                                                        00999
2002059190038935000999V1010000000001500000000000N00000000015000000401CI118311553082MORALES GONZALEZ DAM                                        200907100205163036A00020090709                                                                        00999
2002059190043924000999V1010000000001500000000000N00000000015000000401CI118312513085HERNANDEZ HERNANDEZ                                         200907100205163210A00020090709                                                                        00999
2015619190035482000999V1010000000001500000000000N00000000015000000401CI127310593080SUAREZ LARA GABRIEL                                         200907101561125946A00020090709                                                                        00999
2015439190065219000999V1010000000001500000000000N00000000015000000401CI128111463085HERNANDEZ ZARATE                                            200907101543150751A00020090709                                                                        00999
2015399190010326000999V1010000000001500000000000N00000000015000000401CI128111573081VALERIO LAMAS FELIPE                                        200907101539123335A00020090709                                                                        00999
2015679190010092000999V1010000000001500000000000N00000000015000000401CI137111383086OLIVA PROA JOSE ANGE                                        200907101567155554A00020090709                                                                        00999
2015219190039731000999V1010000000001500000000000N00000000015000000401CI138111413089OLIVA NAVARRO EDGAR                                         200907101521130032A00020090709                                                                        00999
2015439190065206000999V1010000000001500000000000N00000000015000000401CI138111463084HERNANDEZ ZARATE                                            200907101543150720A00020090709                                                                        00999
2001699190098040000999V1010000000001500000000000N00000000015000000401CI138311493089URIEL MIRANDA                                               200907100169122158A00020090709                                                                        00999
2015119190000903000999V1010000000001500000000000N00000000015000000401CI138311863083PLASCECIA NUNEZ SERG                                        200907101511122319A00020090709                                                                        00999
2015579190078806000999V1010000000001500000000000N00000000015000000401CI177110733089FLORES GLEZ IVAN                                            200907101557134108A00020090709                                                                        00999
2001669190023678000999V1010000000001500000000000N00000000015000000401CI177310953081GARIBAY S H BENJAMIN                                        200907100166142241A00020090709                                                                        00999
2019749190049944000999V1010000000001500000000000N00000000015000000401CS128311843082PEREZ URZUA HUGO ALO                                        200907101974145132A00020090709                                                                        00999
2015309190072949000999V1010000000001500000000000N0000000001500000040147H24111723088RIVERA LAGUNA                                               200907101530151621A00020090709                                                                        00999
2015669190030255000999V1010000000001500000000000N0000000001500000040165H23312693089MEDINA DELGADILLO JO                                        200907101566143115A00020090709                                                                        00999
2015309190081258000999V1010000000001500000000000N0000000001500000040165H24111723085RIVERA LAGUNA FER                                           200907101530151822A00020090709                                                                        00999
2015549190093216000999V1010000000001500000000000N0000000001500000040165H24310053086JOSE ORLANDO LUNA BO                                        200907101554135511A00020090709                                                                        00999
2015149190062337000999V1010000000001500000000000N0000000001500000040165H24312523086SAHAGUN MICHEL FELIP                                        200907101514170040A00020090709                                                                        00999
2015619190002613000999V1010000000001500000000000N0000000001500000040165H25110843089SAUL VALDERRAMA                                             200907101561122823A00020090709                                                                        00999
2004949190054179000999V1010000000001500000000000N0000000001500000040165H25110893084ENRIQUEZ MARTINEZ GI                                        200907090494114345A00020090709                                                                        00999
2015539190069114000999V1010000000001700000000000N00000000017000000501CB108310673081DELGADO GUZMAN GERAR                                        200907101553115737A00020090709                                                                        00999
2001739190082505000999V1010000000001700000000000N00000000017000000501CB148110953085GONZALEZ RODRIGUEZ H                                        200907100173151942A00020090709                                                                        00999
2015619190098270000999V1010000000001700000000000N00000000017000000501CB427312233086ALEJANDRO CEDANO                                            200907101561122448A00020090709                                                                        00999
2015549190070202000999V1010000000001700000000000N00000000017000000501CI117310723083REYES LOZANO OMAR NO                                        200907101554115726A00020090709                                                                        00999
2015079190019289000999V1010000000001700000000000N00000000017000000501CI127311733080ARANA YEPEZ IVAN SAL                                        200907101507160730A00020090709                                                                        00999
2002059190005132000999V1010000000001500000000000N0000000001500000401CB1091100243080BARTOLOME HOYOS MARI                                        200907100205154303A00020090709                                                                        00999
2005539190078339000999V1010000000001500000000000N0000000001500000401CB1091100313081CALVO CORAL RAQUEL                                          200907100553152136A00020090709                                                                        00999
2015619190050613000999V1010000000001500000000000N0000000001500000401CB1091100443086CERVANTES VELAZQUEDZ                                        200907101561095534A00020090709                                                                        00999
2015619190050284000999V1010000000001500000000000N0000000001500000401CB1091101243089ALEJANDRO LOMELI                                            200907101561113745A00020090709                                                                        00999
2019489190044346000999V1010000000001500000000000N0000000001500000401CB1091101583088MORENO GARCIA JOSAFA                                        200907101948130807A00020090709                                                                        00999
2001739190058963000999V1010000000001500000000000N0000000001500000401CB1091101623082MUNGUIA JIMENEZ HIRA                                        200907100173150133A00020090709                                                                        00999
2015029190096359000999V1010000000001500000000000N0000000001500000401CB1091101793083OLIVARES JIMENEZ DAN                                        200907101502135816A00020090709                                                                        00999
2001639190042290000999V1010000000001500000000000N0000000001500000401CB1091101933085PENA HERNANDEZ DANIE                                        200907100163144324A00020090709                                                                        00999
2015269190032624000999V1010000000001500000000000N0000000001500000401CB1091102363084SALAZAR OROZCO JESUS                                        200907101526143411A00020090709                                                                        00999
2015679190019037000999V1010000000001500000000000N0000000001500000401CB1091102413087SANCHEZ SOLIS EMMANU                                        200907101567110729A00020090709                                                                        00999
2004989190093969000999V1010000000001500000000000N0000000001500000401CB1091102533082TRINIDAD PEREZ ESBRE                                        200907100498153927A00020090709                                                                        00999
2015619190049763000999V1010000000001500000000000N0000000001500000401CB4091100443083CERVANTES VELAZQUEZ                                         200907101561095500A00020090709                                                                        00999
2015219190007969000999V1010000000001500000000000N0000000001500000401CB4091100813087GALVAN GONZALEZ HUMB                                        200907101521154946A00020090709                                                                        00999
2001739190064298000999V1010000000001500000000000N0000000001500000401CB4091101623089MUNGUIA JIMENEZ HIRA                                        200907100173150401A00020090709                                                                        00999
2015669190082112000999V1010000000001500000000000N0000000001500000401CB4091101903085DANIEL EDUARDO PEDRA                                        200907101566120659A00020090709                                                                        00999
2006479190075299000999V1010000000001500000000000N0000000001500000401CB4091102323085RUIZ SIERRA ENRIQUE                                         200907100647151936A00020090709                                                                        00999
2002059190099287000999V1010000000001500000000000N0000000001500000401CB7091100243084BARTOLOME HOYOS MARI                                        200907100205154515A00020090709                                                                        00999
2015619190050002000999V1010000000001500000000000N0000000001500000401CB7091100443080CERVANTES VELAZQUEZ                                         200907101561095424A00020090709                                                                        00999
2015579190081510000999V1010000000001500000000000N0000000001500000401CB7091100683081DE MIGUEL GONZALEZ S                                        200907101557120933A00020090709                                                                        00999
2077409190063027000999V1010000000001500000000000N0000000001500000401CB7091100703087DIAZ LEON JOSE LUIS                                         200907107740165953A00020090709                                                                        00999
2005519190028934000999V1010000000001500000000000N0000000001500000401CB7091100723085DOMIGUEZ SEVILLA HEC                                        200907100551143148A00020090709                                                                        00999
2001739190064135000999V1010000000001500000000000N0000000001500000401CB7091101623086MINGUIA JIMENEZ HIRA                                        200907100173150024A00020090709                                                                        00999
2015029190095109000999V1010000000001500000000000N0000000001500000401CB7091101793087OLIVARES JIMENEZ DAN                                        200907101502135704A00020090709                                                                        00999
2002059190099559000999V1010000000001500000000000N0000000001500000401CB7091102293087EDGAR RUELAS HERNAND                                        200907100205154433A00020090709                                                                        00999
2015269190031472000999V1010000000001500000000000N0000000001500000401CB7091102363088SALAZAR OROZCO JESUS                                        200907101526143241A00020090709                                                                        00999
2015619190039604000999V1010000000001500000000000N0000000001500000401CIE247310593086SUAREZ LARA GABRIEL                                         200907101561130028A00020090709                                                                        00999
2015119190098091000999V1010000000001500000000000N0000000001500000401CIE248311863080PLASCENCIA NUNEZ SER                                        200907101511122201A00020090709                                                                        00999
2001699190091800000999V1010000000001500000000000N0000000001500000401CII166310583088EDGAR ADAME                                                 200907100169152926A00020090709                                                                        00999
2001699190041948000999V1010000000001500000000000N0000000001500000401CII167310103083LUIS F CARDENAS GONZ                                        200907100169130631A00020090709                                                                        00999
2015619190099535000999V1010000000001500000000000N0000000001500000401CII167310823086OMAR A FLORES BERME                                         200907101561154529A00020090709                                                                        00999
2015619190001029000999V1010000000001500000000000N0000000001500000401CII467310823080OMAR A FLORES BERME                                         200907101561154650A00020090709                                                                        00999
2002059190002665000999V1010000000001500000000000N0000000001500000401CI1091100243086BARTOLOME HOYOS MARI                                        200909100205154404A00020090709                                                                        00999
2015619190049483000999V1010000000001500000000000N0000000001500000401CI1091100443082CERVANTES VELAZQUEZ                                         200907101561095335A00020090709                                                                        00999
2015089190080423000999V1010000000001500000000000N0000000001500000401CI1091100583085CRUZ MARTINEZ MARCO                                         200907101508133922A00020090709                                                                        00999
2005519190032936000999V1010000000001500000000000N0000000001500000401CI1091100723087DOMINGUEZ SEVILLA HE                                        200907100551143417A00020090709                                                                        00999
2004999190058636000999V1010000000001500000000000N0000000001500000401CI1091100763083FLORES FLORES ALBERT                                        200907100499150236A00020090709                                                                        00999
2015219190012825000999V1010000000001500000000000N0000000001500000401CI1091100813086GALVAN GLEZ HUMB                                            200907101521155104A00020090709                                                                        00999
2015619190048758000999V1010000000001500000000000N0000000001500000401CI1091101243085ALEJANDRO LOMELI                                            200907101561113636A00020090709                                                                        00999
2019489190045740000999V1010000000001500000000000N0000000001500000401CI1091101583084MORENO GRCIA JOSAFA                                         200907101948130958A00020090709                                                                        00999
2015669190081588000999V1010000000001500000000000N0000000001500000401CI1091101903084DANIEL EDUARDO PEDRA                                        200907101566120819A00020090709                                                                        00999
2022889190017122000999V1010000000001500000000000N0000000001500000401CI1091101943080PEREZ BARRAGAN ERIC                                         200907102288141936A00020090709                                                                        00999
2001699190083190000999V1010000000001500000000000N0000000001500000401CI1091102053087ANGEL E QUINTERO                                            200907100169152354A00020090709                                                                        00999
2015269190035490000999V1010000000001500000000000N0000000001500000401CI1091102363080SALAZAR OROZCO JESUS                                        200907101526143124A00020090709                                                                        00999
2015679190018734000999V1010000000001500000000000N0000000001500000401CI1091102413083SANCHEZ SOLIS EMMANU                                        200907101567110637A00020090709                                                                        00999
2015669190087678000999V1010000000001500000000000N0000000001500000401CI1091102453089MARIA GUADALUPE SEDA                                        200907101566134435A00020090709                                                                        00999
2015619190051209000999V1010000000001500000000000N0000000001500000401CS1291101243082ALEJANDRO LOMELI                                            200907101561113843A00020090709                                                                        00999
2001699190016112000999V1010000000001500000000000N0000000001500000401OCI158110763085ISAI DURON ARELLANO                                         200907100169091133A00020090709                                                                        00999
2004919191089831000999V1010000000001500000000000N000000000150000000040110F187013088VILLALOBOS ALDO IRVI                                        200907100491162842A00020090710                                                                        00999
2022859191032108000999V1050000000001500000000000N000000000150000000040190D176063089GARCIA MENDOZA JOSE                                         200907102285124324A00020090710                                                                        00999
2000209191090550000999V1010000000001500000000000N000000000150000000401CB24111733089LOZA BALDERAS RICARD                                        200907100020145909A00020090710                                                                        00999
2000209191006671000999V1010000000001500000000000N00000000015000000040110D5311293083HERNANDEZ PEREZ LUIS                                        200907100020151254A00020090710                                                                        00999
2015269191012267000999V1010000000001500000000000N00000000015000000040110D6110263087JESUS ALEJANDRO CHAV                                        200907101526105529A00020090710                                                                        00999
2004999191001798000999V1010000000001500000000000N00000000015000000040110D6110373084FERNANDO HUMBERTO GO                                        200907100499104622A00020090710                                                                        00999
2004999191073765000999V1010000000001500000000000N00000000015000000040110D6111883081ALEJANDRO ROMO R.                                           200907100499101839A00020090710                                                                        00999
2001739191012709000999V1010000000001500000000000N00000000015000000040110D6310973089CESAR ARTURO MORENO                                         200907100173122405A00020090710                                                                        00999
2001739191066839000999V1010000000001500000000000N00000000015000000040110D6311993086JOSE RICARDO TORRES                                         200907100173143658A00020090710                                                                        00999
2004989191029315000999V1010000000001500000000000N00000000015000000040110D6312373080DARIO ENRIQUE FLORES                                        200907100498123917A00020090710                                                                        00999
2002059191097022000999V1010000000001500000000000N00000000015000000040110D7110443083MARTINEZ CORONA ALEJ                                        200907100205104037A00020090710                                                                        00999
2004949191026429000999V1010000000001500000000000N00000000015000000040110D7111403086MENDOZA LUNA OSWALDO                                        200907100494170243A00020090710                                                                        00999
2015019191034258000999V1010000000001500000000000N00000000015000000040110E4311833089FRAUSTO RODRIGUEZ AN                                        200907101501153338A00020090710                                                                        00999
2003139191000855000999V1010000000001500000000000N00000000015000000040110E5110833089CASTILLO MORALES MAR                                        200907100313104529A00020090710                                                                        00999
2015669191095751000999V1010000000001500000000000N00000000015000000040110E5310593087CORTES MORALES GILBE                                        200907101566150201A00020090710                                                                        00999
2006479191002902000999V1010000000001500000000000N00000000015000000040110E5311473081CARDENAS DURAN                                              200907100647134153A00020090710                                                                        00999
2015269191015329000999V1010000000001500000000000N00000000015000000040110E6110263087JESUS ALEJANDRO CHAV                                        200907101526105849A00020090710                                                                        00999
2003139191086913000999V1010000000001500000000000N00000000015000000040110F5111163080ZARZOZA CHAVEZ JORGE                                        200907100313132930A00020090710                                                                        00999
2002389191033765000999V1010000000001500000000000N00000000015000000040110F5310463083DIAZ HERNANDEZ MARIA                                        200907100238140626A00020090710                                                                        00999
2015679191091591000999V1010000000001500000000000N00000000015000000040110F5311213081MIGUEL ANGEL FERNAND                                        200907101567145841A00020090710                                                                        00999
2019009191048842000999V1010000000001500000000000N00000000015000000040110F6111023084FCO OSWALDO RAMIREZ                                         200907101900112915A00020090710                                                                        00999
2019009191056452000999V1010000000001500000000000N00000000015000000040116D5110693084SALMERON CRUZ ELI                                           200907101900155550A00020090710                                                                        00999
